{
	"contract-1221c7c9fb.sol": {
		"TogoToken": {
			"abi": [
				{
					"inputs": [],
					"stateMutability": "nonpayable",
					"type": "constructor"
				},
				{
					"anonymous": false,
					"inputs": [
						{
							"indexed": false,
							"internalType": "address",
							"name": "previousAdmin",
							"type": "address"
						},
						{
							"indexed": false,
							"internalType": "address",
							"name": "newAdmin",
							"type": "address"
						}
					],
					"name": "AdminChanged",
					"type": "event"
				},
				{
					"anonymous": false,
					"inputs": [
						{
							"indexed": true,
							"internalType": "address",
							"name": "owner",
							"type": "address"
						},
						{
							"indexed": true,
							"internalType": "address",
							"name": "spender",
							"type": "address"
						},
						{
							"indexed": false,
							"internalType": "uint256",
							"name": "value",
							"type": "uint256"
						}
					],
					"name": "Approval",
					"type": "event"
				},
				{
					"anonymous": false,
					"inputs": [
						{
							"indexed": true,
							"internalType": "address",
							"name": "beacon",
							"type": "address"
						}
					],
					"name": "BeaconUpgraded",
					"type": "event"
				},
				{
					"anonymous": false,
					"inputs": [
						{
							"indexed": false,
							"internalType": "uint8",
							"name": "version",
							"type": "uint8"
						}
					],
					"name": "Initialized",
					"type": "event"
				},
				{
					"anonymous": false,
					"inputs": [
						{
							"indexed": true,
							"internalType": "address",
							"name": "previousOwner",
							"type": "address"
						},
						{
							"indexed": true,
							"internalType": "address",
							"name": "newOwner",
							"type": "address"
						}
					],
					"name": "OwnershipTransferred",
					"type": "event"
				},
				{
					"anonymous": false,
					"inputs": [
						{
							"indexed": true,
							"internalType": "address",
							"name": "from",
							"type": "address"
						},
						{
							"indexed": true,
							"internalType": "address",
							"name": "to",
							"type": "address"
						},
						{
							"indexed": false,
							"internalType": "uint256",
							"name": "value",
							"type": "uint256"
						}
					],
					"name": "Transfer",
					"type": "event"
				},
				{
					"anonymous": false,
					"inputs": [
						{
							"indexed": true,
							"internalType": "address",
							"name": "implementation",
							"type": "address"
						}
					],
					"name": "Upgraded",
					"type": "event"
				},
				{
					"inputs": [
						{
							"internalType": "address",
							"name": "owner",
							"type": "address"
						},
						{
							"internalType": "address",
							"name": "spender",
							"type": "address"
						}
					],
					"name": "allowance",
					"outputs": [
						{
							"internalType": "uint256",
							"name": "",
							"type": "uint256"
						}
					],
					"stateMutability": "view",
					"type": "function"
				},
				{
					"inputs": [
						{
							"internalType": "address",
							"name": "spender",
							"type": "address"
						},
						{
							"internalType": "uint256",
							"name": "amount",
							"type": "uint256"
						}
					],
					"name": "approve",
					"outputs": [
						{
							"internalType": "bool",
							"name": "",
							"type": "bool"
						}
					],
					"stateMutability": "nonpayable",
					"type": "function"
				},
				{
					"inputs": [
						{
							"internalType": "address",
							"name": "account",
							"type": "address"
						}
					],
					"name": "balanceOf",
					"outputs": [
						{
							"internalType": "uint256",
							"name": "",
							"type": "uint256"
						}
					],
					"stateMutability": "view",
					"type": "function"
				},
				{
					"inputs": [],
					"name": "decimals",
					"outputs": [
						{
							"internalType": "uint8",
							"name": "",
							"type": "uint8"
						}
					],
					"stateMutability": "view",
					"type": "function"
				},
				{
					"inputs": [
						{
							"internalType": "address",
							"name": "spender",
							"type": "address"
						},
						{
							"internalType": "uint256",
							"name": "subtractedValue",
							"type": "uint256"
						}
					],
					"name": "decreaseAllowance",
					"outputs": [
						{
							"internalType": "bool",
							"name": "",
							"type": "bool"
						}
					],
					"stateMutability": "nonpayable",
					"type": "function"
				},
				{
					"inputs": [
						{
							"internalType": "address",
							"name": "spender",
							"type": "address"
						},
						{
							"internalType": "uint256",
							"name": "addedValue",
							"type": "uint256"
						}
					],
					"name": "increaseAllowance",
					"outputs": [
						{
							"internalType": "bool",
							"name": "",
							"type": "bool"
						}
					],
					"stateMutability": "nonpayable",
					"type": "function"
				},
				{
					"inputs": [],
					"name": "initialize",
					"outputs": [],
					"stateMutability": "nonpayable",
					"type": "function"
				},
				{
					"inputs": [],
					"name": "name",
					"outputs": [
						{
							"internalType": "string",
							"name": "",
							"type": "string"
						}
					],
					"stateMutability": "view",
					"type": "function"
				},
				{
					"inputs": [],
					"name": "owner",
					"outputs": [
						{
							"internalType": "address",
							"name": "",
							"type": "address"
						}
					],
					"stateMutability": "view",
					"type": "function"
				},
				{
					"inputs": [],
					"name": "proxiableUUID",
					"outputs": [
						{
							"internalType": "bytes32",
							"name": "",
							"type": "bytes32"
						}
					],
					"stateMutability": "view",
					"type": "function"
				},
				{
					"inputs": [],
					"name": "renounceOwnership",
					"outputs": [],
					"stateMutability": "nonpayable",
					"type": "function"
				},
				{
					"inputs": [],
					"name": "symbol",
					"outputs": [
						{
							"internalType": "string",
							"name": "",
							"type": "string"
						}
					],
					"stateMutability": "view",
					"type": "function"
				},
				{
					"inputs": [],
					"name": "totalSupply",
					"outputs": [
						{
							"internalType": "uint256",
							"name": "",
							"type": "uint256"
						}
					],
					"stateMutability": "view",
					"type": "function"
				},
				{
					"inputs": [
						{
							"internalType": "address",
							"name": "to",
							"type": "address"
						},
						{
							"internalType": "uint256",
							"name": "amount",
							"type": "uint256"
						}
					],
					"name": "transfer",
					"outputs": [
						{
							"internalType": "bool",
							"name": "",
							"type": "bool"
						}
					],
					"stateMutability": "nonpayable",
					"type": "function"
				},
				{
					"inputs": [
						{
							"internalType": "address",
							"name": "from",
							"type": "address"
						},
						{
							"internalType": "address",
							"name": "to",
							"type": "address"
						},
						{
							"internalType": "uint256",
							"name": "amount",
							"type": "uint256"
						}
					],
					"name": "transferFrom",
					"outputs": [
						{
							"internalType": "bool",
							"name": "",
							"type": "bool"
						}
					],
					"stateMutability": "nonpayable",
					"type": "function"
				},
				{
					"inputs": [
						{
							"internalType": "address",
							"name": "newOwner",
							"type": "address"
						}
					],
					"name": "transferOwnership",
					"outputs": [],
					"stateMutability": "nonpayable",
					"type": "function"
				},
				{
					"inputs": [
						{
							"internalType": "address",
							"name": "newImplementation",
							"type": "address"
						}
					],
					"name": "upgradeTo",
					"outputs": [],
					"stateMutability": "nonpayable",
					"type": "function"
				},
				{
					"inputs": [
						{
							"internalType": "address",
							"name": "newImplementation",
							"type": "address"
						},
						{
							"internalType": "bytes",
							"name": "data",
							"type": "bytes"
						}
					],
					"name": "upgradeToAndCall",
					"outputs": [],
					"stateMutability": "payable",
					"type": "function"
				}
			],
			"devdoc": {
				"kind": "dev",
				"methods": {
					"allowance(address,address)": {
						"details": "See {IERC20-allowance}."
					},
					"approve(address,uint256)": {
						"details": "See {IERC20-approve}. NOTE: If `amount` is the maximum `uint256`, the allowance is not updated on `transferFrom`. This is semantically equivalent to an infinite approval. Requirements: - `spender` cannot be the zero address."
					},
					"balanceOf(address)": {
						"details": "See {IERC20-balanceOf}."
					},
					"constructor": {
						"custom:oz-upgrades-unsafe-allow": "constructor"
					},
					"decimals()": {
						"details": "Returns the number of decimals used to get its user representation. For example, if `decimals` equals `2`, a balance of `505` tokens should be displayed to a user as `5.05` (`505 / 10 ** 2`). Tokens usually opt for a value of 18, imitating the relationship between Ether and Wei. This is the value {ERC20} uses, unless this function is overridden; NOTE: This information is only used for _display_ purposes: it in no way affects any of the arithmetic of the contract, including {IERC20-balanceOf} and {IERC20-transfer}."
					},
					"decreaseAllowance(address,uint256)": {
						"details": "Atomically decreases the allowance granted to `spender` by the caller. This is an alternative to {approve} that can be used as a mitigation for problems described in {IERC20-approve}. Emits an {Approval} event indicating the updated allowance. Requirements: - `spender` cannot be the zero address. - `spender` must have allowance for the caller of at least `subtractedValue`."
					},
					"increaseAllowance(address,uint256)": {
						"details": "Atomically increases the allowance granted to `spender` by the caller. This is an alternative to {approve} that can be used as a mitigation for problems described in {IERC20-approve}. Emits an {Approval} event indicating the updated allowance. Requirements: - `spender` cannot be the zero address."
					},
					"name()": {
						"details": "Returns the name of the token."
					},
					"owner()": {
						"details": "Returns the address of the current owner."
					},
					"proxiableUUID()": {
						"details": "Implementation of the ERC1822 {proxiableUUID} function. This returns the storage slot used by the implementation. It is used to validate the implementation's compatibility when performing an upgrade. IMPORTANT: A proxy pointing at a proxiable contract should not be considered proxiable itself, because this risks bricking a proxy that upgrades to it, by delegating to itself until out of gas. Thus it is critical that this function revert if invoked through a proxy. This is guaranteed by the `notDelegated` modifier."
					},
					"renounceOwnership()": {
						"details": "Leaves the contract without owner. It will not be possible to call `onlyOwner` functions anymore. Can only be called by the current owner. NOTE: Renouncing ownership will leave the contract without an owner, thereby removing any functionality that is only available to the owner."
					},
					"symbol()": {
						"details": "Returns the symbol of the token, usually a shorter version of the name."
					},
					"totalSupply()": {
						"details": "See {IERC20-totalSupply}."
					},
					"transfer(address,uint256)": {
						"details": "See {IERC20-transfer}. Requirements: - `to` cannot be the zero address. - the caller must have a balance of at least `amount`."
					},
					"transferFrom(address,address,uint256)": {
						"details": "See {IERC20-transferFrom}. Emits an {Approval} event indicating the updated allowance. This is not required by the EIP. See the note at the beginning of {ERC20}. NOTE: Does not update the allowance if the current allowance is the maximum `uint256`. Requirements: - `from` and `to` cannot be the zero address. - `from` must have a balance of at least `amount`. - the caller must have allowance for ``from``'s tokens of at least `amount`."
					},
					"transferOwnership(address)": {
						"details": "Transfers ownership of the contract to a new account (`newOwner`). Can only be called by the current owner."
					},
					"upgradeTo(address)": {
						"details": "Upgrade the implementation of the proxy to `newImplementation`. Calls {_authorizeUpgrade}. Emits an {Upgraded} event."
					},
					"upgradeToAndCall(address,bytes)": {
						"details": "Upgrade the implementation of the proxy to `newImplementation`, and subsequently execute the function call encoded in `data`. Calls {_authorizeUpgrade}. Emits an {Upgraded} event."
					}
				},
				"version": 1
			},
			"evm": {
				"assembly": "    /* \"contract-1221c7c9fb.sol\":391:929  contract TogoToken is Initializable, ERC20Upgradeable, OwnableUpgradeable, UUPSUpgradeable {... */\n  mstore(0x40, 0xa0)\n    /* \"@openzeppelin/contracts-upgradeable@4.8.1/proxy/utils/UUPSUpgradeable.sol\":1332:1336  this */\n  address\n    /* \"@openzeppelin/contracts-upgradeable@4.8.1/proxy/utils/UUPSUpgradeable.sol\":1289:1337  address private immutable __self = address(this) */\n  0xffffffffffffffffffffffffffffffffffffffff\n  and\n  0x80\n  swap1\n  0xffffffffffffffffffffffffffffffffffffffff\n  and\n  dup2\n  mstore\n  pop\n    /* \"contract-1221c7c9fb.sol\":541:594  constructor() {... */\n  callvalue\n  dup1\n  iszero\n  tag_1\n  jumpi\n  0x00\n  dup1\n  revert\ntag_1:\n  pop\n    /* \"contract-1221c7c9fb.sol\":565:587  _disableInitializers() */\n  tag_4\n    /* \"contract-1221c7c9fb.sol\":565:585  _disableInitializers */\n  shl(0x20, tag_5)\n    /* \"contract-1221c7c9fb.sol\":565:587  _disableInitializers() */\n  0x20\n  shr\n  jump\t// in\ntag_4:\n    /* \"contract-1221c7c9fb.sol\":391:929  contract TogoToken is Initializable, ERC20Upgradeable, OwnableUpgradeable, UUPSUpgradeable {... */\n  jump(tag_6)\n    /* \"@openzeppelin/contracts-upgradeable@4.8.1/proxy/utils/Initializable.sol\":5928:6207  function _disableInitializers() internal virtual {... */\ntag_5:\n    /* \"@openzeppelin/contracts-upgradeable@4.8.1/proxy/utils/Initializable.sol\":5996:6009  _initializing */\n  0x00\n  0x01\n  swap1\n  sload\n  swap1\n  0x0100\n  exp\n  swap1\n  div\n  0xff\n  and\n    /* \"@openzeppelin/contracts-upgradeable@4.8.1/proxy/utils/Initializable.sol\":5995:6009  !_initializing */\n  iszero\n    /* \"@openzeppelin/contracts-upgradeable@4.8.1/proxy/utils/Initializable.sol\":5987:6053  require(!_initializing, \"Initializable: contract is initializing\") */\n  tag_8\n  jumpi\n  mload(0x40)\n  0x08c379a000000000000000000000000000000000000000000000000000000000\n  dup2\n  mstore\n  0x04\n  add\n  tag_9\n  swap1\n  tag_10\n  jump\t// in\ntag_9:\n  mload(0x40)\n  dup1\n  swap2\n  sub\n  swap1\n  revert\ntag_8:\n    /* \"@openzeppelin/contracts-upgradeable@4.8.1/proxy/utils/Initializable.sol\":6082:6097  type(uint8).max */\n  0xff\n    /* \"@openzeppelin/contracts-upgradeable@4.8.1/proxy/utils/Initializable.sol\":6067:6097  _initialized < type(uint8).max */\n  dup1\n  and\n    /* \"@openzeppelin/contracts-upgradeable@4.8.1/proxy/utils/Initializable.sol\":6067:6079  _initialized */\n  0x00\n  dup1\n  sload\n  swap1\n  0x0100\n  exp\n  swap1\n  div\n  0xff\n  and\n    /* \"@openzeppelin/contracts-upgradeable@4.8.1/proxy/utils/Initializable.sol\":6067:6097  _initialized < type(uint8).max */\n  0xff\n  and\n  lt\n    /* \"@openzeppelin/contracts-upgradeable@4.8.1/proxy/utils/Initializable.sol\":6063:6201  if (_initialized < type(uint8).max) {... */\n  iszero\n  tag_11\n  jumpi\n    /* \"@openzeppelin/contracts-upgradeable@4.8.1/proxy/utils/Initializable.sol\":6128:6143  type(uint8).max */\n  0xff\n    /* \"@openzeppelin/contracts-upgradeable@4.8.1/proxy/utils/Initializable.sol\":6113:6125  _initialized */\n  0x00\n  dup1\n    /* \"@openzeppelin/contracts-upgradeable@4.8.1/proxy/utils/Initializable.sol\":6113:6143  _initialized = type(uint8).max */\n  0x0100\n  exp\n  dup2\n  sload\n  dup2\n  0xff\n  mul\n  not\n  and\n  swap1\n  dup4\n  0xff\n  and\n  mul\n  or\n  swap1\n  sstore\n  pop\n    /* \"@openzeppelin/contracts-upgradeable@4.8.1/proxy/utils/Initializable.sol\":6162:6190  Initialized(type(uint8).max) */\n  0x7f26b83ff96e1f2b6a682f133852f6798a09c465da95921460cefb3847402498\n    /* \"@openzeppelin/contracts-upgradeable@4.8.1/proxy/utils/Initializable.sol\":6174:6189  type(uint8).max */\n  0xff\n    /* \"@openzeppelin/contracts-upgradeable@4.8.1/proxy/utils/Initializable.sol\":6162:6190  Initialized(type(uint8).max) */\n  mload(0x40)\n  tag_12\n  swap2\n  swap1\n  tag_13\n  jump\t// in\ntag_12:\n  mload(0x40)\n  dup1\n  swap2\n  sub\n  swap1\n  log1\n    /* \"@openzeppelin/contracts-upgradeable@4.8.1/proxy/utils/Initializable.sol\":6063:6201  if (_initialized < type(uint8).max) {... */\ntag_11:\n    /* \"@openzeppelin/contracts-upgradeable@4.8.1/proxy/utils/Initializable.sol\":5928:6207  function _disableInitializers() internal virtual {... */\n  jump\t// out\n    /* \"#utility.yul\":7:176   */\ntag_14:\n    /* \"#utility.yul\":91:102   */\n  0x00\n    /* \"#utility.yul\":125:131   */\n  dup3\n    /* \"#utility.yul\":120:123   */\n  dup3\n    /* \"#utility.yul\":113:132   */\n  mstore\n    /* \"#utility.yul\":165:169   */\n  0x20\n    /* \"#utility.yul\":160:163   */\n  dup3\n    /* \"#utility.yul\":156:170   */\n  add\n    /* \"#utility.yul\":141:170   */\n  swap1\n  pop\n    /* \"#utility.yul\":7:176   */\n  swap3\n  swap2\n  pop\n  pop\n  jump\t// out\n    /* \"#utility.yul\":182:408   */\ntag_15:\n    /* \"#utility.yul\":322:356   */\n  0x496e697469616c697a61626c653a20636f6e747261637420697320696e697469\n    /* \"#utility.yul\":318:319   */\n  0x00\n    /* \"#utility.yul\":310:316   */\n  dup3\n    /* \"#utility.yul\":306:320   */\n  add\n    /* \"#utility.yul\":299:357   */\n  mstore\n    /* \"#utility.yul\":391:400   */\n  0x616c697a696e6700000000000000000000000000000000000000000000000000\n    /* \"#utility.yul\":386:388   */\n  0x20\n    /* \"#utility.yul\":378:384   */\n  dup3\n    /* \"#utility.yul\":374:389   */\n  add\n    /* \"#utility.yul\":367:401   */\n  mstore\n    /* \"#utility.yul\":182:408   */\n  pop\n  jump\t// out\n    /* \"#utility.yul\":414:780   */\ntag_16:\n    /* \"#utility.yul\":556:559   */\n  0x00\n    /* \"#utility.yul\":577:644   */\n  tag_23\n    /* \"#utility.yul\":641:643   */\n  0x27\n    /* \"#utility.yul\":636:639   */\n  dup4\n    /* \"#utility.yul\":577:644   */\n  tag_14\n  jump\t// in\ntag_23:\n    /* \"#utility.yul\":570:644   */\n  swap2\n  pop\n    /* \"#utility.yul\":653:746   */\n  tag_24\n    /* \"#utility.yul\":742:745   */\n  dup3\n    /* \"#utility.yul\":653:746   */\n  tag_15\n  jump\t// in\ntag_24:\n    /* \"#utility.yul\":771:773   */\n  0x40\n    /* \"#utility.yul\":766:769   */\n  dup3\n    /* \"#utility.yul\":762:774   */\n  add\n    /* \"#utility.yul\":755:774   */\n  swap1\n  pop\n    /* \"#utility.yul\":414:780   */\n  swap2\n  swap1\n  pop\n  jump\t// out\n    /* \"#utility.yul\":786:1205   */\ntag_10:\n    /* \"#utility.yul\":952:956   */\n  0x00\n    /* \"#utility.yul\":990:992   */\n  0x20\n    /* \"#utility.yul\":979:988   */\n  dup3\n    /* \"#utility.yul\":975:993   */\n  add\n    /* \"#utility.yul\":967:993   */\n  swap1\n  pop\n    /* \"#utility.yul\":1039:1048   */\n  dup2\n    /* \"#utility.yul\":1033:1037   */\n  dup2\n    /* \"#utility.yul\":1029:1049   */\n  sub\n    /* \"#utility.yul\":1025:1026   */\n  0x00\n    /* \"#utility.yul\":1014:1023   */\n  dup4\n    /* \"#utility.yul\":1010:1027   */\n  add\n    /* \"#utility.yul\":1003:1050   */\n  mstore\n    /* \"#utility.yul\":1067:1198   */\n  tag_26\n    /* \"#utility.yul\":1193:1197   */\n  dup2\n    /* \"#utility.yul\":1067:1198   */\n  tag_16\n  jump\t// in\ntag_26:\n    /* \"#utility.yul\":1059:1198   */\n  swap1\n  pop\n    /* \"#utility.yul\":786:1205   */\n  swap2\n  swap1\n  pop\n  jump\t// out\n    /* \"#utility.yul\":1211:1297   */\ntag_17:\n    /* \"#utility.yul\":1246:1253   */\n  0x00\n    /* \"#utility.yul\":1286:1290   */\n  0xff\n    /* \"#utility.yul\":1279:1284   */\n  dup3\n    /* \"#utility.yul\":1275:1291   */\n  and\n    /* \"#utility.yul\":1264:1291   */\n  swap1\n  pop\n    /* \"#utility.yul\":1211:1297   */\n  swap2\n  swap1\n  pop\n  jump\t// out\n    /* \"#utility.yul\":1303:1415   */\ntag_18:\n    /* \"#utility.yul\":1386:1408   */\n  tag_29\n    /* \"#utility.yul\":1402:1407   */\n  dup2\n    /* \"#utility.yul\":1386:1408   */\n  tag_17\n  jump\t// in\ntag_29:\n    /* \"#utility.yul\":1381:1384   */\n  dup3\n    /* \"#utility.yul\":1374:1409   */\n  mstore\n    /* \"#utility.yul\":1303:1415   */\n  pop\n  pop\n  jump\t// out\n    /* \"#utility.yul\":1421:1635   */\ntag_13:\n    /* \"#utility.yul\":1510:1514   */\n  0x00\n    /* \"#utility.yul\":1548:1550   */\n  0x20\n    /* \"#utility.yul\":1537:1546   */\n  dup3\n    /* \"#utility.yul\":1533:1551   */\n  add\n    /* \"#utility.yul\":1525:1551   */\n  swap1\n  pop\n    /* \"#utility.yul\":1561:1628   */\n  tag_31\n    /* \"#utility.yul\":1625:1626   */\n  0x00\n    /* \"#utility.yul\":1614:1623   */\n  dup4\n    /* \"#utility.yul\":1610:1627   */\n  add\n    /* \"#utility.yul\":1601:1607   */\n  dup5\n    /* \"#utility.yul\":1561:1628   */\n  tag_18\n  jump\t// in\ntag_31:\n    /* \"#utility.yul\":1421:1635   */\n  swap3\n  swap2\n  pop\n  pop\n  jump\t// out\n    /* \"contract-1221c7c9fb.sol\":391:929  contract TogoToken is Initializable, ERC20Upgradeable, OwnableUpgradeable, UUPSUpgradeable {... */\ntag_6:\n  mload(0x80)\n  codecopy(0x00, dataOffset(sub_0), dataSize(sub_0))\n  0x00\n  assignImmutable(\"0x4c643d5d9b0441803235e222732b65e2dc488f209ae20302cca6cafc813933a8\")\n  return(0x00, dataSize(sub_0))\nstop\n\nsub_0: assembly {\n        /* \"contract-1221c7c9fb.sol\":391:929  contract TogoToken is Initializable, ERC20Upgradeable, OwnableUpgradeable, UUPSUpgradeable {... */\n      mstore(0x40, 0x80)\n      jumpi(tag_1, lt(calldatasize, 0x04))\n      shr(0xe0, calldataload(0x00))\n      dup1\n      0x70a08231\n      gt\n      tag_20\n      jumpi\n      dup1\n      0x95d89b41\n      gt\n      tag_21\n      jumpi\n      dup1\n      0x95d89b41\n      eq\n      tag_15\n      jumpi\n      dup1\n      0xa457c2d7\n      eq\n      tag_16\n      jumpi\n      dup1\n      0xa9059cbb\n      eq\n      tag_17\n      jumpi\n      dup1\n      0xdd62ed3e\n      eq\n      tag_18\n      jumpi\n      dup1\n      0xf2fde38b\n      eq\n      tag_19\n      jumpi\n      jump(tag_1)\n    tag_21:\n      dup1\n      0x70a08231\n      eq\n      tag_11\n      jumpi\n      dup1\n      0x715018a6\n      eq\n      tag_12\n      jumpi\n      dup1\n      0x8129fc1c\n      eq\n      tag_13\n      jumpi\n      dup1\n      0x8da5cb5b\n      eq\n      tag_14\n      jumpi\n      jump(tag_1)\n    tag_20:\n      dup1\n      0x313ce567\n      gt\n      tag_22\n      jumpi\n      dup1\n      0x313ce567\n      eq\n      tag_6\n      jumpi\n      dup1\n      0x3659cfe6\n      eq\n      tag_7\n      jumpi\n      dup1\n      0x39509351\n      eq\n      tag_8\n      jumpi\n      dup1\n      0x4f1ef286\n      eq\n      tag_9\n      jumpi\n      dup1\n      0x52d1902d\n      eq\n      tag_10\n      jumpi\n      jump(tag_1)\n    tag_22:\n      dup1\n      0x06fdde03\n      eq\n      tag_2\n      jumpi\n      dup1\n      0x095ea7b3\n      eq\n      tag_3\n      jumpi\n      dup1\n      0x18160ddd\n      eq\n      tag_4\n      jumpi\n      dup1\n      0x23b872dd\n      eq\n      tag_5\n      jumpi\n    tag_1:\n      0x00\n      dup1\n      revert\n        /* \"@openzeppelin/contracts-upgradeable@4.8.1/token/ERC20/ERC20Upgradeable.sol\":2491:2589  function name() public view virtual override returns (string memory) {... */\n    tag_2:\n      callvalue\n      dup1\n      iszero\n      tag_23\n      jumpi\n      0x00\n      dup1\n      revert\n    tag_23:\n      pop\n      tag_24\n      tag_25\n      jump\t// in\n    tag_24:\n      mload(0x40)\n      tag_26\n      swap2\n      swap1\n      tag_27\n      jump\t// in\n    tag_26:\n      mload(0x40)\n      dup1\n      swap2\n      sub\n      swap1\n      return\n        /* \"@openzeppelin/contracts-upgradeable@4.8.1/token/ERC20/ERC20Upgradeable.sol\":4768:4965  function approve(address spender, uint256 amount) public virtual override returns (bool) {... */\n    tag_3:\n      callvalue\n      dup1\n      iszero\n      tag_28\n      jumpi\n      0x00\n      dup1\n      revert\n    tag_28:\n      pop\n      tag_29\n      0x04\n      dup1\n      calldatasize\n      sub\n      dup2\n      add\n      swap1\n      tag_30\n      swap2\n      swap1\n      tag_31\n      jump\t// in\n    tag_30:\n      tag_32\n      jump\t// in\n    tag_29:\n      mload(0x40)\n      tag_33\n      swap2\n      swap1\n      tag_34\n      jump\t// in\n    tag_33:\n      mload(0x40)\n      dup1\n      swap2\n      sub\n      swap1\n      return\n        /* \"@openzeppelin/contracts-upgradeable@4.8.1/token/ERC20/ERC20Upgradeable.sol\":3579:3685  function totalSupply() public view virtual override returns (uint256) {... */\n    tag_4:\n      callvalue\n      dup1\n      iszero\n      tag_35\n      jumpi\n      0x00\n      dup1\n      revert\n    tag_35:\n      pop\n      tag_36\n      tag_37\n      jump\t// in\n    tag_36:\n      mload(0x40)\n      tag_38\n      swap2\n      swap1\n      tag_39\n      jump\t// in\n    tag_38:\n      mload(0x40)\n      dup1\n      swap2\n      sub\n      swap1\n      return\n        /* \"@openzeppelin/contracts-upgradeable@4.8.1/token/ERC20/ERC20Upgradeable.sol\":5527:5813  function transferFrom(... */\n    tag_5:\n      callvalue\n      dup1\n      iszero\n      tag_40\n      jumpi\n      0x00\n      dup1\n      revert\n    tag_40:\n      pop\n      tag_41\n      0x04\n      dup1\n      calldatasize\n      sub\n      dup2\n      add\n      swap1\n      tag_42\n      swap2\n      swap1\n      tag_43\n      jump\t// in\n    tag_42:\n      tag_44\n      jump\t// in\n    tag_41:\n      mload(0x40)\n      tag_45\n      swap2\n      swap1\n      tag_34\n      jump\t// in\n    tag_45:\n      mload(0x40)\n      dup1\n      swap2\n      sub\n      swap1\n      return\n        /* \"@openzeppelin/contracts-upgradeable@4.8.1/token/ERC20/ERC20Upgradeable.sol\":3428:3519  function decimals() public view virtual override returns (uint8) {... */\n    tag_6:\n      callvalue\n      dup1\n      iszero\n      tag_46\n      jumpi\n      0x00\n      dup1\n      revert\n    tag_46:\n      pop\n      tag_47\n      tag_48\n      jump\t// in\n    tag_47:\n      mload(0x40)\n      tag_49\n      swap2\n      swap1\n      tag_50\n      jump\t// in\n    tag_49:\n      mload(0x40)\n      dup1\n      swap2\n      sub\n      swap1\n      return\n        /* \"@openzeppelin/contracts-upgradeable@4.8.1/proxy/utils/UUPSUpgradeable.sol\":3317:3514  function upgradeTo(address newImplementation) external virtual onlyProxy {... */\n    tag_7:\n      callvalue\n      dup1\n      iszero\n      tag_51\n      jumpi\n      0x00\n      dup1\n      revert\n    tag_51:\n      pop\n      tag_52\n      0x04\n      dup1\n      calldatasize\n      sub\n      dup2\n      add\n      swap1\n      tag_53\n      swap2\n      swap1\n      tag_54\n      jump\t// in\n    tag_53:\n      tag_55\n      jump\t// in\n    tag_52:\n      stop\n        /* \"@openzeppelin/contracts-upgradeable@4.8.1/token/ERC20/ERC20Upgradeable.sol\":6208:6442  function increaseAllowance(address spender, uint256 addedValue) public virtual returns (bool) {... */\n    tag_8:\n      callvalue\n      dup1\n      iszero\n      tag_56\n      jumpi\n      0x00\n      dup1\n      revert\n    tag_56:\n      pop\n      tag_57\n      0x04\n      dup1\n      calldatasize\n      sub\n      dup2\n      add\n      swap1\n      tag_58\n      swap2\n      swap1\n      tag_31\n      jump\t// in\n    tag_58:\n      tag_59\n      jump\t// in\n    tag_57:\n      mload(0x40)\n      tag_60\n      swap2\n      swap1\n      tag_34\n      jump\t// in\n    tag_60:\n      mload(0x40)\n      dup1\n      swap2\n      sub\n      swap1\n      return\n        /* \"@openzeppelin/contracts-upgradeable@4.8.1/proxy/utils/UUPSUpgradeable.sol\":3763:3985  function upgradeToAndCall(address newImplementation, bytes memory data) external payable virtual onlyProxy {... */\n    tag_9:\n      tag_61\n      0x04\n      dup1\n      calldatasize\n      sub\n      dup2\n      add\n      swap1\n      tag_62\n      swap2\n      swap1\n      tag_63\n      jump\t// in\n    tag_62:\n      tag_64\n      jump\t// in\n    tag_61:\n      stop\n        /* \"@openzeppelin/contracts-upgradeable@4.8.1/proxy/utils/UUPSUpgradeable.sol\":3006:3137  function proxiableUUID() external view virtual override notDelegated returns (bytes32) {... */\n    tag_10:\n      callvalue\n      dup1\n      iszero\n      tag_65\n      jumpi\n      0x00\n      dup1\n      revert\n    tag_65:\n      pop\n      tag_66\n      tag_67\n      jump\t// in\n    tag_66:\n      mload(0x40)\n      tag_68\n      swap2\n      swap1\n      tag_69\n      jump\t// in\n    tag_68:\n      mload(0x40)\n      dup1\n      swap2\n      sub\n      swap1\n      return\n        /* \"@openzeppelin/contracts-upgradeable@4.8.1/token/ERC20/ERC20Upgradeable.sol\":3743:3868  function balanceOf(address account) public view virtual override returns (uint256) {... */\n    tag_11:\n      callvalue\n      dup1\n      iszero\n      tag_70\n      jumpi\n      0x00\n      dup1\n      revert\n    tag_70:\n      pop\n      tag_71\n      0x04\n      dup1\n      calldatasize\n      sub\n      dup2\n      add\n      swap1\n      tag_72\n      swap2\n      swap1\n      tag_54\n      jump\t// in\n    tag_72:\n      tag_73\n      jump\t// in\n    tag_71:\n      mload(0x40)\n      tag_74\n      swap2\n      swap1\n      tag_39\n      jump\t// in\n    tag_74:\n      mload(0x40)\n      dup1\n      swap2\n      sub\n      swap1\n      return\n        /* \"@openzeppelin/contracts-upgradeable@4.8.1/access/OwnableUpgradeable.sol\":2071:2172  function renounceOwnership() public virtual onlyOwner {... */\n    tag_12:\n      callvalue\n      dup1\n      iszero\n      tag_75\n      jumpi\n      0x00\n      dup1\n      revert\n    tag_75:\n      pop\n      tag_76\n      tag_77\n      jump\t// in\n    tag_76:\n      stop\n        /* \"contract-1221c7c9fb.sol\":600:809  function initialize() initializer public {... */\n    tag_13:\n      callvalue\n      dup1\n      iszero\n      tag_78\n      jumpi\n      0x00\n      dup1\n      revert\n    tag_78:\n      pop\n      tag_79\n      tag_80\n      jump\t// in\n    tag_79:\n      stop\n        /* \"@openzeppelin/contracts-upgradeable@4.8.1/access/OwnableUpgradeable.sol\":1441:1526  function owner() public view virtual returns (address) {... */\n    tag_14:\n      callvalue\n      dup1\n      iszero\n      tag_81\n      jumpi\n      0x00\n      dup1\n      revert\n    tag_81:\n      pop\n      tag_82\n      tag_83\n      jump\t// in\n    tag_82:\n      mload(0x40)\n      tag_84\n      swap2\n      swap1\n      tag_85\n      jump\t// in\n    tag_84:\n      mload(0x40)\n      dup1\n      swap2\n      sub\n      swap1\n      return\n        /* \"@openzeppelin/contracts-upgradeable@4.8.1/token/ERC20/ERC20Upgradeable.sol\":2702:2804  function symbol() public view virtual override returns (string memory) {... */\n    tag_15:\n      callvalue\n      dup1\n      iszero\n      tag_86\n      jumpi\n      0x00\n      dup1\n      revert\n    tag_86:\n      pop\n      tag_87\n      tag_88\n      jump\t// in\n    tag_87:\n      mload(0x40)\n      tag_89\n      swap2\n      swap1\n      tag_27\n      jump\t// in\n    tag_89:\n      mload(0x40)\n      dup1\n      swap2\n      sub\n      swap1\n      return\n        /* \"@openzeppelin/contracts-upgradeable@4.8.1/token/ERC20/ERC20Upgradeable.sol\":6929:7356  function decreaseAllowance(address spender, uint256 subtractedValue) public virtual returns (bool) {... */\n    tag_16:\n      callvalue\n      dup1\n      iszero\n      tag_90\n      jumpi\n      0x00\n      dup1\n      revert\n    tag_90:\n      pop\n      tag_91\n      0x04\n      dup1\n      calldatasize\n      sub\n      dup2\n      add\n      swap1\n      tag_92\n      swap2\n      swap1\n      tag_31\n      jump\t// in\n    tag_92:\n      tag_93\n      jump\t// in\n    tag_91:\n      mload(0x40)\n      tag_94\n      swap2\n      swap1\n      tag_34\n      jump\t// in\n    tag_94:\n      mload(0x40)\n      dup1\n      swap2\n      sub\n      swap1\n      return\n        /* \"@openzeppelin/contracts-upgradeable@4.8.1/token/ERC20/ERC20Upgradeable.sol\":4064:4253  function transfer(address to, uint256 amount) public virtual override returns (bool) {... */\n    tag_17:\n      callvalue\n      dup1\n      iszero\n      tag_95\n      jumpi\n      0x00\n      dup1\n      revert\n    tag_95:\n      pop\n      tag_96\n      0x04\n      dup1\n      calldatasize\n      sub\n      dup2\n      add\n      swap1\n      tag_97\n      swap2\n      swap1\n      tag_31\n      jump\t// in\n    tag_97:\n      tag_98\n      jump\t// in\n    tag_96:\n      mload(0x40)\n      tag_99\n      swap2\n      swap1\n      tag_34\n      jump\t// in\n    tag_99:\n      mload(0x40)\n      dup1\n      swap2\n      sub\n      swap1\n      return\n        /* \"@openzeppelin/contracts-upgradeable@4.8.1/token/ERC20/ERC20Upgradeable.sol\":4311:4460  function allowance(address owner, address spender) public view virtual override returns (uint256) {... */\n    tag_18:\n      callvalue\n      dup1\n      iszero\n      tag_100\n      jumpi\n      0x00\n      dup1\n      revert\n    tag_100:\n      pop\n      tag_101\n      0x04\n      dup1\n      calldatasize\n      sub\n      dup2\n      add\n      swap1\n      tag_102\n      swap2\n      swap1\n      tag_103\n      jump\t// in\n    tag_102:\n      tag_104\n      jump\t// in\n    tag_101:\n      mload(0x40)\n      tag_105\n      swap2\n      swap1\n      tag_39\n      jump\t// in\n    tag_105:\n      mload(0x40)\n      dup1\n      swap2\n      sub\n      swap1\n      return\n        /* \"@openzeppelin/contracts-upgradeable@4.8.1/access/OwnableUpgradeable.sol\":2321:2519  function transferOwnership(address newOwner) public virtual onlyOwner {... */\n    tag_19:\n      callvalue\n      dup1\n      iszero\n      tag_106\n      jumpi\n      0x00\n      dup1\n      revert\n    tag_106:\n      pop\n      tag_107\n      0x04\n      dup1\n      calldatasize\n      sub\n      dup2\n      add\n      swap1\n      tag_108\n      swap2\n      swap1\n      tag_54\n      jump\t// in\n    tag_108:\n      tag_109\n      jump\t// in\n    tag_107:\n      stop\n        /* \"@openzeppelin/contracts-upgradeable@4.8.1/token/ERC20/ERC20Upgradeable.sol\":2491:2589  function name() public view virtual override returns (string memory) {... */\n    tag_25:\n        /* \"@openzeppelin/contracts-upgradeable@4.8.1/token/ERC20/ERC20Upgradeable.sol\":2545:2558  string memory */\n      0x60\n        /* \"@openzeppelin/contracts-upgradeable@4.8.1/token/ERC20/ERC20Upgradeable.sol\":2577:2582  _name */\n      0x36\n        /* \"@openzeppelin/contracts-upgradeable@4.8.1/token/ERC20/ERC20Upgradeable.sol\":2570:2582  return _name */\n      dup1\n      sload\n      tag_111\n      swap1\n      tag_112\n      jump\t// in\n    tag_111:\n      dup1\n      0x1f\n      add\n      0x20\n      dup1\n      swap2\n      div\n      mul\n      0x20\n      add\n      mload(0x40)\n      swap1\n      dup2\n      add\n      0x40\n      mstore\n      dup1\n      swap3\n      swap2\n      swap1\n      dup2\n      dup2\n      mstore\n      0x20\n      add\n      dup3\n      dup1\n      sload\n      tag_113\n      swap1\n      tag_112\n      jump\t// in\n    tag_113:\n      dup1\n      iszero\n      tag_114\n      jumpi\n      dup1\n      0x1f\n      lt\n      tag_115\n      jumpi\n      0x0100\n      dup1\n      dup4\n      sload\n      div\n      mul\n      dup4\n      mstore\n      swap2\n      0x20\n      add\n      swap2\n      jump(tag_114)\n    tag_115:\n      dup3\n      add\n      swap2\n      swap1\n      0x00\n      mstore\n      keccak256(0x00, 0x20)\n      swap1\n    tag_116:\n      dup2\n      sload\n      dup2\n      mstore\n      swap1\n      0x01\n      add\n      swap1\n      0x20\n      add\n      dup1\n      dup4\n      gt\n      tag_116\n      jumpi\n      dup3\n      swap1\n      sub\n      0x1f\n      and\n      dup3\n      add\n      swap2\n    tag_114:\n      pop\n      pop\n      pop\n      pop\n      pop\n      swap1\n      pop\n        /* \"@openzeppelin/contracts-upgradeable@4.8.1/token/ERC20/ERC20Upgradeable.sol\":2491:2589  function name() public view virtual override returns (string memory) {... */\n      swap1\n      jump\t// out\n        /* \"@openzeppelin/contracts-upgradeable@4.8.1/token/ERC20/ERC20Upgradeable.sol\":4768:4965  function approve(address spender, uint256 amount) public virtual override returns (bool) {... */\n    tag_32:\n        /* \"@openzeppelin/contracts-upgradeable@4.8.1/token/ERC20/ERC20Upgradeable.sol\":4851:4855  bool */\n      0x00\n        /* \"@openzeppelin/contracts-upgradeable@4.8.1/token/ERC20/ERC20Upgradeable.sol\":4867:4880  address owner */\n      dup1\n        /* \"@openzeppelin/contracts-upgradeable@4.8.1/token/ERC20/ERC20Upgradeable.sol\":4883:4895  _msgSender() */\n      tag_118\n        /* \"@openzeppelin/contracts-upgradeable@4.8.1/token/ERC20/ERC20Upgradeable.sol\":4883:4893  _msgSender */\n      tag_119\n        /* \"@openzeppelin/contracts-upgradeable@4.8.1/token/ERC20/ERC20Upgradeable.sol\":4883:4895  _msgSender() */\n      jump\t// in\n    tag_118:\n        /* \"@openzeppelin/contracts-upgradeable@4.8.1/token/ERC20/ERC20Upgradeable.sol\":4867:4895  address owner = _msgSender() */\n      swap1\n      pop\n        /* \"@openzeppelin/contracts-upgradeable@4.8.1/token/ERC20/ERC20Upgradeable.sol\":4905:4937  _approve(owner, spender, amount) */\n      tag_120\n        /* \"@openzeppelin/contracts-upgradeable@4.8.1/token/ERC20/ERC20Upgradeable.sol\":4914:4919  owner */\n      dup2\n        /* \"@openzeppelin/contracts-upgradeable@4.8.1/token/ERC20/ERC20Upgradeable.sol\":4921:4928  spender */\n      dup6\n        /* \"@openzeppelin/contracts-upgradeable@4.8.1/token/ERC20/ERC20Upgradeable.sol\":4930:4936  amount */\n      dup6\n        /* \"@openzeppelin/contracts-upgradeable@4.8.1/token/ERC20/ERC20Upgradeable.sol\":4905:4913  _approve */\n      tag_121\n        /* \"@openzeppelin/contracts-upgradeable@4.8.1/token/ERC20/ERC20Upgradeable.sol\":4905:4937  _approve(owner, spender, amount) */\n      jump\t// in\n    tag_120:\n        /* \"@openzeppelin/contracts-upgradeable@4.8.1/token/ERC20/ERC20Upgradeable.sol\":4954:4958  true */\n      0x01\n        /* \"@openzeppelin/contracts-upgradeable@4.8.1/token/ERC20/ERC20Upgradeable.sol\":4947:4958  return true */\n      swap2\n      pop\n      pop\n        /* \"@openzeppelin/contracts-upgradeable@4.8.1/token/ERC20/ERC20Upgradeable.sol\":4768:4965  function approve(address spender, uint256 amount) public virtual override returns (bool) {... */\n      swap3\n      swap2\n      pop\n      pop\n      jump\t// out\n        /* \"@openzeppelin/contracts-upgradeable@4.8.1/token/ERC20/ERC20Upgradeable.sol\":3579:3685  function totalSupply() public view virtual override returns (uint256) {... */\n    tag_37:\n        /* \"@openzeppelin/contracts-upgradeable@4.8.1/token/ERC20/ERC20Upgradeable.sol\":3640:3647  uint256 */\n      0x00\n        /* \"@openzeppelin/contracts-upgradeable@4.8.1/token/ERC20/ERC20Upgradeable.sol\":3666:3678  _totalSupply */\n      sload(0x35)\n        /* \"@openzeppelin/contracts-upgradeable@4.8.1/token/ERC20/ERC20Upgradeable.sol\":3659:3678  return _totalSupply */\n      swap1\n      pop\n        /* \"@openzeppelin/contracts-upgradeable@4.8.1/token/ERC20/ERC20Upgradeable.sol\":3579:3685  function totalSupply() public view virtual override returns (uint256) {... */\n      swap1\n      jump\t// out\n        /* \"@openzeppelin/contracts-upgradeable@4.8.1/token/ERC20/ERC20Upgradeable.sol\":5527:5813  function transferFrom(... */\n    tag_44:\n        /* \"@openzeppelin/contracts-upgradeable@4.8.1/token/ERC20/ERC20Upgradeable.sol\":5654:5658  bool */\n      0x00\n        /* \"@openzeppelin/contracts-upgradeable@4.8.1/token/ERC20/ERC20Upgradeable.sol\":5670:5685  address spender */\n      dup1\n        /* \"@openzeppelin/contracts-upgradeable@4.8.1/token/ERC20/ERC20Upgradeable.sol\":5688:5700  _msgSender() */\n      tag_124\n        /* \"@openzeppelin/contracts-upgradeable@4.8.1/token/ERC20/ERC20Upgradeable.sol\":5688:5698  _msgSender */\n      tag_119\n        /* \"@openzeppelin/contracts-upgradeable@4.8.1/token/ERC20/ERC20Upgradeable.sol\":5688:5700  _msgSender() */\n      jump\t// in\n    tag_124:\n        /* \"@openzeppelin/contracts-upgradeable@4.8.1/token/ERC20/ERC20Upgradeable.sol\":5670:5700  address spender = _msgSender() */\n      swap1\n      pop\n        /* \"@openzeppelin/contracts-upgradeable@4.8.1/token/ERC20/ERC20Upgradeable.sol\":5710:5748  _spendAllowance(from, spender, amount) */\n      tag_125\n        /* \"@openzeppelin/contracts-upgradeable@4.8.1/token/ERC20/ERC20Upgradeable.sol\":5726:5730  from */\n      dup6\n        /* \"@openzeppelin/contracts-upgradeable@4.8.1/token/ERC20/ERC20Upgradeable.sol\":5732:5739  spender */\n      dup3\n        /* \"@openzeppelin/contracts-upgradeable@4.8.1/token/ERC20/ERC20Upgradeable.sol\":5741:5747  amount */\n      dup6\n        /* \"@openzeppelin/contracts-upgradeable@4.8.1/token/ERC20/ERC20Upgradeable.sol\":5710:5725  _spendAllowance */\n      tag_126\n        /* \"@openzeppelin/contracts-upgradeable@4.8.1/token/ERC20/ERC20Upgradeable.sol\":5710:5748  _spendAllowance(from, spender, amount) */\n      jump\t// in\n    tag_125:\n        /* \"@openzeppelin/contracts-upgradeable@4.8.1/token/ERC20/ERC20Upgradeable.sol\":5758:5785  _transfer(from, to, amount) */\n      tag_127\n        /* \"@openzeppelin/contracts-upgradeable@4.8.1/token/ERC20/ERC20Upgradeable.sol\":5768:5772  from */\n      dup6\n        /* \"@openzeppelin/contracts-upgradeable@4.8.1/token/ERC20/ERC20Upgradeable.sol\":5774:5776  to */\n      dup6\n        /* \"@openzeppelin/contracts-upgradeable@4.8.1/token/ERC20/ERC20Upgradeable.sol\":5778:5784  amount */\n      dup6\n        /* \"@openzeppelin/contracts-upgradeable@4.8.1/token/ERC20/ERC20Upgradeable.sol\":5758:5767  _transfer */\n      tag_128\n        /* \"@openzeppelin/contracts-upgradeable@4.8.1/token/ERC20/ERC20Upgradeable.sol\":5758:5785  _transfer(from, to, amount) */\n      jump\t// in\n    tag_127:\n        /* \"@openzeppelin/contracts-upgradeable@4.8.1/token/ERC20/ERC20Upgradeable.sol\":5802:5806  true */\n      0x01\n        /* \"@openzeppelin/contracts-upgradeable@4.8.1/token/ERC20/ERC20Upgradeable.sol\":5795:5806  return true */\n      swap2\n      pop\n      pop\n        /* \"@openzeppelin/contracts-upgradeable@4.8.1/token/ERC20/ERC20Upgradeable.sol\":5527:5813  function transferFrom(... */\n      swap4\n      swap3\n      pop\n      pop\n      pop\n      jump\t// out\n        /* \"@openzeppelin/contracts-upgradeable@4.8.1/token/ERC20/ERC20Upgradeable.sol\":3428:3519  function decimals() public view virtual override returns (uint8) {... */\n    tag_48:\n        /* \"@openzeppelin/contracts-upgradeable@4.8.1/token/ERC20/ERC20Upgradeable.sol\":3486:3491  uint8 */\n      0x00\n        /* \"@openzeppelin/contracts-upgradeable@4.8.1/token/ERC20/ERC20Upgradeable.sol\":3510:3512  18 */\n      0x12\n        /* \"@openzeppelin/contracts-upgradeable@4.8.1/token/ERC20/ERC20Upgradeable.sol\":3503:3512  return 18 */\n      swap1\n      pop\n        /* \"@openzeppelin/contracts-upgradeable@4.8.1/token/ERC20/ERC20Upgradeable.sol\":3428:3519  function decimals() public view virtual override returns (uint8) {... */\n      swap1\n      jump\t// out\n        /* \"@openzeppelin/contracts-upgradeable@4.8.1/proxy/utils/UUPSUpgradeable.sol\":3317:3514  function upgradeTo(address newImplementation) external virtual onlyProxy {... */\n    tag_55:\n        /* \"@openzeppelin/contracts-upgradeable@4.8.1/proxy/utils/UUPSUpgradeable.sol\":1898:1904  __self */\n      immutable(\"0x4c643d5d9b0441803235e222732b65e2dc488f209ae20302cca6cafc813933a8\")\n        /* \"@openzeppelin/contracts-upgradeable@4.8.1/proxy/utils/UUPSUpgradeable.sol\":1881:1904  address(this) != __self */\n      0xffffffffffffffffffffffffffffffffffffffff\n      and\n        /* \"@openzeppelin/contracts-upgradeable@4.8.1/proxy/utils/UUPSUpgradeable.sol\":1889:1893  this */\n      address\n        /* \"@openzeppelin/contracts-upgradeable@4.8.1/proxy/utils/UUPSUpgradeable.sol\":1881:1904  address(this) != __self */\n      0xffffffffffffffffffffffffffffffffffffffff\n      and\n      sub\n        /* \"@openzeppelin/contracts-upgradeable@4.8.1/proxy/utils/UUPSUpgradeable.sol\":1873:1953  require(address(this) != __self, \"Function must be called through delegatecall\") */\n      tag_131\n      jumpi\n      mload(0x40)\n      0x08c379a000000000000000000000000000000000000000000000000000000000\n      dup2\n      mstore\n      0x04\n      add\n      tag_132\n      swap1\n      tag_133\n      jump\t// in\n    tag_132:\n      mload(0x40)\n      dup1\n      swap2\n      sub\n      swap1\n      revert\n    tag_131:\n        /* \"@openzeppelin/contracts-upgradeable@4.8.1/proxy/utils/UUPSUpgradeable.sol\":1995:2001  __self */\n      immutable(\"0x4c643d5d9b0441803235e222732b65e2dc488f209ae20302cca6cafc813933a8\")\n        /* \"@openzeppelin/contracts-upgradeable@4.8.1/proxy/utils/UUPSUpgradeable.sol\":1971:2001  _getImplementation() == __self */\n      0xffffffffffffffffffffffffffffffffffffffff\n      and\n        /* \"@openzeppelin/contracts-upgradeable@4.8.1/proxy/utils/UUPSUpgradeable.sol\":1971:1991  _getImplementation() */\n      tag_134\n        /* \"@openzeppelin/contracts-upgradeable@4.8.1/proxy/utils/UUPSUpgradeable.sol\":1971:1989  _getImplementation */\n      tag_135\n        /* \"@openzeppelin/contracts-upgradeable@4.8.1/proxy/utils/UUPSUpgradeable.sol\":1971:1991  _getImplementation() */\n      jump\t// in\n    tag_134:\n        /* \"@openzeppelin/contracts-upgradeable@4.8.1/proxy/utils/UUPSUpgradeable.sol\":1971:2001  _getImplementation() == __self */\n      0xffffffffffffffffffffffffffffffffffffffff\n      and\n      eq\n        /* \"@openzeppelin/contracts-upgradeable@4.8.1/proxy/utils/UUPSUpgradeable.sol\":1963:2050  require(_getImplementation() == __self, \"Function must be called through active proxy\") */\n      tag_136\n      jumpi\n      mload(0x40)\n      0x08c379a000000000000000000000000000000000000000000000000000000000\n      dup2\n      mstore\n      0x04\n      add\n      tag_137\n      swap1\n      tag_138\n      jump\t// in\n    tag_137:\n      mload(0x40)\n      dup1\n      swap2\n      sub\n      swap1\n      revert\n    tag_136:\n        /* \"@openzeppelin/contracts-upgradeable@4.8.1/proxy/utils/UUPSUpgradeable.sol\":3400:3436  _authorizeUpgrade(newImplementation) */\n      tag_140\n        /* \"@openzeppelin/contracts-upgradeable@4.8.1/proxy/utils/UUPSUpgradeable.sol\":3418:3435  newImplementation */\n      dup2\n        /* \"@openzeppelin/contracts-upgradeable@4.8.1/proxy/utils/UUPSUpgradeable.sol\":3400:3417  _authorizeUpgrade */\n      tag_141\n        /* \"@openzeppelin/contracts-upgradeable@4.8.1/proxy/utils/UUPSUpgradeable.sol\":3400:3436  _authorizeUpgrade(newImplementation) */\n      jump\t// in\n    tag_140:\n        /* \"@openzeppelin/contracts-upgradeable@4.8.1/proxy/utils/UUPSUpgradeable.sol\":3446:3507  _upgradeToAndCallUUPS(newImplementation, new bytes(0), false) */\n      tag_142\n        /* \"@openzeppelin/contracts-upgradeable@4.8.1/proxy/utils/UUPSUpgradeable.sol\":3468:3485  newImplementation */\n      dup2\n        /* \"@openzeppelin/contracts-upgradeable@4.8.1/proxy/utils/UUPSUpgradeable.sol\":3497:3498  0 */\n      0x00\n        /* \"@openzeppelin/contracts-upgradeable@4.8.1/proxy/utils/UUPSUpgradeable.sol\":3487:3499  new bytes(0) */\n      0xffffffffffffffff\n      dup2\n      gt\n      iszero\n      tag_143\n      jumpi\n      tag_144\n      tag_145\n      jump\t// in\n    tag_144:\n    tag_143:\n      mload(0x40)\n      swap1\n      dup1\n      dup3\n      mstore\n      dup1\n      0x1f\n      add\n      not(0x1f)\n      and\n      0x20\n      add\n      dup3\n      add\n      0x40\n      mstore\n      dup1\n      iszero\n      tag_146\n      jumpi\n      dup2\n      0x20\n      add\n      0x01\n      dup3\n      mul\n      dup1\n      calldatasize\n      dup4\n      calldatacopy\n      dup1\n      dup3\n      add\n      swap2\n      pop\n      pop\n      swap1\n      pop\n    tag_146:\n      pop\n        /* \"@openzeppelin/contracts-upgradeable@4.8.1/proxy/utils/UUPSUpgradeable.sol\":3501:3506  false */\n      0x00\n        /* \"@openzeppelin/contracts-upgradeable@4.8.1/proxy/utils/UUPSUpgradeable.sol\":3446:3467  _upgradeToAndCallUUPS */\n      tag_147\n        /* \"@openzeppelin/contracts-upgradeable@4.8.1/proxy/utils/UUPSUpgradeable.sol\":3446:3507  _upgradeToAndCallUUPS(newImplementation, new bytes(0), false) */\n      jump\t// in\n    tag_142:\n        /* \"@openzeppelin/contracts-upgradeable@4.8.1/proxy/utils/UUPSUpgradeable.sol\":3317:3514  function upgradeTo(address newImplementation) external virtual onlyProxy {... */\n      pop\n      jump\t// out\n        /* \"@openzeppelin/contracts-upgradeable@4.8.1/token/ERC20/ERC20Upgradeable.sol\":6208:6442  function increaseAllowance(address spender, uint256 addedValue) public virtual returns (bool) {... */\n    tag_59:\n        /* \"@openzeppelin/contracts-upgradeable@4.8.1/token/ERC20/ERC20Upgradeable.sol\":6296:6300  bool */\n      0x00\n        /* \"@openzeppelin/contracts-upgradeable@4.8.1/token/ERC20/ERC20Upgradeable.sol\":6312:6325  address owner */\n      dup1\n        /* \"@openzeppelin/contracts-upgradeable@4.8.1/token/ERC20/ERC20Upgradeable.sol\":6328:6340  _msgSender() */\n      tag_149\n        /* \"@openzeppelin/contracts-upgradeable@4.8.1/token/ERC20/ERC20Upgradeable.sol\":6328:6338  _msgSender */\n      tag_119\n        /* \"@openzeppelin/contracts-upgradeable@4.8.1/token/ERC20/ERC20Upgradeable.sol\":6328:6340  _msgSender() */\n      jump\t// in\n    tag_149:\n        /* \"@openzeppelin/contracts-upgradeable@4.8.1/token/ERC20/ERC20Upgradeable.sol\":6312:6340  address owner = _msgSender() */\n      swap1\n      pop\n        /* \"@openzeppelin/contracts-upgradeable@4.8.1/token/ERC20/ERC20Upgradeable.sol\":6350:6414  _approve(owner, spender, allowance(owner, spender) + addedValue) */\n      tag_150\n        /* \"@openzeppelin/contracts-upgradeable@4.8.1/token/ERC20/ERC20Upgradeable.sol\":6359:6364  owner */\n      dup2\n        /* \"@openzeppelin/contracts-upgradeable@4.8.1/token/ERC20/ERC20Upgradeable.sol\":6366:6373  spender */\n      dup6\n        /* \"@openzeppelin/contracts-upgradeable@4.8.1/token/ERC20/ERC20Upgradeable.sol\":6403:6413  addedValue */\n      dup6\n        /* \"@openzeppelin/contracts-upgradeable@4.8.1/token/ERC20/ERC20Upgradeable.sol\":6375:6400  allowance(owner, spender) */\n      tag_151\n        /* \"@openzeppelin/contracts-upgradeable@4.8.1/token/ERC20/ERC20Upgradeable.sol\":6385:6390  owner */\n      dup6\n        /* \"@openzeppelin/contracts-upgradeable@4.8.1/token/ERC20/ERC20Upgradeable.sol\":6392:6399  spender */\n      dup10\n        /* \"@openzeppelin/contracts-upgradeable@4.8.1/token/ERC20/ERC20Upgradeable.sol\":6375:6384  allowance */\n      tag_104\n        /* \"@openzeppelin/contracts-upgradeable@4.8.1/token/ERC20/ERC20Upgradeable.sol\":6375:6400  allowance(owner, spender) */\n      jump\t// in\n    tag_151:\n        /* \"@openzeppelin/contracts-upgradeable@4.8.1/token/ERC20/ERC20Upgradeable.sol\":6375:6413  allowance(owner, spender) + addedValue */\n      tag_152\n      swap2\n      swap1\n      tag_153\n      jump\t// in\n    tag_152:\n        /* \"@openzeppelin/contracts-upgradeable@4.8.1/token/ERC20/ERC20Upgradeable.sol\":6350:6358  _approve */\n      tag_121\n        /* \"@openzeppelin/contracts-upgradeable@4.8.1/token/ERC20/ERC20Upgradeable.sol\":6350:6414  _approve(owner, spender, allowance(owner, spender) + addedValue) */\n      jump\t// in\n    tag_150:\n        /* \"@openzeppelin/contracts-upgradeable@4.8.1/token/ERC20/ERC20Upgradeable.sol\":6431:6435  true */\n      0x01\n        /* \"@openzeppelin/contracts-upgradeable@4.8.1/token/ERC20/ERC20Upgradeable.sol\":6424:6435  return true */\n      swap2\n      pop\n      pop\n        /* \"@openzeppelin/contracts-upgradeable@4.8.1/token/ERC20/ERC20Upgradeable.sol\":6208:6442  function increaseAllowance(address spender, uint256 addedValue) public virtual returns (bool) {... */\n      swap3\n      swap2\n      pop\n      pop\n      jump\t// out\n        /* \"@openzeppelin/contracts-upgradeable@4.8.1/proxy/utils/UUPSUpgradeable.sol\":3763:3985  function upgradeToAndCall(address newImplementation, bytes memory data) external payable virtual onlyProxy {... */\n    tag_64:\n        /* \"@openzeppelin/contracts-upgradeable@4.8.1/proxy/utils/UUPSUpgradeable.sol\":1898:1904  __self */\n      immutable(\"0x4c643d5d9b0441803235e222732b65e2dc488f209ae20302cca6cafc813933a8\")\n        /* \"@openzeppelin/contracts-upgradeable@4.8.1/proxy/utils/UUPSUpgradeable.sol\":1881:1904  address(this) != __self */\n      0xffffffffffffffffffffffffffffffffffffffff\n      and\n        /* \"@openzeppelin/contracts-upgradeable@4.8.1/proxy/utils/UUPSUpgradeable.sol\":1889:1893  this */\n      address\n        /* \"@openzeppelin/contracts-upgradeable@4.8.1/proxy/utils/UUPSUpgradeable.sol\":1881:1904  address(this) != __self */\n      0xffffffffffffffffffffffffffffffffffffffff\n      and\n      sub\n        /* \"@openzeppelin/contracts-upgradeable@4.8.1/proxy/utils/UUPSUpgradeable.sol\":1873:1953  require(address(this) != __self, \"Function must be called through delegatecall\") */\n      tag_155\n      jumpi\n      mload(0x40)\n      0x08c379a000000000000000000000000000000000000000000000000000000000\n      dup2\n      mstore\n      0x04\n      add\n      tag_156\n      swap1\n      tag_133\n      jump\t// in\n    tag_156:\n      mload(0x40)\n      dup1\n      swap2\n      sub\n      swap1\n      revert\n    tag_155:\n        /* \"@openzeppelin/contracts-upgradeable@4.8.1/proxy/utils/UUPSUpgradeable.sol\":1995:2001  __self */\n      immutable(\"0x4c643d5d9b0441803235e222732b65e2dc488f209ae20302cca6cafc813933a8\")\n        /* \"@openzeppelin/contracts-upgradeable@4.8.1/proxy/utils/UUPSUpgradeable.sol\":1971:2001  _getImplementation() == __self */\n      0xffffffffffffffffffffffffffffffffffffffff\n      and\n        /* \"@openzeppelin/contracts-upgradeable@4.8.1/proxy/utils/UUPSUpgradeable.sol\":1971:1991  _getImplementation() */\n      tag_157\n        /* \"@openzeppelin/contracts-upgradeable@4.8.1/proxy/utils/UUPSUpgradeable.sol\":1971:1989  _getImplementation */\n      tag_135\n        /* \"@openzeppelin/contracts-upgradeable@4.8.1/proxy/utils/UUPSUpgradeable.sol\":1971:1991  _getImplementation() */\n      jump\t// in\n    tag_157:\n        /* \"@openzeppelin/contracts-upgradeable@4.8.1/proxy/utils/UUPSUpgradeable.sol\":1971:2001  _getImplementation() == __self */\n      0xffffffffffffffffffffffffffffffffffffffff\n      and\n      eq\n        /* \"@openzeppelin/contracts-upgradeable@4.8.1/proxy/utils/UUPSUpgradeable.sol\":1963:2050  require(_getImplementation() == __self, \"Function must be called through active proxy\") */\n      tag_158\n      jumpi\n      mload(0x40)\n      0x08c379a000000000000000000000000000000000000000000000000000000000\n      dup2\n      mstore\n      0x04\n      add\n      tag_159\n      swap1\n      tag_138\n      jump\t// in\n    tag_159:\n      mload(0x40)\n      dup1\n      swap2\n      sub\n      swap1\n      revert\n    tag_158:\n        /* \"@openzeppelin/contracts-upgradeable@4.8.1/proxy/utils/UUPSUpgradeable.sol\":3880:3916  _authorizeUpgrade(newImplementation) */\n      tag_161\n        /* \"@openzeppelin/contracts-upgradeable@4.8.1/proxy/utils/UUPSUpgradeable.sol\":3898:3915  newImplementation */\n      dup3\n        /* \"@openzeppelin/contracts-upgradeable@4.8.1/proxy/utils/UUPSUpgradeable.sol\":3880:3897  _authorizeUpgrade */\n      tag_141\n        /* \"@openzeppelin/contracts-upgradeable@4.8.1/proxy/utils/UUPSUpgradeable.sol\":3880:3916  _authorizeUpgrade(newImplementation) */\n      jump\t// in\n    tag_161:\n        /* \"@openzeppelin/contracts-upgradeable@4.8.1/proxy/utils/UUPSUpgradeable.sol\":3926:3978  _upgradeToAndCallUUPS(newImplementation, data, true) */\n      tag_162\n        /* \"@openzeppelin/contracts-upgradeable@4.8.1/proxy/utils/UUPSUpgradeable.sol\":3948:3965  newImplementation */\n      dup3\n        /* \"@openzeppelin/contracts-upgradeable@4.8.1/proxy/utils/UUPSUpgradeable.sol\":3967:3971  data */\n      dup3\n        /* \"@openzeppelin/contracts-upgradeable@4.8.1/proxy/utils/UUPSUpgradeable.sol\":3973:3977  true */\n      0x01\n        /* \"@openzeppelin/contracts-upgradeable@4.8.1/proxy/utils/UUPSUpgradeable.sol\":3926:3947  _upgradeToAndCallUUPS */\n      tag_147\n        /* \"@openzeppelin/contracts-upgradeable@4.8.1/proxy/utils/UUPSUpgradeable.sol\":3926:3978  _upgradeToAndCallUUPS(newImplementation, data, true) */\n      jump\t// in\n    tag_162:\n        /* \"@openzeppelin/contracts-upgradeable@4.8.1/proxy/utils/UUPSUpgradeable.sol\":3763:3985  function upgradeToAndCall(address newImplementation, bytes memory data) external payable virtual onlyProxy {... */\n      pop\n      pop\n      jump\t// out\n        /* \"@openzeppelin/contracts-upgradeable@4.8.1/proxy/utils/UUPSUpgradeable.sol\":3006:3137  function proxiableUUID() external view virtual override notDelegated returns (bytes32) {... */\n    tag_67:\n        /* \"@openzeppelin/contracts-upgradeable@4.8.1/proxy/utils/UUPSUpgradeable.sol\":3084:3091  bytes32 */\n      0x00\n        /* \"@openzeppelin/contracts-upgradeable@4.8.1/proxy/utils/UUPSUpgradeable.sol\":2333:2339  __self */\n      immutable(\"0x4c643d5d9b0441803235e222732b65e2dc488f209ae20302cca6cafc813933a8\")\n        /* \"@openzeppelin/contracts-upgradeable@4.8.1/proxy/utils/UUPSUpgradeable.sol\":2316:2339  address(this) == __self */\n      0xffffffffffffffffffffffffffffffffffffffff\n      and\n        /* \"@openzeppelin/contracts-upgradeable@4.8.1/proxy/utils/UUPSUpgradeable.sol\":2324:2328  this */\n      address\n        /* \"@openzeppelin/contracts-upgradeable@4.8.1/proxy/utils/UUPSUpgradeable.sol\":2316:2339  address(this) == __self */\n      0xffffffffffffffffffffffffffffffffffffffff\n      and\n      eq\n        /* \"@openzeppelin/contracts-upgradeable@4.8.1/proxy/utils/UUPSUpgradeable.sol\":2308:2400  require(address(this) == __self, \"UUPSUpgradeable: must not be called through delegatecall\") */\n      tag_164\n      jumpi\n      mload(0x40)\n      0x08c379a000000000000000000000000000000000000000000000000000000000\n      dup2\n      mstore\n      0x04\n      add\n      tag_165\n      swap1\n      tag_166\n      jump\t// in\n    tag_165:\n      mload(0x40)\n      dup1\n      swap2\n      sub\n      swap1\n      revert\n    tag_164:\n        /* \"@openzeppelin/contracts-upgradeable@4.8.1/proxy/ERC1967/ERC1967UpgradeUpgradeable.sol\":1292:1358  0x360894a13ba1a3210667c828492db98dca3e2076cc3735a920a3ca505d382bbc */\n      0x360894a13ba1a3210667c828492db98dca3e2076cc3735a920a3ca505d382bbc\n        /* \"@openzeppelin/contracts-upgradeable@4.8.1/proxy/utils/UUPSUpgradeable.sol\":3110:3130  _IMPLEMENTATION_SLOT */\n      0x00\n      shl\n        /* \"@openzeppelin/contracts-upgradeable@4.8.1/proxy/utils/UUPSUpgradeable.sol\":3103:3130  return _IMPLEMENTATION_SLOT */\n      swap1\n      pop\n        /* \"@openzeppelin/contracts-upgradeable@4.8.1/proxy/utils/UUPSUpgradeable.sol\":3006:3137  function proxiableUUID() external view virtual override notDelegated returns (bytes32) {... */\n      swap1\n      jump\t// out\n        /* \"@openzeppelin/contracts-upgradeable@4.8.1/token/ERC20/ERC20Upgradeable.sol\":3743:3868  function balanceOf(address account) public view virtual override returns (uint256) {... */\n    tag_73:\n        /* \"@openzeppelin/contracts-upgradeable@4.8.1/token/ERC20/ERC20Upgradeable.sol\":3817:3824  uint256 */\n      0x00\n        /* \"@openzeppelin/contracts-upgradeable@4.8.1/token/ERC20/ERC20Upgradeable.sol\":3843:3852  _balances */\n      0x33\n        /* \"@openzeppelin/contracts-upgradeable@4.8.1/token/ERC20/ERC20Upgradeable.sol\":3843:3861  _balances[account] */\n      0x00\n        /* \"@openzeppelin/contracts-upgradeable@4.8.1/token/ERC20/ERC20Upgradeable.sol\":3853:3860  account */\n      dup4\n        /* \"@openzeppelin/contracts-upgradeable@4.8.1/token/ERC20/ERC20Upgradeable.sol\":3843:3861  _balances[account] */\n      0xffffffffffffffffffffffffffffffffffffffff\n      and\n      0xffffffffffffffffffffffffffffffffffffffff\n      and\n      dup2\n      mstore\n      0x20\n      add\n      swap1\n      dup2\n      mstore\n      0x20\n      add\n      0x00\n      keccak256\n      sload\n        /* \"@openzeppelin/contracts-upgradeable@4.8.1/token/ERC20/ERC20Upgradeable.sol\":3836:3861  return _balances[account] */\n      swap1\n      pop\n        /* \"@openzeppelin/contracts-upgradeable@4.8.1/token/ERC20/ERC20Upgradeable.sol\":3743:3868  function balanceOf(address account) public view virtual override returns (uint256) {... */\n      swap2\n      swap1\n      pop\n      jump\t// out\n        /* \"@openzeppelin/contracts-upgradeable@4.8.1/access/OwnableUpgradeable.sol\":2071:2172  function renounceOwnership() public virtual onlyOwner {... */\n    tag_77:\n        /* \"@openzeppelin/contracts-upgradeable@4.8.1/access/OwnableUpgradeable.sol\":1334:1347  _checkOwner() */\n      tag_170\n        /* \"@openzeppelin/contracts-upgradeable@4.8.1/access/OwnableUpgradeable.sol\":1334:1345  _checkOwner */\n      tag_171\n        /* \"@openzeppelin/contracts-upgradeable@4.8.1/access/OwnableUpgradeable.sol\":1334:1347  _checkOwner() */\n      jump\t// in\n    tag_170:\n        /* \"@openzeppelin/contracts-upgradeable@4.8.1/access/OwnableUpgradeable.sol\":2135:2165  _transferOwnership(address(0)) */\n      tag_173\n        /* \"@openzeppelin/contracts-upgradeable@4.8.1/access/OwnableUpgradeable.sol\":2162:2163  0 */\n      0x00\n        /* \"@openzeppelin/contracts-upgradeable@4.8.1/access/OwnableUpgradeable.sol\":2135:2153  _transferOwnership */\n      tag_174\n        /* \"@openzeppelin/contracts-upgradeable@4.8.1/access/OwnableUpgradeable.sol\":2135:2165  _transferOwnership(address(0)) */\n      jump\t// in\n    tag_173:\n        /* \"@openzeppelin/contracts-upgradeable@4.8.1/access/OwnableUpgradeable.sol\":2071:2172  function renounceOwnership() public virtual onlyOwner {... */\n      jump\t// out\n        /* \"contract-1221c7c9fb.sol\":600:809  function initialize() initializer public {... */\n    tag_80:\n        /* \"@openzeppelin/contracts-upgradeable@4.8.1/proxy/utils/Initializable.sol\":3268:3287  bool isTopLevelCall */\n      0x00\n        /* \"@openzeppelin/contracts-upgradeable@4.8.1/proxy/utils/Initializable.sol\":3291:3304  _initializing */\n      dup1\n      0x01\n      swap1\n      sload\n      swap1\n      0x0100\n      exp\n      swap1\n      div\n      0xff\n      and\n        /* \"@openzeppelin/contracts-upgradeable@4.8.1/proxy/utils/Initializable.sol\":3290:3304  !_initializing */\n      iszero\n        /* \"@openzeppelin/contracts-upgradeable@4.8.1/proxy/utils/Initializable.sol\":3268:3304  bool isTopLevelCall = !_initializing */\n      swap1\n      pop\n        /* \"@openzeppelin/contracts-upgradeable@4.8.1/proxy/utils/Initializable.sol\":3336:3350  isTopLevelCall */\n      dup1\n        /* \"@openzeppelin/contracts-upgradeable@4.8.1/proxy/utils/Initializable.sol\":3336:3370  isTopLevelCall && _initialized < 1 */\n      dup1\n      iszero\n      tag_176\n      jumpi\n      pop\n        /* \"@openzeppelin/contracts-upgradeable@4.8.1/proxy/utils/Initializable.sol\":3369:3370  1 */\n      0x01\n        /* \"@openzeppelin/contracts-upgradeable@4.8.1/proxy/utils/Initializable.sol\":3354:3366  _initialized */\n      0x00\n      dup1\n      sload\n      swap1\n      0x0100\n      exp\n      swap1\n      div\n      0xff\n      and\n        /* \"@openzeppelin/contracts-upgradeable@4.8.1/proxy/utils/Initializable.sol\":3354:3370  _initialized < 1 */\n      0xff\n      and\n      lt\n        /* \"@openzeppelin/contracts-upgradeable@4.8.1/proxy/utils/Initializable.sol\":3336:3370  isTopLevelCall && _initialized < 1 */\n    tag_176:\n        /* \"@openzeppelin/contracts-upgradeable@4.8.1/proxy/utils/Initializable.sol\":3335:3443  (isTopLevelCall && _initialized < 1) || (!AddressUpgradeable.isContract(address(this)) && _initialized == 1) */\n      dup1\n      tag_177\n      jumpi\n      pop\n        /* \"@openzeppelin/contracts-upgradeable@4.8.1/proxy/utils/Initializable.sol\":3377:3421  AddressUpgradeable.isContract(address(this)) */\n      tag_178\n        /* \"@openzeppelin/contracts-upgradeable@4.8.1/proxy/utils/Initializable.sol\":3415:3419  this */\n      address\n        /* \"@openzeppelin/contracts-upgradeable@4.8.1/proxy/utils/Initializable.sol\":3377:3406  AddressUpgradeable.isContract */\n      tag_179\n        /* \"@openzeppelin/contracts-upgradeable@4.8.1/proxy/utils/Initializable.sol\":3377:3421  AddressUpgradeable.isContract(address(this)) */\n      jump\t// in\n    tag_178:\n        /* \"@openzeppelin/contracts-upgradeable@4.8.1/proxy/utils/Initializable.sol\":3376:3421  !AddressUpgradeable.isContract(address(this)) */\n      iszero\n        /* \"@openzeppelin/contracts-upgradeable@4.8.1/proxy/utils/Initializable.sol\":3376:3442  !AddressUpgradeable.isContract(address(this)) && _initialized == 1 */\n      dup1\n      iszero\n      tag_180\n      jumpi\n      pop\n        /* \"@openzeppelin/contracts-upgradeable@4.8.1/proxy/utils/Initializable.sol\":3441:3442  1 */\n      0x01\n        /* \"@openzeppelin/contracts-upgradeable@4.8.1/proxy/utils/Initializable.sol\":3425:3437  _initialized */\n      0x00\n      dup1\n      sload\n      swap1\n      0x0100\n      exp\n      swap1\n      div\n      0xff\n      and\n        /* \"@openzeppelin/contracts-upgradeable@4.8.1/proxy/utils/Initializable.sol\":3425:3442  _initialized == 1 */\n      0xff\n      and\n      eq\n        /* \"@openzeppelin/contracts-upgradeable@4.8.1/proxy/utils/Initializable.sol\":3376:3442  !AddressUpgradeable.isContract(address(this)) && _initialized == 1 */\n    tag_180:\n        /* \"@openzeppelin/contracts-upgradeable@4.8.1/proxy/utils/Initializable.sol\":3335:3443  (isTopLevelCall && _initialized < 1) || (!AddressUpgradeable.isContract(address(this)) && _initialized == 1) */\n    tag_177:\n        /* \"@openzeppelin/contracts-upgradeable@4.8.1/proxy/utils/Initializable.sol\":3314:3515  require(... */\n      tag_181\n      jumpi\n      mload(0x40)\n      0x08c379a000000000000000000000000000000000000000000000000000000000\n      dup2\n      mstore\n      0x04\n      add\n      tag_182\n      swap1\n      tag_183\n      jump\t// in\n    tag_182:\n      mload(0x40)\n      dup1\n      swap2\n      sub\n      swap1\n      revert\n    tag_181:\n        /* \"@openzeppelin/contracts-upgradeable@4.8.1/proxy/utils/Initializable.sol\":3540:3541  1 */\n      0x01\n        /* \"@openzeppelin/contracts-upgradeable@4.8.1/proxy/utils/Initializable.sol\":3525:3537  _initialized */\n      0x00\n      dup1\n        /* \"@openzeppelin/contracts-upgradeable@4.8.1/proxy/utils/Initializable.sol\":3525:3541  _initialized = 1 */\n      0x0100\n      exp\n      dup2\n      sload\n      dup2\n      0xff\n      mul\n      not\n      and\n      swap1\n      dup4\n      0xff\n      and\n      mul\n      or\n      swap1\n      sstore\n      pop\n        /* \"@openzeppelin/contracts-upgradeable@4.8.1/proxy/utils/Initializable.sol\":3555:3569  isTopLevelCall */\n      dup1\n        /* \"@openzeppelin/contracts-upgradeable@4.8.1/proxy/utils/Initializable.sol\":3551:3616  if (isTopLevelCall) {... */\n      iszero\n      tag_184\n      jumpi\n        /* \"@openzeppelin/contracts-upgradeable@4.8.1/proxy/utils/Initializable.sol\":3601:3605  true */\n      0x01\n        /* \"@openzeppelin/contracts-upgradeable@4.8.1/proxy/utils/Initializable.sol\":3585:3598  _initializing */\n      0x00\n      0x01\n        /* \"@openzeppelin/contracts-upgradeable@4.8.1/proxy/utils/Initializable.sol\":3585:3605  _initializing = true */\n      0x0100\n      exp\n      dup2\n      sload\n      dup2\n      0xff\n      mul\n      not\n      and\n      swap1\n      dup4\n      iszero\n      iszero\n      mul\n      or\n      swap1\n      sstore\n      pop\n        /* \"@openzeppelin/contracts-upgradeable@4.8.1/proxy/utils/Initializable.sol\":3551:3616  if (isTopLevelCall) {... */\n    tag_184:\n        /* \"contract-1221c7c9fb.sol\":651:683  __ERC20_init(\"TogoToken\", \"TGK\") */\n      tag_186\n      mload(0x40)\n      dup1\n      0x40\n      add\n      0x40\n      mstore\n      dup1\n      0x09\n      dup2\n      mstore\n      0x20\n      add\n      0x546f676f546f6b656e0000000000000000000000000000000000000000000000\n      dup2\n      mstore\n      pop\n      mload(0x40)\n      dup1\n      0x40\n      add\n      0x40\n      mstore\n      dup1\n      0x03\n      dup2\n      mstore\n      0x20\n      add\n      0x54474b0000000000000000000000000000000000000000000000000000000000\n      dup2\n      mstore\n      pop\n        /* \"contract-1221c7c9fb.sol\":651:663  __ERC20_init */\n      tag_187\n        /* \"contract-1221c7c9fb.sol\":651:683  __ERC20_init(\"TogoToken\", \"TGK\") */\n      jump\t// in\n    tag_186:\n        /* \"contract-1221c7c9fb.sol\":693:709  __Ownable_init() */\n      tag_188\n        /* \"contract-1221c7c9fb.sol\":693:707  __Ownable_init */\n      tag_189\n        /* \"contract-1221c7c9fb.sol\":693:709  __Ownable_init() */\n      jump\t// in\n    tag_188:\n        /* \"contract-1221c7c9fb.sol\":719:743  __UUPSUpgradeable_init() */\n      tag_190\n        /* \"contract-1221c7c9fb.sol\":719:741  __UUPSUpgradeable_init */\n      tag_191\n        /* \"contract-1221c7c9fb.sol\":719:743  __UUPSUpgradeable_init() */\n      jump\t// in\n    tag_190:\n        /* \"contract-1221c7c9fb.sol\":754:802  _mint(msg.sender, 7000000000 * 10 ** decimals()) */\n      tag_192\n        /* \"contract-1221c7c9fb.sol\":760:770  msg.sender */\n      caller\n        /* \"contract-1221c7c9fb.sol\":791:801  decimals() */\n      tag_193\n        /* \"contract-1221c7c9fb.sol\":791:799  decimals */\n      tag_48\n        /* \"contract-1221c7c9fb.sol\":791:801  decimals() */\n      jump\t// in\n    tag_193:\n        /* \"contract-1221c7c9fb.sol\":785:787  10 */\n      0x0a\n        /* \"contract-1221c7c9fb.sol\":785:801  10 ** decimals() */\n      tag_194\n      swap2\n      swap1\n      tag_195\n      jump\t// in\n    tag_194:\n        /* \"contract-1221c7c9fb.sol\":772:782  7000000000 */\n      0x01a13b8600\n        /* \"contract-1221c7c9fb.sol\":772:801  7000000000 * 10 ** decimals() */\n      tag_196\n      swap2\n      swap1\n      tag_197\n      jump\t// in\n    tag_196:\n        /* \"contract-1221c7c9fb.sol\":754:759  _mint */\n      tag_198\n        /* \"contract-1221c7c9fb.sol\":754:802  _mint(msg.sender, 7000000000 * 10 ** decimals()) */\n      jump\t// in\n    tag_192:\n        /* \"@openzeppelin/contracts-upgradeable@4.8.1/proxy/utils/Initializable.sol\":3640:3654  isTopLevelCall */\n      dup1\n        /* \"@openzeppelin/contracts-upgradeable@4.8.1/proxy/utils/Initializable.sol\":3636:3735  if (isTopLevelCall) {... */\n      iszero\n      tag_199\n      jumpi\n        /* \"@openzeppelin/contracts-upgradeable@4.8.1/proxy/utils/Initializable.sol\":3686:3691  false */\n      0x00\n        /* \"@openzeppelin/contracts-upgradeable@4.8.1/proxy/utils/Initializable.sol\":3670:3683  _initializing */\n      dup1\n      0x01\n        /* \"@openzeppelin/contracts-upgradeable@4.8.1/proxy/utils/Initializable.sol\":3670:3691  _initializing = false */\n      0x0100\n      exp\n      dup2\n      sload\n      dup2\n      0xff\n      mul\n      not\n      and\n      swap1\n      dup4\n      iszero\n      iszero\n      mul\n      or\n      swap1\n      sstore\n      pop\n        /* \"@openzeppelin/contracts-upgradeable@4.8.1/proxy/utils/Initializable.sol\":3710:3724  Initialized(1) */\n      0x7f26b83ff96e1f2b6a682f133852f6798a09c465da95921460cefb3847402498\n        /* \"@openzeppelin/contracts-upgradeable@4.8.1/proxy/utils/Initializable.sol\":3722:3723  1 */\n      0x01\n        /* \"@openzeppelin/contracts-upgradeable@4.8.1/proxy/utils/Initializable.sol\":3710:3724  Initialized(1) */\n      mload(0x40)\n      tag_200\n      swap2\n      swap1\n      tag_201\n      jump\t// in\n    tag_200:\n      mload(0x40)\n      dup1\n      swap2\n      sub\n      swap1\n      log1\n        /* \"@openzeppelin/contracts-upgradeable@4.8.1/proxy/utils/Initializable.sol\":3636:3735  if (isTopLevelCall) {... */\n    tag_199:\n        /* \"@openzeppelin/contracts-upgradeable@4.8.1/proxy/utils/Initializable.sol\":3258:3741  {... */\n      pop\n        /* \"contract-1221c7c9fb.sol\":600:809  function initialize() initializer public {... */\n      jump\t// out\n        /* \"@openzeppelin/contracts-upgradeable@4.8.1/access/OwnableUpgradeable.sol\":1441:1526  function owner() public view virtual returns (address) {... */\n    tag_83:\n        /* \"@openzeppelin/contracts-upgradeable@4.8.1/access/OwnableUpgradeable.sol\":1487:1494  address */\n      0x00\n        /* \"@openzeppelin/contracts-upgradeable@4.8.1/access/OwnableUpgradeable.sol\":1513:1519  _owner */\n      0x65\n      0x00\n      swap1\n      sload\n      swap1\n      0x0100\n      exp\n      swap1\n      div\n      0xffffffffffffffffffffffffffffffffffffffff\n      and\n        /* \"@openzeppelin/contracts-upgradeable@4.8.1/access/OwnableUpgradeable.sol\":1506:1519  return _owner */\n      swap1\n      pop\n        /* \"@openzeppelin/contracts-upgradeable@4.8.1/access/OwnableUpgradeable.sol\":1441:1526  function owner() public view virtual returns (address) {... */\n      swap1\n      jump\t// out\n        /* \"@openzeppelin/contracts-upgradeable@4.8.1/token/ERC20/ERC20Upgradeable.sol\":2702:2804  function symbol() public view virtual override returns (string memory) {... */\n    tag_88:\n        /* \"@openzeppelin/contracts-upgradeable@4.8.1/token/ERC20/ERC20Upgradeable.sol\":2758:2771  string memory */\n      0x60\n        /* \"@openzeppelin/contracts-upgradeable@4.8.1/token/ERC20/ERC20Upgradeable.sol\":2790:2797  _symbol */\n      0x37\n        /* \"@openzeppelin/contracts-upgradeable@4.8.1/token/ERC20/ERC20Upgradeable.sol\":2783:2797  return _symbol */\n      dup1\n      sload\n      tag_204\n      swap1\n      tag_112\n      jump\t// in\n    tag_204:\n      dup1\n      0x1f\n      add\n      0x20\n      dup1\n      swap2\n      div\n      mul\n      0x20\n      add\n      mload(0x40)\n      swap1\n      dup2\n      add\n      0x40\n      mstore\n      dup1\n      swap3\n      swap2\n      swap1\n      dup2\n      dup2\n      mstore\n      0x20\n      add\n      dup3\n      dup1\n      sload\n      tag_205\n      swap1\n      tag_112\n      jump\t// in\n    tag_205:\n      dup1\n      iszero\n      tag_206\n      jumpi\n      dup1\n      0x1f\n      lt\n      tag_207\n      jumpi\n      0x0100\n      dup1\n      dup4\n      sload\n      div\n      mul\n      dup4\n      mstore\n      swap2\n      0x20\n      add\n      swap2\n      jump(tag_206)\n    tag_207:\n      dup3\n      add\n      swap2\n      swap1\n      0x00\n      mstore\n      keccak256(0x00, 0x20)\n      swap1\n    tag_208:\n      dup2\n      sload\n      dup2\n      mstore\n      swap1\n      0x01\n      add\n      swap1\n      0x20\n      add\n      dup1\n      dup4\n      gt\n      tag_208\n      jumpi\n      dup3\n      swap1\n      sub\n      0x1f\n      and\n      dup3\n      add\n      swap2\n    tag_206:\n      pop\n      pop\n      pop\n      pop\n      pop\n      swap1\n      pop\n        /* \"@openzeppelin/contracts-upgradeable@4.8.1/token/ERC20/ERC20Upgradeable.sol\":2702:2804  function symbol() public view virtual override returns (string memory) {... */\n      swap1\n      jump\t// out\n        /* \"@openzeppelin/contracts-upgradeable@4.8.1/token/ERC20/ERC20Upgradeable.sol\":6929:7356  function decreaseAllowance(address spender, uint256 subtractedValue) public virtual returns (bool) {... */\n    tag_93:\n        /* \"@openzeppelin/contracts-upgradeable@4.8.1/token/ERC20/ERC20Upgradeable.sol\":7022:7026  bool */\n      0x00\n        /* \"@openzeppelin/contracts-upgradeable@4.8.1/token/ERC20/ERC20Upgradeable.sol\":7038:7051  address owner */\n      dup1\n        /* \"@openzeppelin/contracts-upgradeable@4.8.1/token/ERC20/ERC20Upgradeable.sol\":7054:7066  _msgSender() */\n      tag_210\n        /* \"@openzeppelin/contracts-upgradeable@4.8.1/token/ERC20/ERC20Upgradeable.sol\":7054:7064  _msgSender */\n      tag_119\n        /* \"@openzeppelin/contracts-upgradeable@4.8.1/token/ERC20/ERC20Upgradeable.sol\":7054:7066  _msgSender() */\n      jump\t// in\n    tag_210:\n        /* \"@openzeppelin/contracts-upgradeable@4.8.1/token/ERC20/ERC20Upgradeable.sol\":7038:7066  address owner = _msgSender() */\n      swap1\n      pop\n        /* \"@openzeppelin/contracts-upgradeable@4.8.1/token/ERC20/ERC20Upgradeable.sol\":7076:7100  uint256 currentAllowance */\n      0x00\n        /* \"@openzeppelin/contracts-upgradeable@4.8.1/token/ERC20/ERC20Upgradeable.sol\":7103:7128  allowance(owner, spender) */\n      tag_211\n        /* \"@openzeppelin/contracts-upgradeable@4.8.1/token/ERC20/ERC20Upgradeable.sol\":7113:7118  owner */\n      dup3\n        /* \"@openzeppelin/contracts-upgradeable@4.8.1/token/ERC20/ERC20Upgradeable.sol\":7120:7127  spender */\n      dup7\n        /* \"@openzeppelin/contracts-upgradeable@4.8.1/token/ERC20/ERC20Upgradeable.sol\":7103:7112  allowance */\n      tag_104\n        /* \"@openzeppelin/contracts-upgradeable@4.8.1/token/ERC20/ERC20Upgradeable.sol\":7103:7128  allowance(owner, spender) */\n      jump\t// in\n    tag_211:\n        /* \"@openzeppelin/contracts-upgradeable@4.8.1/token/ERC20/ERC20Upgradeable.sol\":7076:7128  uint256 currentAllowance = allowance(owner, spender) */\n      swap1\n      pop\n        /* \"@openzeppelin/contracts-upgradeable@4.8.1/token/ERC20/ERC20Upgradeable.sol\":7166:7181  subtractedValue */\n      dup4\n        /* \"@openzeppelin/contracts-upgradeable@4.8.1/token/ERC20/ERC20Upgradeable.sol\":7146:7162  currentAllowance */\n      dup2\n        /* \"@openzeppelin/contracts-upgradeable@4.8.1/token/ERC20/ERC20Upgradeable.sol\":7146:7181  currentAllowance >= subtractedValue */\n      lt\n      iszero\n        /* \"@openzeppelin/contracts-upgradeable@4.8.1/token/ERC20/ERC20Upgradeable.sol\":7138:7223  require(currentAllowance >= subtractedValue, \"ERC20: decreased allowance below zero\") */\n      tag_212\n      jumpi\n      mload(0x40)\n      0x08c379a000000000000000000000000000000000000000000000000000000000\n      dup2\n      mstore\n      0x04\n      add\n      tag_213\n      swap1\n      tag_214\n      jump\t// in\n    tag_213:\n      mload(0x40)\n      dup1\n      swap2\n      sub\n      swap1\n      revert\n    tag_212:\n        /* \"@openzeppelin/contracts-upgradeable@4.8.1/token/ERC20/ERC20Upgradeable.sol\":7257:7317  _approve(owner, spender, currentAllowance - subtractedValue) */\n      tag_215\n        /* \"@openzeppelin/contracts-upgradeable@4.8.1/token/ERC20/ERC20Upgradeable.sol\":7266:7271  owner */\n      dup3\n        /* \"@openzeppelin/contracts-upgradeable@4.8.1/token/ERC20/ERC20Upgradeable.sol\":7273:7280  spender */\n      dup7\n        /* \"@openzeppelin/contracts-upgradeable@4.8.1/token/ERC20/ERC20Upgradeable.sol\":7301:7316  subtractedValue */\n      dup7\n        /* \"@openzeppelin/contracts-upgradeable@4.8.1/token/ERC20/ERC20Upgradeable.sol\":7282:7298  currentAllowance */\n      dup5\n        /* \"@openzeppelin/contracts-upgradeable@4.8.1/token/ERC20/ERC20Upgradeable.sol\":7282:7316  currentAllowance - subtractedValue */\n      sub\n        /* \"@openzeppelin/contracts-upgradeable@4.8.1/token/ERC20/ERC20Upgradeable.sol\":7257:7265  _approve */\n      tag_121\n        /* \"@openzeppelin/contracts-upgradeable@4.8.1/token/ERC20/ERC20Upgradeable.sol\":7257:7317  _approve(owner, spender, currentAllowance - subtractedValue) */\n      jump\t// in\n    tag_215:\n        /* \"@openzeppelin/contracts-upgradeable@4.8.1/token/ERC20/ERC20Upgradeable.sol\":7345:7349  true */\n      0x01\n        /* \"@openzeppelin/contracts-upgradeable@4.8.1/token/ERC20/ERC20Upgradeable.sol\":7338:7349  return true */\n      swap3\n      pop\n      pop\n      pop\n        /* \"@openzeppelin/contracts-upgradeable@4.8.1/token/ERC20/ERC20Upgradeable.sol\":6929:7356  function decreaseAllowance(address spender, uint256 subtractedValue) public virtual returns (bool) {... */\n      swap3\n      swap2\n      pop\n      pop\n      jump\t// out\n        /* \"@openzeppelin/contracts-upgradeable@4.8.1/token/ERC20/ERC20Upgradeable.sol\":4064:4253  function transfer(address to, uint256 amount) public virtual override returns (bool) {... */\n    tag_98:\n        /* \"@openzeppelin/contracts-upgradeable@4.8.1/token/ERC20/ERC20Upgradeable.sol\":4143:4147  bool */\n      0x00\n        /* \"@openzeppelin/contracts-upgradeable@4.8.1/token/ERC20/ERC20Upgradeable.sol\":4159:4172  address owner */\n      dup1\n        /* \"@openzeppelin/contracts-upgradeable@4.8.1/token/ERC20/ERC20Upgradeable.sol\":4175:4187  _msgSender() */\n      tag_217\n        /* \"@openzeppelin/contracts-upgradeable@4.8.1/token/ERC20/ERC20Upgradeable.sol\":4175:4185  _msgSender */\n      tag_119\n        /* \"@openzeppelin/contracts-upgradeable@4.8.1/token/ERC20/ERC20Upgradeable.sol\":4175:4187  _msgSender() */\n      jump\t// in\n    tag_217:\n        /* \"@openzeppelin/contracts-upgradeable@4.8.1/token/ERC20/ERC20Upgradeable.sol\":4159:4187  address owner = _msgSender() */\n      swap1\n      pop\n        /* \"@openzeppelin/contracts-upgradeable@4.8.1/token/ERC20/ERC20Upgradeable.sol\":4197:4225  _transfer(owner, to, amount) */\n      tag_218\n        /* \"@openzeppelin/contracts-upgradeable@4.8.1/token/ERC20/ERC20Upgradeable.sol\":4207:4212  owner */\n      dup2\n        /* \"@openzeppelin/contracts-upgradeable@4.8.1/token/ERC20/ERC20Upgradeable.sol\":4214:4216  to */\n      dup6\n        /* \"@openzeppelin/contracts-upgradeable@4.8.1/token/ERC20/ERC20Upgradeable.sol\":4218:4224  amount */\n      dup6\n        /* \"@openzeppelin/contracts-upgradeable@4.8.1/token/ERC20/ERC20Upgradeable.sol\":4197:4206  _transfer */\n      tag_128\n        /* \"@openzeppelin/contracts-upgradeable@4.8.1/token/ERC20/ERC20Upgradeable.sol\":4197:4225  _transfer(owner, to, amount) */\n      jump\t// in\n    tag_218:\n        /* \"@openzeppelin/contracts-upgradeable@4.8.1/token/ERC20/ERC20Upgradeable.sol\":4242:4246  true */\n      0x01\n        /* \"@openzeppelin/contracts-upgradeable@4.8.1/token/ERC20/ERC20Upgradeable.sol\":4235:4246  return true */\n      swap2\n      pop\n      pop\n        /* \"@openzeppelin/contracts-upgradeable@4.8.1/token/ERC20/ERC20Upgradeable.sol\":4064:4253  function transfer(address to, uint256 amount) public virtual override returns (bool) {... */\n      swap3\n      swap2\n      pop\n      pop\n      jump\t// out\n        /* \"@openzeppelin/contracts-upgradeable@4.8.1/token/ERC20/ERC20Upgradeable.sol\":4311:4460  function allowance(address owner, address spender) public view virtual override returns (uint256) {... */\n    tag_104:\n        /* \"@openzeppelin/contracts-upgradeable@4.8.1/token/ERC20/ERC20Upgradeable.sol\":4400:4407  uint256 */\n      0x00\n        /* \"@openzeppelin/contracts-upgradeable@4.8.1/token/ERC20/ERC20Upgradeable.sol\":4426:4437  _allowances */\n      0x34\n        /* \"@openzeppelin/contracts-upgradeable@4.8.1/token/ERC20/ERC20Upgradeable.sol\":4426:4444  _allowances[owner] */\n      0x00\n        /* \"@openzeppelin/contracts-upgradeable@4.8.1/token/ERC20/ERC20Upgradeable.sol\":4438:4443  owner */\n      dup5\n        /* \"@openzeppelin/contracts-upgradeable@4.8.1/token/ERC20/ERC20Upgradeable.sol\":4426:4444  _allowances[owner] */\n      0xffffffffffffffffffffffffffffffffffffffff\n      and\n      0xffffffffffffffffffffffffffffffffffffffff\n      and\n      dup2\n      mstore\n      0x20\n      add\n      swap1\n      dup2\n      mstore\n      0x20\n      add\n      0x00\n      keccak256\n        /* \"@openzeppelin/contracts-upgradeable@4.8.1/token/ERC20/ERC20Upgradeable.sol\":4426:4453  _allowances[owner][spender] */\n      0x00\n        /* \"@openzeppelin/contracts-upgradeable@4.8.1/token/ERC20/ERC20Upgradeable.sol\":4445:4452  spender */\n      dup4\n        /* \"@openzeppelin/contracts-upgradeable@4.8.1/token/ERC20/ERC20Upgradeable.sol\":4426:4453  _allowances[owner][spender] */\n      0xffffffffffffffffffffffffffffffffffffffff\n      and\n      0xffffffffffffffffffffffffffffffffffffffff\n      and\n      dup2\n      mstore\n      0x20\n      add\n      swap1\n      dup2\n      mstore\n      0x20\n      add\n      0x00\n      keccak256\n      sload\n        /* \"@openzeppelin/contracts-upgradeable@4.8.1/token/ERC20/ERC20Upgradeable.sol\":4419:4453  return _allowances[owner][spender] */\n      swap1\n      pop\n        /* \"@openzeppelin/contracts-upgradeable@4.8.1/token/ERC20/ERC20Upgradeable.sol\":4311:4460  function allowance(address owner, address spender) public view virtual override returns (uint256) {... */\n      swap3\n      swap2\n      pop\n      pop\n      jump\t// out\n        /* \"@openzeppelin/contracts-upgradeable@4.8.1/access/OwnableUpgradeable.sol\":2321:2519  function transferOwnership(address newOwner) public virtual onlyOwner {... */\n    tag_109:\n        /* \"@openzeppelin/contracts-upgradeable@4.8.1/access/OwnableUpgradeable.sol\":1334:1347  _checkOwner() */\n      tag_221\n        /* \"@openzeppelin/contracts-upgradeable@4.8.1/access/OwnableUpgradeable.sol\":1334:1345  _checkOwner */\n      tag_171\n        /* \"@openzeppelin/contracts-upgradeable@4.8.1/access/OwnableUpgradeable.sol\":1334:1347  _checkOwner() */\n      jump\t// in\n    tag_221:\n        /* \"@openzeppelin/contracts-upgradeable@4.8.1/access/OwnableUpgradeable.sol\":2429:2430  0 */\n      0x00\n        /* \"@openzeppelin/contracts-upgradeable@4.8.1/access/OwnableUpgradeable.sol\":2409:2431  newOwner != address(0) */\n      0xffffffffffffffffffffffffffffffffffffffff\n      and\n        /* \"@openzeppelin/contracts-upgradeable@4.8.1/access/OwnableUpgradeable.sol\":2409:2417  newOwner */\n      dup2\n        /* \"@openzeppelin/contracts-upgradeable@4.8.1/access/OwnableUpgradeable.sol\":2409:2431  newOwner != address(0) */\n      0xffffffffffffffffffffffffffffffffffffffff\n      and\n      sub\n        /* \"@openzeppelin/contracts-upgradeable@4.8.1/access/OwnableUpgradeable.sol\":2401:2474  require(newOwner != address(0), \"Ownable: new owner is the zero address\") */\n      tag_223\n      jumpi\n      mload(0x40)\n      0x08c379a000000000000000000000000000000000000000000000000000000000\n      dup2\n      mstore\n      0x04\n      add\n      tag_224\n      swap1\n      tag_225\n      jump\t// in\n    tag_224:\n      mload(0x40)\n      dup1\n      swap2\n      sub\n      swap1\n      revert\n    tag_223:\n        /* \"@openzeppelin/contracts-upgradeable@4.8.1/access/OwnableUpgradeable.sol\":2484:2512  _transferOwnership(newOwner) */\n      tag_226\n        /* \"@openzeppelin/contracts-upgradeable@4.8.1/access/OwnableUpgradeable.sol\":2503:2511  newOwner */\n      dup2\n        /* \"@openzeppelin/contracts-upgradeable@4.8.1/access/OwnableUpgradeable.sol\":2484:2502  _transferOwnership */\n      tag_174\n        /* \"@openzeppelin/contracts-upgradeable@4.8.1/access/OwnableUpgradeable.sol\":2484:2512  _transferOwnership(newOwner) */\n      jump\t// in\n    tag_226:\n        /* \"@openzeppelin/contracts-upgradeable@4.8.1/access/OwnableUpgradeable.sol\":2321:2519  function transferOwnership(address newOwner) public virtual onlyOwner {... */\n      pop\n      jump\t// out\n        /* \"@openzeppelin/contracts-upgradeable@4.8.1/utils/ContextUpgradeable.sol\":850:946  function _msgSender() internal view virtual returns (address) {... */\n    tag_119:\n        /* \"@openzeppelin/contracts-upgradeable@4.8.1/utils/ContextUpgradeable.sol\":903:910  address */\n      0x00\n        /* \"@openzeppelin/contracts-upgradeable@4.8.1/utils/ContextUpgradeable.sol\":929:939  msg.sender */\n      caller\n        /* \"@openzeppelin/contracts-upgradeable@4.8.1/utils/ContextUpgradeable.sol\":922:939  return msg.sender */\n      swap1\n      pop\n        /* \"@openzeppelin/contracts-upgradeable@4.8.1/utils/ContextUpgradeable.sol\":850:946  function _msgSender() internal view virtual returns (address) {... */\n      swap1\n      jump\t// out\n        /* \"@openzeppelin/contracts-upgradeable@4.8.1/token/ERC20/ERC20Upgradeable.sol\":10841:11211  function _approve(... */\n    tag_121:\n        /* \"@openzeppelin/contracts-upgradeable@4.8.1/token/ERC20/ERC20Upgradeable.sol\":10989:10990  0 */\n      0x00\n        /* \"@openzeppelin/contracts-upgradeable@4.8.1/token/ERC20/ERC20Upgradeable.sol\":10972:10991  owner != address(0) */\n      0xffffffffffffffffffffffffffffffffffffffff\n      and\n        /* \"@openzeppelin/contracts-upgradeable@4.8.1/token/ERC20/ERC20Upgradeable.sol\":10972:10977  owner */\n      dup4\n        /* \"@openzeppelin/contracts-upgradeable@4.8.1/token/ERC20/ERC20Upgradeable.sol\":10972:10991  owner != address(0) */\n      0xffffffffffffffffffffffffffffffffffffffff\n      and\n      sub\n        /* \"@openzeppelin/contracts-upgradeable@4.8.1/token/ERC20/ERC20Upgradeable.sol\":10964:11032  require(owner != address(0), \"ERC20: approve from the zero address\") */\n      tag_229\n      jumpi\n      mload(0x40)\n      0x08c379a000000000000000000000000000000000000000000000000000000000\n      dup2\n      mstore\n      0x04\n      add\n      tag_230\n      swap1\n      tag_231\n      jump\t// in\n    tag_230:\n      mload(0x40)\n      dup1\n      swap2\n      sub\n      swap1\n      revert\n    tag_229:\n        /* \"@openzeppelin/contracts-upgradeable@4.8.1/token/ERC20/ERC20Upgradeable.sol\":11069:11070  0 */\n      0x00\n        /* \"@openzeppelin/contracts-upgradeable@4.8.1/token/ERC20/ERC20Upgradeable.sol\":11050:11071  spender != address(0) */\n      0xffffffffffffffffffffffffffffffffffffffff\n      and\n        /* \"@openzeppelin/contracts-upgradeable@4.8.1/token/ERC20/ERC20Upgradeable.sol\":11050:11057  spender */\n      dup3\n        /* \"@openzeppelin/contracts-upgradeable@4.8.1/token/ERC20/ERC20Upgradeable.sol\":11050:11071  spender != address(0) */\n      0xffffffffffffffffffffffffffffffffffffffff\n      and\n      sub\n        /* \"@openzeppelin/contracts-upgradeable@4.8.1/token/ERC20/ERC20Upgradeable.sol\":11042:11110  require(spender != address(0), \"ERC20: approve to the zero address\") */\n      tag_232\n      jumpi\n      mload(0x40)\n      0x08c379a000000000000000000000000000000000000000000000000000000000\n      dup2\n      mstore\n      0x04\n      add\n      tag_233\n      swap1\n      tag_234\n      jump\t// in\n    tag_233:\n      mload(0x40)\n      dup1\n      swap2\n      sub\n      swap1\n      revert\n    tag_232:\n        /* \"@openzeppelin/contracts-upgradeable@4.8.1/token/ERC20/ERC20Upgradeable.sol\":11151:11157  amount */\n      dup1\n        /* \"@openzeppelin/contracts-upgradeable@4.8.1/token/ERC20/ERC20Upgradeable.sol\":11121:11132  _allowances */\n      0x34\n        /* \"@openzeppelin/contracts-upgradeable@4.8.1/token/ERC20/ERC20Upgradeable.sol\":11121:11139  _allowances[owner] */\n      0x00\n        /* \"@openzeppelin/contracts-upgradeable@4.8.1/token/ERC20/ERC20Upgradeable.sol\":11133:11138  owner */\n      dup6\n        /* \"@openzeppelin/contracts-upgradeable@4.8.1/token/ERC20/ERC20Upgradeable.sol\":11121:11139  _allowances[owner] */\n      0xffffffffffffffffffffffffffffffffffffffff\n      and\n      0xffffffffffffffffffffffffffffffffffffffff\n      and\n      dup2\n      mstore\n      0x20\n      add\n      swap1\n      dup2\n      mstore\n      0x20\n      add\n      0x00\n      keccak256\n        /* \"@openzeppelin/contracts-upgradeable@4.8.1/token/ERC20/ERC20Upgradeable.sol\":11121:11148  _allowances[owner][spender] */\n      0x00\n        /* \"@openzeppelin/contracts-upgradeable@4.8.1/token/ERC20/ERC20Upgradeable.sol\":11140:11147  spender */\n      dup5\n        /* \"@openzeppelin/contracts-upgradeable@4.8.1/token/ERC20/ERC20Upgradeable.sol\":11121:11148  _allowances[owner][spender] */\n      0xffffffffffffffffffffffffffffffffffffffff\n      and\n      0xffffffffffffffffffffffffffffffffffffffff\n      and\n      dup2\n      mstore\n      0x20\n      add\n      swap1\n      dup2\n      mstore\n      0x20\n      add\n      0x00\n      keccak256\n        /* \"@openzeppelin/contracts-upgradeable@4.8.1/token/ERC20/ERC20Upgradeable.sol\":11121:11157  _allowances[owner][spender] = amount */\n      dup2\n      swap1\n      sstore\n      pop\n        /* \"@openzeppelin/contracts-upgradeable@4.8.1/token/ERC20/ERC20Upgradeable.sol\":11188:11195  spender */\n      dup2\n        /* \"@openzeppelin/contracts-upgradeable@4.8.1/token/ERC20/ERC20Upgradeable.sol\":11172:11204  Approval(owner, spender, amount) */\n      0xffffffffffffffffffffffffffffffffffffffff\n      and\n        /* \"@openzeppelin/contracts-upgradeable@4.8.1/token/ERC20/ERC20Upgradeable.sol\":11181:11186  owner */\n      dup4\n        /* \"@openzeppelin/contracts-upgradeable@4.8.1/token/ERC20/ERC20Upgradeable.sol\":11172:11204  Approval(owner, spender, amount) */\n      0xffffffffffffffffffffffffffffffffffffffff\n      and\n      0x8c5be1e5ebec7d5bd14f71427d1e84f3dd0314c0f7b2291e5b200ac8c7c3b925\n        /* \"@openzeppelin/contracts-upgradeable@4.8.1/token/ERC20/ERC20Upgradeable.sol\":11197:11203  amount */\n      dup4\n        /* \"@openzeppelin/contracts-upgradeable@4.8.1/token/ERC20/ERC20Upgradeable.sol\":11172:11204  Approval(owner, spender, amount) */\n      mload(0x40)\n      tag_235\n      swap2\n      swap1\n      tag_39\n      jump\t// in\n    tag_235:\n      mload(0x40)\n      dup1\n      swap2\n      sub\n      swap1\n      log3\n        /* \"@openzeppelin/contracts-upgradeable@4.8.1/token/ERC20/ERC20Upgradeable.sol\":10841:11211  function _approve(... */\n      pop\n      pop\n      pop\n      jump\t// out\n        /* \"@openzeppelin/contracts-upgradeable@4.8.1/token/ERC20/ERC20Upgradeable.sol\":11492:11933  function _spendAllowance(... */\n    tag_126:\n        /* \"@openzeppelin/contracts-upgradeable@4.8.1/token/ERC20/ERC20Upgradeable.sol\":11622:11646  uint256 currentAllowance */\n      0x00\n        /* \"@openzeppelin/contracts-upgradeable@4.8.1/token/ERC20/ERC20Upgradeable.sol\":11649:11674  allowance(owner, spender) */\n      tag_237\n        /* \"@openzeppelin/contracts-upgradeable@4.8.1/token/ERC20/ERC20Upgradeable.sol\":11659:11664  owner */\n      dup5\n        /* \"@openzeppelin/contracts-upgradeable@4.8.1/token/ERC20/ERC20Upgradeable.sol\":11666:11673  spender */\n      dup5\n        /* \"@openzeppelin/contracts-upgradeable@4.8.1/token/ERC20/ERC20Upgradeable.sol\":11649:11658  allowance */\n      tag_104\n        /* \"@openzeppelin/contracts-upgradeable@4.8.1/token/ERC20/ERC20Upgradeable.sol\":11649:11674  allowance(owner, spender) */\n      jump\t// in\n    tag_237:\n        /* \"@openzeppelin/contracts-upgradeable@4.8.1/token/ERC20/ERC20Upgradeable.sol\":11622:11674  uint256 currentAllowance = allowance(owner, spender) */\n      swap1\n      pop\n        /* \"@openzeppelin/contracts-upgradeable@4.8.1/token/ERC20/ERC20Upgradeable.sol\":11708:11725  type(uint256).max */\n      0xffffffffffffffffffffffffffffffffffffffffffffffffffffffffffffffff\n        /* \"@openzeppelin/contracts-upgradeable@4.8.1/token/ERC20/ERC20Upgradeable.sol\":11688:11704  currentAllowance */\n      dup2\n        /* \"@openzeppelin/contracts-upgradeable@4.8.1/token/ERC20/ERC20Upgradeable.sol\":11688:11725  currentAllowance != type(uint256).max */\n      eq\n        /* \"@openzeppelin/contracts-upgradeable@4.8.1/token/ERC20/ERC20Upgradeable.sol\":11684:11927  if (currentAllowance != type(uint256).max) {... */\n      tag_238\n      jumpi\n        /* \"@openzeppelin/contracts-upgradeable@4.8.1/token/ERC20/ERC20Upgradeable.sol\":11769:11775  amount */\n      dup2\n        /* \"@openzeppelin/contracts-upgradeable@4.8.1/token/ERC20/ERC20Upgradeable.sol\":11749:11765  currentAllowance */\n      dup2\n        /* \"@openzeppelin/contracts-upgradeable@4.8.1/token/ERC20/ERC20Upgradeable.sol\":11749:11775  currentAllowance >= amount */\n      lt\n      iszero\n        /* \"@openzeppelin/contracts-upgradeable@4.8.1/token/ERC20/ERC20Upgradeable.sol\":11741:11809  require(currentAllowance >= amount, \"ERC20: insufficient allowance\") */\n      tag_239\n      jumpi\n      mload(0x40)\n      0x08c379a000000000000000000000000000000000000000000000000000000000\n      dup2\n      mstore\n      0x04\n      add\n      tag_240\n      swap1\n      tag_241\n      jump\t// in\n    tag_240:\n      mload(0x40)\n      dup1\n      swap2\n      sub\n      swap1\n      revert\n    tag_239:\n        /* \"@openzeppelin/contracts-upgradeable@4.8.1/token/ERC20/ERC20Upgradeable.sol\":11851:11902  _approve(owner, spender, currentAllowance - amount) */\n      tag_242\n        /* \"@openzeppelin/contracts-upgradeable@4.8.1/token/ERC20/ERC20Upgradeable.sol\":11860:11865  owner */\n      dup5\n        /* \"@openzeppelin/contracts-upgradeable@4.8.1/token/ERC20/ERC20Upgradeable.sol\":11867:11874  spender */\n      dup5\n        /* \"@openzeppelin/contracts-upgradeable@4.8.1/token/ERC20/ERC20Upgradeable.sol\":11895:11901  amount */\n      dup5\n        /* \"@openzeppelin/contracts-upgradeable@4.8.1/token/ERC20/ERC20Upgradeable.sol\":11876:11892  currentAllowance */\n      dup5\n        /* \"@openzeppelin/contracts-upgradeable@4.8.1/token/ERC20/ERC20Upgradeable.sol\":11876:11901  currentAllowance - amount */\n      sub\n        /* \"@openzeppelin/contracts-upgradeable@4.8.1/token/ERC20/ERC20Upgradeable.sol\":11851:11859  _approve */\n      tag_121\n        /* \"@openzeppelin/contracts-upgradeable@4.8.1/token/ERC20/ERC20Upgradeable.sol\":11851:11902  _approve(owner, spender, currentAllowance - amount) */\n      jump\t// in\n    tag_242:\n        /* \"@openzeppelin/contracts-upgradeable@4.8.1/token/ERC20/ERC20Upgradeable.sol\":11684:11927  if (currentAllowance != type(uint256).max) {... */\n    tag_238:\n        /* \"@openzeppelin/contracts-upgradeable@4.8.1/token/ERC20/ERC20Upgradeable.sol\":11612:11933  {... */\n      pop\n        /* \"@openzeppelin/contracts-upgradeable@4.8.1/token/ERC20/ERC20Upgradeable.sol\":11492:11933  function _spendAllowance(... */\n      pop\n      pop\n      pop\n      jump\t// out\n        /* \"@openzeppelin/contracts-upgradeable@4.8.1/token/ERC20/ERC20Upgradeable.sol\":7810:8628  function _transfer(... */\n    tag_128:\n        /* \"@openzeppelin/contracts-upgradeable@4.8.1/token/ERC20/ERC20Upgradeable.sol\":7952:7953  0 */\n      0x00\n        /* \"@openzeppelin/contracts-upgradeable@4.8.1/token/ERC20/ERC20Upgradeable.sol\":7936:7954  from != address(0) */\n      0xffffffffffffffffffffffffffffffffffffffff\n      and\n        /* \"@openzeppelin/contracts-upgradeable@4.8.1/token/ERC20/ERC20Upgradeable.sol\":7936:7940  from */\n      dup4\n        /* \"@openzeppelin/contracts-upgradeable@4.8.1/token/ERC20/ERC20Upgradeable.sol\":7936:7954  from != address(0) */\n      0xffffffffffffffffffffffffffffffffffffffff\n      and\n      sub\n        /* \"@openzeppelin/contracts-upgradeable@4.8.1/token/ERC20/ERC20Upgradeable.sol\":7928:7996  require(from != address(0), \"ERC20: transfer from the zero address\") */\n      tag_244\n      jumpi\n      mload(0x40)\n      0x08c379a000000000000000000000000000000000000000000000000000000000\n      dup2\n      mstore\n      0x04\n      add\n      tag_245\n      swap1\n      tag_246\n      jump\t// in\n    tag_245:\n      mload(0x40)\n      dup1\n      swap2\n      sub\n      swap1\n      revert\n    tag_244:\n        /* \"@openzeppelin/contracts-upgradeable@4.8.1/token/ERC20/ERC20Upgradeable.sol\":8028:8029  0 */\n      0x00\n        /* \"@openzeppelin/contracts-upgradeable@4.8.1/token/ERC20/ERC20Upgradeable.sol\":8014:8030  to != address(0) */\n      0xffffffffffffffffffffffffffffffffffffffff\n      and\n        /* \"@openzeppelin/contracts-upgradeable@4.8.1/token/ERC20/ERC20Upgradeable.sol\":8014:8016  to */\n      dup3\n        /* \"@openzeppelin/contracts-upgradeable@4.8.1/token/ERC20/ERC20Upgradeable.sol\":8014:8030  to != address(0) */\n      0xffffffffffffffffffffffffffffffffffffffff\n      and\n      sub\n        /* \"@openzeppelin/contracts-upgradeable@4.8.1/token/ERC20/ERC20Upgradeable.sol\":8006:8070  require(to != address(0), \"ERC20: transfer to the zero address\") */\n      tag_247\n      jumpi\n      mload(0x40)\n      0x08c379a000000000000000000000000000000000000000000000000000000000\n      dup2\n      mstore\n      0x04\n      add\n      tag_248\n      swap1\n      tag_249\n      jump\t// in\n    tag_248:\n      mload(0x40)\n      dup1\n      swap2\n      sub\n      swap1\n      revert\n    tag_247:\n        /* \"@openzeppelin/contracts-upgradeable@4.8.1/token/ERC20/ERC20Upgradeable.sol\":8081:8119  _beforeTokenTransfer(from, to, amount) */\n      tag_250\n        /* \"@openzeppelin/contracts-upgradeable@4.8.1/token/ERC20/ERC20Upgradeable.sol\":8102:8106  from */\n      dup4\n        /* \"@openzeppelin/contracts-upgradeable@4.8.1/token/ERC20/ERC20Upgradeable.sol\":8108:8110  to */\n      dup4\n        /* \"@openzeppelin/contracts-upgradeable@4.8.1/token/ERC20/ERC20Upgradeable.sol\":8112:8118  amount */\n      dup4\n        /* \"@openzeppelin/contracts-upgradeable@4.8.1/token/ERC20/ERC20Upgradeable.sol\":8081:8101  _beforeTokenTransfer */\n      tag_251\n        /* \"@openzeppelin/contracts-upgradeable@4.8.1/token/ERC20/ERC20Upgradeable.sol\":8081:8119  _beforeTokenTransfer(from, to, amount) */\n      jump\t// in\n    tag_250:\n        /* \"@openzeppelin/contracts-upgradeable@4.8.1/token/ERC20/ERC20Upgradeable.sol\":8130:8149  uint256 fromBalance */\n      0x00\n        /* \"@openzeppelin/contracts-upgradeable@4.8.1/token/ERC20/ERC20Upgradeable.sol\":8152:8161  _balances */\n      0x33\n        /* \"@openzeppelin/contracts-upgradeable@4.8.1/token/ERC20/ERC20Upgradeable.sol\":8152:8167  _balances[from] */\n      0x00\n        /* \"@openzeppelin/contracts-upgradeable@4.8.1/token/ERC20/ERC20Upgradeable.sol\":8162:8166  from */\n      dup6\n        /* \"@openzeppelin/contracts-upgradeable@4.8.1/token/ERC20/ERC20Upgradeable.sol\":8152:8167  _balances[from] */\n      0xffffffffffffffffffffffffffffffffffffffff\n      and\n      0xffffffffffffffffffffffffffffffffffffffff\n      and\n      dup2\n      mstore\n      0x20\n      add\n      swap1\n      dup2\n      mstore\n      0x20\n      add\n      0x00\n      keccak256\n      sload\n        /* \"@openzeppelin/contracts-upgradeable@4.8.1/token/ERC20/ERC20Upgradeable.sol\":8130:8167  uint256 fromBalance = _balances[from] */\n      swap1\n      pop\n        /* \"@openzeppelin/contracts-upgradeable@4.8.1/token/ERC20/ERC20Upgradeable.sol\":8200:8206  amount */\n      dup2\n        /* \"@openzeppelin/contracts-upgradeable@4.8.1/token/ERC20/ERC20Upgradeable.sol\":8185:8196  fromBalance */\n      dup2\n        /* \"@openzeppelin/contracts-upgradeable@4.8.1/token/ERC20/ERC20Upgradeable.sol\":8185:8206  fromBalance >= amount */\n      lt\n      iszero\n        /* \"@openzeppelin/contracts-upgradeable@4.8.1/token/ERC20/ERC20Upgradeable.sol\":8177:8249  require(fromBalance >= amount, \"ERC20: transfer amount exceeds balance\") */\n      tag_252\n      jumpi\n      mload(0x40)\n      0x08c379a000000000000000000000000000000000000000000000000000000000\n      dup2\n      mstore\n      0x04\n      add\n      tag_253\n      swap1\n      tag_254\n      jump\t// in\n    tag_253:\n      mload(0x40)\n      dup1\n      swap2\n      sub\n      swap1\n      revert\n    tag_252:\n        /* \"@openzeppelin/contracts-upgradeable@4.8.1/token/ERC20/ERC20Upgradeable.sol\":8315:8321  amount */\n      dup2\n        /* \"@openzeppelin/contracts-upgradeable@4.8.1/token/ERC20/ERC20Upgradeable.sol\":8301:8312  fromBalance */\n      dup2\n        /* \"@openzeppelin/contracts-upgradeable@4.8.1/token/ERC20/ERC20Upgradeable.sol\":8301:8321  fromBalance - amount */\n      sub\n        /* \"@openzeppelin/contracts-upgradeable@4.8.1/token/ERC20/ERC20Upgradeable.sol\":8283:8292  _balances */\n      0x33\n        /* \"@openzeppelin/contracts-upgradeable@4.8.1/token/ERC20/ERC20Upgradeable.sol\":8283:8298  _balances[from] */\n      0x00\n        /* \"@openzeppelin/contracts-upgradeable@4.8.1/token/ERC20/ERC20Upgradeable.sol\":8293:8297  from */\n      dup7\n        /* \"@openzeppelin/contracts-upgradeable@4.8.1/token/ERC20/ERC20Upgradeable.sol\":8283:8298  _balances[from] */\n      0xffffffffffffffffffffffffffffffffffffffff\n      and\n      0xffffffffffffffffffffffffffffffffffffffff\n      and\n      dup2\n      mstore\n      0x20\n      add\n      swap1\n      dup2\n      mstore\n      0x20\n      add\n      0x00\n      keccak256\n        /* \"@openzeppelin/contracts-upgradeable@4.8.1/token/ERC20/ERC20Upgradeable.sol\":8283:8321  _balances[from] = fromBalance - amount */\n      dup2\n      swap1\n      sstore\n      pop\n        /* \"@openzeppelin/contracts-upgradeable@4.8.1/token/ERC20/ERC20Upgradeable.sol\":8515:8521  amount */\n      dup2\n        /* \"@openzeppelin/contracts-upgradeable@4.8.1/token/ERC20/ERC20Upgradeable.sol\":8498:8507  _balances */\n      0x33\n        /* \"@openzeppelin/contracts-upgradeable@4.8.1/token/ERC20/ERC20Upgradeable.sol\":8498:8511  _balances[to] */\n      0x00\n        /* \"@openzeppelin/contracts-upgradeable@4.8.1/token/ERC20/ERC20Upgradeable.sol\":8508:8510  to */\n      dup6\n        /* \"@openzeppelin/contracts-upgradeable@4.8.1/token/ERC20/ERC20Upgradeable.sol\":8498:8511  _balances[to] */\n      0xffffffffffffffffffffffffffffffffffffffff\n      and\n      0xffffffffffffffffffffffffffffffffffffffff\n      and\n      dup2\n      mstore\n      0x20\n      add\n      swap1\n      dup2\n      mstore\n      0x20\n      add\n      0x00\n      keccak256\n      0x00\n        /* \"@openzeppelin/contracts-upgradeable@4.8.1/token/ERC20/ERC20Upgradeable.sol\":8498:8521  _balances[to] += amount */\n      dup3\n      dup3\n      sload\n      add\n      swap3\n      pop\n      pop\n      dup2\n      swap1\n      sstore\n      pop\n        /* \"@openzeppelin/contracts-upgradeable@4.8.1/token/ERC20/ERC20Upgradeable.sol\":8562:8564  to */\n      dup3\n        /* \"@openzeppelin/contracts-upgradeable@4.8.1/token/ERC20/ERC20Upgradeable.sol\":8547:8573  Transfer(from, to, amount) */\n      0xffffffffffffffffffffffffffffffffffffffff\n      and\n        /* \"@openzeppelin/contracts-upgradeable@4.8.1/token/ERC20/ERC20Upgradeable.sol\":8556:8560  from */\n      dup5\n        /* \"@openzeppelin/contracts-upgradeable@4.8.1/token/ERC20/ERC20Upgradeable.sol\":8547:8573  Transfer(from, to, amount) */\n      0xffffffffffffffffffffffffffffffffffffffff\n      and\n      0xddf252ad1be2c89b69c2b068fc378daa952ba7f163c4a11628f55a4df523b3ef\n        /* \"@openzeppelin/contracts-upgradeable@4.8.1/token/ERC20/ERC20Upgradeable.sol\":8566:8572  amount */\n      dup5\n        /* \"@openzeppelin/contracts-upgradeable@4.8.1/token/ERC20/ERC20Upgradeable.sol\":8547:8573  Transfer(from, to, amount) */\n      mload(0x40)\n      tag_255\n      swap2\n      swap1\n      tag_39\n      jump\t// in\n    tag_255:\n      mload(0x40)\n      dup1\n      swap2\n      sub\n      swap1\n      log3\n        /* \"@openzeppelin/contracts-upgradeable@4.8.1/token/ERC20/ERC20Upgradeable.sol\":8584:8621  _afterTokenTransfer(from, to, amount) */\n      tag_256\n        /* \"@openzeppelin/contracts-upgradeable@4.8.1/token/ERC20/ERC20Upgradeable.sol\":8604:8608  from */\n      dup5\n        /* \"@openzeppelin/contracts-upgradeable@4.8.1/token/ERC20/ERC20Upgradeable.sol\":8610:8612  to */\n      dup5\n        /* \"@openzeppelin/contracts-upgradeable@4.8.1/token/ERC20/ERC20Upgradeable.sol\":8614:8620  amount */\n      dup5\n        /* \"@openzeppelin/contracts-upgradeable@4.8.1/token/ERC20/ERC20Upgradeable.sol\":8584:8603  _afterTokenTransfer */\n      tag_257\n        /* \"@openzeppelin/contracts-upgradeable@4.8.1/token/ERC20/ERC20Upgradeable.sol\":8584:8621  _afterTokenTransfer(from, to, amount) */\n      jump\t// in\n    tag_256:\n        /* \"@openzeppelin/contracts-upgradeable@4.8.1/token/ERC20/ERC20Upgradeable.sol\":7918:8628  {... */\n      pop\n        /* \"@openzeppelin/contracts-upgradeable@4.8.1/token/ERC20/ERC20Upgradeable.sol\":7810:8628  function _transfer(... */\n      pop\n      pop\n      pop\n      jump\t// out\n        /* \"@openzeppelin/contracts-upgradeable@4.8.1/proxy/ERC1967/ERC1967UpgradeUpgradeable.sol\":1563:1714  function _getImplementation() internal view returns (address) {... */\n    tag_135:\n        /* \"@openzeppelin/contracts-upgradeable@4.8.1/proxy/ERC1967/ERC1967UpgradeUpgradeable.sol\":1616:1623  address */\n      0x00\n        /* \"@openzeppelin/contracts-upgradeable@4.8.1/proxy/ERC1967/ERC1967UpgradeUpgradeable.sol\":1642:1701  StorageSlotUpgradeable.getAddressSlot(_IMPLEMENTATION_SLOT) */\n      tag_259\n        /* \"@openzeppelin/contracts-upgradeable@4.8.1/proxy/ERC1967/ERC1967UpgradeUpgradeable.sol\":1292:1358  0x360894a13ba1a3210667c828492db98dca3e2076cc3735a920a3ca505d382bbc */\n      0x360894a13ba1a3210667c828492db98dca3e2076cc3735a920a3ca505d382bbc\n        /* \"@openzeppelin/contracts-upgradeable@4.8.1/proxy/ERC1967/ERC1967UpgradeUpgradeable.sol\":1680:1700  _IMPLEMENTATION_SLOT */\n      0x00\n      shl\n        /* \"@openzeppelin/contracts-upgradeable@4.8.1/proxy/ERC1967/ERC1967UpgradeUpgradeable.sol\":1642:1679  StorageSlotUpgradeable.getAddressSlot */\n      tag_260\n        /* \"@openzeppelin/contracts-upgradeable@4.8.1/proxy/ERC1967/ERC1967UpgradeUpgradeable.sol\":1642:1701  StorageSlotUpgradeable.getAddressSlot(_IMPLEMENTATION_SLOT) */\n      jump\t// in\n    tag_259:\n        /* \"@openzeppelin/contracts-upgradeable@4.8.1/proxy/ERC1967/ERC1967UpgradeUpgradeable.sol\":1642:1707  StorageSlotUpgradeable.getAddressSlot(_IMPLEMENTATION_SLOT).value */\n      0x00\n      add\n      0x00\n      swap1\n      sload\n      swap1\n      0x0100\n      exp\n      swap1\n      div\n      0xffffffffffffffffffffffffffffffffffffffff\n      and\n        /* \"@openzeppelin/contracts-upgradeable@4.8.1/proxy/ERC1967/ERC1967UpgradeUpgradeable.sol\":1635:1707  return StorageSlotUpgradeable.getAddressSlot(_IMPLEMENTATION_SLOT).value */\n      swap1\n      pop\n        /* \"@openzeppelin/contracts-upgradeable@4.8.1/proxy/ERC1967/ERC1967UpgradeUpgradeable.sol\":1563:1714  function _getImplementation() internal view returns (address) {... */\n      swap1\n      jump\t// out\n        /* \"contract-1221c7c9fb.sol\":815:927  function _authorizeUpgrade(address newImplementation)... */\n    tag_141:\n        /* \"@openzeppelin/contracts-upgradeable@4.8.1/access/OwnableUpgradeable.sol\":1334:1347  _checkOwner() */\n      tag_262\n        /* \"@openzeppelin/contracts-upgradeable@4.8.1/access/OwnableUpgradeable.sol\":1334:1345  _checkOwner */\n      tag_171\n        /* \"@openzeppelin/contracts-upgradeable@4.8.1/access/OwnableUpgradeable.sol\":1334:1347  _checkOwner() */\n      jump\t// in\n    tag_262:\n        /* \"contract-1221c7c9fb.sol\":815:927  function _authorizeUpgrade(address newImplementation)... */\n      pop\n      jump\t// out\n        /* \"@openzeppelin/contracts-upgradeable@4.8.1/proxy/ERC1967/ERC1967UpgradeUpgradeable.sol\":2938:3912  function _upgradeToAndCallUUPS(... */\n    tag_147:\n        /* \"@openzeppelin/contracts-upgradeable@4.8.1/proxy/ERC1967/ERC1967UpgradeUpgradeable.sol\":3384:3437  StorageSlotUpgradeable.getBooleanSlot(_ROLLBACK_SLOT) */\n      tag_265\n        /* \"@openzeppelin/contracts-upgradeable@4.8.1/proxy/ERC1967/ERC1967UpgradeUpgradeable.sol\":951:1017  0x4910fdfa16fed3260ed0e7147f7cc6da11a60208b5b9406d12a635614ffd9143 */\n      0x4910fdfa16fed3260ed0e7147f7cc6da11a60208b5b9406d12a635614ffd9143\n        /* \"@openzeppelin/contracts-upgradeable@4.8.1/proxy/ERC1967/ERC1967UpgradeUpgradeable.sol\":3422:3436  _ROLLBACK_SLOT */\n      0x00\n      shl\n        /* \"@openzeppelin/contracts-upgradeable@4.8.1/proxy/ERC1967/ERC1967UpgradeUpgradeable.sol\":3384:3421  StorageSlotUpgradeable.getBooleanSlot */\n      tag_266\n        /* \"@openzeppelin/contracts-upgradeable@4.8.1/proxy/ERC1967/ERC1967UpgradeUpgradeable.sol\":3384:3437  StorageSlotUpgradeable.getBooleanSlot(_ROLLBACK_SLOT) */\n      jump\t// in\n    tag_265:\n        /* \"@openzeppelin/contracts-upgradeable@4.8.1/proxy/ERC1967/ERC1967UpgradeUpgradeable.sol\":3384:3443  StorageSlotUpgradeable.getBooleanSlot(_ROLLBACK_SLOT).value */\n      0x00\n      add\n      0x00\n      swap1\n      sload\n      swap1\n      0x0100\n      exp\n      swap1\n      div\n      0xff\n      and\n        /* \"@openzeppelin/contracts-upgradeable@4.8.1/proxy/ERC1967/ERC1967UpgradeUpgradeable.sol\":3380:3906  if (StorageSlotUpgradeable.getBooleanSlot(_ROLLBACK_SLOT).value) {... */\n      iszero\n      tag_267\n      jumpi\n        /* \"@openzeppelin/contracts-upgradeable@4.8.1/proxy/ERC1967/ERC1967UpgradeUpgradeable.sol\":3459:3496  _setImplementation(newImplementation) */\n      tag_268\n        /* \"@openzeppelin/contracts-upgradeable@4.8.1/proxy/ERC1967/ERC1967UpgradeUpgradeable.sol\":3478:3495  newImplementation */\n      dup4\n        /* \"@openzeppelin/contracts-upgradeable@4.8.1/proxy/ERC1967/ERC1967UpgradeUpgradeable.sol\":3459:3477  _setImplementation */\n      tag_269\n        /* \"@openzeppelin/contracts-upgradeable@4.8.1/proxy/ERC1967/ERC1967UpgradeUpgradeable.sol\":3459:3496  _setImplementation(newImplementation) */\n      jump\t// in\n    tag_268:\n        /* \"@openzeppelin/contracts-upgradeable@4.8.1/proxy/ERC1967/ERC1967UpgradeUpgradeable.sol\":3380:3906  if (StorageSlotUpgradeable.getBooleanSlot(_ROLLBACK_SLOT).value) {... */\n      jump(tag_270)\n    tag_267:\n        /* \"@openzeppelin/contracts-upgradeable@4.8.1/proxy/ERC1967/ERC1967UpgradeUpgradeable.sol\":3560:3577  newImplementation */\n      dup3\n        /* \"@openzeppelin/contracts-upgradeable@4.8.1/proxy/ERC1967/ERC1967UpgradeUpgradeable.sol\":3531:3592  IERC1822ProxiableUpgradeable(newImplementation).proxiableUUID */\n      0xffffffffffffffffffffffffffffffffffffffff\n      and\n      0x52d1902d\n        /* \"@openzeppelin/contracts-upgradeable@4.8.1/proxy/ERC1967/ERC1967UpgradeUpgradeable.sol\":3531:3594  IERC1822ProxiableUpgradeable(newImplementation).proxiableUUID() */\n      mload(0x40)\n      dup2\n      0xffffffff\n      and\n      0xe0\n      shl\n      dup2\n      mstore\n      0x04\n      add\n      0x20\n      mload(0x40)\n      dup1\n      dup4\n      sub\n      dup2\n      dup7\n      gas\n      staticcall\n      swap3\n      pop\n      pop\n      pop\n      dup1\n      iszero\n      tag_271\n      jumpi\n      pop\n      mload(0x40)\n      returndatasize\n      not(0x1f)\n      0x1f\n      dup3\n      add\n      and\n      dup3\n      add\n      dup1\n      0x40\n      mstore\n      pop\n      dup2\n      add\n      swap1\n      tag_272\n      swap2\n      swap1\n      tag_273\n      jump\t// in\n    tag_272:\n      0x01\n    tag_271:\n        /* \"@openzeppelin/contracts-upgradeable@4.8.1/proxy/ERC1967/ERC1967UpgradeUpgradeable.sol\":3527:3829  try IERC1822ProxiableUpgradeable(newImplementation).proxiableUUID() returns (bytes32 slot) {... */\n      tag_274\n      jumpi\n        /* \"@openzeppelin/contracts-upgradeable@4.8.1/proxy/ERC1967/ERC1967UpgradeUpgradeable.sol\":3758:3814  revert(\"ERC1967Upgrade: new implementation is not UUPS\") */\n      mload(0x40)\n      0x08c379a000000000000000000000000000000000000000000000000000000000\n      dup2\n      mstore\n      0x04\n      add\n      tag_278\n      swap1\n      tag_279\n      jump\t// in\n    tag_278:\n      mload(0x40)\n      dup1\n      swap2\n      sub\n      swap1\n      revert\n        /* \"@openzeppelin/contracts-upgradeable@4.8.1/proxy/ERC1967/ERC1967UpgradeUpgradeable.sol\":3527:3829  try IERC1822ProxiableUpgradeable(newImplementation).proxiableUUID() returns (bytes32 slot) {... */\n    tag_274:\n        /* \"@openzeppelin/contracts-upgradeable@4.8.1/proxy/ERC1967/ERC1967UpgradeUpgradeable.sol\":1292:1358  0x360894a13ba1a3210667c828492db98dca3e2076cc3735a920a3ca505d382bbc */\n      0x360894a13ba1a3210667c828492db98dca3e2076cc3735a920a3ca505d382bbc\n        /* \"@openzeppelin/contracts-upgradeable@4.8.1/proxy/ERC1967/ERC1967UpgradeUpgradeable.sol\":3652:3672  _IMPLEMENTATION_SLOT */\n      0x00\n      shl\n        /* \"@openzeppelin/contracts-upgradeable@4.8.1/proxy/ERC1967/ERC1967UpgradeUpgradeable.sol\":3644:3648  slot */\n      dup2\n        /* \"@openzeppelin/contracts-upgradeable@4.8.1/proxy/ERC1967/ERC1967UpgradeUpgradeable.sol\":3644:3672  slot == _IMPLEMENTATION_SLOT */\n      eq\n        /* \"@openzeppelin/contracts-upgradeable@4.8.1/proxy/ERC1967/ERC1967UpgradeUpgradeable.sol\":3636:3718  require(slot == _IMPLEMENTATION_SLOT, \"ERC1967Upgrade: unsupported proxiableUUID\") */\n      tag_281\n      jumpi\n      mload(0x40)\n      0x08c379a000000000000000000000000000000000000000000000000000000000\n      dup2\n      mstore\n      0x04\n      add\n      tag_282\n      swap1\n      tag_283\n      jump\t// in\n    tag_282:\n      mload(0x40)\n      dup1\n      swap2\n      sub\n      swap1\n      revert\n    tag_281:\n        /* \"@openzeppelin/contracts-upgradeable@4.8.1/proxy/ERC1967/ERC1967UpgradeUpgradeable.sol\":3595:3733  returns (bytes32 slot) {... */\n      pop\n        /* \"@openzeppelin/contracts-upgradeable@4.8.1/proxy/ERC1967/ERC1967UpgradeUpgradeable.sol\":3842:3895  _upgradeToAndCall(newImplementation, data, forceCall) */\n      tag_284\n        /* \"@openzeppelin/contracts-upgradeable@4.8.1/proxy/ERC1967/ERC1967UpgradeUpgradeable.sol\":3860:3877  newImplementation */\n      dup4\n        /* \"@openzeppelin/contracts-upgradeable@4.8.1/proxy/ERC1967/ERC1967UpgradeUpgradeable.sol\":3879:3883  data */\n      dup4\n        /* \"@openzeppelin/contracts-upgradeable@4.8.1/proxy/ERC1967/ERC1967UpgradeUpgradeable.sol\":3885:3894  forceCall */\n      dup4\n        /* \"@openzeppelin/contracts-upgradeable@4.8.1/proxy/ERC1967/ERC1967UpgradeUpgradeable.sol\":3842:3859  _upgradeToAndCall */\n      tag_285\n        /* \"@openzeppelin/contracts-upgradeable@4.8.1/proxy/ERC1967/ERC1967UpgradeUpgradeable.sol\":3842:3895  _upgradeToAndCall(newImplementation, data, forceCall) */\n      jump\t// in\n    tag_284:\n        /* \"@openzeppelin/contracts-upgradeable@4.8.1/proxy/ERC1967/ERC1967UpgradeUpgradeable.sol\":3380:3906  if (StorageSlotUpgradeable.getBooleanSlot(_ROLLBACK_SLOT).value) {... */\n    tag_270:\n        /* \"@openzeppelin/contracts-upgradeable@4.8.1/proxy/ERC1967/ERC1967UpgradeUpgradeable.sol\":2938:3912  function _upgradeToAndCallUUPS(... */\n      pop\n      pop\n      pop\n      jump\t// out\n        /* \"@openzeppelin/contracts-upgradeable@4.8.1/access/OwnableUpgradeable.sol\":1599:1729  function _checkOwner() internal view virtual {... */\n    tag_171:\n        /* \"@openzeppelin/contracts-upgradeable@4.8.1/access/OwnableUpgradeable.sol\":1673:1685  _msgSender() */\n      tag_287\n        /* \"@openzeppelin/contracts-upgradeable@4.8.1/access/OwnableUpgradeable.sol\":1673:1683  _msgSender */\n      tag_119\n        /* \"@openzeppelin/contracts-upgradeable@4.8.1/access/OwnableUpgradeable.sol\":1673:1685  _msgSender() */\n      jump\t// in\n    tag_287:\n        /* \"@openzeppelin/contracts-upgradeable@4.8.1/access/OwnableUpgradeable.sol\":1662:1685  owner() == _msgSender() */\n      0xffffffffffffffffffffffffffffffffffffffff\n      and\n        /* \"@openzeppelin/contracts-upgradeable@4.8.1/access/OwnableUpgradeable.sol\":1662:1669  owner() */\n      tag_288\n        /* \"@openzeppelin/contracts-upgradeable@4.8.1/access/OwnableUpgradeable.sol\":1662:1667  owner */\n      tag_83\n        /* \"@openzeppelin/contracts-upgradeable@4.8.1/access/OwnableUpgradeable.sol\":1662:1669  owner() */\n      jump\t// in\n    tag_288:\n        /* \"@openzeppelin/contracts-upgradeable@4.8.1/access/OwnableUpgradeable.sol\":1662:1685  owner() == _msgSender() */\n      0xffffffffffffffffffffffffffffffffffffffff\n      and\n      eq\n        /* \"@openzeppelin/contracts-upgradeable@4.8.1/access/OwnableUpgradeable.sol\":1654:1722  require(owner() == _msgSender(), \"Ownable: caller is not the owner\") */\n      tag_289\n      jumpi\n      mload(0x40)\n      0x08c379a000000000000000000000000000000000000000000000000000000000\n      dup2\n      mstore\n      0x04\n      add\n      tag_290\n      swap1\n      tag_291\n      jump\t// in\n    tag_290:\n      mload(0x40)\n      dup1\n      swap2\n      sub\n      swap1\n      revert\n    tag_289:\n        /* \"@openzeppelin/contracts-upgradeable@4.8.1/access/OwnableUpgradeable.sol\":1599:1729  function _checkOwner() internal view virtual {... */\n      jump\t// out\n        /* \"@openzeppelin/contracts-upgradeable@4.8.1/access/OwnableUpgradeable.sol\":2673:2860  function _transferOwnership(address newOwner) internal virtual {... */\n    tag_174:\n        /* \"@openzeppelin/contracts-upgradeable@4.8.1/access/OwnableUpgradeable.sol\":2746:2762  address oldOwner */\n      0x00\n        /* \"@openzeppelin/contracts-upgradeable@4.8.1/access/OwnableUpgradeable.sol\":2765:2771  _owner */\n      0x65\n      0x00\n      swap1\n      sload\n      swap1\n      0x0100\n      exp\n      swap1\n      div\n      0xffffffffffffffffffffffffffffffffffffffff\n      and\n        /* \"@openzeppelin/contracts-upgradeable@4.8.1/access/OwnableUpgradeable.sol\":2746:2771  address oldOwner = _owner */\n      swap1\n      pop\n        /* \"@openzeppelin/contracts-upgradeable@4.8.1/access/OwnableUpgradeable.sol\":2790:2798  newOwner */\n      dup2\n        /* \"@openzeppelin/contracts-upgradeable@4.8.1/access/OwnableUpgradeable.sol\":2781:2787  _owner */\n      0x65\n      0x00\n        /* \"@openzeppelin/contracts-upgradeable@4.8.1/access/OwnableUpgradeable.sol\":2781:2798  _owner = newOwner */\n      0x0100\n      exp\n      dup2\n      sload\n      dup2\n      0xffffffffffffffffffffffffffffffffffffffff\n      mul\n      not\n      and\n      swap1\n      dup4\n      0xffffffffffffffffffffffffffffffffffffffff\n      and\n      mul\n      or\n      swap1\n      sstore\n      pop\n        /* \"@openzeppelin/contracts-upgradeable@4.8.1/access/OwnableUpgradeable.sol\":2844:2852  newOwner */\n      dup2\n        /* \"@openzeppelin/contracts-upgradeable@4.8.1/access/OwnableUpgradeable.sol\":2813:2853  OwnershipTransferred(oldOwner, newOwner) */\n      0xffffffffffffffffffffffffffffffffffffffff\n      and\n        /* \"@openzeppelin/contracts-upgradeable@4.8.1/access/OwnableUpgradeable.sol\":2834:2842  oldOwner */\n      dup2\n        /* \"@openzeppelin/contracts-upgradeable@4.8.1/access/OwnableUpgradeable.sol\":2813:2853  OwnershipTransferred(oldOwner, newOwner) */\n      0xffffffffffffffffffffffffffffffffffffffff\n      and\n      0x8be0079c531659141344cd1fd0a4f28419497f9722a3daafe3b4186f6b6457e0\n      mload(0x40)\n      mload(0x40)\n      dup1\n      swap2\n      sub\n      swap1\n      log3\n        /* \"@openzeppelin/contracts-upgradeable@4.8.1/access/OwnableUpgradeable.sol\":2736:2860  {... */\n      pop\n        /* \"@openzeppelin/contracts-upgradeable@4.8.1/access/OwnableUpgradeable.sol\":2673:2860  function _transferOwnership(address newOwner) internal virtual {... */\n      pop\n      jump\t// out\n        /* \"@openzeppelin/contracts-upgradeable@4.8.1/utils/AddressUpgradeable.sol\":1186:1506  function isContract(address account) internal view returns (bool) {... */\n    tag_179:\n        /* \"@openzeppelin/contracts-upgradeable@4.8.1/utils/AddressUpgradeable.sol\":1246:1250  bool */\n      0x00\n        /* \"@openzeppelin/contracts-upgradeable@4.8.1/utils/AddressUpgradeable.sol\":1498:1499  0 */\n      dup1\n        /* \"@openzeppelin/contracts-upgradeable@4.8.1/utils/AddressUpgradeable.sol\":1476:1483  account */\n      dup3\n        /* \"@openzeppelin/contracts-upgradeable@4.8.1/utils/AddressUpgradeable.sol\":1476:1495  account.code.length */\n      0xffffffffffffffffffffffffffffffffffffffff\n      and\n      extcodesize\n        /* \"@openzeppelin/contracts-upgradeable@4.8.1/utils/AddressUpgradeable.sol\":1476:1499  account.code.length > 0 */\n      gt\n        /* \"@openzeppelin/contracts-upgradeable@4.8.1/utils/AddressUpgradeable.sol\":1469:1499  return account.code.length > 0 */\n      swap1\n      pop\n        /* \"@openzeppelin/contracts-upgradeable@4.8.1/utils/AddressUpgradeable.sol\":1186:1506  function isContract(address account) internal view returns (bool) {... */\n      swap2\n      swap1\n      pop\n      jump\t// out\n        /* \"@openzeppelin/contracts-upgradeable@4.8.1/token/ERC20/ERC20Upgradeable.sol\":2114:2261  function __ERC20_init(string memory name_, string memory symbol_) internal onlyInitializing {... */\n    tag_187:\n        /* \"@openzeppelin/contracts-upgradeable@4.8.1/proxy/utils/Initializable.sol\":5363:5376  _initializing */\n      0x00\n      0x01\n      swap1\n      sload\n      swap1\n      0x0100\n      exp\n      swap1\n      div\n      0xff\n      and\n        /* \"@openzeppelin/contracts-upgradeable@4.8.1/proxy/utils/Initializable.sol\":5355:5424  require(_initializing, \"Initializable: contract is not initializing\") */\n      tag_295\n      jumpi\n      mload(0x40)\n      0x08c379a000000000000000000000000000000000000000000000000000000000\n      dup2\n      mstore\n      0x04\n      add\n      tag_296\n      swap1\n      tag_297\n      jump\t// in\n    tag_296:\n      mload(0x40)\n      dup1\n      swap2\n      sub\n      swap1\n      revert\n    tag_295:\n        /* \"@openzeppelin/contracts-upgradeable@4.8.1/token/ERC20/ERC20Upgradeable.sol\":2216:2254  __ERC20_init_unchained(name_, symbol_) */\n      tag_299\n        /* \"@openzeppelin/contracts-upgradeable@4.8.1/token/ERC20/ERC20Upgradeable.sol\":2239:2244  name_ */\n      dup3\n        /* \"@openzeppelin/contracts-upgradeable@4.8.1/token/ERC20/ERC20Upgradeable.sol\":2246:2253  symbol_ */\n      dup3\n        /* \"@openzeppelin/contracts-upgradeable@4.8.1/token/ERC20/ERC20Upgradeable.sol\":2216:2238  __ERC20_init_unchained */\n      tag_300\n        /* \"@openzeppelin/contracts-upgradeable@4.8.1/token/ERC20/ERC20Upgradeable.sol\":2216:2254  __ERC20_init_unchained(name_, symbol_) */\n      jump\t// in\n    tag_299:\n        /* \"@openzeppelin/contracts-upgradeable@4.8.1/token/ERC20/ERC20Upgradeable.sol\":2114:2261  function __ERC20_init(string memory name_, string memory symbol_) internal onlyInitializing {... */\n      pop\n      pop\n      jump\t// out\n        /* \"@openzeppelin/contracts-upgradeable@4.8.1/access/OwnableUpgradeable.sol\":1003:1098  function __Ownable_init() internal onlyInitializing {... */\n    tag_189:\n        /* \"@openzeppelin/contracts-upgradeable@4.8.1/proxy/utils/Initializable.sol\":5363:5376  _initializing */\n      0x00\n      0x01\n      swap1\n      sload\n      swap1\n      0x0100\n      exp\n      swap1\n      div\n      0xff\n      and\n        /* \"@openzeppelin/contracts-upgradeable@4.8.1/proxy/utils/Initializable.sol\":5355:5424  require(_initializing, \"Initializable: contract is not initializing\") */\n      tag_302\n      jumpi\n      mload(0x40)\n      0x08c379a000000000000000000000000000000000000000000000000000000000\n      dup2\n      mstore\n      0x04\n      add\n      tag_303\n      swap1\n      tag_297\n      jump\t// in\n    tag_303:\n      mload(0x40)\n      dup1\n      swap2\n      sub\n      swap1\n      revert\n    tag_302:\n        /* \"@openzeppelin/contracts-upgradeable@4.8.1/access/OwnableUpgradeable.sol\":1065:1091  __Ownable_init_unchained() */\n      tag_305\n        /* \"@openzeppelin/contracts-upgradeable@4.8.1/access/OwnableUpgradeable.sol\":1065:1089  __Ownable_init_unchained */\n      tag_306\n        /* \"@openzeppelin/contracts-upgradeable@4.8.1/access/OwnableUpgradeable.sol\":1065:1091  __Ownable_init_unchained() */\n      jump\t// in\n    tag_305:\n        /* \"@openzeppelin/contracts-upgradeable@4.8.1/access/OwnableUpgradeable.sol\":1003:1098  function __Ownable_init() internal onlyInitializing {... */\n      jump\t// out\n        /* \"@openzeppelin/contracts-upgradeable@4.8.1/proxy/utils/UUPSUpgradeable.sol\":1042:1109  function __UUPSUpgradeable_init() internal onlyInitializing {... */\n    tag_191:\n        /* \"@openzeppelin/contracts-upgradeable@4.8.1/proxy/utils/Initializable.sol\":5363:5376  _initializing */\n      0x00\n      0x01\n      swap1\n      sload\n      swap1\n      0x0100\n      exp\n      swap1\n      div\n      0xff\n      and\n        /* \"@openzeppelin/contracts-upgradeable@4.8.1/proxy/utils/Initializable.sol\":5355:5424  require(_initializing, \"Initializable: contract is not initializing\") */\n      tag_308\n      jumpi\n      mload(0x40)\n      0x08c379a000000000000000000000000000000000000000000000000000000000\n      dup2\n      mstore\n      0x04\n      add\n      tag_309\n      swap1\n      tag_297\n      jump\t// in\n    tag_309:\n      mload(0x40)\n      dup1\n      swap2\n      sub\n      swap1\n      revert\n    tag_308:\n        /* \"@openzeppelin/contracts-upgradeable@4.8.1/proxy/utils/UUPSUpgradeable.sol\":1042:1109  function __UUPSUpgradeable_init() internal onlyInitializing {... */\n      jump\t// out\n        /* \"@openzeppelin/contracts-upgradeable@4.8.1/token/ERC20/ERC20Upgradeable.sol\":8904:9439  function _mint(address account, uint256 amount) internal virtual {... */\n    tag_198:\n        /* \"@openzeppelin/contracts-upgradeable@4.8.1/token/ERC20/ERC20Upgradeable.sol\":9006:9007  0 */\n      0x00\n        /* \"@openzeppelin/contracts-upgradeable@4.8.1/token/ERC20/ERC20Upgradeable.sol\":8987:9008  account != address(0) */\n      0xffffffffffffffffffffffffffffffffffffffff\n      and\n        /* \"@openzeppelin/contracts-upgradeable@4.8.1/token/ERC20/ERC20Upgradeable.sol\":8987:8994  account */\n      dup3\n        /* \"@openzeppelin/contracts-upgradeable@4.8.1/token/ERC20/ERC20Upgradeable.sol\":8987:9008  account != address(0) */\n      0xffffffffffffffffffffffffffffffffffffffff\n      and\n      sub\n        /* \"@openzeppelin/contracts-upgradeable@4.8.1/token/ERC20/ERC20Upgradeable.sol\":8979:9044  require(account != address(0), \"ERC20: mint to the zero address\") */\n      tag_312\n      jumpi\n      mload(0x40)\n      0x08c379a000000000000000000000000000000000000000000000000000000000\n      dup2\n      mstore\n      0x04\n      add\n      tag_313\n      swap1\n      tag_314\n      jump\t// in\n    tag_313:\n      mload(0x40)\n      dup1\n      swap2\n      sub\n      swap1\n      revert\n    tag_312:\n        /* \"@openzeppelin/contracts-upgradeable@4.8.1/token/ERC20/ERC20Upgradeable.sol\":9055:9104  _beforeTokenTransfer(address(0), account, amount) */\n      tag_315\n        /* \"@openzeppelin/contracts-upgradeable@4.8.1/token/ERC20/ERC20Upgradeable.sol\":9084:9085  0 */\n      0x00\n        /* \"@openzeppelin/contracts-upgradeable@4.8.1/token/ERC20/ERC20Upgradeable.sol\":9088:9095  account */\n      dup4\n        /* \"@openzeppelin/contracts-upgradeable@4.8.1/token/ERC20/ERC20Upgradeable.sol\":9097:9103  amount */\n      dup4\n        /* \"@openzeppelin/contracts-upgradeable@4.8.1/token/ERC20/ERC20Upgradeable.sol\":9055:9075  _beforeTokenTransfer */\n      tag_251\n        /* \"@openzeppelin/contracts-upgradeable@4.8.1/token/ERC20/ERC20Upgradeable.sol\":9055:9104  _beforeTokenTransfer(address(0), account, amount) */\n      jump\t// in\n    tag_315:\n        /* \"@openzeppelin/contracts-upgradeable@4.8.1/token/ERC20/ERC20Upgradeable.sol\":9131:9137  amount */\n      dup1\n        /* \"@openzeppelin/contracts-upgradeable@4.8.1/token/ERC20/ERC20Upgradeable.sol\":9115:9127  _totalSupply */\n      0x35\n      0x00\n        /* \"@openzeppelin/contracts-upgradeable@4.8.1/token/ERC20/ERC20Upgradeable.sol\":9115:9137  _totalSupply += amount */\n      dup3\n      dup3\n      sload\n      tag_316\n      swap2\n      swap1\n      tag_153\n      jump\t// in\n    tag_316:\n      swap3\n      pop\n      pop\n      dup2\n      swap1\n      sstore\n      pop\n        /* \"@openzeppelin/contracts-upgradeable@4.8.1/token/ERC20/ERC20Upgradeable.sol\":9305:9311  amount */\n      dup1\n        /* \"@openzeppelin/contracts-upgradeable@4.8.1/token/ERC20/ERC20Upgradeable.sol\":9283:9292  _balances */\n      0x33\n        /* \"@openzeppelin/contracts-upgradeable@4.8.1/token/ERC20/ERC20Upgradeable.sol\":9283:9301  _balances[account] */\n      0x00\n        /* \"@openzeppelin/contracts-upgradeable@4.8.1/token/ERC20/ERC20Upgradeable.sol\":9293:9300  account */\n      dup5\n        /* \"@openzeppelin/contracts-upgradeable@4.8.1/token/ERC20/ERC20Upgradeable.sol\":9283:9301  _balances[account] */\n      0xffffffffffffffffffffffffffffffffffffffff\n      and\n      0xffffffffffffffffffffffffffffffffffffffff\n      and\n      dup2\n      mstore\n      0x20\n      add\n      swap1\n      dup2\n      mstore\n      0x20\n      add\n      0x00\n      keccak256\n      0x00\n        /* \"@openzeppelin/contracts-upgradeable@4.8.1/token/ERC20/ERC20Upgradeable.sol\":9283:9311  _balances[account] += amount */\n      dup3\n      dup3\n      sload\n      add\n      swap3\n      pop\n      pop\n      dup2\n      swap1\n      sstore\n      pop\n        /* \"@openzeppelin/contracts-upgradeable@4.8.1/token/ERC20/ERC20Upgradeable.sol\":9357:9364  account */\n      dup2\n        /* \"@openzeppelin/contracts-upgradeable@4.8.1/token/ERC20/ERC20Upgradeable.sol\":9336:9373  Transfer(address(0), account, amount) */\n      0xffffffffffffffffffffffffffffffffffffffff\n      and\n        /* \"@openzeppelin/contracts-upgradeable@4.8.1/token/ERC20/ERC20Upgradeable.sol\":9353:9354  0 */\n      0x00\n        /* \"@openzeppelin/contracts-upgradeable@4.8.1/token/ERC20/ERC20Upgradeable.sol\":9336:9373  Transfer(address(0), account, amount) */\n      0xffffffffffffffffffffffffffffffffffffffff\n      and\n      0xddf252ad1be2c89b69c2b068fc378daa952ba7f163c4a11628f55a4df523b3ef\n        /* \"@openzeppelin/contracts-upgradeable@4.8.1/token/ERC20/ERC20Upgradeable.sol\":9366:9372  amount */\n      dup4\n        /* \"@openzeppelin/contracts-upgradeable@4.8.1/token/ERC20/ERC20Upgradeable.sol\":9336:9373  Transfer(address(0), account, amount) */\n      mload(0x40)\n      tag_317\n      swap2\n      swap1\n      tag_39\n      jump\t// in\n    tag_317:\n      mload(0x40)\n      dup1\n      swap2\n      sub\n      swap1\n      log3\n        /* \"@openzeppelin/contracts-upgradeable@4.8.1/token/ERC20/ERC20Upgradeable.sol\":9384:9432  _afterTokenTransfer(address(0), account, amount) */\n      tag_318\n        /* \"@openzeppelin/contracts-upgradeable@4.8.1/token/ERC20/ERC20Upgradeable.sol\":9412:9413  0 */\n      0x00\n        /* \"@openzeppelin/contracts-upgradeable@4.8.1/token/ERC20/ERC20Upgradeable.sol\":9416:9423  account */\n      dup4\n        /* \"@openzeppelin/contracts-upgradeable@4.8.1/token/ERC20/ERC20Upgradeable.sol\":9425:9431  amount */\n      dup4\n        /* \"@openzeppelin/contracts-upgradeable@4.8.1/token/ERC20/ERC20Upgradeable.sol\":9384:9403  _afterTokenTransfer */\n      tag_257\n        /* \"@openzeppelin/contracts-upgradeable@4.8.1/token/ERC20/ERC20Upgradeable.sol\":9384:9432  _afterTokenTransfer(address(0), account, amount) */\n      jump\t// in\n    tag_318:\n        /* \"@openzeppelin/contracts-upgradeable@4.8.1/token/ERC20/ERC20Upgradeable.sol\":8904:9439  function _mint(address account, uint256 amount) internal virtual {... */\n      pop\n      pop\n      jump\t// out\n        /* \"@openzeppelin/contracts-upgradeable@4.8.1/token/ERC20/ERC20Upgradeable.sol\":12517:12638  function _beforeTokenTransfer(... */\n    tag_251:\n      pop\n      pop\n      pop\n      jump\t// out\n        /* \"@openzeppelin/contracts-upgradeable@4.8.1/token/ERC20/ERC20Upgradeable.sol\":13226:13346  function _afterTokenTransfer(... */\n    tag_257:\n      pop\n      pop\n      pop\n      jump\t// out\n        /* \"@openzeppelin/contracts-upgradeable@4.8.1/utils/StorageSlotUpgradeable.sol\":1625:1815  function getAddressSlot(bytes32 slot) internal pure returns (AddressSlot storage r) {... */\n    tag_260:\n        /* \"@openzeppelin/contracts-upgradeable@4.8.1/utils/StorageSlotUpgradeable.sol\":1686:1707  AddressSlot storage r */\n      0x00\n        /* \"@openzeppelin/contracts-upgradeable@4.8.1/utils/StorageSlotUpgradeable.sol\":1795:1799  slot */\n      dup2\n        /* \"@openzeppelin/contracts-upgradeable@4.8.1/utils/StorageSlotUpgradeable.sol\":1785:1799  r.slot := slot */\n      swap1\n      pop\n        /* \"@openzeppelin/contracts-upgradeable@4.8.1/utils/StorageSlotUpgradeable.sol\":1625:1815  function getAddressSlot(bytes32 slot) internal pure returns (AddressSlot storage r) {... */\n      swap2\n      swap1\n      pop\n      jump\t// out\n        /* \"@openzeppelin/contracts-upgradeable@4.8.1/utils/StorageSlotUpgradeable.sol\":1913:2103  function getBooleanSlot(bytes32 slot) internal pure returns (BooleanSlot storage r) {... */\n    tag_266:\n        /* \"@openzeppelin/contracts-upgradeable@4.8.1/utils/StorageSlotUpgradeable.sol\":1974:1995  BooleanSlot storage r */\n      0x00\n        /* \"@openzeppelin/contracts-upgradeable@4.8.1/utils/StorageSlotUpgradeable.sol\":2083:2087  slot */\n      dup2\n        /* \"@openzeppelin/contracts-upgradeable@4.8.1/utils/StorageSlotUpgradeable.sol\":2073:2087  r.slot := slot */\n      swap1\n      pop\n        /* \"@openzeppelin/contracts-upgradeable@4.8.1/utils/StorageSlotUpgradeable.sol\":1913:2103  function getBooleanSlot(bytes32 slot) internal pure returns (BooleanSlot storage r) {... */\n      swap2\n      swap1\n      pop\n      jump\t// out\n        /* \"@openzeppelin/contracts-upgradeable@4.8.1/proxy/ERC1967/ERC1967UpgradeUpgradeable.sol\":1805:2086  function _setImplementation(address newImplementation) private {... */\n    tag_269:\n        /* \"@openzeppelin/contracts-upgradeable@4.8.1/proxy/ERC1967/ERC1967UpgradeUpgradeable.sol\":1886:1934  AddressUpgradeable.isContract(newImplementation) */\n      tag_324\n        /* \"@openzeppelin/contracts-upgradeable@4.8.1/proxy/ERC1967/ERC1967UpgradeUpgradeable.sol\":1916:1933  newImplementation */\n      dup2\n        /* \"@openzeppelin/contracts-upgradeable@4.8.1/proxy/ERC1967/ERC1967UpgradeUpgradeable.sol\":1886:1915  AddressUpgradeable.isContract */\n      tag_179\n        /* \"@openzeppelin/contracts-upgradeable@4.8.1/proxy/ERC1967/ERC1967UpgradeUpgradeable.sol\":1886:1934  AddressUpgradeable.isContract(newImplementation) */\n      jump\t// in\n    tag_324:\n        /* \"@openzeppelin/contracts-upgradeable@4.8.1/proxy/ERC1967/ERC1967UpgradeUpgradeable.sol\":1878:1984  require(AddressUpgradeable.isContract(newImplementation), \"ERC1967: new implementation is not a contract\") */\n      tag_325\n      jumpi\n      mload(0x40)\n      0x08c379a000000000000000000000000000000000000000000000000000000000\n      dup2\n      mstore\n      0x04\n      add\n      tag_326\n      swap1\n      tag_327\n      jump\t// in\n    tag_326:\n      mload(0x40)\n      dup1\n      swap2\n      sub\n      swap1\n      revert\n    tag_325:\n        /* \"@openzeppelin/contracts-upgradeable@4.8.1/proxy/ERC1967/ERC1967UpgradeUpgradeable.sol\":2062:2079  newImplementation */\n      dup1\n        /* \"@openzeppelin/contracts-upgradeable@4.8.1/proxy/ERC1967/ERC1967UpgradeUpgradeable.sol\":1994:2053  StorageSlotUpgradeable.getAddressSlot(_IMPLEMENTATION_SLOT) */\n      tag_328\n        /* \"@openzeppelin/contracts-upgradeable@4.8.1/proxy/ERC1967/ERC1967UpgradeUpgradeable.sol\":1292:1358  0x360894a13ba1a3210667c828492db98dca3e2076cc3735a920a3ca505d382bbc */\n      0x360894a13ba1a3210667c828492db98dca3e2076cc3735a920a3ca505d382bbc\n        /* \"@openzeppelin/contracts-upgradeable@4.8.1/proxy/ERC1967/ERC1967UpgradeUpgradeable.sol\":2032:2052  _IMPLEMENTATION_SLOT */\n      0x00\n      shl\n        /* \"@openzeppelin/contracts-upgradeable@4.8.1/proxy/ERC1967/ERC1967UpgradeUpgradeable.sol\":1994:2031  StorageSlotUpgradeable.getAddressSlot */\n      tag_260\n        /* \"@openzeppelin/contracts-upgradeable@4.8.1/proxy/ERC1967/ERC1967UpgradeUpgradeable.sol\":1994:2053  StorageSlotUpgradeable.getAddressSlot(_IMPLEMENTATION_SLOT) */\n      jump\t// in\n    tag_328:\n        /* \"@openzeppelin/contracts-upgradeable@4.8.1/proxy/ERC1967/ERC1967UpgradeUpgradeable.sol\":1994:2059  StorageSlotUpgradeable.getAddressSlot(_IMPLEMENTATION_SLOT).value */\n      0x00\n      add\n      0x00\n        /* \"@openzeppelin/contracts-upgradeable@4.8.1/proxy/ERC1967/ERC1967UpgradeUpgradeable.sol\":1994:2079  StorageSlotUpgradeable.getAddressSlot(_IMPLEMENTATION_SLOT).value = newImplementation */\n      0x0100\n      exp\n      dup2\n      sload\n      dup2\n      0xffffffffffffffffffffffffffffffffffffffff\n      mul\n      not\n      and\n      swap1\n      dup4\n      0xffffffffffffffffffffffffffffffffffffffff\n      and\n      mul\n      or\n      swap1\n      sstore\n      pop\n        /* \"@openzeppelin/contracts-upgradeable@4.8.1/proxy/ERC1967/ERC1967UpgradeUpgradeable.sol\":1805:2086  function _setImplementation(address newImplementation) private {... */\n      pop\n      jump\t// out\n        /* \"@openzeppelin/contracts-upgradeable@4.8.1/proxy/ERC1967/ERC1967UpgradeUpgradeable.sol\":2478:2766  function _upgradeToAndCall(... */\n    tag_285:\n        /* \"@openzeppelin/contracts-upgradeable@4.8.1/proxy/ERC1967/ERC1967UpgradeUpgradeable.sol\":2616:2645  _upgradeTo(newImplementation) */\n      tag_330\n        /* \"@openzeppelin/contracts-upgradeable@4.8.1/proxy/ERC1967/ERC1967UpgradeUpgradeable.sol\":2627:2644  newImplementation */\n      dup4\n        /* \"@openzeppelin/contracts-upgradeable@4.8.1/proxy/ERC1967/ERC1967UpgradeUpgradeable.sol\":2616:2626  _upgradeTo */\n      tag_331\n        /* \"@openzeppelin/contracts-upgradeable@4.8.1/proxy/ERC1967/ERC1967UpgradeUpgradeable.sol\":2616:2645  _upgradeTo(newImplementation) */\n      jump\t// in\n    tag_330:\n        /* \"@openzeppelin/contracts-upgradeable@4.8.1/proxy/ERC1967/ERC1967UpgradeUpgradeable.sol\":2673:2674  0 */\n      0x00\n        /* \"@openzeppelin/contracts-upgradeable@4.8.1/proxy/ERC1967/ERC1967UpgradeUpgradeable.sol\":2659:2663  data */\n      dup3\n        /* \"@openzeppelin/contracts-upgradeable@4.8.1/proxy/ERC1967/ERC1967UpgradeUpgradeable.sol\":2659:2670  data.length */\n      mload\n        /* \"@openzeppelin/contracts-upgradeable@4.8.1/proxy/ERC1967/ERC1967UpgradeUpgradeable.sol\":2659:2674  data.length > 0 */\n      gt\n        /* \"@openzeppelin/contracts-upgradeable@4.8.1/proxy/ERC1967/ERC1967UpgradeUpgradeable.sol\":2659:2687  data.length > 0 || forceCall */\n      dup1\n      tag_332\n      jumpi\n      pop\n        /* \"@openzeppelin/contracts-upgradeable@4.8.1/proxy/ERC1967/ERC1967UpgradeUpgradeable.sol\":2678:2687  forceCall */\n      dup1\n        /* \"@openzeppelin/contracts-upgradeable@4.8.1/proxy/ERC1967/ERC1967UpgradeUpgradeable.sol\":2659:2687  data.length > 0 || forceCall */\n    tag_332:\n        /* \"@openzeppelin/contracts-upgradeable@4.8.1/proxy/ERC1967/ERC1967UpgradeUpgradeable.sol\":2655:2760  if (data.length > 0 || forceCall) {... */\n      iszero\n      tag_333\n      jumpi\n        /* \"@openzeppelin/contracts-upgradeable@4.8.1/proxy/ERC1967/ERC1967UpgradeUpgradeable.sol\":2703:2749  _functionDelegateCall(newImplementation, data) */\n      tag_334\n        /* \"@openzeppelin/contracts-upgradeable@4.8.1/proxy/ERC1967/ERC1967UpgradeUpgradeable.sol\":2725:2742  newImplementation */\n      dup4\n        /* \"@openzeppelin/contracts-upgradeable@4.8.1/proxy/ERC1967/ERC1967UpgradeUpgradeable.sol\":2744:2748  data */\n      dup4\n        /* \"@openzeppelin/contracts-upgradeable@4.8.1/proxy/ERC1967/ERC1967UpgradeUpgradeable.sol\":2703:2724  _functionDelegateCall */\n      tag_335\n        /* \"@openzeppelin/contracts-upgradeable@4.8.1/proxy/ERC1967/ERC1967UpgradeUpgradeable.sol\":2703:2749  _functionDelegateCall(newImplementation, data) */\n      jump\t// in\n    tag_334:\n      pop\n        /* \"@openzeppelin/contracts-upgradeable@4.8.1/proxy/ERC1967/ERC1967UpgradeUpgradeable.sol\":2655:2760  if (data.length > 0 || forceCall) {... */\n    tag_333:\n        /* \"@openzeppelin/contracts-upgradeable@4.8.1/proxy/ERC1967/ERC1967UpgradeUpgradeable.sol\":2478:2766  function _upgradeToAndCall(... */\n      pop\n      pop\n      pop\n      jump\t// out\n        /* \"@openzeppelin/contracts-upgradeable@4.8.1/token/ERC20/ERC20Upgradeable.sol\":2267:2426  function __ERC20_init_unchained(string memory name_, string memory symbol_) internal onlyInitializing {... */\n    tag_300:\n        /* \"@openzeppelin/contracts-upgradeable@4.8.1/proxy/utils/Initializable.sol\":5363:5376  _initializing */\n      0x00\n      0x01\n      swap1\n      sload\n      swap1\n      0x0100\n      exp\n      swap1\n      div\n      0xff\n      and\n        /* \"@openzeppelin/contracts-upgradeable@4.8.1/proxy/utils/Initializable.sol\":5355:5424  require(_initializing, \"Initializable: contract is not initializing\") */\n      tag_337\n      jumpi\n      mload(0x40)\n      0x08c379a000000000000000000000000000000000000000000000000000000000\n      dup2\n      mstore\n      0x04\n      add\n      tag_338\n      swap1\n      tag_297\n      jump\t// in\n    tag_338:\n      mload(0x40)\n      dup1\n      swap2\n      sub\n      swap1\n      revert\n    tag_337:\n        /* \"@openzeppelin/contracts-upgradeable@4.8.1/token/ERC20/ERC20Upgradeable.sol\":2387:2392  name_ */\n      dup2\n        /* \"@openzeppelin/contracts-upgradeable@4.8.1/token/ERC20/ERC20Upgradeable.sol\":2379:2384  _name */\n      0x36\n        /* \"@openzeppelin/contracts-upgradeable@4.8.1/token/ERC20/ERC20Upgradeable.sol\":2379:2392  _name = name_ */\n      swap1\n      dup2\n      tag_340\n      swap2\n      swap1\n      tag_341\n      jump\t// in\n    tag_340:\n      pop\n        /* \"@openzeppelin/contracts-upgradeable@4.8.1/token/ERC20/ERC20Upgradeable.sol\":2412:2419  symbol_ */\n      dup1\n        /* \"@openzeppelin/contracts-upgradeable@4.8.1/token/ERC20/ERC20Upgradeable.sol\":2402:2409  _symbol */\n      0x37\n        /* \"@openzeppelin/contracts-upgradeable@4.8.1/token/ERC20/ERC20Upgradeable.sol\":2402:2419  _symbol = symbol_ */\n      swap1\n      dup2\n      tag_342\n      swap2\n      swap1\n      tag_341\n      jump\t// in\n    tag_342:\n      pop\n        /* \"@openzeppelin/contracts-upgradeable@4.8.1/token/ERC20/ERC20Upgradeable.sol\":2267:2426  function __ERC20_init_unchained(string memory name_, string memory symbol_) internal onlyInitializing {... */\n      pop\n      pop\n      jump\t// out\n        /* \"@openzeppelin/contracts-upgradeable@4.8.1/access/OwnableUpgradeable.sol\":1104:1215  function __Ownable_init_unchained() internal onlyInitializing {... */\n    tag_306:\n        /* \"@openzeppelin/contracts-upgradeable@4.8.1/proxy/utils/Initializable.sol\":5363:5376  _initializing */\n      0x00\n      0x01\n      swap1\n      sload\n      swap1\n      0x0100\n      exp\n      swap1\n      div\n      0xff\n      and\n        /* \"@openzeppelin/contracts-upgradeable@4.8.1/proxy/utils/Initializable.sol\":5355:5424  require(_initializing, \"Initializable: contract is not initializing\") */\n      tag_344\n      jumpi\n      mload(0x40)\n      0x08c379a000000000000000000000000000000000000000000000000000000000\n      dup2\n      mstore\n      0x04\n      add\n      tag_345\n      swap1\n      tag_297\n      jump\t// in\n    tag_345:\n      mload(0x40)\n      dup1\n      swap2\n      sub\n      swap1\n      revert\n    tag_344:\n        /* \"@openzeppelin/contracts-upgradeable@4.8.1/access/OwnableUpgradeable.sol\":1176:1208  _transferOwnership(_msgSender()) */\n      tag_347\n        /* \"@openzeppelin/contracts-upgradeable@4.8.1/access/OwnableUpgradeable.sol\":1195:1207  _msgSender() */\n      tag_348\n        /* \"@openzeppelin/contracts-upgradeable@4.8.1/access/OwnableUpgradeable.sol\":1195:1205  _msgSender */\n      tag_119\n        /* \"@openzeppelin/contracts-upgradeable@4.8.1/access/OwnableUpgradeable.sol\":1195:1207  _msgSender() */\n      jump\t// in\n    tag_348:\n        /* \"@openzeppelin/contracts-upgradeable@4.8.1/access/OwnableUpgradeable.sol\":1176:1194  _transferOwnership */\n      tag_174\n        /* \"@openzeppelin/contracts-upgradeable@4.8.1/access/OwnableUpgradeable.sol\":1176:1208  _transferOwnership(_msgSender()) */\n      jump\t// in\n    tag_347:\n        /* \"@openzeppelin/contracts-upgradeable@4.8.1/access/OwnableUpgradeable.sol\":1104:1215  function __Ownable_init_unchained() internal onlyInitializing {... */\n      jump\t// out\n        /* \"@openzeppelin/contracts-upgradeable@4.8.1/proxy/ERC1967/ERC1967UpgradeUpgradeable.sol\":2192:2344  function _upgradeTo(address newImplementation) internal {... */\n    tag_331:\n        /* \"@openzeppelin/contracts-upgradeable@4.8.1/proxy/ERC1967/ERC1967UpgradeUpgradeable.sol\":2258:2295  _setImplementation(newImplementation) */\n      tag_350\n        /* \"@openzeppelin/contracts-upgradeable@4.8.1/proxy/ERC1967/ERC1967UpgradeUpgradeable.sol\":2277:2294  newImplementation */\n      dup2\n        /* \"@openzeppelin/contracts-upgradeable@4.8.1/proxy/ERC1967/ERC1967UpgradeUpgradeable.sol\":2258:2276  _setImplementation */\n      tag_269\n        /* \"@openzeppelin/contracts-upgradeable@4.8.1/proxy/ERC1967/ERC1967UpgradeUpgradeable.sol\":2258:2295  _setImplementation(newImplementation) */\n      jump\t// in\n    tag_350:\n        /* \"@openzeppelin/contracts-upgradeable@4.8.1/proxy/ERC1967/ERC1967UpgradeUpgradeable.sol\":2319:2336  newImplementation */\n      dup1\n        /* \"@openzeppelin/contracts-upgradeable@4.8.1/proxy/ERC1967/ERC1967UpgradeUpgradeable.sol\":2310:2337  Upgraded(newImplementation) */\n      0xffffffffffffffffffffffffffffffffffffffff\n      and\n      0xbc7cd75a20ee27fd9adebab32041f755214dbc6bffa90cc0225b39da2e5c2d3b\n      mload(0x40)\n      mload(0x40)\n      dup1\n      swap2\n      sub\n      swap1\n      log2\n        /* \"@openzeppelin/contracts-upgradeable@4.8.1/proxy/ERC1967/ERC1967UpgradeUpgradeable.sol\":2192:2344  function _upgradeTo(address newImplementation) internal {... */\n      pop\n      jump\t// out\n        /* \"@openzeppelin/contracts-upgradeable@4.8.1/proxy/ERC1967/ERC1967UpgradeUpgradeable.sol\":7088:7543  function _functionDelegateCall(address target, bytes memory data) private returns (bytes memory) {... */\n    tag_335:\n        /* \"@openzeppelin/contracts-upgradeable@4.8.1/proxy/ERC1967/ERC1967UpgradeUpgradeable.sol\":7171:7183  bytes memory */\n      0x60\n        /* \"@openzeppelin/contracts-upgradeable@4.8.1/proxy/ERC1967/ERC1967UpgradeUpgradeable.sol\":7203:7240  AddressUpgradeable.isContract(target) */\n      tag_352\n        /* \"@openzeppelin/contracts-upgradeable@4.8.1/proxy/ERC1967/ERC1967UpgradeUpgradeable.sol\":7233:7239  target */\n      dup4\n        /* \"@openzeppelin/contracts-upgradeable@4.8.1/proxy/ERC1967/ERC1967UpgradeUpgradeable.sol\":7203:7232  AddressUpgradeable.isContract */\n      tag_179\n        /* \"@openzeppelin/contracts-upgradeable@4.8.1/proxy/ERC1967/ERC1967UpgradeUpgradeable.sol\":7203:7240  AddressUpgradeable.isContract(target) */\n      jump\t// in\n    tag_352:\n        /* \"@openzeppelin/contracts-upgradeable@4.8.1/proxy/ERC1967/ERC1967UpgradeUpgradeable.sol\":7195:7283  require(AddressUpgradeable.isContract(target), \"Address: delegate call to non-contract\") */\n      tag_353\n      jumpi\n      mload(0x40)\n      0x08c379a000000000000000000000000000000000000000000000000000000000\n      dup2\n      mstore\n      0x04\n      add\n      tag_354\n      swap1\n      tag_355\n      jump\t// in\n    tag_354:\n      mload(0x40)\n      dup1\n      swap2\n      sub\n      swap1\n      revert\n    tag_353:\n        /* \"@openzeppelin/contracts-upgradeable@4.8.1/proxy/ERC1967/ERC1967UpgradeUpgradeable.sol\":7354:7366  bool success */\n      0x00\n        /* \"@openzeppelin/contracts-upgradeable@4.8.1/proxy/ERC1967/ERC1967UpgradeUpgradeable.sol\":7368:7391  bytes memory returndata */\n      dup1\n        /* \"@openzeppelin/contracts-upgradeable@4.8.1/proxy/ERC1967/ERC1967UpgradeUpgradeable.sol\":7395:7401  target */\n      dup5\n        /* \"@openzeppelin/contracts-upgradeable@4.8.1/proxy/ERC1967/ERC1967UpgradeUpgradeable.sol\":7395:7414  target.delegatecall */\n      0xffffffffffffffffffffffffffffffffffffffff\n      and\n        /* \"@openzeppelin/contracts-upgradeable@4.8.1/proxy/ERC1967/ERC1967UpgradeUpgradeable.sol\":7415:7419  data */\n      dup5\n        /* \"@openzeppelin/contracts-upgradeable@4.8.1/proxy/ERC1967/ERC1967UpgradeUpgradeable.sol\":7395:7420  target.delegatecall(data) */\n      mload(0x40)\n      tag_356\n      swap2\n      swap1\n      tag_357\n      jump\t// in\n    tag_356:\n      0x00\n      mload(0x40)\n      dup1\n      dup4\n      sub\n      dup2\n      dup6\n      gas\n      delegatecall\n      swap2\n      pop\n      pop\n      returndatasize\n      dup1\n      0x00\n      dup2\n      eq\n      tag_360\n      jumpi\n      mload(0x40)\n      swap2\n      pop\n      and(add(returndatasize, 0x3f), not(0x1f))\n      dup3\n      add\n      0x40\n      mstore\n      returndatasize\n      dup3\n      mstore\n      returndatasize\n      0x00\n      0x20\n      dup5\n      add\n      returndatacopy\n      jump(tag_359)\n    tag_360:\n      0x60\n      swap2\n      pop\n    tag_359:\n      pop\n        /* \"@openzeppelin/contracts-upgradeable@4.8.1/proxy/ERC1967/ERC1967UpgradeUpgradeable.sol\":7353:7420  (bool success, bytes memory returndata) = target.delegatecall(data) */\n      swap2\n      pop\n      swap2\n      pop\n        /* \"@openzeppelin/contracts-upgradeable@4.8.1/proxy/ERC1967/ERC1967UpgradeUpgradeable.sol\":7437:7536  AddressUpgradeable.verifyCallResult(success, returndata, \"Address: low-level delegate call failed\") */\n      tag_361\n        /* \"@openzeppelin/contracts-upgradeable@4.8.1/proxy/ERC1967/ERC1967UpgradeUpgradeable.sol\":7473:7480  success */\n      dup3\n        /* \"@openzeppelin/contracts-upgradeable@4.8.1/proxy/ERC1967/ERC1967UpgradeUpgradeable.sol\":7482:7492  returndata */\n      dup3\n        /* \"@openzeppelin/contracts-upgradeable@4.8.1/proxy/ERC1967/ERC1967UpgradeUpgradeable.sol\":7437:7536  AddressUpgradeable.verifyCallResult(success, returndata, \"Address: low-level delegate call failed\") */\n      mload(0x40)\n      dup1\n      0x60\n      add\n      0x40\n      mstore\n      dup1\n      0x27\n      dup2\n      mstore\n      0x20\n      add\n      data_9fdcd12e4b726339b32a442b0a448365d5d85c96b2d2cff917b4f66c63110398\n      0x27\n      swap2\n      codecopy\n        /* \"@openzeppelin/contracts-upgradeable@4.8.1/proxy/ERC1967/ERC1967UpgradeUpgradeable.sol\":7437:7472  AddressUpgradeable.verifyCallResult */\n      tag_362\n        /* \"@openzeppelin/contracts-upgradeable@4.8.1/proxy/ERC1967/ERC1967UpgradeUpgradeable.sol\":7437:7536  AddressUpgradeable.verifyCallResult(success, returndata, \"Address: low-level delegate call failed\") */\n      jump\t// in\n    tag_361:\n        /* \"@openzeppelin/contracts-upgradeable@4.8.1/proxy/ERC1967/ERC1967UpgradeUpgradeable.sol\":7430:7536  return AddressUpgradeable.verifyCallResult(success, returndata, \"Address: low-level delegate call failed\") */\n      swap3\n      pop\n      pop\n      pop\n        /* \"@openzeppelin/contracts-upgradeable@4.8.1/proxy/ERC1967/ERC1967UpgradeUpgradeable.sol\":7088:7543  function _functionDelegateCall(address target, bytes memory data) private returns (bytes memory) {... */\n      swap3\n      swap2\n      pop\n      pop\n      jump\t// out\n        /* \"@openzeppelin/contracts-upgradeable@4.8.1/utils/AddressUpgradeable.sol\":7438:7733  function verifyCallResult(... */\n    tag_362:\n        /* \"@openzeppelin/contracts-upgradeable@4.8.1/utils/AddressUpgradeable.sol\":7584:7596  bytes memory */\n      0x60\n        /* \"@openzeppelin/contracts-upgradeable@4.8.1/utils/AddressUpgradeable.sol\":7612:7619  success */\n      dup4\n        /* \"@openzeppelin/contracts-upgradeable@4.8.1/utils/AddressUpgradeable.sol\":7608:7727  if (success) {... */\n      iszero\n      tag_364\n      jumpi\n        /* \"@openzeppelin/contracts-upgradeable@4.8.1/utils/AddressUpgradeable.sol\":7642:7652  returndata */\n      dup3\n        /* \"@openzeppelin/contracts-upgradeable@4.8.1/utils/AddressUpgradeable.sol\":7635:7652  return returndata */\n      swap1\n      pop\n      jump(tag_363)\n        /* \"@openzeppelin/contracts-upgradeable@4.8.1/utils/AddressUpgradeable.sol\":7608:7727  if (success) {... */\n    tag_364:\n        /* \"@openzeppelin/contracts-upgradeable@4.8.1/utils/AddressUpgradeable.sol\":7683:7716  _revert(returndata, errorMessage) */\n      tag_366\n        /* \"@openzeppelin/contracts-upgradeable@4.8.1/utils/AddressUpgradeable.sol\":7691:7701  returndata */\n      dup4\n        /* \"@openzeppelin/contracts-upgradeable@4.8.1/utils/AddressUpgradeable.sol\":7703:7715  errorMessage */\n      dup4\n        /* \"@openzeppelin/contracts-upgradeable@4.8.1/utils/AddressUpgradeable.sol\":7683:7690  _revert */\n      tag_367\n        /* \"@openzeppelin/contracts-upgradeable@4.8.1/utils/AddressUpgradeable.sol\":7683:7716  _revert(returndata, errorMessage) */\n      jump\t// in\n    tag_366:\n        /* \"@openzeppelin/contracts-upgradeable@4.8.1/utils/AddressUpgradeable.sol\":7438:7733  function verifyCallResult(... */\n    tag_363:\n      swap4\n      swap3\n      pop\n      pop\n      pop\n      jump\t// out\n        /* \"@openzeppelin/contracts-upgradeable@4.8.1/utils/AddressUpgradeable.sol\":7739:8279  function _revert(bytes memory returndata, string memory errorMessage) private pure {... */\n    tag_367:\n        /* \"@openzeppelin/contracts-upgradeable@4.8.1/utils/AddressUpgradeable.sol\":7918:7919  0 */\n      0x00\n        /* \"@openzeppelin/contracts-upgradeable@4.8.1/utils/AddressUpgradeable.sol\":7898:7908  returndata */\n      dup3\n        /* \"@openzeppelin/contracts-upgradeable@4.8.1/utils/AddressUpgradeable.sol\":7898:7915  returndata.length */\n      mload\n        /* \"@openzeppelin/contracts-upgradeable@4.8.1/utils/AddressUpgradeable.sol\":7898:7919  returndata.length > 0 */\n      gt\n        /* \"@openzeppelin/contracts-upgradeable@4.8.1/utils/AddressUpgradeable.sol\":7894:8273  if (returndata.length > 0) {... */\n      iszero\n      tag_369\n      jumpi\n        /* \"@openzeppelin/contracts-upgradeable@4.8.1/utils/AddressUpgradeable.sol\":8126:8136  returndata */\n      dup2\n        /* \"@openzeppelin/contracts-upgradeable@4.8.1/utils/AddressUpgradeable.sol\":8120:8137  mload(returndata) */\n      mload\n        /* \"@openzeppelin/contracts-upgradeable@4.8.1/utils/AddressUpgradeable.sol\":8182:8197  returndata_size */\n      dup1\n        /* \"@openzeppelin/contracts-upgradeable@4.8.1/utils/AddressUpgradeable.sol\":8169:8179  returndata */\n      dup4\n        /* \"@openzeppelin/contracts-upgradeable@4.8.1/utils/AddressUpgradeable.sol\":8165:8167  32 */\n      0x20\n        /* \"@openzeppelin/contracts-upgradeable@4.8.1/utils/AddressUpgradeable.sol\":8161:8180  add(32, returndata) */\n      add\n        /* \"@openzeppelin/contracts-upgradeable@4.8.1/utils/AddressUpgradeable.sol\":8154:8198  revert(add(32, returndata), returndata_size) */\n      revert\n        /* \"@openzeppelin/contracts-upgradeable@4.8.1/utils/AddressUpgradeable.sol\":7894:8273  if (returndata.length > 0) {... */\n    tag_369:\n        /* \"@openzeppelin/contracts-upgradeable@4.8.1/utils/AddressUpgradeable.sol\":8249:8261  errorMessage */\n      dup1\n        /* \"@openzeppelin/contracts-upgradeable@4.8.1/utils/AddressUpgradeable.sol\":8242:8262  revert(errorMessage) */\n      mload(0x40)\n      0x08c379a000000000000000000000000000000000000000000000000000000000\n      dup2\n      mstore\n      0x04\n      add\n      tag_371\n      swap2\n      swap1\n      tag_27\n      jump\t// in\n    tag_371:\n      mload(0x40)\n      dup1\n      swap2\n      sub\n      swap1\n      revert\n        /* \"#utility.yul\":7:106   */\n    tag_372:\n        /* \"#utility.yul\":59:65   */\n      0x00\n        /* \"#utility.yul\":93:98   */\n      dup2\n        /* \"#utility.yul\":87:99   */\n      mload\n        /* \"#utility.yul\":77:99   */\n      swap1\n      pop\n        /* \"#utility.yul\":7:106   */\n      swap2\n      swap1\n      pop\n      jump\t// out\n        /* \"#utility.yul\":112:281   */\n    tag_373:\n        /* \"#utility.yul\":196:207   */\n      0x00\n        /* \"#utility.yul\":230:236   */\n      dup3\n        /* \"#utility.yul\":225:228   */\n      dup3\n        /* \"#utility.yul\":218:237   */\n      mstore\n        /* \"#utility.yul\":270:274   */\n      0x20\n        /* \"#utility.yul\":265:268   */\n      dup3\n        /* \"#utility.yul\":261:275   */\n      add\n        /* \"#utility.yul\":246:275   */\n      swap1\n      pop\n        /* \"#utility.yul\":112:281   */\n      swap3\n      swap2\n      pop\n      pop\n      jump\t// out\n        /* \"#utility.yul\":287:533   */\n    tag_374:\n        /* \"#utility.yul\":368:369   */\n      0x00\n        /* \"#utility.yul\":378:491   */\n    tag_473:\n        /* \"#utility.yul\":392:398   */\n      dup4\n        /* \"#utility.yul\":389:390   */\n      dup2\n        /* \"#utility.yul\":386:399   */\n      lt\n        /* \"#utility.yul\":378:491   */\n      iszero\n      tag_475\n      jumpi\n        /* \"#utility.yul\":477:478   */\n      dup1\n        /* \"#utility.yul\":472:475   */\n      dup3\n        /* \"#utility.yul\":468:479   */\n      add\n        /* \"#utility.yul\":462:480   */\n      mload\n        /* \"#utility.yul\":458:459   */\n      dup2\n        /* \"#utility.yul\":453:456   */\n      dup5\n        /* \"#utility.yul\":449:460   */\n      add\n        /* \"#utility.yul\":442:481   */\n      mstore\n        /* \"#utility.yul\":414:416   */\n      0x20\n        /* \"#utility.yul\":411:412   */\n      dup2\n        /* \"#utility.yul\":407:417   */\n      add\n        /* \"#utility.yul\":402:417   */\n      swap1\n      pop\n        /* \"#utility.yul\":378:491   */\n      jump(tag_473)\n    tag_475:\n        /* \"#utility.yul\":525:526   */\n      0x00\n        /* \"#utility.yul\":516:522   */\n      dup5\n        /* \"#utility.yul\":511:514   */\n      dup5\n        /* \"#utility.yul\":507:523   */\n      add\n        /* \"#utility.yul\":500:527   */\n      mstore\n        /* \"#utility.yul\":349:533   */\n      pop\n        /* \"#utility.yul\":287:533   */\n      pop\n      pop\n      pop\n      jump\t// out\n        /* \"#utility.yul\":539:641   */\n    tag_375:\n        /* \"#utility.yul\":580:586   */\n      0x00\n        /* \"#utility.yul\":631:633   */\n      0x1f\n        /* \"#utility.yul\":627:634   */\n      not\n        /* \"#utility.yul\":622:624   */\n      0x1f\n        /* \"#utility.yul\":615:620   */\n      dup4\n        /* \"#utility.yul\":611:625   */\n      add\n        /* \"#utility.yul\":607:635   */\n      and\n        /* \"#utility.yul\":597:635   */\n      swap1\n      pop\n        /* \"#utility.yul\":539:641   */\n      swap2\n      swap1\n      pop\n      jump\t// out\n        /* \"#utility.yul\":647:1024   */\n    tag_376:\n        /* \"#utility.yul\":735:738   */\n      0x00\n        /* \"#utility.yul\":763:802   */\n      tag_478\n        /* \"#utility.yul\":796:801   */\n      dup3\n        /* \"#utility.yul\":763:802   */\n      tag_372\n      jump\t// in\n    tag_478:\n        /* \"#utility.yul\":818:889   */\n      tag_479\n        /* \"#utility.yul\":882:888   */\n      dup2\n        /* \"#utility.yul\":877:880   */\n      dup6\n        /* \"#utility.yul\":818:889   */\n      tag_373\n      jump\t// in\n    tag_479:\n        /* \"#utility.yul\":811:889   */\n      swap4\n      pop\n        /* \"#utility.yul\":898:963   */\n      tag_480\n        /* \"#utility.yul\":956:962   */\n      dup2\n        /* \"#utility.yul\":951:954   */\n      dup6\n        /* \"#utility.yul\":944:948   */\n      0x20\n        /* \"#utility.yul\":937:942   */\n      dup7\n        /* \"#utility.yul\":933:949   */\n      add\n        /* \"#utility.yul\":898:963   */\n      tag_374\n      jump\t// in\n    tag_480:\n        /* \"#utility.yul\":988:1017   */\n      tag_481\n        /* \"#utility.yul\":1010:1016   */\n      dup2\n        /* \"#utility.yul\":988:1017   */\n      tag_375\n      jump\t// in\n    tag_481:\n        /* \"#utility.yul\":983:986   */\n      dup5\n        /* \"#utility.yul\":979:1018   */\n      add\n        /* \"#utility.yul\":972:1018   */\n      swap2\n      pop\n        /* \"#utility.yul\":739:1024   */\n      pop\n        /* \"#utility.yul\":647:1024   */\n      swap3\n      swap2\n      pop\n      pop\n      jump\t// out\n        /* \"#utility.yul\":1030:1343   */\n    tag_27:\n        /* \"#utility.yul\":1143:1147   */\n      0x00\n        /* \"#utility.yul\":1181:1183   */\n      0x20\n        /* \"#utility.yul\":1170:1179   */\n      dup3\n        /* \"#utility.yul\":1166:1184   */\n      add\n        /* \"#utility.yul\":1158:1184   */\n      swap1\n      pop\n        /* \"#utility.yul\":1230:1239   */\n      dup2\n        /* \"#utility.yul\":1224:1228   */\n      dup2\n        /* \"#utility.yul\":1220:1240   */\n      sub\n        /* \"#utility.yul\":1216:1217   */\n      0x00\n        /* \"#utility.yul\":1205:1214   */\n      dup4\n        /* \"#utility.yul\":1201:1218   */\n      add\n        /* \"#utility.yul\":1194:1241   */\n      mstore\n        /* \"#utility.yul\":1258:1336   */\n      tag_483\n        /* \"#utility.yul\":1331:1335   */\n      dup2\n        /* \"#utility.yul\":1322:1328   */\n      dup5\n        /* \"#utility.yul\":1258:1336   */\n      tag_376\n      jump\t// in\n    tag_483:\n        /* \"#utility.yul\":1250:1336   */\n      swap1\n      pop\n        /* \"#utility.yul\":1030:1343   */\n      swap3\n      swap2\n      pop\n      pop\n      jump\t// out\n        /* \"#utility.yul\":1349:1424   */\n    tag_377:\n        /* \"#utility.yul\":1382:1388   */\n      0x00\n        /* \"#utility.yul\":1415:1417   */\n      0x40\n        /* \"#utility.yul\":1409:1418   */\n      mload\n        /* \"#utility.yul\":1399:1418   */\n      swap1\n      pop\n        /* \"#utility.yul\":1349:1424   */\n      swap1\n      jump\t// out\n        /* \"#utility.yul\":1430:1547   */\n    tag_378:\n        /* \"#utility.yul\":1539:1540   */\n      0x00\n        /* \"#utility.yul\":1536:1537   */\n      dup1\n        /* \"#utility.yul\":1529:1541   */\n      revert\n        /* \"#utility.yul\":1553:1670   */\n    tag_379:\n        /* \"#utility.yul\":1662:1663   */\n      0x00\n        /* \"#utility.yul\":1659:1660   */\n      dup1\n        /* \"#utility.yul\":1652:1664   */\n      revert\n        /* \"#utility.yul\":1676:1802   */\n    tag_380:\n        /* \"#utility.yul\":1713:1720   */\n      0x00\n        /* \"#utility.yul\":1753:1795   */\n      0xffffffffffffffffffffffffffffffffffffffff\n        /* \"#utility.yul\":1746:1751   */\n      dup3\n        /* \"#utility.yul\":1742:1796   */\n      and\n        /* \"#utility.yul\":1731:1796   */\n      swap1\n      pop\n        /* \"#utility.yul\":1676:1802   */\n      swap2\n      swap1\n      pop\n      jump\t// out\n        /* \"#utility.yul\":1808:1904   */\n    tag_381:\n        /* \"#utility.yul\":1845:1852   */\n      0x00\n        /* \"#utility.yul\":1874:1898   */\n      tag_489\n        /* \"#utility.yul\":1892:1897   */\n      dup3\n        /* \"#utility.yul\":1874:1898   */\n      tag_380\n      jump\t// in\n    tag_489:\n        /* \"#utility.yul\":1863:1898   */\n      swap1\n      pop\n        /* \"#utility.yul\":1808:1904   */\n      swap2\n      swap1\n      pop\n      jump\t// out\n        /* \"#utility.yul\":1910:2032   */\n    tag_382:\n        /* \"#utility.yul\":1983:2007   */\n      tag_491\n        /* \"#utility.yul\":2001:2006   */\n      dup2\n        /* \"#utility.yul\":1983:2007   */\n      tag_381\n      jump\t// in\n    tag_491:\n        /* \"#utility.yul\":1976:1981   */\n      dup2\n        /* \"#utility.yul\":1973:2008   */\n      eq\n        /* \"#utility.yul\":1963:2026   */\n      tag_492\n      jumpi\n        /* \"#utility.yul\":2022:2023   */\n      0x00\n        /* \"#utility.yul\":2019:2020   */\n      dup1\n        /* \"#utility.yul\":2012:2024   */\n      revert\n        /* \"#utility.yul\":1963:2026   */\n    tag_492:\n        /* \"#utility.yul\":1910:2032   */\n      pop\n      jump\t// out\n        /* \"#utility.yul\":2038:2177   */\n    tag_383:\n        /* \"#utility.yul\":2084:2089   */\n      0x00\n        /* \"#utility.yul\":2122:2128   */\n      dup2\n        /* \"#utility.yul\":2109:2129   */\n      calldataload\n        /* \"#utility.yul\":2100:2129   */\n      swap1\n      pop\n        /* \"#utility.yul\":2138:2171   */\n      tag_494\n        /* \"#utility.yul\":2165:2170   */\n      dup2\n        /* \"#utility.yul\":2138:2171   */\n      tag_382\n      jump\t// in\n    tag_494:\n        /* \"#utility.yul\":2038:2177   */\n      swap3\n      swap2\n      pop\n      pop\n      jump\t// out\n        /* \"#utility.yul\":2183:2260   */\n    tag_384:\n        /* \"#utility.yul\":2220:2227   */\n      0x00\n        /* \"#utility.yul\":2249:2254   */\n      dup2\n        /* \"#utility.yul\":2238:2254   */\n      swap1\n      pop\n        /* \"#utility.yul\":2183:2260   */\n      swap2\n      swap1\n      pop\n      jump\t// out\n        /* \"#utility.yul\":2266:2388   */\n    tag_385:\n        /* \"#utility.yul\":2339:2363   */\n      tag_497\n        /* \"#utility.yul\":2357:2362   */\n      dup2\n        /* \"#utility.yul\":2339:2363   */\n      tag_384\n      jump\t// in\n    tag_497:\n        /* \"#utility.yul\":2332:2337   */\n      dup2\n        /* \"#utility.yul\":2329:2364   */\n      eq\n        /* \"#utility.yul\":2319:2382   */\n      tag_498\n      jumpi\n        /* \"#utility.yul\":2378:2379   */\n      0x00\n        /* \"#utility.yul\":2375:2376   */\n      dup1\n        /* \"#utility.yul\":2368:2380   */\n      revert\n        /* \"#utility.yul\":2319:2382   */\n    tag_498:\n        /* \"#utility.yul\":2266:2388   */\n      pop\n      jump\t// out\n        /* \"#utility.yul\":2394:2533   */\n    tag_386:\n        /* \"#utility.yul\":2440:2445   */\n      0x00\n        /* \"#utility.yul\":2478:2484   */\n      dup2\n        /* \"#utility.yul\":2465:2485   */\n      calldataload\n        /* \"#utility.yul\":2456:2485   */\n      swap1\n      pop\n        /* \"#utility.yul\":2494:2527   */\n      tag_500\n        /* \"#utility.yul\":2521:2526   */\n      dup2\n        /* \"#utility.yul\":2494:2527   */\n      tag_385\n      jump\t// in\n    tag_500:\n        /* \"#utility.yul\":2394:2533   */\n      swap3\n      swap2\n      pop\n      pop\n      jump\t// out\n        /* \"#utility.yul\":2539:3013   */\n    tag_31:\n        /* \"#utility.yul\":2607:2613   */\n      0x00\n        /* \"#utility.yul\":2615:2621   */\n      dup1\n        /* \"#utility.yul\":2664:2666   */\n      0x40\n        /* \"#utility.yul\":2652:2661   */\n      dup4\n        /* \"#utility.yul\":2643:2650   */\n      dup6\n        /* \"#utility.yul\":2639:2662   */\n      sub\n        /* \"#utility.yul\":2635:2667   */\n      slt\n        /* \"#utility.yul\":2632:2751   */\n      iszero\n      tag_502\n      jumpi\n        /* \"#utility.yul\":2670:2749   */\n      tag_503\n      tag_378\n      jump\t// in\n    tag_503:\n        /* \"#utility.yul\":2632:2751   */\n    tag_502:\n        /* \"#utility.yul\":2790:2791   */\n      0x00\n        /* \"#utility.yul\":2815:2868   */\n      tag_504\n        /* \"#utility.yul\":2860:2867   */\n      dup6\n        /* \"#utility.yul\":2851:2857   */\n      dup3\n        /* \"#utility.yul\":2840:2849   */\n      dup7\n        /* \"#utility.yul\":2836:2858   */\n      add\n        /* \"#utility.yul\":2815:2868   */\n      tag_383\n      jump\t// in\n    tag_504:\n        /* \"#utility.yul\":2805:2868   */\n      swap3\n      pop\n        /* \"#utility.yul\":2761:2878   */\n      pop\n        /* \"#utility.yul\":2917:2919   */\n      0x20\n        /* \"#utility.yul\":2943:2996   */\n      tag_505\n        /* \"#utility.yul\":2988:2995   */\n      dup6\n        /* \"#utility.yul\":2979:2985   */\n      dup3\n        /* \"#utility.yul\":2968:2977   */\n      dup7\n        /* \"#utility.yul\":2964:2986   */\n      add\n        /* \"#utility.yul\":2943:2996   */\n      tag_386\n      jump\t// in\n    tag_505:\n        /* \"#utility.yul\":2933:2996   */\n      swap2\n      pop\n        /* \"#utility.yul\":2888:3006   */\n      pop\n        /* \"#utility.yul\":2539:3013   */\n      swap3\n      pop\n      swap3\n      swap1\n      pop\n      jump\t// out\n        /* \"#utility.yul\":3019:3109   */\n    tag_387:\n        /* \"#utility.yul\":3053:3060   */\n      0x00\n        /* \"#utility.yul\":3096:3101   */\n      dup2\n        /* \"#utility.yul\":3089:3102   */\n      iszero\n        /* \"#utility.yul\":3082:3103   */\n      iszero\n        /* \"#utility.yul\":3071:3103   */\n      swap1\n      pop\n        /* \"#utility.yul\":3019:3109   */\n      swap2\n      swap1\n      pop\n      jump\t// out\n        /* \"#utility.yul\":3115:3224   */\n    tag_388:\n        /* \"#utility.yul\":3196:3217   */\n      tag_508\n        /* \"#utility.yul\":3211:3216   */\n      dup2\n        /* \"#utility.yul\":3196:3217   */\n      tag_387\n      jump\t// in\n    tag_508:\n        /* \"#utility.yul\":3191:3194   */\n      dup3\n        /* \"#utility.yul\":3184:3218   */\n      mstore\n        /* \"#utility.yul\":3115:3224   */\n      pop\n      pop\n      jump\t// out\n        /* \"#utility.yul\":3230:3440   */\n    tag_34:\n        /* \"#utility.yul\":3317:3321   */\n      0x00\n        /* \"#utility.yul\":3355:3357   */\n      0x20\n        /* \"#utility.yul\":3344:3353   */\n      dup3\n        /* \"#utility.yul\":3340:3358   */\n      add\n        /* \"#utility.yul\":3332:3358   */\n      swap1\n      pop\n        /* \"#utility.yul\":3368:3433   */\n      tag_510\n        /* \"#utility.yul\":3430:3431   */\n      0x00\n        /* \"#utility.yul\":3419:3428   */\n      dup4\n        /* \"#utility.yul\":3415:3432   */\n      add\n        /* \"#utility.yul\":3406:3412   */\n      dup5\n        /* \"#utility.yul\":3368:3433   */\n      tag_388\n      jump\t// in\n    tag_510:\n        /* \"#utility.yul\":3230:3440   */\n      swap3\n      swap2\n      pop\n      pop\n      jump\t// out\n        /* \"#utility.yul\":3446:3564   */\n    tag_389:\n        /* \"#utility.yul\":3533:3557   */\n      tag_512\n        /* \"#utility.yul\":3551:3556   */\n      dup2\n        /* \"#utility.yul\":3533:3557   */\n      tag_384\n      jump\t// in\n    tag_512:\n        /* \"#utility.yul\":3528:3531   */\n      dup3\n        /* \"#utility.yul\":3521:3558   */\n      mstore\n        /* \"#utility.yul\":3446:3564   */\n      pop\n      pop\n      jump\t// out\n        /* \"#utility.yul\":3570:3792   */\n    tag_39:\n        /* \"#utility.yul\":3663:3667   */\n      0x00\n        /* \"#utility.yul\":3701:3703   */\n      0x20\n        /* \"#utility.yul\":3690:3699   */\n      dup3\n        /* \"#utility.yul\":3686:3704   */\n      add\n        /* \"#utility.yul\":3678:3704   */\n      swap1\n      pop\n        /* \"#utility.yul\":3714:3785   */\n      tag_514\n        /* \"#utility.yul\":3782:3783   */\n      0x00\n        /* \"#utility.yul\":3771:3780   */\n      dup4\n        /* \"#utility.yul\":3767:3784   */\n      add\n        /* \"#utility.yul\":3758:3764   */\n      dup5\n        /* \"#utility.yul\":3714:3785   */\n      tag_389\n      jump\t// in\n    tag_514:\n        /* \"#utility.yul\":3570:3792   */\n      swap3\n      swap2\n      pop\n      pop\n      jump\t// out\n        /* \"#utility.yul\":3798:4417   */\n    tag_43:\n        /* \"#utility.yul\":3875:3881   */\n      0x00\n        /* \"#utility.yul\":3883:3889   */\n      dup1\n        /* \"#utility.yul\":3891:3897   */\n      0x00\n        /* \"#utility.yul\":3940:3942   */\n      0x60\n        /* \"#utility.yul\":3928:3937   */\n      dup5\n        /* \"#utility.yul\":3919:3926   */\n      dup7\n        /* \"#utility.yul\":3915:3938   */\n      sub\n        /* \"#utility.yul\":3911:3943   */\n      slt\n        /* \"#utility.yul\":3908:4027   */\n      iszero\n      tag_516\n      jumpi\n        /* \"#utility.yul\":3946:4025   */\n      tag_517\n      tag_378\n      jump\t// in\n    tag_517:\n        /* \"#utility.yul\":3908:4027   */\n    tag_516:\n        /* \"#utility.yul\":4066:4067   */\n      0x00\n        /* \"#utility.yul\":4091:4144   */\n      tag_518\n        /* \"#utility.yul\":4136:4143   */\n      dup7\n        /* \"#utility.yul\":4127:4133   */\n      dup3\n        /* \"#utility.yul\":4116:4125   */\n      dup8\n        /* \"#utility.yul\":4112:4134   */\n      add\n        /* \"#utility.yul\":4091:4144   */\n      tag_383\n      jump\t// in\n    tag_518:\n        /* \"#utility.yul\":4081:4144   */\n      swap4\n      pop\n        /* \"#utility.yul\":4037:4154   */\n      pop\n        /* \"#utility.yul\":4193:4195   */\n      0x20\n        /* \"#utility.yul\":4219:4272   */\n      tag_519\n        /* \"#utility.yul\":4264:4271   */\n      dup7\n        /* \"#utility.yul\":4255:4261   */\n      dup3\n        /* \"#utility.yul\":4244:4253   */\n      dup8\n        /* \"#utility.yul\":4240:4262   */\n      add\n        /* \"#utility.yul\":4219:4272   */\n      tag_383\n      jump\t// in\n    tag_519:\n        /* \"#utility.yul\":4209:4272   */\n      swap3\n      pop\n        /* \"#utility.yul\":4164:4282   */\n      pop\n        /* \"#utility.yul\":4321:4323   */\n      0x40\n        /* \"#utility.yul\":4347:4400   */\n      tag_520\n        /* \"#utility.yul\":4392:4399   */\n      dup7\n        /* \"#utility.yul\":4383:4389   */\n      dup3\n        /* \"#utility.yul\":4372:4381   */\n      dup8\n        /* \"#utility.yul\":4368:4390   */\n      add\n        /* \"#utility.yul\":4347:4400   */\n      tag_386\n      jump\t// in\n    tag_520:\n        /* \"#utility.yul\":4337:4400   */\n      swap2\n      pop\n        /* \"#utility.yul\":4292:4410   */\n      pop\n        /* \"#utility.yul\":3798:4417   */\n      swap3\n      pop\n      swap3\n      pop\n      swap3\n      jump\t// out\n        /* \"#utility.yul\":4423:4509   */\n    tag_390:\n        /* \"#utility.yul\":4458:4465   */\n      0x00\n        /* \"#utility.yul\":4498:4502   */\n      0xff\n        /* \"#utility.yul\":4491:4496   */\n      dup3\n        /* \"#utility.yul\":4487:4503   */\n      and\n        /* \"#utility.yul\":4476:4503   */\n      swap1\n      pop\n        /* \"#utility.yul\":4423:4509   */\n      swap2\n      swap1\n      pop\n      jump\t// out\n        /* \"#utility.yul\":4515:4627   */\n    tag_391:\n        /* \"#utility.yul\":4598:4620   */\n      tag_523\n        /* \"#utility.yul\":4614:4619   */\n      dup2\n        /* \"#utility.yul\":4598:4620   */\n      tag_390\n      jump\t// in\n    tag_523:\n        /* \"#utility.yul\":4593:4596   */\n      dup3\n        /* \"#utility.yul\":4586:4621   */\n      mstore\n        /* \"#utility.yul\":4515:4627   */\n      pop\n      pop\n      jump\t// out\n        /* \"#utility.yul\":4633:4847   */\n    tag_50:\n        /* \"#utility.yul\":4722:4726   */\n      0x00\n        /* \"#utility.yul\":4760:4762   */\n      0x20\n        /* \"#utility.yul\":4749:4758   */\n      dup3\n        /* \"#utility.yul\":4745:4763   */\n      add\n        /* \"#utility.yul\":4737:4763   */\n      swap1\n      pop\n        /* \"#utility.yul\":4773:4840   */\n      tag_525\n        /* \"#utility.yul\":4837:4838   */\n      0x00\n        /* \"#utility.yul\":4826:4835   */\n      dup4\n        /* \"#utility.yul\":4822:4839   */\n      add\n        /* \"#utility.yul\":4813:4819   */\n      dup5\n        /* \"#utility.yul\":4773:4840   */\n      tag_391\n      jump\t// in\n    tag_525:\n        /* \"#utility.yul\":4633:4847   */\n      swap3\n      swap2\n      pop\n      pop\n      jump\t// out\n        /* \"#utility.yul\":4853:5182   */\n    tag_54:\n        /* \"#utility.yul\":4912:4918   */\n      0x00\n        /* \"#utility.yul\":4961:4963   */\n      0x20\n        /* \"#utility.yul\":4949:4958   */\n      dup3\n        /* \"#utility.yul\":4940:4947   */\n      dup5\n        /* \"#utility.yul\":4936:4959   */\n      sub\n        /* \"#utility.yul\":4932:4964   */\n      slt\n        /* \"#utility.yul\":4929:5048   */\n      iszero\n      tag_527\n      jumpi\n        /* \"#utility.yul\":4967:5046   */\n      tag_528\n      tag_378\n      jump\t// in\n    tag_528:\n        /* \"#utility.yul\":4929:5048   */\n    tag_527:\n        /* \"#utility.yul\":5087:5088   */\n      0x00\n        /* \"#utility.yul\":5112:5165   */\n      tag_529\n        /* \"#utility.yul\":5157:5164   */\n      dup5\n        /* \"#utility.yul\":5148:5154   */\n      dup3\n        /* \"#utility.yul\":5137:5146   */\n      dup6\n        /* \"#utility.yul\":5133:5155   */\n      add\n        /* \"#utility.yul\":5112:5165   */\n      tag_383\n      jump\t// in\n    tag_529:\n        /* \"#utility.yul\":5102:5165   */\n      swap2\n      pop\n        /* \"#utility.yul\":5058:5175   */\n      pop\n        /* \"#utility.yul\":4853:5182   */\n      swap3\n      swap2\n      pop\n      pop\n      jump\t// out\n        /* \"#utility.yul\":5188:5305   */\n    tag_392:\n        /* \"#utility.yul\":5297:5298   */\n      0x00\n        /* \"#utility.yul\":5294:5295   */\n      dup1\n        /* \"#utility.yul\":5287:5299   */\n      revert\n        /* \"#utility.yul\":5311:5428   */\n    tag_393:\n        /* \"#utility.yul\":5420:5421   */\n      0x00\n        /* \"#utility.yul\":5417:5418   */\n      dup1\n        /* \"#utility.yul\":5410:5422   */\n      revert\n        /* \"#utility.yul\":5434:5614   */\n    tag_145:\n        /* \"#utility.yul\":5482:5559   */\n      0x4e487b7100000000000000000000000000000000000000000000000000000000\n        /* \"#utility.yul\":5479:5480   */\n      0x00\n        /* \"#utility.yul\":5472:5560   */\n      mstore\n        /* \"#utility.yul\":5579:5583   */\n      0x41\n        /* \"#utility.yul\":5576:5577   */\n      0x04\n        /* \"#utility.yul\":5569:5584   */\n      mstore\n        /* \"#utility.yul\":5603:5607   */\n      0x24\n        /* \"#utility.yul\":5600:5601   */\n      0x00\n        /* \"#utility.yul\":5593:5608   */\n      revert\n        /* \"#utility.yul\":5620:5901   */\n    tag_394:\n        /* \"#utility.yul\":5703:5730   */\n      tag_534\n        /* \"#utility.yul\":5725:5729   */\n      dup3\n        /* \"#utility.yul\":5703:5730   */\n      tag_375\n      jump\t// in\n    tag_534:\n        /* \"#utility.yul\":5695:5701   */\n      dup2\n        /* \"#utility.yul\":5691:5731   */\n      add\n        /* \"#utility.yul\":5833:5839   */\n      dup2\n        /* \"#utility.yul\":5821:5831   */\n      dup2\n        /* \"#utility.yul\":5818:5840   */\n      lt\n        /* \"#utility.yul\":5797:5815   */\n      0xffffffffffffffff\n        /* \"#utility.yul\":5785:5795   */\n      dup3\n        /* \"#utility.yul\":5782:5816   */\n      gt\n        /* \"#utility.yul\":5779:5841   */\n      or\n        /* \"#utility.yul\":5776:5864   */\n      iszero\n      tag_535\n      jumpi\n        /* \"#utility.yul\":5844:5862   */\n      tag_536\n      tag_145\n      jump\t// in\n    tag_536:\n        /* \"#utility.yul\":5776:5864   */\n    tag_535:\n        /* \"#utility.yul\":5884:5894   */\n      dup1\n        /* \"#utility.yul\":5880:5882   */\n      0x40\n        /* \"#utility.yul\":5873:5895   */\n      mstore\n        /* \"#utility.yul\":5663:5901   */\n      pop\n        /* \"#utility.yul\":5620:5901   */\n      pop\n      pop\n      jump\t// out\n        /* \"#utility.yul\":5907:6036   */\n    tag_395:\n        /* \"#utility.yul\":5941:5947   */\n      0x00\n        /* \"#utility.yul\":5968:5988   */\n      tag_538\n      tag_377\n      jump\t// in\n    tag_538:\n        /* \"#utility.yul\":5958:5988   */\n      swap1\n      pop\n        /* \"#utility.yul\":5997:6030   */\n      tag_539\n        /* \"#utility.yul\":6025:6029   */\n      dup3\n        /* \"#utility.yul\":6017:6023   */\n      dup3\n        /* \"#utility.yul\":5997:6030   */\n      tag_394\n      jump\t// in\n    tag_539:\n        /* \"#utility.yul\":5907:6036   */\n      swap2\n      swap1\n      pop\n      jump\t// out\n        /* \"#utility.yul\":6042:6349   */\n    tag_396:\n        /* \"#utility.yul\":6103:6107   */\n      0x00\n        /* \"#utility.yul\":6193:6211   */\n      0xffffffffffffffff\n        /* \"#utility.yul\":6185:6191   */\n      dup3\n        /* \"#utility.yul\":6182:6212   */\n      gt\n        /* \"#utility.yul\":6179:6235   */\n      iszero\n      tag_541\n      jumpi\n        /* \"#utility.yul\":6215:6233   */\n      tag_542\n      tag_145\n      jump\t// in\n    tag_542:\n        /* \"#utility.yul\":6179:6235   */\n    tag_541:\n        /* \"#utility.yul\":6253:6282   */\n      tag_543\n        /* \"#utility.yul\":6275:6281   */\n      dup3\n        /* \"#utility.yul\":6253:6282   */\n      tag_375\n      jump\t// in\n    tag_543:\n        /* \"#utility.yul\":6245:6282   */\n      swap1\n      pop\n        /* \"#utility.yul\":6337:6341   */\n      0x20\n        /* \"#utility.yul\":6331:6335   */\n      dup2\n        /* \"#utility.yul\":6327:6342   */\n      add\n        /* \"#utility.yul\":6319:6342   */\n      swap1\n      pop\n        /* \"#utility.yul\":6042:6349   */\n      swap2\n      swap1\n      pop\n      jump\t// out\n        /* \"#utility.yul\":6355:6501   */\n    tag_397:\n        /* \"#utility.yul\":6452:6458   */\n      dup3\n        /* \"#utility.yul\":6447:6450   */\n      dup2\n        /* \"#utility.yul\":6442:6445   */\n      dup4\n        /* \"#utility.yul\":6429:6459   */\n      calldatacopy\n        /* \"#utility.yul\":6493:6494   */\n      0x00\n        /* \"#utility.yul\":6484:6490   */\n      dup4\n        /* \"#utility.yul\":6479:6482   */\n      dup4\n        /* \"#utility.yul\":6475:6491   */\n      add\n        /* \"#utility.yul\":6468:6495   */\n      mstore\n        /* \"#utility.yul\":6355:6501   */\n      pop\n      pop\n      pop\n      jump\t// out\n        /* \"#utility.yul\":6507:6930   */\n    tag_398:\n        /* \"#utility.yul\":6584:6589   */\n      0x00\n        /* \"#utility.yul\":6609:6674   */\n      tag_546\n        /* \"#utility.yul\":6625:6673   */\n      tag_547\n        /* \"#utility.yul\":6666:6672   */\n      dup5\n        /* \"#utility.yul\":6625:6673   */\n      tag_396\n      jump\t// in\n    tag_547:\n        /* \"#utility.yul\":6609:6674   */\n      tag_395\n      jump\t// in\n    tag_546:\n        /* \"#utility.yul\":6600:6674   */\n      swap1\n      pop\n        /* \"#utility.yul\":6697:6703   */\n      dup3\n        /* \"#utility.yul\":6690:6695   */\n      dup2\n        /* \"#utility.yul\":6683:6704   */\n      mstore\n        /* \"#utility.yul\":6735:6739   */\n      0x20\n        /* \"#utility.yul\":6728:6733   */\n      dup2\n        /* \"#utility.yul\":6724:6740   */\n      add\n        /* \"#utility.yul\":6773:6776   */\n      dup5\n        /* \"#utility.yul\":6764:6770   */\n      dup5\n        /* \"#utility.yul\":6759:6762   */\n      dup5\n        /* \"#utility.yul\":6755:6771   */\n      add\n        /* \"#utility.yul\":6752:6777   */\n      gt\n        /* \"#utility.yul\":6749:6861   */\n      iszero\n      tag_548\n      jumpi\n        /* \"#utility.yul\":6780:6859   */\n      tag_549\n      tag_393\n      jump\t// in\n    tag_549:\n        /* \"#utility.yul\":6749:6861   */\n    tag_548:\n        /* \"#utility.yul\":6870:6924   */\n      tag_550\n        /* \"#utility.yul\":6917:6923   */\n      dup5\n        /* \"#utility.yul\":6912:6915   */\n      dup3\n        /* \"#utility.yul\":6907:6910   */\n      dup6\n        /* \"#utility.yul\":6870:6924   */\n      tag_397\n      jump\t// in\n    tag_550:\n        /* \"#utility.yul\":6590:6930   */\n      pop\n        /* \"#utility.yul\":6507:6930   */\n      swap4\n      swap3\n      pop\n      pop\n      pop\n      jump\t// out\n        /* \"#utility.yul\":6949:7287   */\n    tag_399:\n        /* \"#utility.yul\":7004:7009   */\n      0x00\n        /* \"#utility.yul\":7053:7056   */\n      dup3\n        /* \"#utility.yul\":7046:7050   */\n      0x1f\n        /* \"#utility.yul\":7038:7044   */\n      dup4\n        /* \"#utility.yul\":7034:7051   */\n      add\n        /* \"#utility.yul\":7030:7057   */\n      slt\n        /* \"#utility.yul\":7020:7142   */\n      tag_552\n      jumpi\n        /* \"#utility.yul\":7061:7140   */\n      tag_553\n      tag_392\n      jump\t// in\n    tag_553:\n        /* \"#utility.yul\":7020:7142   */\n    tag_552:\n        /* \"#utility.yul\":7178:7184   */\n      dup2\n        /* \"#utility.yul\":7165:7185   */\n      calldataload\n        /* \"#utility.yul\":7203:7281   */\n      tag_554\n        /* \"#utility.yul\":7277:7280   */\n      dup5\n        /* \"#utility.yul\":7269:7275   */\n      dup3\n        /* \"#utility.yul\":7262:7266   */\n      0x20\n        /* \"#utility.yul\":7254:7260   */\n      dup7\n        /* \"#utility.yul\":7250:7267   */\n      add\n        /* \"#utility.yul\":7203:7281   */\n      tag_398\n      jump\t// in\n    tag_554:\n        /* \"#utility.yul\":7194:7281   */\n      swap2\n      pop\n        /* \"#utility.yul\":7010:7287   */\n      pop\n        /* \"#utility.yul\":6949:7287   */\n      swap3\n      swap2\n      pop\n      pop\n      jump\t// out\n        /* \"#utility.yul\":7293:7945   */\n    tag_63:\n        /* \"#utility.yul\":7370:7376   */\n      0x00\n        /* \"#utility.yul\":7378:7384   */\n      dup1\n        /* \"#utility.yul\":7427:7429   */\n      0x40\n        /* \"#utility.yul\":7415:7424   */\n      dup4\n        /* \"#utility.yul\":7406:7413   */\n      dup6\n        /* \"#utility.yul\":7402:7425   */\n      sub\n        /* \"#utility.yul\":7398:7430   */\n      slt\n        /* \"#utility.yul\":7395:7514   */\n      iszero\n      tag_556\n      jumpi\n        /* \"#utility.yul\":7433:7512   */\n      tag_557\n      tag_378\n      jump\t// in\n    tag_557:\n        /* \"#utility.yul\":7395:7514   */\n    tag_556:\n        /* \"#utility.yul\":7553:7554   */\n      0x00\n        /* \"#utility.yul\":7578:7631   */\n      tag_558\n        /* \"#utility.yul\":7623:7630   */\n      dup6\n        /* \"#utility.yul\":7614:7620   */\n      dup3\n        /* \"#utility.yul\":7603:7612   */\n      dup7\n        /* \"#utility.yul\":7599:7621   */\n      add\n        /* \"#utility.yul\":7578:7631   */\n      tag_383\n      jump\t// in\n    tag_558:\n        /* \"#utility.yul\":7568:7631   */\n      swap3\n      pop\n        /* \"#utility.yul\":7524:7641   */\n      pop\n        /* \"#utility.yul\":7708:7710   */\n      0x20\n        /* \"#utility.yul\":7697:7706   */\n      dup4\n        /* \"#utility.yul\":7693:7711   */\n      add\n        /* \"#utility.yul\":7680:7712   */\n      calldataload\n        /* \"#utility.yul\":7739:7757   */\n      0xffffffffffffffff\n        /* \"#utility.yul\":7731:7737   */\n      dup2\n        /* \"#utility.yul\":7728:7758   */\n      gt\n        /* \"#utility.yul\":7725:7842   */\n      iszero\n      tag_559\n      jumpi\n        /* \"#utility.yul\":7761:7840   */\n      tag_560\n      tag_379\n      jump\t// in\n    tag_560:\n        /* \"#utility.yul\":7725:7842   */\n    tag_559:\n        /* \"#utility.yul\":7866:7928   */\n      tag_561\n        /* \"#utility.yul\":7920:7927   */\n      dup6\n        /* \"#utility.yul\":7911:7917   */\n      dup3\n        /* \"#utility.yul\":7900:7909   */\n      dup7\n        /* \"#utility.yul\":7896:7918   */\n      add\n        /* \"#utility.yul\":7866:7928   */\n      tag_399\n      jump\t// in\n    tag_561:\n        /* \"#utility.yul\":7856:7928   */\n      swap2\n      pop\n        /* \"#utility.yul\":7651:7938   */\n      pop\n        /* \"#utility.yul\":7293:7945   */\n      swap3\n      pop\n      swap3\n      swap1\n      pop\n      jump\t// out\n        /* \"#utility.yul\":7951:8028   */\n    tag_400:\n        /* \"#utility.yul\":7988:7995   */\n      0x00\n        /* \"#utility.yul\":8017:8022   */\n      dup2\n        /* \"#utility.yul\":8006:8022   */\n      swap1\n      pop\n        /* \"#utility.yul\":7951:8028   */\n      swap2\n      swap1\n      pop\n      jump\t// out\n        /* \"#utility.yul\":8034:8152   */\n    tag_401:\n        /* \"#utility.yul\":8121:8145   */\n      tag_564\n        /* \"#utility.yul\":8139:8144   */\n      dup2\n        /* \"#utility.yul\":8121:8145   */\n      tag_400\n      jump\t// in\n    tag_564:\n        /* \"#utility.yul\":8116:8119   */\n      dup3\n        /* \"#utility.yul\":8109:8146   */\n      mstore\n        /* \"#utility.yul\":8034:8152   */\n      pop\n      pop\n      jump\t// out\n        /* \"#utility.yul\":8158:8380   */\n    tag_69:\n        /* \"#utility.yul\":8251:8255   */\n      0x00\n        /* \"#utility.yul\":8289:8291   */\n      0x20\n        /* \"#utility.yul\":8278:8287   */\n      dup3\n        /* \"#utility.yul\":8274:8292   */\n      add\n        /* \"#utility.yul\":8266:8292   */\n      swap1\n      pop\n        /* \"#utility.yul\":8302:8373   */\n      tag_566\n        /* \"#utility.yul\":8370:8371   */\n      0x00\n        /* \"#utility.yul\":8359:8368   */\n      dup4\n        /* \"#utility.yul\":8355:8372   */\n      add\n        /* \"#utility.yul\":8346:8352   */\n      dup5\n        /* \"#utility.yul\":8302:8373   */\n      tag_401\n      jump\t// in\n    tag_566:\n        /* \"#utility.yul\":8158:8380   */\n      swap3\n      swap2\n      pop\n      pop\n      jump\t// out\n        /* \"#utility.yul\":8386:8504   */\n    tag_402:\n        /* \"#utility.yul\":8473:8497   */\n      tag_568\n        /* \"#utility.yul\":8491:8496   */\n      dup2\n        /* \"#utility.yul\":8473:8497   */\n      tag_381\n      jump\t// in\n    tag_568:\n        /* \"#utility.yul\":8468:8471   */\n      dup3\n        /* \"#utility.yul\":8461:8498   */\n      mstore\n        /* \"#utility.yul\":8386:8504   */\n      pop\n      pop\n      jump\t// out\n        /* \"#utility.yul\":8510:8732   */\n    tag_85:\n        /* \"#utility.yul\":8603:8607   */\n      0x00\n        /* \"#utility.yul\":8641:8643   */\n      0x20\n        /* \"#utility.yul\":8630:8639   */\n      dup3\n        /* \"#utility.yul\":8626:8644   */\n      add\n        /* \"#utility.yul\":8618:8644   */\n      swap1\n      pop\n        /* \"#utility.yul\":8654:8725   */\n      tag_570\n        /* \"#utility.yul\":8722:8723   */\n      0x00\n        /* \"#utility.yul\":8711:8720   */\n      dup4\n        /* \"#utility.yul\":8707:8724   */\n      add\n        /* \"#utility.yul\":8698:8704   */\n      dup5\n        /* \"#utility.yul\":8654:8725   */\n      tag_402\n      jump\t// in\n    tag_570:\n        /* \"#utility.yul\":8510:8732   */\n      swap3\n      swap2\n      pop\n      pop\n      jump\t// out\n        /* \"#utility.yul\":8738:9212   */\n    tag_103:\n        /* \"#utility.yul\":8806:8812   */\n      0x00\n        /* \"#utility.yul\":8814:8820   */\n      dup1\n        /* \"#utility.yul\":8863:8865   */\n      0x40\n        /* \"#utility.yul\":8851:8860   */\n      dup4\n        /* \"#utility.yul\":8842:8849   */\n      dup6\n        /* \"#utility.yul\":8838:8861   */\n      sub\n        /* \"#utility.yul\":8834:8866   */\n      slt\n        /* \"#utility.yul\":8831:8950   */\n      iszero\n      tag_572\n      jumpi\n        /* \"#utility.yul\":8869:8948   */\n      tag_573\n      tag_378\n      jump\t// in\n    tag_573:\n        /* \"#utility.yul\":8831:8950   */\n    tag_572:\n        /* \"#utility.yul\":8989:8990   */\n      0x00\n        /* \"#utility.yul\":9014:9067   */\n      tag_574\n        /* \"#utility.yul\":9059:9066   */\n      dup6\n        /* \"#utility.yul\":9050:9056   */\n      dup3\n        /* \"#utility.yul\":9039:9048   */\n      dup7\n        /* \"#utility.yul\":9035:9057   */\n      add\n        /* \"#utility.yul\":9014:9067   */\n      tag_383\n      jump\t// in\n    tag_574:\n        /* \"#utility.yul\":9004:9067   */\n      swap3\n      pop\n        /* \"#utility.yul\":8960:9077   */\n      pop\n        /* \"#utility.yul\":9116:9118   */\n      0x20\n        /* \"#utility.yul\":9142:9195   */\n      tag_575\n        /* \"#utility.yul\":9187:9194   */\n      dup6\n        /* \"#utility.yul\":9178:9184   */\n      dup3\n        /* \"#utility.yul\":9167:9176   */\n      dup7\n        /* \"#utility.yul\":9163:9185   */\n      add\n        /* \"#utility.yul\":9142:9195   */\n      tag_383\n      jump\t// in\n    tag_575:\n        /* \"#utility.yul\":9132:9195   */\n      swap2\n      pop\n        /* \"#utility.yul\":9087:9205   */\n      pop\n        /* \"#utility.yul\":8738:9212   */\n      swap3\n      pop\n      swap3\n      swap1\n      pop\n      jump\t// out\n        /* \"#utility.yul\":9218:9398   */\n    tag_403:\n        /* \"#utility.yul\":9266:9343   */\n      0x4e487b7100000000000000000000000000000000000000000000000000000000\n        /* \"#utility.yul\":9263:9264   */\n      0x00\n        /* \"#utility.yul\":9256:9344   */\n      mstore\n        /* \"#utility.yul\":9363:9367   */\n      0x22\n        /* \"#utility.yul\":9360:9361   */\n      0x04\n        /* \"#utility.yul\":9353:9368   */\n      mstore\n        /* \"#utility.yul\":9387:9391   */\n      0x24\n        /* \"#utility.yul\":9384:9385   */\n      0x00\n        /* \"#utility.yul\":9377:9392   */\n      revert\n        /* \"#utility.yul\":9404:9724   */\n    tag_112:\n        /* \"#utility.yul\":9448:9454   */\n      0x00\n        /* \"#utility.yul\":9485:9486   */\n      0x02\n        /* \"#utility.yul\":9479:9483   */\n      dup3\n        /* \"#utility.yul\":9475:9487   */\n      div\n        /* \"#utility.yul\":9465:9487   */\n      swap1\n      pop\n        /* \"#utility.yul\":9532:9533   */\n      0x01\n        /* \"#utility.yul\":9526:9530   */\n      dup3\n        /* \"#utility.yul\":9522:9534   */\n      and\n        /* \"#utility.yul\":9553:9571   */\n      dup1\n        /* \"#utility.yul\":9543:9624   */\n      tag_578\n      jumpi\n        /* \"#utility.yul\":9609:9613   */\n      0x7f\n        /* \"#utility.yul\":9601:9607   */\n      dup3\n        /* \"#utility.yul\":9597:9614   */\n      and\n        /* \"#utility.yul\":9587:9614   */\n      swap2\n      pop\n        /* \"#utility.yul\":9543:9624   */\n    tag_578:\n        /* \"#utility.yul\":9671:9673   */\n      0x20\n        /* \"#utility.yul\":9663:9669   */\n      dup3\n        /* \"#utility.yul\":9660:9674   */\n      lt\n        /* \"#utility.yul\":9640:9658   */\n      dup2\n        /* \"#utility.yul\":9637:9675   */\n      sub\n        /* \"#utility.yul\":9634:9718   */\n      tag_579\n      jumpi\n        /* \"#utility.yul\":9690:9708   */\n      tag_580\n      tag_403\n      jump\t// in\n    tag_580:\n        /* \"#utility.yul\":9634:9718   */\n    tag_579:\n        /* \"#utility.yul\":9455:9724   */\n      pop\n        /* \"#utility.yul\":9404:9724   */\n      swap2\n      swap1\n      pop\n      jump\t// out\n        /* \"#utility.yul\":9730:9961   */\n    tag_404:\n        /* \"#utility.yul\":9870:9904   */\n      0x46756e6374696f6e206d7573742062652063616c6c6564207468726f75676820\n        /* \"#utility.yul\":9866:9867   */\n      0x00\n        /* \"#utility.yul\":9858:9864   */\n      dup3\n        /* \"#utility.yul\":9854:9868   */\n      add\n        /* \"#utility.yul\":9847:9905   */\n      mstore\n        /* \"#utility.yul\":9939:9953   */\n      0x64656c656761746563616c6c0000000000000000000000000000000000000000\n        /* \"#utility.yul\":9934:9936   */\n      0x20\n        /* \"#utility.yul\":9926:9932   */\n      dup3\n        /* \"#utility.yul\":9922:9937   */\n      add\n        /* \"#utility.yul\":9915:9954   */\n      mstore\n        /* \"#utility.yul\":9730:9961   */\n      pop\n      jump\t// out\n        /* \"#utility.yul\":9967:10333   */\n    tag_405:\n        /* \"#utility.yul\":10109:10112   */\n      0x00\n        /* \"#utility.yul\":10130:10197   */\n      tag_583\n        /* \"#utility.yul\":10194:10196   */\n      0x2c\n        /* \"#utility.yul\":10189:10192   */\n      dup4\n        /* \"#utility.yul\":10130:10197   */\n      tag_373\n      jump\t// in\n    tag_583:\n        /* \"#utility.yul\":10123:10197   */\n      swap2\n      pop\n        /* \"#utility.yul\":10206:10299   */\n      tag_584\n        /* \"#utility.yul\":10295:10298   */\n      dup3\n        /* \"#utility.yul\":10206:10299   */\n      tag_404\n      jump\t// in\n    tag_584:\n        /* \"#utility.yul\":10324:10326   */\n      0x40\n        /* \"#utility.yul\":10319:10322   */\n      dup3\n        /* \"#utility.yul\":10315:10327   */\n      add\n        /* \"#utility.yul\":10308:10327   */\n      swap1\n      pop\n        /* \"#utility.yul\":9967:10333   */\n      swap2\n      swap1\n      pop\n      jump\t// out\n        /* \"#utility.yul\":10339:10758   */\n    tag_133:\n        /* \"#utility.yul\":10505:10509   */\n      0x00\n        /* \"#utility.yul\":10543:10545   */\n      0x20\n        /* \"#utility.yul\":10532:10541   */\n      dup3\n        /* \"#utility.yul\":10528:10546   */\n      add\n        /* \"#utility.yul\":10520:10546   */\n      swap1\n      pop\n        /* \"#utility.yul\":10592:10601   */\n      dup2\n        /* \"#utility.yul\":10586:10590   */\n      dup2\n        /* \"#utility.yul\":10582:10602   */\n      sub\n        /* \"#utility.yul\":10578:10579   */\n      0x00\n        /* \"#utility.yul\":10567:10576   */\n      dup4\n        /* \"#utility.yul\":10563:10580   */\n      add\n        /* \"#utility.yul\":10556:10603   */\n      mstore\n        /* \"#utility.yul\":10620:10751   */\n      tag_586\n        /* \"#utility.yul\":10746:10750   */\n      dup2\n        /* \"#utility.yul\":10620:10751   */\n      tag_405\n      jump\t// in\n    tag_586:\n        /* \"#utility.yul\":10612:10751   */\n      swap1\n      pop\n        /* \"#utility.yul\":10339:10758   */\n      swap2\n      swap1\n      pop\n      jump\t// out\n        /* \"#utility.yul\":10764:10995   */\n    tag_406:\n        /* \"#utility.yul\":10904:10938   */\n      0x46756e6374696f6e206d7573742062652063616c6c6564207468726f75676820\n        /* \"#utility.yul\":10900:10901   */\n      0x00\n        /* \"#utility.yul\":10892:10898   */\n      dup3\n        /* \"#utility.yul\":10888:10902   */\n      add\n        /* \"#utility.yul\":10881:10939   */\n      mstore\n        /* \"#utility.yul\":10973:10987   */\n      0x6163746976652070726f78790000000000000000000000000000000000000000\n        /* \"#utility.yul\":10968:10970   */\n      0x20\n        /* \"#utility.yul\":10960:10966   */\n      dup3\n        /* \"#utility.yul\":10956:10971   */\n      add\n        /* \"#utility.yul\":10949:10988   */\n      mstore\n        /* \"#utility.yul\":10764:10995   */\n      pop\n      jump\t// out\n        /* \"#utility.yul\":11001:11367   */\n    tag_407:\n        /* \"#utility.yul\":11143:11146   */\n      0x00\n        /* \"#utility.yul\":11164:11231   */\n      tag_589\n        /* \"#utility.yul\":11228:11230   */\n      0x2c\n        /* \"#utility.yul\":11223:11226   */\n      dup4\n        /* \"#utility.yul\":11164:11231   */\n      tag_373\n      jump\t// in\n    tag_589:\n        /* \"#utility.yul\":11157:11231   */\n      swap2\n      pop\n        /* \"#utility.yul\":11240:11333   */\n      tag_590\n        /* \"#utility.yul\":11329:11332   */\n      dup3\n        /* \"#utility.yul\":11240:11333   */\n      tag_406\n      jump\t// in\n    tag_590:\n        /* \"#utility.yul\":11358:11360   */\n      0x40\n        /* \"#utility.yul\":11353:11356   */\n      dup3\n        /* \"#utility.yul\":11349:11361   */\n      add\n        /* \"#utility.yul\":11342:11361   */\n      swap1\n      pop\n        /* \"#utility.yul\":11001:11367   */\n      swap2\n      swap1\n      pop\n      jump\t// out\n        /* \"#utility.yul\":11373:11792   */\n    tag_138:\n        /* \"#utility.yul\":11539:11543   */\n      0x00\n        /* \"#utility.yul\":11577:11579   */\n      0x20\n        /* \"#utility.yul\":11566:11575   */\n      dup3\n        /* \"#utility.yul\":11562:11580   */\n      add\n        /* \"#utility.yul\":11554:11580   */\n      swap1\n      pop\n        /* \"#utility.yul\":11626:11635   */\n      dup2\n        /* \"#utility.yul\":11620:11624   */\n      dup2\n        /* \"#utility.yul\":11616:11636   */\n      sub\n        /* \"#utility.yul\":11612:11613   */\n      0x00\n        /* \"#utility.yul\":11601:11610   */\n      dup4\n        /* \"#utility.yul\":11597:11614   */\n      add\n        /* \"#utility.yul\":11590:11637   */\n      mstore\n        /* \"#utility.yul\":11654:11785   */\n      tag_592\n        /* \"#utility.yul\":11780:11784   */\n      dup2\n        /* \"#utility.yul\":11654:11785   */\n      tag_407\n      jump\t// in\n    tag_592:\n        /* \"#utility.yul\":11646:11785   */\n      swap1\n      pop\n        /* \"#utility.yul\":11373:11792   */\n      swap2\n      swap1\n      pop\n      jump\t// out\n        /* \"#utility.yul\":11798:11978   */\n    tag_408:\n        /* \"#utility.yul\":11846:11923   */\n      0x4e487b7100000000000000000000000000000000000000000000000000000000\n        /* \"#utility.yul\":11843:11844   */\n      0x00\n        /* \"#utility.yul\":11836:11924   */\n      mstore\n        /* \"#utility.yul\":11943:11947   */\n      0x11\n        /* \"#utility.yul\":11940:11941   */\n      0x04\n        /* \"#utility.yul\":11933:11948   */\n      mstore\n        /* \"#utility.yul\":11967:11971   */\n      0x24\n        /* \"#utility.yul\":11964:11965   */\n      0x00\n        /* \"#utility.yul\":11957:11972   */\n      revert\n        /* \"#utility.yul\":11984:12175   */\n    tag_153:\n        /* \"#utility.yul\":12024:12027   */\n      0x00\n        /* \"#utility.yul\":12043:12063   */\n      tag_595\n        /* \"#utility.yul\":12061:12062   */\n      dup3\n        /* \"#utility.yul\":12043:12063   */\n      tag_384\n      jump\t// in\n    tag_595:\n        /* \"#utility.yul\":12038:12063   */\n      swap2\n      pop\n        /* \"#utility.yul\":12077:12097   */\n      tag_596\n        /* \"#utility.yul\":12095:12096   */\n      dup4\n        /* \"#utility.yul\":12077:12097   */\n      tag_384\n      jump\t// in\n    tag_596:\n        /* \"#utility.yul\":12072:12097   */\n      swap3\n      pop\n        /* \"#utility.yul\":12120:12121   */\n      dup3\n        /* \"#utility.yul\":12117:12118   */\n      dup3\n        /* \"#utility.yul\":12113:12122   */\n      add\n        /* \"#utility.yul\":12106:12122   */\n      swap1\n      pop\n        /* \"#utility.yul\":12141:12144   */\n      dup1\n        /* \"#utility.yul\":12138:12139   */\n      dup3\n        /* \"#utility.yul\":12135:12145   */\n      gt\n        /* \"#utility.yul\":12132:12168   */\n      iszero\n      tag_597\n      jumpi\n        /* \"#utility.yul\":12148:12166   */\n      tag_598\n      tag_408\n      jump\t// in\n    tag_598:\n        /* \"#utility.yul\":12132:12168   */\n    tag_597:\n        /* \"#utility.yul\":11984:12175   */\n      swap3\n      swap2\n      pop\n      pop\n      jump\t// out\n        /* \"#utility.yul\":12181:12424   */\n    tag_409:\n        /* \"#utility.yul\":12321:12355   */\n      0x555550535570677261646561626c653a206d757374206e6f742062652063616c\n        /* \"#utility.yul\":12317:12318   */\n      0x00\n        /* \"#utility.yul\":12309:12315   */\n      dup3\n        /* \"#utility.yul\":12305:12319   */\n      add\n        /* \"#utility.yul\":12298:12356   */\n      mstore\n        /* \"#utility.yul\":12390:12416   */\n      0x6c6564207468726f7567682064656c656761746563616c6c0000000000000000\n        /* \"#utility.yul\":12385:12387   */\n      0x20\n        /* \"#utility.yul\":12377:12383   */\n      dup3\n        /* \"#utility.yul\":12373:12388   */\n      add\n        /* \"#utility.yul\":12366:12417   */\n      mstore\n        /* \"#utility.yul\":12181:12424   */\n      pop\n      jump\t// out\n        /* \"#utility.yul\":12430:12796   */\n    tag_410:\n        /* \"#utility.yul\":12572:12575   */\n      0x00\n        /* \"#utility.yul\":12593:12660   */\n      tag_601\n        /* \"#utility.yul\":12657:12659   */\n      0x38\n        /* \"#utility.yul\":12652:12655   */\n      dup4\n        /* \"#utility.yul\":12593:12660   */\n      tag_373\n      jump\t// in\n    tag_601:\n        /* \"#utility.yul\":12586:12660   */\n      swap2\n      pop\n        /* \"#utility.yul\":12669:12762   */\n      tag_602\n        /* \"#utility.yul\":12758:12761   */\n      dup3\n        /* \"#utility.yul\":12669:12762   */\n      tag_409\n      jump\t// in\n    tag_602:\n        /* \"#utility.yul\":12787:12789   */\n      0x40\n        /* \"#utility.yul\":12782:12785   */\n      dup3\n        /* \"#utility.yul\":12778:12790   */\n      add\n        /* \"#utility.yul\":12771:12790   */\n      swap1\n      pop\n        /* \"#utility.yul\":12430:12796   */\n      swap2\n      swap1\n      pop\n      jump\t// out\n        /* \"#utility.yul\":12802:13221   */\n    tag_166:\n        /* \"#utility.yul\":12968:12972   */\n      0x00\n        /* \"#utility.yul\":13006:13008   */\n      0x20\n        /* \"#utility.yul\":12995:13004   */\n      dup3\n        /* \"#utility.yul\":12991:13009   */\n      add\n        /* \"#utility.yul\":12983:13009   */\n      swap1\n      pop\n        /* \"#utility.yul\":13055:13064   */\n      dup2\n        /* \"#utility.yul\":13049:13053   */\n      dup2\n        /* \"#utility.yul\":13045:13065   */\n      sub\n        /* \"#utility.yul\":13041:13042   */\n      0x00\n        /* \"#utility.yul\":13030:13039   */\n      dup4\n        /* \"#utility.yul\":13026:13043   */\n      add\n        /* \"#utility.yul\":13019:13066   */\n      mstore\n        /* \"#utility.yul\":13083:13214   */\n      tag_604\n        /* \"#utility.yul\":13209:13213   */\n      dup2\n        /* \"#utility.yul\":13083:13214   */\n      tag_410\n      jump\t// in\n    tag_604:\n        /* \"#utility.yul\":13075:13214   */\n      swap1\n      pop\n        /* \"#utility.yul\":12802:13221   */\n      swap2\n      swap1\n      pop\n      jump\t// out\n        /* \"#utility.yul\":13227:13460   */\n    tag_411:\n        /* \"#utility.yul\":13367:13401   */\n      0x496e697469616c697a61626c653a20636f6e747261637420697320616c726561\n        /* \"#utility.yul\":13363:13364   */\n      0x00\n        /* \"#utility.yul\":13355:13361   */\n      dup3\n        /* \"#utility.yul\":13351:13365   */\n      add\n        /* \"#utility.yul\":13344:13402   */\n      mstore\n        /* \"#utility.yul\":13436:13452   */\n      0x647920696e697469616c697a6564000000000000000000000000000000000000\n        /* \"#utility.yul\":13431:13433   */\n      0x20\n        /* \"#utility.yul\":13423:13429   */\n      dup3\n        /* \"#utility.yul\":13419:13434   */\n      add\n        /* \"#utility.yul\":13412:13453   */\n      mstore\n        /* \"#utility.yul\":13227:13460   */\n      pop\n      jump\t// out\n        /* \"#utility.yul\":13466:13832   */\n    tag_412:\n        /* \"#utility.yul\":13608:13611   */\n      0x00\n        /* \"#utility.yul\":13629:13696   */\n      tag_607\n        /* \"#utility.yul\":13693:13695   */\n      0x2e\n        /* \"#utility.yul\":13688:13691   */\n      dup4\n        /* \"#utility.yul\":13629:13696   */\n      tag_373\n      jump\t// in\n    tag_607:\n        /* \"#utility.yul\":13622:13696   */\n      swap2\n      pop\n        /* \"#utility.yul\":13705:13798   */\n      tag_608\n        /* \"#utility.yul\":13794:13797   */\n      dup3\n        /* \"#utility.yul\":13705:13798   */\n      tag_411\n      jump\t// in\n    tag_608:\n        /* \"#utility.yul\":13823:13825   */\n      0x40\n        /* \"#utility.yul\":13818:13821   */\n      dup3\n        /* \"#utility.yul\":13814:13826   */\n      add\n        /* \"#utility.yul\":13807:13826   */\n      swap1\n      pop\n        /* \"#utility.yul\":13466:13832   */\n      swap2\n      swap1\n      pop\n      jump\t// out\n        /* \"#utility.yul\":13838:14257   */\n    tag_183:\n        /* \"#utility.yul\":14004:14008   */\n      0x00\n        /* \"#utility.yul\":14042:14044   */\n      0x20\n        /* \"#utility.yul\":14031:14040   */\n      dup3\n        /* \"#utility.yul\":14027:14045   */\n      add\n        /* \"#utility.yul\":14019:14045   */\n      swap1\n      pop\n        /* \"#utility.yul\":14091:14100   */\n      dup2\n        /* \"#utility.yul\":14085:14089   */\n      dup2\n        /* \"#utility.yul\":14081:14101   */\n      sub\n        /* \"#utility.yul\":14077:14078   */\n      0x00\n        /* \"#utility.yul\":14066:14075   */\n      dup4\n        /* \"#utility.yul\":14062:14079   */\n      add\n        /* \"#utility.yul\":14055:14102   */\n      mstore\n        /* \"#utility.yul\":14119:14250   */\n      tag_610\n        /* \"#utility.yul\":14245:14249   */\n      dup2\n        /* \"#utility.yul\":14119:14250   */\n      tag_412\n      jump\t// in\n    tag_610:\n        /* \"#utility.yul\":14111:14250   */\n      swap1\n      pop\n        /* \"#utility.yul\":13838:14257   */\n      swap2\n      swap1\n      pop\n      jump\t// out\n        /* \"#utility.yul\":14263:14365   */\n    tag_413:\n        /* \"#utility.yul\":14305:14313   */\n      0x00\n        /* \"#utility.yul\":14352:14357   */\n      dup2\n        /* \"#utility.yul\":14349:14350   */\n      0x01\n        /* \"#utility.yul\":14345:14358   */\n      shr\n        /* \"#utility.yul\":14324:14358   */\n      swap1\n      pop\n        /* \"#utility.yul\":14263:14365   */\n      swap2\n      swap1\n      pop\n      jump\t// out\n        /* \"#utility.yul\":14371:15219   */\n    tag_414:\n        /* \"#utility.yul\":14432:14437   */\n      0x00\n        /* \"#utility.yul\":14439:14443   */\n      dup1\n        /* \"#utility.yul\":14463:14469   */\n      dup3\n        /* \"#utility.yul\":14454:14469   */\n      swap2\n      pop\n        /* \"#utility.yul\":14487:14492   */\n      dup4\n        /* \"#utility.yul\":14478:14492   */\n      swap1\n      pop\n        /* \"#utility.yul\":14501:15213   */\n    tag_613:\n        /* \"#utility.yul\":14522:14523   */\n      0x01\n        /* \"#utility.yul\":14512:14520   */\n      dup6\n        /* \"#utility.yul\":14509:14524   */\n      gt\n        /* \"#utility.yul\":14501:15213   */\n      iszero\n      tag_615\n      jumpi\n        /* \"#utility.yul\":14617:14621   */\n      dup1\n        /* \"#utility.yul\":14612:14615   */\n      dup7\n        /* \"#utility.yul\":14608:14622   */\n      div\n        /* \"#utility.yul\":14602:14606   */\n      dup2\n        /* \"#utility.yul\":14599:14623   */\n      gt\n        /* \"#utility.yul\":14596:14646   */\n      iszero\n      tag_616\n      jumpi\n        /* \"#utility.yul\":14626:14644   */\n      tag_617\n      tag_408\n      jump\t// in\n    tag_617:\n        /* \"#utility.yul\":14596:14646   */\n    tag_616:\n        /* \"#utility.yul\":14676:14677   */\n      0x01\n        /* \"#utility.yul\":14666:14674   */\n      dup6\n        /* \"#utility.yul\":14662:14678   */\n      and\n        /* \"#utility.yul\":14659:15110   */\n      iszero\n      tag_618\n      jumpi\n        /* \"#utility.yul\":15091:15095   */\n      dup1\n        /* \"#utility.yul\":15084:15089   */\n      dup3\n        /* \"#utility.yul\":15080:15096   */\n      mul\n        /* \"#utility.yul\":15071:15096   */\n      swap2\n      pop\n        /* \"#utility.yul\":14659:15110   */\n    tag_618:\n        /* \"#utility.yul\":15141:15145   */\n      dup1\n        /* \"#utility.yul\":15135:15139   */\n      dup2\n        /* \"#utility.yul\":15131:15146   */\n      mul\n        /* \"#utility.yul\":15123:15146   */\n      swap1\n      pop\n        /* \"#utility.yul\":15171:15203   */\n      tag_619\n        /* \"#utility.yul\":15194:15202   */\n      dup6\n        /* \"#utility.yul\":15171:15203   */\n      tag_413\n      jump\t// in\n    tag_619:\n        /* \"#utility.yul\":15159:15203   */\n      swap5\n      pop\n        /* \"#utility.yul\":14501:15213   */\n      jump(tag_613)\n    tag_615:\n        /* \"#utility.yul\":14371:15219   */\n      swap5\n      pop\n      swap5\n      swap3\n      pop\n      pop\n      pop\n      jump\t// out\n        /* \"#utility.yul\":15225:16298   */\n    tag_415:\n        /* \"#utility.yul\":15279:15284   */\n      0x00\n        /* \"#utility.yul\":15470:15478   */\n      dup3\n        /* \"#utility.yul\":15460:15500   */\n      tag_621\n      jumpi\n        /* \"#utility.yul\":15491:15492   */\n      0x01\n        /* \"#utility.yul\":15482:15492   */\n      swap1\n      pop\n        /* \"#utility.yul\":15493:15498   */\n      jump(tag_620)\n        /* \"#utility.yul\":15460:15500   */\n    tag_621:\n        /* \"#utility.yul\":15519:15523   */\n      dup2\n        /* \"#utility.yul\":15509:15545   */\n      tag_622\n      jumpi\n        /* \"#utility.yul\":15536:15537   */\n      0x00\n        /* \"#utility.yul\":15527:15537   */\n      swap1\n      pop\n        /* \"#utility.yul\":15538:15543   */\n      jump(tag_620)\n        /* \"#utility.yul\":15509:15545   */\n    tag_622:\n        /* \"#utility.yul\":15605:15609   */\n      dup2\n        /* \"#utility.yul\":15653:15654   */\n      0x01\n        /* \"#utility.yul\":15648:15675   */\n      dup2\n      eq\n      tag_624\n      jumpi\n        /* \"#utility.yul\":15689:15690   */\n      0x02\n        /* \"#utility.yul\":15684:15875   */\n      dup2\n      eq\n      tag_625\n      jumpi\n        /* \"#utility.yul\":15598:15875   */\n      jump(tag_623)\n        /* \"#utility.yul\":15648:15675   */\n    tag_624:\n        /* \"#utility.yul\":15666:15667   */\n      0x01\n        /* \"#utility.yul\":15657:15667   */\n      swap2\n      pop\n        /* \"#utility.yul\":15668:15673   */\n      pop\n      jump(tag_620)\n        /* \"#utility.yul\":15684:15875   */\n    tag_625:\n        /* \"#utility.yul\":15729:15732   */\n      0xff\n        /* \"#utility.yul\":15719:15727   */\n      dup5\n        /* \"#utility.yul\":15716:15733   */\n      gt\n        /* \"#utility.yul\":15713:15756   */\n      iszero\n      tag_626\n      jumpi\n        /* \"#utility.yul\":15736:15754   */\n      tag_627\n      tag_408\n      jump\t// in\n    tag_627:\n        /* \"#utility.yul\":15713:15756   */\n    tag_626:\n        /* \"#utility.yul\":15785:15793   */\n      dup4\n        /* \"#utility.yul\":15782:15783   */\n      0x02\n        /* \"#utility.yul\":15778:15794   */\n      exp\n        /* \"#utility.yul\":15769:15794   */\n      swap2\n      pop\n        /* \"#utility.yul\":15820:15823   */\n      dup5\n        /* \"#utility.yul\":15813:15818   */\n      dup3\n        /* \"#utility.yul\":15810:15824   */\n      gt\n        /* \"#utility.yul\":15807:15847   */\n      iszero\n      tag_628\n      jumpi\n        /* \"#utility.yul\":15827:15845   */\n      tag_629\n      tag_408\n      jump\t// in\n    tag_629:\n        /* \"#utility.yul\":15807:15847   */\n    tag_628:\n        /* \"#utility.yul\":15860:15865   */\n      pop\n      jump(tag_620)\n        /* \"#utility.yul\":15598:15875   */\n    tag_623:\n      pop\n        /* \"#utility.yul\":15984:15986   */\n      0x20\n        /* \"#utility.yul\":15974:15982   */\n      dup4\n        /* \"#utility.yul\":15971:15987   */\n      lt\n        /* \"#utility.yul\":15965:15968   */\n      0x0133\n        /* \"#utility.yul\":15959:15963   */\n      dup4\n        /* \"#utility.yul\":15956:15969   */\n      lt\n        /* \"#utility.yul\":15952:15988   */\n      and\n        /* \"#utility.yul\":15934:15936   */\n      0x4e\n        /* \"#utility.yul\":15924:15932   */\n      dup5\n        /* \"#utility.yul\":15921:15937   */\n      lt\n        /* \"#utility.yul\":15916:15918   */\n      0x0b\n        /* \"#utility.yul\":15910:15914   */\n      dup5\n        /* \"#utility.yul\":15907:15919   */\n      lt\n        /* \"#utility.yul\":15903:15938   */\n      and\n        /* \"#utility.yul\":15887:15998   */\n      or\n        /* \"#utility.yul\":15884:16130   */\n      iszero\n      tag_630\n      jumpi\n        /* \"#utility.yul\":16040:16048   */\n      dup3\n        /* \"#utility.yul\":16034:16038   */\n      dup3\n        /* \"#utility.yul\":16030:16049   */\n      exp\n        /* \"#utility.yul\":16021:16049   */\n      swap1\n      pop\n        /* \"#utility.yul\":16075:16078   */\n      dup4\n        /* \"#utility.yul\":16068:16073   */\n      dup2\n        /* \"#utility.yul\":16065:16079   */\n      gt\n        /* \"#utility.yul\":16062:16102   */\n      iszero\n      tag_631\n      jumpi\n        /* \"#utility.yul\":16082:16100   */\n      tag_632\n      tag_408\n      jump\t// in\n    tag_632:\n        /* \"#utility.yul\":16062:16102   */\n    tag_631:\n        /* \"#utility.yul\":16115:16120   */\n      jump(tag_620)\n        /* \"#utility.yul\":15884:16130   */\n    tag_630:\n        /* \"#utility.yul\":16155:16197   */\n      tag_633\n        /* \"#utility.yul\":16193:16196   */\n      dup5\n        /* \"#utility.yul\":16183:16191   */\n      dup5\n        /* \"#utility.yul\":16177:16181   */\n      dup5\n        /* \"#utility.yul\":16174:16175   */\n      0x01\n        /* \"#utility.yul\":16155:16197   */\n      tag_414\n      jump\t// in\n    tag_633:\n        /* \"#utility.yul\":16140:16197   */\n      swap3\n      pop\n      swap1\n      pop\n        /* \"#utility.yul\":16229:16233   */\n      dup2\n        /* \"#utility.yul\":16224:16227   */\n      dup5\n        /* \"#utility.yul\":16220:16234   */\n      div\n        /* \"#utility.yul\":16213:16218   */\n      dup2\n        /* \"#utility.yul\":16210:16235   */\n      gt\n        /* \"#utility.yul\":16207:16258   */\n      iszero\n      tag_634\n      jumpi\n        /* \"#utility.yul\":16238:16256   */\n      tag_635\n      tag_408\n      jump\t// in\n    tag_635:\n        /* \"#utility.yul\":16207:16258   */\n    tag_634:\n        /* \"#utility.yul\":16287:16291   */\n      dup2\n        /* \"#utility.yul\":16280:16285   */\n      dup2\n        /* \"#utility.yul\":16276:16292   */\n      mul\n        /* \"#utility.yul\":16267:16292   */\n      swap1\n      pop\n        /* \"#utility.yul\":15225:16298   */\n    tag_620:\n      swap4\n      swap3\n      pop\n      pop\n      pop\n      jump\t// out\n        /* \"#utility.yul\":16304:16585   */\n    tag_195:\n        /* \"#utility.yul\":16362:16367   */\n      0x00\n        /* \"#utility.yul\":16386:16409   */\n      tag_637\n        /* \"#utility.yul\":16404:16408   */\n      dup3\n        /* \"#utility.yul\":16386:16409   */\n      tag_384\n      jump\t// in\n    tag_637:\n        /* \"#utility.yul\":16378:16409   */\n      swap2\n      pop\n        /* \"#utility.yul\":16430:16455   */\n      tag_638\n        /* \"#utility.yul\":16446:16454   */\n      dup4\n        /* \"#utility.yul\":16430:16455   */\n      tag_390\n      jump\t// in\n    tag_638:\n        /* \"#utility.yul\":16418:16455   */\n      swap3\n      pop\n        /* \"#utility.yul\":16474:16578   */\n      tag_639\n        /* \"#utility.yul\":16511:16577   */\n      0xffffffffffffffffffffffffffffffffffffffffffffffffffffffffffffffff\n        /* \"#utility.yul\":16501:16509   */\n      dup5\n        /* \"#utility.yul\":16495:16499   */\n      dup5\n        /* \"#utility.yul\":16474:16578   */\n      tag_415\n      jump\t// in\n    tag_639:\n        /* \"#utility.yul\":16465:16578   */\n      swap1\n      pop\n        /* \"#utility.yul\":16304:16585   */\n      swap3\n      swap2\n      pop\n      pop\n      jump\t// out\n        /* \"#utility.yul\":16591:17001   */\n    tag_197:\n        /* \"#utility.yul\":16631:16638   */\n      0x00\n        /* \"#utility.yul\":16654:16674   */\n      tag_641\n        /* \"#utility.yul\":16672:16673   */\n      dup3\n        /* \"#utility.yul\":16654:16674   */\n      tag_384\n      jump\t// in\n    tag_641:\n        /* \"#utility.yul\":16649:16674   */\n      swap2\n      pop\n        /* \"#utility.yul\":16688:16708   */\n      tag_642\n        /* \"#utility.yul\":16706:16707   */\n      dup4\n        /* \"#utility.yul\":16688:16708   */\n      tag_384\n      jump\t// in\n    tag_642:\n        /* \"#utility.yul\":16683:16708   */\n      swap3\n      pop\n        /* \"#utility.yul\":16743:16744   */\n      dup3\n        /* \"#utility.yul\":16740:16741   */\n      dup3\n        /* \"#utility.yul\":16736:16745   */\n      mul\n        /* \"#utility.yul\":16765:16795   */\n      tag_643\n        /* \"#utility.yul\":16783:16794   */\n      dup2\n        /* \"#utility.yul\":16765:16795   */\n      tag_384\n      jump\t// in\n    tag_643:\n        /* \"#utility.yul\":16754:16795   */\n      swap2\n      pop\n        /* \"#utility.yul\":16944:16945   */\n      dup3\n        /* \"#utility.yul\":16935:16942   */\n      dup3\n        /* \"#utility.yul\":16931:16946   */\n      div\n        /* \"#utility.yul\":16928:16929   */\n      dup5\n        /* \"#utility.yul\":16925:16947   */\n      eq\n        /* \"#utility.yul\":16905:16906   */\n      dup4\n        /* \"#utility.yul\":16898:16907   */\n      iszero\n        /* \"#utility.yul\":16878:16961   */\n      or\n        /* \"#utility.yul\":16855:16994   */\n      tag_644\n      jumpi\n        /* \"#utility.yul\":16974:16992   */\n      tag_645\n      tag_408\n      jump\t// in\n    tag_645:\n        /* \"#utility.yul\":16855:16994   */\n    tag_644:\n        /* \"#utility.yul\":16639:17001   */\n      pop\n        /* \"#utility.yul\":16591:17001   */\n      swap3\n      swap2\n      pop\n      pop\n      jump\t// out\n        /* \"#utility.yul\":17007:17092   */\n    tag_416:\n        /* \"#utility.yul\":17052:17059   */\n      0x00\n        /* \"#utility.yul\":17081:17086   */\n      dup2\n        /* \"#utility.yul\":17070:17086   */\n      swap1\n      pop\n        /* \"#utility.yul\":17007:17092   */\n      swap2\n      swap1\n      pop\n      jump\t// out\n        /* \"#utility.yul\":17098:17158   */\n    tag_417:\n        /* \"#utility.yul\":17126:17129   */\n      0x00\n        /* \"#utility.yul\":17147:17152   */\n      dup2\n        /* \"#utility.yul\":17140:17152   */\n      swap1\n      pop\n        /* \"#utility.yul\":17098:17158   */\n      swap2\n      swap1\n      pop\n      jump\t// out\n        /* \"#utility.yul\":17164:17318   */\n    tag_418:\n        /* \"#utility.yul\":17220:17229   */\n      0x00\n        /* \"#utility.yul\":17253:17312   */\n      tag_649\n        /* \"#utility.yul\":17269:17311   */\n      tag_650\n        /* \"#utility.yul\":17278:17310   */\n      tag_651\n        /* \"#utility.yul\":17304:17309   */\n      dup5\n        /* \"#utility.yul\":17278:17310   */\n      tag_416\n      jump\t// in\n    tag_651:\n        /* \"#utility.yul\":17269:17311   */\n      tag_417\n      jump\t// in\n    tag_650:\n        /* \"#utility.yul\":17253:17312   */\n      tag_390\n      jump\t// in\n    tag_649:\n        /* \"#utility.yul\":17240:17312   */\n      swap1\n      pop\n        /* \"#utility.yul\":17164:17318   */\n      swap2\n      swap1\n      pop\n      jump\t// out\n        /* \"#utility.yul\":17324:17467   */\n    tag_419:\n        /* \"#utility.yul\":17417:17460   */\n      tag_653\n        /* \"#utility.yul\":17454:17459   */\n      dup2\n        /* \"#utility.yul\":17417:17460   */\n      tag_418\n      jump\t// in\n    tag_653:\n        /* \"#utility.yul\":17412:17415   */\n      dup3\n        /* \"#utility.yul\":17405:17461   */\n      mstore\n        /* \"#utility.yul\":17324:17467   */\n      pop\n      pop\n      jump\t// out\n        /* \"#utility.yul\":17473:17707   */\n    tag_201:\n        /* \"#utility.yul\":17572:17576   */\n      0x00\n        /* \"#utility.yul\":17610:17612   */\n      0x20\n        /* \"#utility.yul\":17599:17608   */\n      dup3\n        /* \"#utility.yul\":17595:17613   */\n      add\n        /* \"#utility.yul\":17587:17613   */\n      swap1\n      pop\n        /* \"#utility.yul\":17623:17700   */\n      tag_655\n        /* \"#utility.yul\":17697:17698   */\n      0x00\n        /* \"#utility.yul\":17686:17695   */\n      dup4\n        /* \"#utility.yul\":17682:17699   */\n      add\n        /* \"#utility.yul\":17673:17679   */\n      dup5\n        /* \"#utility.yul\":17623:17700   */\n      tag_419\n      jump\t// in\n    tag_655:\n        /* \"#utility.yul\":17473:17707   */\n      swap3\n      swap2\n      pop\n      pop\n      jump\t// out\n        /* \"#utility.yul\":17713:17937   */\n    tag_420:\n        /* \"#utility.yul\":17853:17887   */\n      0x45524332303a2064656372656173656420616c6c6f77616e63652062656c6f77\n        /* \"#utility.yul\":17849:17850   */\n      0x00\n        /* \"#utility.yul\":17841:17847   */\n      dup3\n        /* \"#utility.yul\":17837:17851   */\n      add\n        /* \"#utility.yul\":17830:17888   */\n      mstore\n        /* \"#utility.yul\":17922:17929   */\n      0x207a65726f000000000000000000000000000000000000000000000000000000\n        /* \"#utility.yul\":17917:17919   */\n      0x20\n        /* \"#utility.yul\":17909:17915   */\n      dup3\n        /* \"#utility.yul\":17905:17920   */\n      add\n        /* \"#utility.yul\":17898:17930   */\n      mstore\n        /* \"#utility.yul\":17713:17937   */\n      pop\n      jump\t// out\n        /* \"#utility.yul\":17943:18309   */\n    tag_421:\n        /* \"#utility.yul\":18085:18088   */\n      0x00\n        /* \"#utility.yul\":18106:18173   */\n      tag_658\n        /* \"#utility.yul\":18170:18172   */\n      0x25\n        /* \"#utility.yul\":18165:18168   */\n      dup4\n        /* \"#utility.yul\":18106:18173   */\n      tag_373\n      jump\t// in\n    tag_658:\n        /* \"#utility.yul\":18099:18173   */\n      swap2\n      pop\n        /* \"#utility.yul\":18182:18275   */\n      tag_659\n        /* \"#utility.yul\":18271:18274   */\n      dup3\n        /* \"#utility.yul\":18182:18275   */\n      tag_420\n      jump\t// in\n    tag_659:\n        /* \"#utility.yul\":18300:18302   */\n      0x40\n        /* \"#utility.yul\":18295:18298   */\n      dup3\n        /* \"#utility.yul\":18291:18303   */\n      add\n        /* \"#utility.yul\":18284:18303   */\n      swap1\n      pop\n        /* \"#utility.yul\":17943:18309   */\n      swap2\n      swap1\n      pop\n      jump\t// out\n        /* \"#utility.yul\":18315:18734   */\n    tag_214:\n        /* \"#utility.yul\":18481:18485   */\n      0x00\n        /* \"#utility.yul\":18519:18521   */\n      0x20\n        /* \"#utility.yul\":18508:18517   */\n      dup3\n        /* \"#utility.yul\":18504:18522   */\n      add\n        /* \"#utility.yul\":18496:18522   */\n      swap1\n      pop\n        /* \"#utility.yul\":18568:18577   */\n      dup2\n        /* \"#utility.yul\":18562:18566   */\n      dup2\n        /* \"#utility.yul\":18558:18578   */\n      sub\n        /* \"#utility.yul\":18554:18555   */\n      0x00\n        /* \"#utility.yul\":18543:18552   */\n      dup4\n        /* \"#utility.yul\":18539:18556   */\n      add\n        /* \"#utility.yul\":18532:18579   */\n      mstore\n        /* \"#utility.yul\":18596:18727   */\n      tag_661\n        /* \"#utility.yul\":18722:18726   */\n      dup2\n        /* \"#utility.yul\":18596:18727   */\n      tag_421\n      jump\t// in\n    tag_661:\n        /* \"#utility.yul\":18588:18727   */\n      swap1\n      pop\n        /* \"#utility.yul\":18315:18734   */\n      swap2\n      swap1\n      pop\n      jump\t// out\n        /* \"#utility.yul\":18740:18965   */\n    tag_422:\n        /* \"#utility.yul\":18880:18914   */\n      0x4f776e61626c653a206e6577206f776e657220697320746865207a65726f2061\n        /* \"#utility.yul\":18876:18877   */\n      0x00\n        /* \"#utility.yul\":18868:18874   */\n      dup3\n        /* \"#utility.yul\":18864:18878   */\n      add\n        /* \"#utility.yul\":18857:18915   */\n      mstore\n        /* \"#utility.yul\":18949:18957   */\n      0x6464726573730000000000000000000000000000000000000000000000000000\n        /* \"#utility.yul\":18944:18946   */\n      0x20\n        /* \"#utility.yul\":18936:18942   */\n      dup3\n        /* \"#utility.yul\":18932:18947   */\n      add\n        /* \"#utility.yul\":18925:18958   */\n      mstore\n        /* \"#utility.yul\":18740:18965   */\n      pop\n      jump\t// out\n        /* \"#utility.yul\":18971:19337   */\n    tag_423:\n        /* \"#utility.yul\":19113:19116   */\n      0x00\n        /* \"#utility.yul\":19134:19201   */\n      tag_664\n        /* \"#utility.yul\":19198:19200   */\n      0x26\n        /* \"#utility.yul\":19193:19196   */\n      dup4\n        /* \"#utility.yul\":19134:19201   */\n      tag_373\n      jump\t// in\n    tag_664:\n        /* \"#utility.yul\":19127:19201   */\n      swap2\n      pop\n        /* \"#utility.yul\":19210:19303   */\n      tag_665\n        /* \"#utility.yul\":19299:19302   */\n      dup3\n        /* \"#utility.yul\":19210:19303   */\n      tag_422\n      jump\t// in\n    tag_665:\n        /* \"#utility.yul\":19328:19330   */\n      0x40\n        /* \"#utility.yul\":19323:19326   */\n      dup3\n        /* \"#utility.yul\":19319:19331   */\n      add\n        /* \"#utility.yul\":19312:19331   */\n      swap1\n      pop\n        /* \"#utility.yul\":18971:19337   */\n      swap2\n      swap1\n      pop\n      jump\t// out\n        /* \"#utility.yul\":19343:19762   */\n    tag_225:\n        /* \"#utility.yul\":19509:19513   */\n      0x00\n        /* \"#utility.yul\":19547:19549   */\n      0x20\n        /* \"#utility.yul\":19536:19545   */\n      dup3\n        /* \"#utility.yul\":19532:19550   */\n      add\n        /* \"#utility.yul\":19524:19550   */\n      swap1\n      pop\n        /* \"#utility.yul\":19596:19605   */\n      dup2\n        /* \"#utility.yul\":19590:19594   */\n      dup2\n        /* \"#utility.yul\":19586:19606   */\n      sub\n        /* \"#utility.yul\":19582:19583   */\n      0x00\n        /* \"#utility.yul\":19571:19580   */\n      dup4\n        /* \"#utility.yul\":19567:19584   */\n      add\n        /* \"#utility.yul\":19560:19607   */\n      mstore\n        /* \"#utility.yul\":19624:19755   */\n      tag_667\n        /* \"#utility.yul\":19750:19754   */\n      dup2\n        /* \"#utility.yul\":19624:19755   */\n      tag_423\n      jump\t// in\n    tag_667:\n        /* \"#utility.yul\":19616:19755   */\n      swap1\n      pop\n        /* \"#utility.yul\":19343:19762   */\n      swap2\n      swap1\n      pop\n      jump\t// out\n        /* \"#utility.yul\":19768:19991   */\n    tag_424:\n        /* \"#utility.yul\":19908:19942   */\n      0x45524332303a20617070726f76652066726f6d20746865207a65726f20616464\n        /* \"#utility.yul\":19904:19905   */\n      0x00\n        /* \"#utility.yul\":19896:19902   */\n      dup3\n        /* \"#utility.yul\":19892:19906   */\n      add\n        /* \"#utility.yul\":19885:19943   */\n      mstore\n        /* \"#utility.yul\":19977:19983   */\n      0x7265737300000000000000000000000000000000000000000000000000000000\n        /* \"#utility.yul\":19972:19974   */\n      0x20\n        /* \"#utility.yul\":19964:19970   */\n      dup3\n        /* \"#utility.yul\":19960:19975   */\n      add\n        /* \"#utility.yul\":19953:19984   */\n      mstore\n        /* \"#utility.yul\":19768:19991   */\n      pop\n      jump\t// out\n        /* \"#utility.yul\":19997:20363   */\n    tag_425:\n        /* \"#utility.yul\":20139:20142   */\n      0x00\n        /* \"#utility.yul\":20160:20227   */\n      tag_670\n        /* \"#utility.yul\":20224:20226   */\n      0x24\n        /* \"#utility.yul\":20219:20222   */\n      dup4\n        /* \"#utility.yul\":20160:20227   */\n      tag_373\n      jump\t// in\n    tag_670:\n        /* \"#utility.yul\":20153:20227   */\n      swap2\n      pop\n        /* \"#utility.yul\":20236:20329   */\n      tag_671\n        /* \"#utility.yul\":20325:20328   */\n      dup3\n        /* \"#utility.yul\":20236:20329   */\n      tag_424\n      jump\t// in\n    tag_671:\n        /* \"#utility.yul\":20354:20356   */\n      0x40\n        /* \"#utility.yul\":20349:20352   */\n      dup3\n        /* \"#utility.yul\":20345:20357   */\n      add\n        /* \"#utility.yul\":20338:20357   */\n      swap1\n      pop\n        /* \"#utility.yul\":19997:20363   */\n      swap2\n      swap1\n      pop\n      jump\t// out\n        /* \"#utility.yul\":20369:20788   */\n    tag_231:\n        /* \"#utility.yul\":20535:20539   */\n      0x00\n        /* \"#utility.yul\":20573:20575   */\n      0x20\n        /* \"#utility.yul\":20562:20571   */\n      dup3\n        /* \"#utility.yul\":20558:20576   */\n      add\n        /* \"#utility.yul\":20550:20576   */\n      swap1\n      pop\n        /* \"#utility.yul\":20622:20631   */\n      dup2\n        /* \"#utility.yul\":20616:20620   */\n      dup2\n        /* \"#utility.yul\":20612:20632   */\n      sub\n        /* \"#utility.yul\":20608:20609   */\n      0x00\n        /* \"#utility.yul\":20597:20606   */\n      dup4\n        /* \"#utility.yul\":20593:20610   */\n      add\n        /* \"#utility.yul\":20586:20633   */\n      mstore\n        /* \"#utility.yul\":20650:20781   */\n      tag_673\n        /* \"#utility.yul\":20776:20780   */\n      dup2\n        /* \"#utility.yul\":20650:20781   */\n      tag_425\n      jump\t// in\n    tag_673:\n        /* \"#utility.yul\":20642:20781   */\n      swap1\n      pop\n        /* \"#utility.yul\":20369:20788   */\n      swap2\n      swap1\n      pop\n      jump\t// out\n        /* \"#utility.yul\":20794:21015   */\n    tag_426:\n        /* \"#utility.yul\":20934:20968   */\n      0x45524332303a20617070726f766520746f20746865207a65726f206164647265\n        /* \"#utility.yul\":20930:20931   */\n      0x00\n        /* \"#utility.yul\":20922:20928   */\n      dup3\n        /* \"#utility.yul\":20918:20932   */\n      add\n        /* \"#utility.yul\":20911:20969   */\n      mstore\n        /* \"#utility.yul\":21003:21007   */\n      0x7373000000000000000000000000000000000000000000000000000000000000\n        /* \"#utility.yul\":20998:21000   */\n      0x20\n        /* \"#utility.yul\":20990:20996   */\n      dup3\n        /* \"#utility.yul\":20986:21001   */\n      add\n        /* \"#utility.yul\":20979:21008   */\n      mstore\n        /* \"#utility.yul\":20794:21015   */\n      pop\n      jump\t// out\n        /* \"#utility.yul\":21021:21387   */\n    tag_427:\n        /* \"#utility.yul\":21163:21166   */\n      0x00\n        /* \"#utility.yul\":21184:21251   */\n      tag_676\n        /* \"#utility.yul\":21248:21250   */\n      0x22\n        /* \"#utility.yul\":21243:21246   */\n      dup4\n        /* \"#utility.yul\":21184:21251   */\n      tag_373\n      jump\t// in\n    tag_676:\n        /* \"#utility.yul\":21177:21251   */\n      swap2\n      pop\n        /* \"#utility.yul\":21260:21353   */\n      tag_677\n        /* \"#utility.yul\":21349:21352   */\n      dup3\n        /* \"#utility.yul\":21260:21353   */\n      tag_426\n      jump\t// in\n    tag_677:\n        /* \"#utility.yul\":21378:21380   */\n      0x40\n        /* \"#utility.yul\":21373:21376   */\n      dup3\n        /* \"#utility.yul\":21369:21381   */\n      add\n        /* \"#utility.yul\":21362:21381   */\n      swap1\n      pop\n        /* \"#utility.yul\":21021:21387   */\n      swap2\n      swap1\n      pop\n      jump\t// out\n        /* \"#utility.yul\":21393:21812   */\n    tag_234:\n        /* \"#utility.yul\":21559:21563   */\n      0x00\n        /* \"#utility.yul\":21597:21599   */\n      0x20\n        /* \"#utility.yul\":21586:21595   */\n      dup3\n        /* \"#utility.yul\":21582:21600   */\n      add\n        /* \"#utility.yul\":21574:21600   */\n      swap1\n      pop\n        /* \"#utility.yul\":21646:21655   */\n      dup2\n        /* \"#utility.yul\":21640:21644   */\n      dup2\n        /* \"#utility.yul\":21636:21656   */\n      sub\n        /* \"#utility.yul\":21632:21633   */\n      0x00\n        /* \"#utility.yul\":21621:21630   */\n      dup4\n        /* \"#utility.yul\":21617:21634   */\n      add\n        /* \"#utility.yul\":21610:21657   */\n      mstore\n        /* \"#utility.yul\":21674:21805   */\n      tag_679\n        /* \"#utility.yul\":21800:21804   */\n      dup2\n        /* \"#utility.yul\":21674:21805   */\n      tag_427\n      jump\t// in\n    tag_679:\n        /* \"#utility.yul\":21666:21805   */\n      swap1\n      pop\n        /* \"#utility.yul\":21393:21812   */\n      swap2\n      swap1\n      pop\n      jump\t// out\n        /* \"#utility.yul\":21818:21997   */\n    tag_428:\n        /* \"#utility.yul\":21958:21989   */\n      0x45524332303a20696e73756666696369656e7420616c6c6f77616e6365000000\n        /* \"#utility.yul\":21954:21955   */\n      0x00\n        /* \"#utility.yul\":21946:21952   */\n      dup3\n        /* \"#utility.yul\":21942:21956   */\n      add\n        /* \"#utility.yul\":21935:21990   */\n      mstore\n        /* \"#utility.yul\":21818:21997   */\n      pop\n      jump\t// out\n        /* \"#utility.yul\":22003:22369   */\n    tag_429:\n        /* \"#utility.yul\":22145:22148   */\n      0x00\n        /* \"#utility.yul\":22166:22233   */\n      tag_682\n        /* \"#utility.yul\":22230:22232   */\n      0x1d\n        /* \"#utility.yul\":22225:22228   */\n      dup4\n        /* \"#utility.yul\":22166:22233   */\n      tag_373\n      jump\t// in\n    tag_682:\n        /* \"#utility.yul\":22159:22233   */\n      swap2\n      pop\n        /* \"#utility.yul\":22242:22335   */\n      tag_683\n        /* \"#utility.yul\":22331:22334   */\n      dup3\n        /* \"#utility.yul\":22242:22335   */\n      tag_428\n      jump\t// in\n    tag_683:\n        /* \"#utility.yul\":22360:22362   */\n      0x20\n        /* \"#utility.yul\":22355:22358   */\n      dup3\n        /* \"#utility.yul\":22351:22363   */\n      add\n        /* \"#utility.yul\":22344:22363   */\n      swap1\n      pop\n        /* \"#utility.yul\":22003:22369   */\n      swap2\n      swap1\n      pop\n      jump\t// out\n        /* \"#utility.yul\":22375:22794   */\n    tag_241:\n        /* \"#utility.yul\":22541:22545   */\n      0x00\n        /* \"#utility.yul\":22579:22581   */\n      0x20\n        /* \"#utility.yul\":22568:22577   */\n      dup3\n        /* \"#utility.yul\":22564:22582   */\n      add\n        /* \"#utility.yul\":22556:22582   */\n      swap1\n      pop\n        /* \"#utility.yul\":22628:22637   */\n      dup2\n        /* \"#utility.yul\":22622:22626   */\n      dup2\n        /* \"#utility.yul\":22618:22638   */\n      sub\n        /* \"#utility.yul\":22614:22615   */\n      0x00\n        /* \"#utility.yul\":22603:22612   */\n      dup4\n        /* \"#utility.yul\":22599:22616   */\n      add\n        /* \"#utility.yul\":22592:22639   */\n      mstore\n        /* \"#utility.yul\":22656:22787   */\n      tag_685\n        /* \"#utility.yul\":22782:22786   */\n      dup2\n        /* \"#utility.yul\":22656:22787   */\n      tag_429\n      jump\t// in\n    tag_685:\n        /* \"#utility.yul\":22648:22787   */\n      swap1\n      pop\n        /* \"#utility.yul\":22375:22794   */\n      swap2\n      swap1\n      pop\n      jump\t// out\n        /* \"#utility.yul\":22800:23024   */\n    tag_430:\n        /* \"#utility.yul\":22940:22974   */\n      0x45524332303a207472616e736665722066726f6d20746865207a65726f206164\n        /* \"#utility.yul\":22936:22937   */\n      0x00\n        /* \"#utility.yul\":22928:22934   */\n      dup3\n        /* \"#utility.yul\":22924:22938   */\n      add\n        /* \"#utility.yul\":22917:22975   */\n      mstore\n        /* \"#utility.yul\":23009:23016   */\n      0x6472657373000000000000000000000000000000000000000000000000000000\n        /* \"#utility.yul\":23004:23006   */\n      0x20\n        /* \"#utility.yul\":22996:23002   */\n      dup3\n        /* \"#utility.yul\":22992:23007   */\n      add\n        /* \"#utility.yul\":22985:23017   */\n      mstore\n        /* \"#utility.yul\":22800:23024   */\n      pop\n      jump\t// out\n        /* \"#utility.yul\":23030:23396   */\n    tag_431:\n        /* \"#utility.yul\":23172:23175   */\n      0x00\n        /* \"#utility.yul\":23193:23260   */\n      tag_688\n        /* \"#utility.yul\":23257:23259   */\n      0x25\n        /* \"#utility.yul\":23252:23255   */\n      dup4\n        /* \"#utility.yul\":23193:23260   */\n      tag_373\n      jump\t// in\n    tag_688:\n        /* \"#utility.yul\":23186:23260   */\n      swap2\n      pop\n        /* \"#utility.yul\":23269:23362   */\n      tag_689\n        /* \"#utility.yul\":23358:23361   */\n      dup3\n        /* \"#utility.yul\":23269:23362   */\n      tag_430\n      jump\t// in\n    tag_689:\n        /* \"#utility.yul\":23387:23389   */\n      0x40\n        /* \"#utility.yul\":23382:23385   */\n      dup3\n        /* \"#utility.yul\":23378:23390   */\n      add\n        /* \"#utility.yul\":23371:23390   */\n      swap1\n      pop\n        /* \"#utility.yul\":23030:23396   */\n      swap2\n      swap1\n      pop\n      jump\t// out\n        /* \"#utility.yul\":23402:23821   */\n    tag_246:\n        /* \"#utility.yul\":23568:23572   */\n      0x00\n        /* \"#utility.yul\":23606:23608   */\n      0x20\n        /* \"#utility.yul\":23595:23604   */\n      dup3\n        /* \"#utility.yul\":23591:23609   */\n      add\n        /* \"#utility.yul\":23583:23609   */\n      swap1\n      pop\n        /* \"#utility.yul\":23655:23664   */\n      dup2\n        /* \"#utility.yul\":23649:23653   */\n      dup2\n        /* \"#utility.yul\":23645:23665   */\n      sub\n        /* \"#utility.yul\":23641:23642   */\n      0x00\n        /* \"#utility.yul\":23630:23639   */\n      dup4\n        /* \"#utility.yul\":23626:23643   */\n      add\n        /* \"#utility.yul\":23619:23666   */\n      mstore\n        /* \"#utility.yul\":23683:23814   */\n      tag_691\n        /* \"#utility.yul\":23809:23813   */\n      dup2\n        /* \"#utility.yul\":23683:23814   */\n      tag_431\n      jump\t// in\n    tag_691:\n        /* \"#utility.yul\":23675:23814   */\n      swap1\n      pop\n        /* \"#utility.yul\":23402:23821   */\n      swap2\n      swap1\n      pop\n      jump\t// out\n        /* \"#utility.yul\":23827:24049   */\n    tag_432:\n        /* \"#utility.yul\":23967:24001   */\n      0x45524332303a207472616e7366657220746f20746865207a65726f2061646472\n        /* \"#utility.yul\":23963:23964   */\n      0x00\n        /* \"#utility.yul\":23955:23961   */\n      dup3\n        /* \"#utility.yul\":23951:23965   */\n      add\n        /* \"#utility.yul\":23944:24002   */\n      mstore\n        /* \"#utility.yul\":24036:24041   */\n      0x6573730000000000000000000000000000000000000000000000000000000000\n        /* \"#utility.yul\":24031:24033   */\n      0x20\n        /* \"#utility.yul\":24023:24029   */\n      dup3\n        /* \"#utility.yul\":24019:24034   */\n      add\n        /* \"#utility.yul\":24012:24042   */\n      mstore\n        /* \"#utility.yul\":23827:24049   */\n      pop\n      jump\t// out\n        /* \"#utility.yul\":24055:24421   */\n    tag_433:\n        /* \"#utility.yul\":24197:24200   */\n      0x00\n        /* \"#utility.yul\":24218:24285   */\n      tag_694\n        /* \"#utility.yul\":24282:24284   */\n      0x23\n        /* \"#utility.yul\":24277:24280   */\n      dup4\n        /* \"#utility.yul\":24218:24285   */\n      tag_373\n      jump\t// in\n    tag_694:\n        /* \"#utility.yul\":24211:24285   */\n      swap2\n      pop\n        /* \"#utility.yul\":24294:24387   */\n      tag_695\n        /* \"#utility.yul\":24383:24386   */\n      dup3\n        /* \"#utility.yul\":24294:24387   */\n      tag_432\n      jump\t// in\n    tag_695:\n        /* \"#utility.yul\":24412:24414   */\n      0x40\n        /* \"#utility.yul\":24407:24410   */\n      dup3\n        /* \"#utility.yul\":24403:24415   */\n      add\n        /* \"#utility.yul\":24396:24415   */\n      swap1\n      pop\n        /* \"#utility.yul\":24055:24421   */\n      swap2\n      swap1\n      pop\n      jump\t// out\n        /* \"#utility.yul\":24427:24846   */\n    tag_249:\n        /* \"#utility.yul\":24593:24597   */\n      0x00\n        /* \"#utility.yul\":24631:24633   */\n      0x20\n        /* \"#utility.yul\":24620:24629   */\n      dup3\n        /* \"#utility.yul\":24616:24634   */\n      add\n        /* \"#utility.yul\":24608:24634   */\n      swap1\n      pop\n        /* \"#utility.yul\":24680:24689   */\n      dup2\n        /* \"#utility.yul\":24674:24678   */\n      dup2\n        /* \"#utility.yul\":24670:24690   */\n      sub\n        /* \"#utility.yul\":24666:24667   */\n      0x00\n        /* \"#utility.yul\":24655:24664   */\n      dup4\n        /* \"#utility.yul\":24651:24668   */\n      add\n        /* \"#utility.yul\":24644:24691   */\n      mstore\n        /* \"#utility.yul\":24708:24839   */\n      tag_697\n        /* \"#utility.yul\":24834:24838   */\n      dup2\n        /* \"#utility.yul\":24708:24839   */\n      tag_433\n      jump\t// in\n    tag_697:\n        /* \"#utility.yul\":24700:24839   */\n      swap1\n      pop\n        /* \"#utility.yul\":24427:24846   */\n      swap2\n      swap1\n      pop\n      jump\t// out\n        /* \"#utility.yul\":24852:25077   */\n    tag_434:\n        /* \"#utility.yul\":24992:25026   */\n      0x45524332303a207472616e7366657220616d6f756e7420657863656564732062\n        /* \"#utility.yul\":24988:24989   */\n      0x00\n        /* \"#utility.yul\":24980:24986   */\n      dup3\n        /* \"#utility.yul\":24976:24990   */\n      add\n        /* \"#utility.yul\":24969:25027   */\n      mstore\n        /* \"#utility.yul\":25061:25069   */\n      0x616c616e63650000000000000000000000000000000000000000000000000000\n        /* \"#utility.yul\":25056:25058   */\n      0x20\n        /* \"#utility.yul\":25048:25054   */\n      dup3\n        /* \"#utility.yul\":25044:25059   */\n      add\n        /* \"#utility.yul\":25037:25070   */\n      mstore\n        /* \"#utility.yul\":24852:25077   */\n      pop\n      jump\t// out\n        /* \"#utility.yul\":25083:25449   */\n    tag_435:\n        /* \"#utility.yul\":25225:25228   */\n      0x00\n        /* \"#utility.yul\":25246:25313   */\n      tag_700\n        /* \"#utility.yul\":25310:25312   */\n      0x26\n        /* \"#utility.yul\":25305:25308   */\n      dup4\n        /* \"#utility.yul\":25246:25313   */\n      tag_373\n      jump\t// in\n    tag_700:\n        /* \"#utility.yul\":25239:25313   */\n      swap2\n      pop\n        /* \"#utility.yul\":25322:25415   */\n      tag_701\n        /* \"#utility.yul\":25411:25414   */\n      dup3\n        /* \"#utility.yul\":25322:25415   */\n      tag_434\n      jump\t// in\n    tag_701:\n        /* \"#utility.yul\":25440:25442   */\n      0x40\n        /* \"#utility.yul\":25435:25438   */\n      dup3\n        /* \"#utility.yul\":25431:25443   */\n      add\n        /* \"#utility.yul\":25424:25443   */\n      swap1\n      pop\n        /* \"#utility.yul\":25083:25449   */\n      swap2\n      swap1\n      pop\n      jump\t// out\n        /* \"#utility.yul\":25455:25874   */\n    tag_254:\n        /* \"#utility.yul\":25621:25625   */\n      0x00\n        /* \"#utility.yul\":25659:25661   */\n      0x20\n        /* \"#utility.yul\":25648:25657   */\n      dup3\n        /* \"#utility.yul\":25644:25662   */\n      add\n        /* \"#utility.yul\":25636:25662   */\n      swap1\n      pop\n        /* \"#utility.yul\":25708:25717   */\n      dup2\n        /* \"#utility.yul\":25702:25706   */\n      dup2\n        /* \"#utility.yul\":25698:25718   */\n      sub\n        /* \"#utility.yul\":25694:25695   */\n      0x00\n        /* \"#utility.yul\":25683:25692   */\n      dup4\n        /* \"#utility.yul\":25679:25696   */\n      add\n        /* \"#utility.yul\":25672:25719   */\n      mstore\n        /* \"#utility.yul\":25736:25867   */\n      tag_703\n        /* \"#utility.yul\":25862:25866   */\n      dup2\n        /* \"#utility.yul\":25736:25867   */\n      tag_435\n      jump\t// in\n    tag_703:\n        /* \"#utility.yul\":25728:25867   */\n      swap1\n      pop\n        /* \"#utility.yul\":25455:25874   */\n      swap2\n      swap1\n      pop\n      jump\t// out\n        /* \"#utility.yul\":25880:26002   */\n    tag_436:\n        /* \"#utility.yul\":25953:25977   */\n      tag_705\n        /* \"#utility.yul\":25971:25976   */\n      dup2\n        /* \"#utility.yul\":25953:25977   */\n      tag_400\n      jump\t// in\n    tag_705:\n        /* \"#utility.yul\":25946:25951   */\n      dup2\n        /* \"#utility.yul\":25943:25978   */\n      eq\n        /* \"#utility.yul\":25933:25996   */\n      tag_706\n      jumpi\n        /* \"#utility.yul\":25992:25993   */\n      0x00\n        /* \"#utility.yul\":25989:25990   */\n      dup1\n        /* \"#utility.yul\":25982:25994   */\n      revert\n        /* \"#utility.yul\":25933:25996   */\n    tag_706:\n        /* \"#utility.yul\":25880:26002   */\n      pop\n      jump\t// out\n        /* \"#utility.yul\":26008:26151   */\n    tag_437:\n        /* \"#utility.yul\":26065:26070   */\n      0x00\n        /* \"#utility.yul\":26096:26102   */\n      dup2\n        /* \"#utility.yul\":26090:26103   */\n      mload\n        /* \"#utility.yul\":26081:26103   */\n      swap1\n      pop\n        /* \"#utility.yul\":26112:26145   */\n      tag_708\n        /* \"#utility.yul\":26139:26144   */\n      dup2\n        /* \"#utility.yul\":26112:26145   */\n      tag_436\n      jump\t// in\n    tag_708:\n        /* \"#utility.yul\":26008:26151   */\n      swap3\n      swap2\n      pop\n      pop\n      jump\t// out\n        /* \"#utility.yul\":26157:26508   */\n    tag_273:\n        /* \"#utility.yul\":26227:26233   */\n      0x00\n        /* \"#utility.yul\":26276:26278   */\n      0x20\n        /* \"#utility.yul\":26264:26273   */\n      dup3\n        /* \"#utility.yul\":26255:26262   */\n      dup5\n        /* \"#utility.yul\":26251:26274   */\n      sub\n        /* \"#utility.yul\":26247:26279   */\n      slt\n        /* \"#utility.yul\":26244:26363   */\n      iszero\n      tag_710\n      jumpi\n        /* \"#utility.yul\":26282:26361   */\n      tag_711\n      tag_378\n      jump\t// in\n    tag_711:\n        /* \"#utility.yul\":26244:26363   */\n    tag_710:\n        /* \"#utility.yul\":26402:26403   */\n      0x00\n        /* \"#utility.yul\":26427:26491   */\n      tag_712\n        /* \"#utility.yul\":26483:26490   */\n      dup5\n        /* \"#utility.yul\":26474:26480   */\n      dup3\n        /* \"#utility.yul\":26463:26472   */\n      dup6\n        /* \"#utility.yul\":26459:26481   */\n      add\n        /* \"#utility.yul\":26427:26491   */\n      tag_437\n      jump\t// in\n    tag_712:\n        /* \"#utility.yul\":26417:26491   */\n      swap2\n      pop\n        /* \"#utility.yul\":26373:26501   */\n      pop\n        /* \"#utility.yul\":26157:26508   */\n      swap3\n      swap2\n      pop\n      pop\n      jump\t// out\n        /* \"#utility.yul\":26514:26747   */\n    tag_438:\n        /* \"#utility.yul\":26654:26688   */\n      0x45524331393637557067726164653a206e657720696d706c656d656e74617469\n        /* \"#utility.yul\":26650:26651   */\n      0x00\n        /* \"#utility.yul\":26642:26648   */\n      dup3\n        /* \"#utility.yul\":26638:26652   */\n      add\n        /* \"#utility.yul\":26631:26689   */\n      mstore\n        /* \"#utility.yul\":26723:26739   */\n      0x6f6e206973206e6f742055555053000000000000000000000000000000000000\n        /* \"#utility.yul\":26718:26720   */\n      0x20\n        /* \"#utility.yul\":26710:26716   */\n      dup3\n        /* \"#utility.yul\":26706:26721   */\n      add\n        /* \"#utility.yul\":26699:26740   */\n      mstore\n        /* \"#utility.yul\":26514:26747   */\n      pop\n      jump\t// out\n        /* \"#utility.yul\":26753:27119   */\n    tag_439:\n        /* \"#utility.yul\":26895:26898   */\n      0x00\n        /* \"#utility.yul\":26916:26983   */\n      tag_715\n        /* \"#utility.yul\":26980:26982   */\n      0x2e\n        /* \"#utility.yul\":26975:26978   */\n      dup4\n        /* \"#utility.yul\":26916:26983   */\n      tag_373\n      jump\t// in\n    tag_715:\n        /* \"#utility.yul\":26909:26983   */\n      swap2\n      pop\n        /* \"#utility.yul\":26992:27085   */\n      tag_716\n        /* \"#utility.yul\":27081:27084   */\n      dup3\n        /* \"#utility.yul\":26992:27085   */\n      tag_438\n      jump\t// in\n    tag_716:\n        /* \"#utility.yul\":27110:27112   */\n      0x40\n        /* \"#utility.yul\":27105:27108   */\n      dup3\n        /* \"#utility.yul\":27101:27113   */\n      add\n        /* \"#utility.yul\":27094:27113   */\n      swap1\n      pop\n        /* \"#utility.yul\":26753:27119   */\n      swap2\n      swap1\n      pop\n      jump\t// out\n        /* \"#utility.yul\":27125:27544   */\n    tag_279:\n        /* \"#utility.yul\":27291:27295   */\n      0x00\n        /* \"#utility.yul\":27329:27331   */\n      0x20\n        /* \"#utility.yul\":27318:27327   */\n      dup3\n        /* \"#utility.yul\":27314:27332   */\n      add\n        /* \"#utility.yul\":27306:27332   */\n      swap1\n      pop\n        /* \"#utility.yul\":27378:27387   */\n      dup2\n        /* \"#utility.yul\":27372:27376   */\n      dup2\n        /* \"#utility.yul\":27368:27388   */\n      sub\n        /* \"#utility.yul\":27364:27365   */\n      0x00\n        /* \"#utility.yul\":27353:27362   */\n      dup4\n        /* \"#utility.yul\":27349:27366   */\n      add\n        /* \"#utility.yul\":27342:27389   */\n      mstore\n        /* \"#utility.yul\":27406:27537   */\n      tag_718\n        /* \"#utility.yul\":27532:27536   */\n      dup2\n        /* \"#utility.yul\":27406:27537   */\n      tag_439\n      jump\t// in\n    tag_718:\n        /* \"#utility.yul\":27398:27537   */\n      swap1\n      pop\n        /* \"#utility.yul\":27125:27544   */\n      swap2\n      swap1\n      pop\n      jump\t// out\n        /* \"#utility.yul\":27550:27778   */\n    tag_440:\n        /* \"#utility.yul\":27690:27724   */\n      0x45524331393637557067726164653a20756e737570706f727465642070726f78\n        /* \"#utility.yul\":27686:27687   */\n      0x00\n        /* \"#utility.yul\":27678:27684   */\n      dup3\n        /* \"#utility.yul\":27674:27688   */\n      add\n        /* \"#utility.yul\":27667:27725   */\n      mstore\n        /* \"#utility.yul\":27759:27770   */\n      0x6961626c65555549440000000000000000000000000000000000000000000000\n        /* \"#utility.yul\":27754:27756   */\n      0x20\n        /* \"#utility.yul\":27746:27752   */\n      dup3\n        /* \"#utility.yul\":27742:27757   */\n      add\n        /* \"#utility.yul\":27735:27771   */\n      mstore\n        /* \"#utility.yul\":27550:27778   */\n      pop\n      jump\t// out\n        /* \"#utility.yul\":27784:28150   */\n    tag_441:\n        /* \"#utility.yul\":27926:27929   */\n      0x00\n        /* \"#utility.yul\":27947:28014   */\n      tag_721\n        /* \"#utility.yul\":28011:28013   */\n      0x29\n        /* \"#utility.yul\":28006:28009   */\n      dup4\n        /* \"#utility.yul\":27947:28014   */\n      tag_373\n      jump\t// in\n    tag_721:\n        /* \"#utility.yul\":27940:28014   */\n      swap2\n      pop\n        /* \"#utility.yul\":28023:28116   */\n      tag_722\n        /* \"#utility.yul\":28112:28115   */\n      dup3\n        /* \"#utility.yul\":28023:28116   */\n      tag_440\n      jump\t// in\n    tag_722:\n        /* \"#utility.yul\":28141:28143   */\n      0x40\n        /* \"#utility.yul\":28136:28139   */\n      dup3\n        /* \"#utility.yul\":28132:28144   */\n      add\n        /* \"#utility.yul\":28125:28144   */\n      swap1\n      pop\n        /* \"#utility.yul\":27784:28150   */\n      swap2\n      swap1\n      pop\n      jump\t// out\n        /* \"#utility.yul\":28156:28575   */\n    tag_283:\n        /* \"#utility.yul\":28322:28326   */\n      0x00\n        /* \"#utility.yul\":28360:28362   */\n      0x20\n        /* \"#utility.yul\":28349:28358   */\n      dup3\n        /* \"#utility.yul\":28345:28363   */\n      add\n        /* \"#utility.yul\":28337:28363   */\n      swap1\n      pop\n        /* \"#utility.yul\":28409:28418   */\n      dup2\n        /* \"#utility.yul\":28403:28407   */\n      dup2\n        /* \"#utility.yul\":28399:28419   */\n      sub\n        /* \"#utility.yul\":28395:28396   */\n      0x00\n        /* \"#utility.yul\":28384:28393   */\n      dup4\n        /* \"#utility.yul\":28380:28397   */\n      add\n        /* \"#utility.yul\":28373:28420   */\n      mstore\n        /* \"#utility.yul\":28437:28568   */\n      tag_724\n        /* \"#utility.yul\":28563:28567   */\n      dup2\n        /* \"#utility.yul\":28437:28568   */\n      tag_441\n      jump\t// in\n    tag_724:\n        /* \"#utility.yul\":28429:28568   */\n      swap1\n      pop\n        /* \"#utility.yul\":28156:28575   */\n      swap2\n      swap1\n      pop\n      jump\t// out\n        /* \"#utility.yul\":28581:28763   */\n    tag_442:\n        /* \"#utility.yul\":28721:28755   */\n      0x4f776e61626c653a2063616c6c6572206973206e6f7420746865206f776e6572\n        /* \"#utility.yul\":28717:28718   */\n      0x00\n        /* \"#utility.yul\":28709:28715   */\n      dup3\n        /* \"#utility.yul\":28705:28719   */\n      add\n        /* \"#utility.yul\":28698:28756   */\n      mstore\n        /* \"#utility.yul\":28581:28763   */\n      pop\n      jump\t// out\n        /* \"#utility.yul\":28769:29135   */\n    tag_443:\n        /* \"#utility.yul\":28911:28914   */\n      0x00\n        /* \"#utility.yul\":28932:28999   */\n      tag_727\n        /* \"#utility.yul\":28996:28998   */\n      0x20\n        /* \"#utility.yul\":28991:28994   */\n      dup4\n        /* \"#utility.yul\":28932:28999   */\n      tag_373\n      jump\t// in\n    tag_727:\n        /* \"#utility.yul\":28925:28999   */\n      swap2\n      pop\n        /* \"#utility.yul\":29008:29101   */\n      tag_728\n        /* \"#utility.yul\":29097:29100   */\n      dup3\n        /* \"#utility.yul\":29008:29101   */\n      tag_442\n      jump\t// in\n    tag_728:\n        /* \"#utility.yul\":29126:29128   */\n      0x20\n        /* \"#utility.yul\":29121:29124   */\n      dup3\n        /* \"#utility.yul\":29117:29129   */\n      add\n        /* \"#utility.yul\":29110:29129   */\n      swap1\n      pop\n        /* \"#utility.yul\":28769:29135   */\n      swap2\n      swap1\n      pop\n      jump\t// out\n        /* \"#utility.yul\":29141:29560   */\n    tag_291:\n        /* \"#utility.yul\":29307:29311   */\n      0x00\n        /* \"#utility.yul\":29345:29347   */\n      0x20\n        /* \"#utility.yul\":29334:29343   */\n      dup3\n        /* \"#utility.yul\":29330:29348   */\n      add\n        /* \"#utility.yul\":29322:29348   */\n      swap1\n      pop\n        /* \"#utility.yul\":29394:29403   */\n      dup2\n        /* \"#utility.yul\":29388:29392   */\n      dup2\n        /* \"#utility.yul\":29384:29404   */\n      sub\n        /* \"#utility.yul\":29380:29381   */\n      0x00\n        /* \"#utility.yul\":29369:29378   */\n      dup4\n        /* \"#utility.yul\":29365:29382   */\n      add\n        /* \"#utility.yul\":29358:29405   */\n      mstore\n        /* \"#utility.yul\":29422:29553   */\n      tag_730\n        /* \"#utility.yul\":29548:29552   */\n      dup2\n        /* \"#utility.yul\":29422:29553   */\n      tag_443\n      jump\t// in\n    tag_730:\n        /* \"#utility.yul\":29414:29553   */\n      swap1\n      pop\n        /* \"#utility.yul\":29141:29560   */\n      swap2\n      swap1\n      pop\n      jump\t// out\n        /* \"#utility.yul\":29566:29796   */\n    tag_444:\n        /* \"#utility.yul\":29706:29740   */\n      0x496e697469616c697a61626c653a20636f6e7472616374206973206e6f742069\n        /* \"#utility.yul\":29702:29703   */\n      0x00\n        /* \"#utility.yul\":29694:29700   */\n      dup3\n        /* \"#utility.yul\":29690:29704   */\n      add\n        /* \"#utility.yul\":29683:29741   */\n      mstore\n        /* \"#utility.yul\":29775:29788   */\n      0x6e697469616c697a696e67000000000000000000000000000000000000000000\n        /* \"#utility.yul\":29770:29772   */\n      0x20\n        /* \"#utility.yul\":29762:29768   */\n      dup3\n        /* \"#utility.yul\":29758:29773   */\n      add\n        /* \"#utility.yul\":29751:29789   */\n      mstore\n        /* \"#utility.yul\":29566:29796   */\n      pop\n      jump\t// out\n        /* \"#utility.yul\":29802:30168   */\n    tag_445:\n        /* \"#utility.yul\":29944:29947   */\n      0x00\n        /* \"#utility.yul\":29965:30032   */\n      tag_733\n        /* \"#utility.yul\":30029:30031   */\n      0x2b\n        /* \"#utility.yul\":30024:30027   */\n      dup4\n        /* \"#utility.yul\":29965:30032   */\n      tag_373\n      jump\t// in\n    tag_733:\n        /* \"#utility.yul\":29958:30032   */\n      swap2\n      pop\n        /* \"#utility.yul\":30041:30134   */\n      tag_734\n        /* \"#utility.yul\":30130:30133   */\n      dup3\n        /* \"#utility.yul\":30041:30134   */\n      tag_444\n      jump\t// in\n    tag_734:\n        /* \"#utility.yul\":30159:30161   */\n      0x40\n        /* \"#utility.yul\":30154:30157   */\n      dup3\n        /* \"#utility.yul\":30150:30162   */\n      add\n        /* \"#utility.yul\":30143:30162   */\n      swap1\n      pop\n        /* \"#utility.yul\":29802:30168   */\n      swap2\n      swap1\n      pop\n      jump\t// out\n        /* \"#utility.yul\":30174:30593   */\n    tag_297:\n        /* \"#utility.yul\":30340:30344   */\n      0x00\n        /* \"#utility.yul\":30378:30380   */\n      0x20\n        /* \"#utility.yul\":30367:30376   */\n      dup3\n        /* \"#utility.yul\":30363:30381   */\n      add\n        /* \"#utility.yul\":30355:30381   */\n      swap1\n      pop\n        /* \"#utility.yul\":30427:30436   */\n      dup2\n        /* \"#utility.yul\":30421:30425   */\n      dup2\n        /* \"#utility.yul\":30417:30437   */\n      sub\n        /* \"#utility.yul\":30413:30414   */\n      0x00\n        /* \"#utility.yul\":30402:30411   */\n      dup4\n        /* \"#utility.yul\":30398:30415   */\n      add\n        /* \"#utility.yul\":30391:30438   */\n      mstore\n        /* \"#utility.yul\":30455:30586   */\n      tag_736\n        /* \"#utility.yul\":30581:30585   */\n      dup2\n        /* \"#utility.yul\":30455:30586   */\n      tag_445\n      jump\t// in\n    tag_736:\n        /* \"#utility.yul\":30447:30586   */\n      swap1\n      pop\n        /* \"#utility.yul\":30174:30593   */\n      swap2\n      swap1\n      pop\n      jump\t// out\n        /* \"#utility.yul\":30599:30780   */\n    tag_446:\n        /* \"#utility.yul\":30739:30772   */\n      0x45524332303a206d696e7420746f20746865207a65726f206164647265737300\n        /* \"#utility.yul\":30735:30736   */\n      0x00\n        /* \"#utility.yul\":30727:30733   */\n      dup3\n        /* \"#utility.yul\":30723:30737   */\n      add\n        /* \"#utility.yul\":30716:30773   */\n      mstore\n        /* \"#utility.yul\":30599:30780   */\n      pop\n      jump\t// out\n        /* \"#utility.yul\":30786:31152   */\n    tag_447:\n        /* \"#utility.yul\":30928:30931   */\n      0x00\n        /* \"#utility.yul\":30949:31016   */\n      tag_739\n        /* \"#utility.yul\":31013:31015   */\n      0x1f\n        /* \"#utility.yul\":31008:31011   */\n      dup4\n        /* \"#utility.yul\":30949:31016   */\n      tag_373\n      jump\t// in\n    tag_739:\n        /* \"#utility.yul\":30942:31016   */\n      swap2\n      pop\n        /* \"#utility.yul\":31025:31118   */\n      tag_740\n        /* \"#utility.yul\":31114:31117   */\n      dup3\n        /* \"#utility.yul\":31025:31118   */\n      tag_446\n      jump\t// in\n    tag_740:\n        /* \"#utility.yul\":31143:31145   */\n      0x20\n        /* \"#utility.yul\":31138:31141   */\n      dup3\n        /* \"#utility.yul\":31134:31146   */\n      add\n        /* \"#utility.yul\":31127:31146   */\n      swap1\n      pop\n        /* \"#utility.yul\":30786:31152   */\n      swap2\n      swap1\n      pop\n      jump\t// out\n        /* \"#utility.yul\":31158:31577   */\n    tag_314:\n        /* \"#utility.yul\":31324:31328   */\n      0x00\n        /* \"#utility.yul\":31362:31364   */\n      0x20\n        /* \"#utility.yul\":31351:31360   */\n      dup3\n        /* \"#utility.yul\":31347:31365   */\n      add\n        /* \"#utility.yul\":31339:31365   */\n      swap1\n      pop\n        /* \"#utility.yul\":31411:31420   */\n      dup2\n        /* \"#utility.yul\":31405:31409   */\n      dup2\n        /* \"#utility.yul\":31401:31421   */\n      sub\n        /* \"#utility.yul\":31397:31398   */\n      0x00\n        /* \"#utility.yul\":31386:31395   */\n      dup4\n        /* \"#utility.yul\":31382:31399   */\n      add\n        /* \"#utility.yul\":31375:31422   */\n      mstore\n        /* \"#utility.yul\":31439:31570   */\n      tag_742\n        /* \"#utility.yul\":31565:31569   */\n      dup2\n        /* \"#utility.yul\":31439:31570   */\n      tag_447\n      jump\t// in\n    tag_742:\n        /* \"#utility.yul\":31431:31570   */\n      swap1\n      pop\n        /* \"#utility.yul\":31158:31577   */\n      swap2\n      swap1\n      pop\n      jump\t// out\n        /* \"#utility.yul\":31583:31815   */\n    tag_448:\n        /* \"#utility.yul\":31723:31757   */\n      0x455243313936373a206e657720696d706c656d656e746174696f6e206973206e\n        /* \"#utility.yul\":31719:31720   */\n      0x00\n        /* \"#utility.yul\":31711:31717   */\n      dup3\n        /* \"#utility.yul\":31707:31721   */\n      add\n        /* \"#utility.yul\":31700:31758   */\n      mstore\n        /* \"#utility.yul\":31792:31807   */\n      0x6f74206120636f6e747261637400000000000000000000000000000000000000\n        /* \"#utility.yul\":31787:31789   */\n      0x20\n        /* \"#utility.yul\":31779:31785   */\n      dup3\n        /* \"#utility.yul\":31775:31790   */\n      add\n        /* \"#utility.yul\":31768:31808   */\n      mstore\n        /* \"#utility.yul\":31583:31815   */\n      pop\n      jump\t// out\n        /* \"#utility.yul\":31821:32187   */\n    tag_449:\n        /* \"#utility.yul\":31963:31966   */\n      0x00\n        /* \"#utility.yul\":31984:32051   */\n      tag_745\n        /* \"#utility.yul\":32048:32050   */\n      0x2d\n        /* \"#utility.yul\":32043:32046   */\n      dup4\n        /* \"#utility.yul\":31984:32051   */\n      tag_373\n      jump\t// in\n    tag_745:\n        /* \"#utility.yul\":31977:32051   */\n      swap2\n      pop\n        /* \"#utility.yul\":32060:32153   */\n      tag_746\n        /* \"#utility.yul\":32149:32152   */\n      dup3\n        /* \"#utility.yul\":32060:32153   */\n      tag_448\n      jump\t// in\n    tag_746:\n        /* \"#utility.yul\":32178:32180   */\n      0x40\n        /* \"#utility.yul\":32173:32176   */\n      dup3\n        /* \"#utility.yul\":32169:32181   */\n      add\n        /* \"#utility.yul\":32162:32181   */\n      swap1\n      pop\n        /* \"#utility.yul\":31821:32187   */\n      swap2\n      swap1\n      pop\n      jump\t// out\n        /* \"#utility.yul\":32193:32612   */\n    tag_327:\n        /* \"#utility.yul\":32359:32363   */\n      0x00\n        /* \"#utility.yul\":32397:32399   */\n      0x20\n        /* \"#utility.yul\":32386:32395   */\n      dup3\n        /* \"#utility.yul\":32382:32400   */\n      add\n        /* \"#utility.yul\":32374:32400   */\n      swap1\n      pop\n        /* \"#utility.yul\":32446:32455   */\n      dup2\n        /* \"#utility.yul\":32440:32444   */\n      dup2\n        /* \"#utility.yul\":32436:32456   */\n      sub\n        /* \"#utility.yul\":32432:32433   */\n      0x00\n        /* \"#utility.yul\":32421:32430   */\n      dup4\n        /* \"#utility.yul\":32417:32434   */\n      add\n        /* \"#utility.yul\":32410:32457   */\n      mstore\n        /* \"#utility.yul\":32474:32605   */\n      tag_748\n        /* \"#utility.yul\":32600:32604   */\n      dup2\n        /* \"#utility.yul\":32474:32605   */\n      tag_449\n      jump\t// in\n    tag_748:\n        /* \"#utility.yul\":32466:32605   */\n      swap1\n      pop\n        /* \"#utility.yul\":32193:32612   */\n      swap2\n      swap1\n      pop\n      jump\t// out\n        /* \"#utility.yul\":32618:32759   */\n    tag_450:\n        /* \"#utility.yul\":32667:32671   */\n      0x00\n        /* \"#utility.yul\":32690:32693   */\n      dup2\n        /* \"#utility.yul\":32682:32693   */\n      swap1\n      pop\n        /* \"#utility.yul\":32713:32716   */\n      dup2\n        /* \"#utility.yul\":32710:32711   */\n      0x00\n        /* \"#utility.yul\":32703:32717   */\n      mstore\n        /* \"#utility.yul\":32747:32751   */\n      0x20\n        /* \"#utility.yul\":32744:32745   */\n      0x00\n        /* \"#utility.yul\":32734:32752   */\n      keccak256\n        /* \"#utility.yul\":32726:32752   */\n      swap1\n      pop\n        /* \"#utility.yul\":32618:32759   */\n      swap2\n      swap1\n      pop\n      jump\t// out\n        /* \"#utility.yul\":32765:32858   */\n    tag_451:\n        /* \"#utility.yul\":32802:32808   */\n      0x00\n        /* \"#utility.yul\":32849:32851   */\n      0x20\n        /* \"#utility.yul\":32844:32846   */\n      0x1f\n        /* \"#utility.yul\":32837:32842   */\n      dup4\n        /* \"#utility.yul\":32833:32847   */\n      add\n        /* \"#utility.yul\":32829:32852   */\n      div\n        /* \"#utility.yul\":32819:32852   */\n      swap1\n      pop\n        /* \"#utility.yul\":32765:32858   */\n      swap2\n      swap1\n      pop\n      jump\t// out\n        /* \"#utility.yul\":32864:32971   */\n    tag_452:\n        /* \"#utility.yul\":32908:32916   */\n      0x00\n        /* \"#utility.yul\":32958:32963   */\n      dup3\n        /* \"#utility.yul\":32952:32956   */\n      dup3\n        /* \"#utility.yul\":32948:32964   */\n      shl\n        /* \"#utility.yul\":32927:32964   */\n      swap1\n      pop\n        /* \"#utility.yul\":32864:32971   */\n      swap3\n      swap2\n      pop\n      pop\n      jump\t// out\n        /* \"#utility.yul\":32977:33370   */\n    tag_453:\n        /* \"#utility.yul\":33046:33052   */\n      0x00\n        /* \"#utility.yul\":33096:33097   */\n      0x08\n        /* \"#utility.yul\":33084:33094   */\n      dup4\n        /* \"#utility.yul\":33080:33098   */\n      mul\n        /* \"#utility.yul\":33119:33216   */\n      tag_753\n        /* \"#utility.yul\":33149:33215   */\n      0xffffffffffffffffffffffffffffffffffffffffffffffffffffffffffffffff\n        /* \"#utility.yul\":33138:33147   */\n      dup3\n        /* \"#utility.yul\":33119:33216   */\n      tag_452\n      jump\t// in\n    tag_753:\n        /* \"#utility.yul\":33237:33276   */\n      tag_754\n        /* \"#utility.yul\":33267:33275   */\n      dup7\n        /* \"#utility.yul\":33256:33265   */\n      dup4\n        /* \"#utility.yul\":33237:33276   */\n      tag_452\n      jump\t// in\n    tag_754:\n        /* \"#utility.yul\":33225:33276   */\n      swap6\n      pop\n        /* \"#utility.yul\":33309:33313   */\n      dup1\n        /* \"#utility.yul\":33305:33314   */\n      not\n        /* \"#utility.yul\":33298:33303   */\n      dup5\n        /* \"#utility.yul\":33294:33315   */\n      and\n        /* \"#utility.yul\":33285:33315   */\n      swap4\n      pop\n        /* \"#utility.yul\":33358:33362   */\n      dup1\n        /* \"#utility.yul\":33348:33356   */\n      dup7\n        /* \"#utility.yul\":33344:33363   */\n      and\n        /* \"#utility.yul\":33337:33342   */\n      dup5\n        /* \"#utility.yul\":33334:33364   */\n      or\n        /* \"#utility.yul\":33324:33364   */\n      swap3\n      pop\n        /* \"#utility.yul\":33053:33370   */\n      pop\n      pop\n        /* \"#utility.yul\":32977:33370   */\n      swap4\n      swap3\n      pop\n      pop\n      pop\n      jump\t// out\n        /* \"#utility.yul\":33376:33518   */\n    tag_454:\n        /* \"#utility.yul\":33426:33435   */\n      0x00\n        /* \"#utility.yul\":33459:33512   */\n      tag_756\n        /* \"#utility.yul\":33477:33511   */\n      tag_757\n        /* \"#utility.yul\":33486:33510   */\n      tag_758\n        /* \"#utility.yul\":33504:33509   */\n      dup5\n        /* \"#utility.yul\":33486:33510   */\n      tag_384\n      jump\t// in\n    tag_758:\n        /* \"#utility.yul\":33477:33511   */\n      tag_417\n      jump\t// in\n    tag_757:\n        /* \"#utility.yul\":33459:33512   */\n      tag_384\n      jump\t// in\n    tag_756:\n        /* \"#utility.yul\":33446:33512   */\n      swap1\n      pop\n        /* \"#utility.yul\":33376:33518   */\n      swap2\n      swap1\n      pop\n      jump\t// out\n        /* \"#utility.yul\":33524:33599   */\n    tag_455:\n        /* \"#utility.yul\":33567:33570   */\n      0x00\n        /* \"#utility.yul\":33588:33593   */\n      dup2\n        /* \"#utility.yul\":33581:33593   */\n      swap1\n      pop\n        /* \"#utility.yul\":33524:33599   */\n      swap2\n      swap1\n      pop\n      jump\t// out\n        /* \"#utility.yul\":33605:33874   */\n    tag_456:\n        /* \"#utility.yul\":33715:33754   */\n      tag_761\n        /* \"#utility.yul\":33746:33753   */\n      dup4\n        /* \"#utility.yul\":33715:33754   */\n      tag_454\n      jump\t// in\n    tag_761:\n        /* \"#utility.yul\":33776:33867   */\n      tag_762\n        /* \"#utility.yul\":33825:33866   */\n      tag_763\n        /* \"#utility.yul\":33849:33865   */\n      dup3\n        /* \"#utility.yul\":33825:33866   */\n      tag_455\n      jump\t// in\n    tag_763:\n        /* \"#utility.yul\":33817:33823   */\n      dup5\n        /* \"#utility.yul\":33810:33814   */\n      dup5\n        /* \"#utility.yul\":33804:33815   */\n      sload\n        /* \"#utility.yul\":33776:33867   */\n      tag_453\n      jump\t// in\n    tag_762:\n        /* \"#utility.yul\":33770:33774   */\n      dup3\n        /* \"#utility.yul\":33763:33868   */\n      sstore\n        /* \"#utility.yul\":33681:33874   */\n      pop\n        /* \"#utility.yul\":33605:33874   */\n      pop\n      pop\n      pop\n      jump\t// out\n        /* \"#utility.yul\":33880:33953   */\n    tag_457:\n        /* \"#utility.yul\":33925:33928   */\n      0x00\n        /* \"#utility.yul\":33880:33953   */\n      swap1\n      jump\t// out\n        /* \"#utility.yul\":33959:34148   */\n    tag_458:\n        /* \"#utility.yul\":34036:34068   */\n      tag_766\n      tag_457\n      jump\t// in\n    tag_766:\n        /* \"#utility.yul\":34077:34142   */\n      tag_767\n        /* \"#utility.yul\":34135:34141   */\n      dup2\n        /* \"#utility.yul\":34127:34133   */\n      dup5\n        /* \"#utility.yul\":34121:34125   */\n      dup5\n        /* \"#utility.yul\":34077:34142   */\n      tag_456\n      jump\t// in\n    tag_767:\n        /* \"#utility.yul\":34012:34148   */\n      pop\n        /* \"#utility.yul\":33959:34148   */\n      pop\n      pop\n      jump\t// out\n        /* \"#utility.yul\":34154:34340   */\n    tag_459:\n        /* \"#utility.yul\":34214:34334   */\n    tag_769:\n        /* \"#utility.yul\":34231:34234   */\n      dup2\n        /* \"#utility.yul\":34224:34229   */\n      dup2\n        /* \"#utility.yul\":34221:34235   */\n      lt\n        /* \"#utility.yul\":34214:34334   */\n      iszero\n      tag_771\n      jumpi\n        /* \"#utility.yul\":34285:34324   */\n      tag_772\n        /* \"#utility.yul\":34322:34323   */\n      0x00\n        /* \"#utility.yul\":34315:34320   */\n      dup3\n        /* \"#utility.yul\":34285:34324   */\n      tag_458\n      jump\t// in\n    tag_772:\n        /* \"#utility.yul\":34258:34259   */\n      0x01\n        /* \"#utility.yul\":34251:34256   */\n      dup2\n        /* \"#utility.yul\":34247:34260   */\n      add\n        /* \"#utility.yul\":34238:34260   */\n      swap1\n      pop\n        /* \"#utility.yul\":34214:34334   */\n      jump(tag_769)\n    tag_771:\n        /* \"#utility.yul\":34154:34340   */\n      pop\n      pop\n      jump\t// out\n        /* \"#utility.yul\":34346:34889   */\n    tag_460:\n        /* \"#utility.yul\":34447:34449   */\n      0x1f\n        /* \"#utility.yul\":34442:34445   */\n      dup3\n        /* \"#utility.yul\":34439:34450   */\n      gt\n        /* \"#utility.yul\":34436:34882   */\n      iszero\n      tag_774\n      jumpi\n        /* \"#utility.yul\":34481:34519   */\n      tag_775\n        /* \"#utility.yul\":34513:34518   */\n      dup2\n        /* \"#utility.yul\":34481:34519   */\n      tag_450\n      jump\t// in\n    tag_775:\n        /* \"#utility.yul\":34565:34594   */\n      tag_776\n        /* \"#utility.yul\":34583:34593   */\n      dup5\n        /* \"#utility.yul\":34565:34594   */\n      tag_451\n      jump\t// in\n    tag_776:\n        /* \"#utility.yul\":34555:34563   */\n      dup2\n        /* \"#utility.yul\":34551:34595   */\n      add\n        /* \"#utility.yul\":34748:34750   */\n      0x20\n        /* \"#utility.yul\":34736:34746   */\n      dup6\n        /* \"#utility.yul\":34733:34751   */\n      lt\n        /* \"#utility.yul\":34730:34779   */\n      iszero\n      tag_777\n      jumpi\n        /* \"#utility.yul\":34769:34777   */\n      dup2\n        /* \"#utility.yul\":34754:34777   */\n      swap1\n      pop\n        /* \"#utility.yul\":34730:34779   */\n    tag_777:\n        /* \"#utility.yul\":34792:34872   */\n      tag_778\n        /* \"#utility.yul\":34848:34870   */\n      tag_779\n        /* \"#utility.yul\":34866:34869   */\n      dup6\n        /* \"#utility.yul\":34848:34870   */\n      tag_451\n      jump\t// in\n    tag_779:\n        /* \"#utility.yul\":34838:34846   */\n      dup4\n        /* \"#utility.yul\":34834:34871   */\n      add\n        /* \"#utility.yul\":34821:34832   */\n      dup3\n        /* \"#utility.yul\":34792:34872   */\n      tag_459\n      jump\t// in\n    tag_778:\n        /* \"#utility.yul\":34451:34882   */\n      pop\n      pop\n        /* \"#utility.yul\":34436:34882   */\n    tag_774:\n        /* \"#utility.yul\":34346:34889   */\n      pop\n      pop\n      pop\n      jump\t// out\n        /* \"#utility.yul\":34895:35012   */\n    tag_461:\n        /* \"#utility.yul\":34949:34957   */\n      0x00\n        /* \"#utility.yul\":34999:35004   */\n      dup3\n        /* \"#utility.yul\":34993:34997   */\n      dup3\n        /* \"#utility.yul\":34989:35005   */\n      shr\n        /* \"#utility.yul\":34968:35005   */\n      swap1\n      pop\n        /* \"#utility.yul\":34895:35012   */\n      swap3\n      swap2\n      pop\n      pop\n      jump\t// out\n        /* \"#utility.yul\":35018:35187   */\n    tag_462:\n        /* \"#utility.yul\":35062:35068   */\n      0x00\n        /* \"#utility.yul\":35095:35146   */\n      tag_782\n        /* \"#utility.yul\":35143:35144   */\n      0x00\n        /* \"#utility.yul\":35139:35145   */\n      not\n        /* \"#utility.yul\":35131:35136   */\n      dup5\n        /* \"#utility.yul\":35128:35129   */\n      0x08\n        /* \"#utility.yul\":35124:35137   */\n      mul\n        /* \"#utility.yul\":35095:35146   */\n      tag_461\n      jump\t// in\n    tag_782:\n        /* \"#utility.yul\":35091:35147   */\n      not\n        /* \"#utility.yul\":35176:35180   */\n      dup1\n        /* \"#utility.yul\":35170:35174   */\n      dup4\n        /* \"#utility.yul\":35166:35181   */\n      and\n        /* \"#utility.yul\":35156:35181   */\n      swap2\n      pop\n        /* \"#utility.yul\":35069:35187   */\n      pop\n        /* \"#utility.yul\":35018:35187   */\n      swap3\n      swap2\n      pop\n      pop\n      jump\t// out\n        /* \"#utility.yul\":35192:35487   */\n    tag_463:\n        /* \"#utility.yul\":35268:35272   */\n      0x00\n        /* \"#utility.yul\":35414:35443   */\n      tag_784\n        /* \"#utility.yul\":35439:35442   */\n      dup4\n        /* \"#utility.yul\":35433:35437   */\n      dup4\n        /* \"#utility.yul\":35414:35443   */\n      tag_462\n      jump\t// in\n    tag_784:\n        /* \"#utility.yul\":35406:35443   */\n      swap2\n      pop\n        /* \"#utility.yul\":35476:35479   */\n      dup3\n        /* \"#utility.yul\":35473:35474   */\n      0x02\n        /* \"#utility.yul\":35469:35480   */\n      mul\n        /* \"#utility.yul\":35463:35467   */\n      dup3\n        /* \"#utility.yul\":35460:35481   */\n      or\n        /* \"#utility.yul\":35452:35481   */\n      swap1\n      pop\n        /* \"#utility.yul\":35192:35487   */\n      swap3\n      swap2\n      pop\n      pop\n      jump\t// out\n        /* \"#utility.yul\":35492:36887   */\n    tag_341:\n        /* \"#utility.yul\":35609:35646   */\n      tag_786\n        /* \"#utility.yul\":35642:35645   */\n      dup3\n        /* \"#utility.yul\":35609:35646   */\n      tag_372\n      jump\t// in\n    tag_786:\n        /* \"#utility.yul\":35711:35729   */\n      0xffffffffffffffff\n        /* \"#utility.yul\":35703:35709   */\n      dup2\n        /* \"#utility.yul\":35700:35730   */\n      gt\n        /* \"#utility.yul\":35697:35753   */\n      iszero\n      tag_787\n      jumpi\n        /* \"#utility.yul\":35733:35751   */\n      tag_788\n      tag_145\n      jump\t// in\n    tag_788:\n        /* \"#utility.yul\":35697:35753   */\n    tag_787:\n        /* \"#utility.yul\":35777:35815   */\n      tag_789\n        /* \"#utility.yul\":35809:35813   */\n      dup3\n        /* \"#utility.yul\":35803:35814   */\n      sload\n        /* \"#utility.yul\":35777:35815   */\n      tag_112\n      jump\t// in\n    tag_789:\n        /* \"#utility.yul\":35862:35929   */\n      tag_790\n        /* \"#utility.yul\":35922:35928   */\n      dup3\n        /* \"#utility.yul\":35914:35920   */\n      dup3\n        /* \"#utility.yul\":35908:35912   */\n      dup6\n        /* \"#utility.yul\":35862:35929   */\n      tag_460\n      jump\t// in\n    tag_790:\n        /* \"#utility.yul\":35956:35957   */\n      0x00\n        /* \"#utility.yul\":35980:35984   */\n      0x20\n        /* \"#utility.yul\":35967:35984   */\n      swap1\n      pop\n        /* \"#utility.yul\":36012:36014   */\n      0x1f\n        /* \"#utility.yul\":36004:36010   */\n      dup4\n        /* \"#utility.yul\":36001:36015   */\n      gt\n        /* \"#utility.yul\":36029:36030   */\n      0x01\n        /* \"#utility.yul\":36024:36642   */\n      dup2\n      eq\n      tag_792\n      jumpi\n        /* \"#utility.yul\":36686:36687   */\n      0x00\n        /* \"#utility.yul\":36703:36709   */\n      dup5\n        /* \"#utility.yul\":36700:36777   */\n      iszero\n      tag_793\n      jumpi\n        /* \"#utility.yul\":36752:36761   */\n      dup3\n        /* \"#utility.yul\":36747:36750   */\n      dup8\n        /* \"#utility.yul\":36743:36762   */\n      add\n        /* \"#utility.yul\":36737:36763   */\n      mload\n        /* \"#utility.yul\":36728:36763   */\n      swap1\n      pop\n        /* \"#utility.yul\":36700:36777   */\n    tag_793:\n        /* \"#utility.yul\":36803:36870   */\n      tag_794\n        /* \"#utility.yul\":36863:36869   */\n      dup6\n        /* \"#utility.yul\":36856:36861   */\n      dup3\n        /* \"#utility.yul\":36803:36870   */\n      tag_463\n      jump\t// in\n    tag_794:\n        /* \"#utility.yul\":36797:36801   */\n      dup7\n        /* \"#utility.yul\":36790:36871   */\n      sstore\n        /* \"#utility.yul\":36659:36881   */\n      pop\n        /* \"#utility.yul\":35994:36881   */\n      jump(tag_791)\n        /* \"#utility.yul\":36024:36642   */\n    tag_792:\n        /* \"#utility.yul\":36076:36080   */\n      0x1f\n        /* \"#utility.yul\":36072:36081   */\n      not\n        /* \"#utility.yul\":36064:36070   */\n      dup5\n        /* \"#utility.yul\":36060:36082   */\n      and\n        /* \"#utility.yul\":36110:36147   */\n      tag_795\n        /* \"#utility.yul\":36142:36146   */\n      dup7\n        /* \"#utility.yul\":36110:36147   */\n      tag_450\n      jump\t// in\n    tag_795:\n        /* \"#utility.yul\":36169:36170   */\n      0x00\n        /* \"#utility.yul\":36183:36391   */\n    tag_796:\n        /* \"#utility.yul\":36197:36204   */\n      dup3\n        /* \"#utility.yul\":36194:36195   */\n      dup2\n        /* \"#utility.yul\":36191:36205   */\n      lt\n        /* \"#utility.yul\":36183:36391   */\n      iszero\n      tag_798\n      jumpi\n        /* \"#utility.yul\":36276:36285   */\n      dup5\n        /* \"#utility.yul\":36271:36274   */\n      dup10\n        /* \"#utility.yul\":36267:36286   */\n      add\n        /* \"#utility.yul\":36261:36287   */\n      mload\n        /* \"#utility.yul\":36253:36259   */\n      dup3\n        /* \"#utility.yul\":36246:36288   */\n      sstore\n        /* \"#utility.yul\":36327:36328   */\n      0x01\n        /* \"#utility.yul\":36319:36325   */\n      dup3\n        /* \"#utility.yul\":36315:36329   */\n      add\n        /* \"#utility.yul\":36305:36329   */\n      swap2\n      pop\n        /* \"#utility.yul\":36374:36376   */\n      0x20\n        /* \"#utility.yul\":36363:36372   */\n      dup6\n        /* \"#utility.yul\":36359:36377   */\n      add\n        /* \"#utility.yul\":36346:36377   */\n      swap5\n      pop\n        /* \"#utility.yul\":36220:36224   */\n      0x20\n        /* \"#utility.yul\":36217:36218   */\n      dup2\n        /* \"#utility.yul\":36213:36225   */\n      add\n        /* \"#utility.yul\":36208:36225   */\n      swap1\n      pop\n        /* \"#utility.yul\":36183:36391   */\n      jump(tag_796)\n    tag_798:\n        /* \"#utility.yul\":36419:36425   */\n      dup7\n        /* \"#utility.yul\":36410:36417   */\n      dup4\n        /* \"#utility.yul\":36407:36426   */\n      lt\n        /* \"#utility.yul\":36404:36583   */\n      iszero\n      tag_799\n      jumpi\n        /* \"#utility.yul\":36477:36486   */\n      dup5\n        /* \"#utility.yul\":36472:36475   */\n      dup10\n        /* \"#utility.yul\":36468:36487   */\n      add\n        /* \"#utility.yul\":36462:36488   */\n      mload\n        /* \"#utility.yul\":36520:36568   */\n      tag_800\n        /* \"#utility.yul\":36562:36566   */\n      0x1f\n        /* \"#utility.yul\":36554:36560   */\n      dup10\n        /* \"#utility.yul\":36550:36567   */\n      and\n        /* \"#utility.yul\":36539:36548   */\n      dup3\n        /* \"#utility.yul\":36520:36568   */\n      tag_462\n      jump\t// in\n    tag_800:\n        /* \"#utility.yul\":36512:36518   */\n      dup4\n        /* \"#utility.yul\":36505:36569   */\n      sstore\n        /* \"#utility.yul\":36427:36583   */\n      pop\n        /* \"#utility.yul\":36404:36583   */\n    tag_799:\n        /* \"#utility.yul\":36629:36630   */\n      0x01\n        /* \"#utility.yul\":36625:36626   */\n      0x02\n        /* \"#utility.yul\":36617:36623   */\n      dup9\n        /* \"#utility.yul\":36613:36627   */\n      mul\n        /* \"#utility.yul\":36609:36631   */\n      add\n        /* \"#utility.yul\":36603:36607   */\n      dup9\n        /* \"#utility.yul\":36596:36632   */\n      sstore\n        /* \"#utility.yul\":36031:36642   */\n      pop\n      pop\n      pop\n        /* \"#utility.yul\":35994:36881   */\n    tag_791:\n      pop\n        /* \"#utility.yul\":35584:36887   */\n      pop\n      pop\n      pop\n        /* \"#utility.yul\":35492:36887   */\n      pop\n      pop\n      jump\t// out\n        /* \"#utility.yul\":36893:37118   */\n    tag_464:\n        /* \"#utility.yul\":37033:37067   */\n      0x416464726573733a2064656c65676174652063616c6c20746f206e6f6e2d636f\n        /* \"#utility.yul\":37029:37030   */\n      0x00\n        /* \"#utility.yul\":37021:37027   */\n      dup3\n        /* \"#utility.yul\":37017:37031   */\n      add\n        /* \"#utility.yul\":37010:37068   */\n      mstore\n        /* \"#utility.yul\":37102:37110   */\n      0x6e74726163740000000000000000000000000000000000000000000000000000\n        /* \"#utility.yul\":37097:37099   */\n      0x20\n        /* \"#utility.yul\":37089:37095   */\n      dup3\n        /* \"#utility.yul\":37085:37100   */\n      add\n        /* \"#utility.yul\":37078:37111   */\n      mstore\n        /* \"#utility.yul\":36893:37118   */\n      pop\n      jump\t// out\n        /* \"#utility.yul\":37124:37490   */\n    tag_465:\n        /* \"#utility.yul\":37266:37269   */\n      0x00\n        /* \"#utility.yul\":37287:37354   */\n      tag_803\n        /* \"#utility.yul\":37351:37353   */\n      0x26\n        /* \"#utility.yul\":37346:37349   */\n      dup4\n        /* \"#utility.yul\":37287:37354   */\n      tag_373\n      jump\t// in\n    tag_803:\n        /* \"#utility.yul\":37280:37354   */\n      swap2\n      pop\n        /* \"#utility.yul\":37363:37456   */\n      tag_804\n        /* \"#utility.yul\":37452:37455   */\n      dup3\n        /* \"#utility.yul\":37363:37456   */\n      tag_464\n      jump\t// in\n    tag_804:\n        /* \"#utility.yul\":37481:37483   */\n      0x40\n        /* \"#utility.yul\":37476:37479   */\n      dup3\n        /* \"#utility.yul\":37472:37484   */\n      add\n        /* \"#utility.yul\":37465:37484   */\n      swap1\n      pop\n        /* \"#utility.yul\":37124:37490   */\n      swap2\n      swap1\n      pop\n      jump\t// out\n        /* \"#utility.yul\":37496:37915   */\n    tag_355:\n        /* \"#utility.yul\":37662:37666   */\n      0x00\n        /* \"#utility.yul\":37700:37702   */\n      0x20\n        /* \"#utility.yul\":37689:37698   */\n      dup3\n        /* \"#utility.yul\":37685:37703   */\n      add\n        /* \"#utility.yul\":37677:37703   */\n      swap1\n      pop\n        /* \"#utility.yul\":37749:37758   */\n      dup2\n        /* \"#utility.yul\":37743:37747   */\n      dup2\n        /* \"#utility.yul\":37739:37759   */\n      sub\n        /* \"#utility.yul\":37735:37736   */\n      0x00\n        /* \"#utility.yul\":37724:37733   */\n      dup4\n        /* \"#utility.yul\":37720:37737   */\n      add\n        /* \"#utility.yul\":37713:37760   */\n      mstore\n        /* \"#utility.yul\":37777:37908   */\n      tag_806\n        /* \"#utility.yul\":37903:37907   */\n      dup2\n        /* \"#utility.yul\":37777:37908   */\n      tag_465\n      jump\t// in\n    tag_806:\n        /* \"#utility.yul\":37769:37908   */\n      swap1\n      pop\n        /* \"#utility.yul\":37496:37915   */\n      swap2\n      swap1\n      pop\n      jump\t// out\n        /* \"#utility.yul\":37921:38019   */\n    tag_466:\n        /* \"#utility.yul\":37972:37978   */\n      0x00\n        /* \"#utility.yul\":38006:38011   */\n      dup2\n        /* \"#utility.yul\":38000:38012   */\n      mload\n        /* \"#utility.yul\":37990:38012   */\n      swap1\n      pop\n        /* \"#utility.yul\":37921:38019   */\n      swap2\n      swap1\n      pop\n      jump\t// out\n        /* \"#utility.yul\":38025:38172   */\n    tag_467:\n        /* \"#utility.yul\":38126:38137   */\n      0x00\n        /* \"#utility.yul\":38163:38166   */\n      dup2\n        /* \"#utility.yul\":38148:38166   */\n      swap1\n      pop\n        /* \"#utility.yul\":38025:38172   */\n      swap3\n      swap2\n      pop\n      pop\n      jump\t// out\n        /* \"#utility.yul\":38178:38564   */\n    tag_468:\n        /* \"#utility.yul\":38282:38285   */\n      0x00\n        /* \"#utility.yul\":38310:38348   */\n      tag_810\n        /* \"#utility.yul\":38342:38347   */\n      dup3\n        /* \"#utility.yul\":38310:38348   */\n      tag_466\n      jump\t// in\n    tag_810:\n        /* \"#utility.yul\":38364:38452   */\n      tag_811\n        /* \"#utility.yul\":38445:38451   */\n      dup2\n        /* \"#utility.yul\":38440:38443   */\n      dup6\n        /* \"#utility.yul\":38364:38452   */\n      tag_467\n      jump\t// in\n    tag_811:\n        /* \"#utility.yul\":38357:38452   */\n      swap4\n      pop\n        /* \"#utility.yul\":38461:38526   */\n      tag_812\n        /* \"#utility.yul\":38519:38525   */\n      dup2\n        /* \"#utility.yul\":38514:38517   */\n      dup6\n        /* \"#utility.yul\":38507:38511   */\n      0x20\n        /* \"#utility.yul\":38500:38505   */\n      dup7\n        /* \"#utility.yul\":38496:38512   */\n      add\n        /* \"#utility.yul\":38461:38526   */\n      tag_374\n      jump\t// in\n    tag_812:\n        /* \"#utility.yul\":38551:38557   */\n      dup1\n        /* \"#utility.yul\":38546:38549   */\n      dup5\n        /* \"#utility.yul\":38542:38558   */\n      add\n        /* \"#utility.yul\":38535:38558   */\n      swap2\n      pop\n        /* \"#utility.yul\":38286:38564   */\n      pop\n        /* \"#utility.yul\":38178:38564   */\n      swap3\n      swap2\n      pop\n      pop\n      jump\t// out\n        /* \"#utility.yul\":38570:38841   */\n    tag_357:\n        /* \"#utility.yul\":38700:38703   */\n      0x00\n        /* \"#utility.yul\":38722:38815   */\n      tag_814\n        /* \"#utility.yul\":38811:38814   */\n      dup3\n        /* \"#utility.yul\":38802:38808   */\n      dup5\n        /* \"#utility.yul\":38722:38815   */\n      tag_468\n      jump\t// in\n    tag_814:\n        /* \"#utility.yul\":38715:38815   */\n      swap2\n      pop\n        /* \"#utility.yul\":38832:38835   */\n      dup2\n        /* \"#utility.yul\":38825:38835   */\n      swap1\n      pop\n        /* \"#utility.yul\":38570:38841   */\n      swap3\n      swap2\n      pop\n      pop\n      jump\t// out\n    stop\n    data_9fdcd12e4b726339b32a442b0a448365d5d85c96b2d2cff917b4f66c63110398 416464726573733a206c6f772d6c6576656c2064656c65676174652063616c6c206661696c6564\n\n    auxdata: 0xa26469706673582212203d26993b15b72a5183cac8f5536d1add319bfc2709ddac4a062c138977f2493664736f6c63430008110033\n}\n",
				"bytecode": {
					"linkReferences": {},
					"object": "60a06040523073ffffffffffffffffffffffffffffffffffffffff1660809073ffffffffffffffffffffffffffffffffffffffff168152503480156200004457600080fd5b50620000556200005b60201b60201c565b62000206565b600060019054906101000a900460ff1615620000ae576040517f08c379a0000000000000000000000000000000000000000000000000000000008152600401620000a590620001a9565b60405180910390fd5b60ff801660008054906101000a900460ff1660ff161015620001205760ff6000806101000a81548160ff021916908360ff1602179055507f7f26b83ff96e1f2b6a682f133852f6798a09c465da95921460cefb384740249860ff604051620001179190620001e9565b60405180910390a15b565b600082825260208201905092915050565b7f496e697469616c697a61626c653a20636f6e747261637420697320696e69746960008201527f616c697a696e6700000000000000000000000000000000000000000000000000602082015250565b60006200019160278362000122565b91506200019e8262000133565b604082019050919050565b60006020820190508181036000830152620001c48162000182565b9050919050565b600060ff82169050919050565b620001e381620001cb565b82525050565b6000602082019050620002006000830184620001d8565b92915050565b60805161313c6200023e60003960008181610550015281816105de0152818161070f0152818161079d015261084d015261313c6000f3fe6080604052600436106101095760003560e01c806370a082311161009557806395d89b411161006457806395d89b411461034c578063a457c2d714610377578063a9059cbb146103b4578063dd62ed3e146103f1578063f2fde38b1461042e57610109565b806370a08231146102b6578063715018a6146102f35780638129fc1c1461030a5780638da5cb5b1461032157610109565b8063313ce567116100dc578063313ce567146101de5780633659cfe61461020957806339509351146102325780634f1ef2861461026f57806352d1902d1461028b57610109565b806306fdde031461010e578063095ea7b31461013957806318160ddd1461017657806323b872dd146101a1575b600080fd5b34801561011a57600080fd5b50610123610457565b6040516101309190611c1d565b60405180910390f35b34801561014557600080fd5b50610160600480360381019061015b9190611ce7565b6104e9565b60405161016d9190611d42565b60405180910390f35b34801561018257600080fd5b5061018b61050c565b6040516101989190611d6c565b60405180910390f35b3480156101ad57600080fd5b506101c860048036038101906101c39190611d87565b610516565b6040516101d59190611d42565b60405180910390f35b3480156101ea57600080fd5b506101f3610545565b6040516102009190611df6565b60405180910390f35b34801561021557600080fd5b50610230600480360381019061022b9190611e11565b61054e565b005b34801561023e57600080fd5b5061025960048036038101906102549190611ce7565b6106d6565b6040516102669190611d42565b60405180910390f35b61028960048036038101906102849190611f73565b61070d565b005b34801561029757600080fd5b506102a0610849565b6040516102ad9190611fe8565b60405180910390f35b3480156102c257600080fd5b506102dd60048036038101906102d89190611e11565b610902565b6040516102ea9190611d6c565b60405180910390f35b3480156102ff57600080fd5b5061030861094b565b005b34801561031657600080fd5b5061031f61095f565b005b34801561032d57600080fd5b50610336610b46565b6040516103439190612012565b60405180910390f35b34801561035857600080fd5b50610361610b70565b60405161036e9190611c1d565b60405180910390f35b34801561038357600080fd5b5061039e60048036038101906103999190611ce7565b610c02565b6040516103ab9190611d42565b60405180910390f35b3480156103c057600080fd5b506103db60048036038101906103d69190611ce7565b610c79565b6040516103e89190611d42565b60405180910390f35b3480156103fd57600080fd5b506104186004803603810190610413919061202d565b610c9c565b6040516104259190611d6c565b60405180910390f35b34801561043a57600080fd5b5061045560048036038101906104509190611e11565b610d23565b005b6060603680546104669061209c565b80601f01602080910402602001604051908101604052809291908181526020018280546104929061209c565b80156104df5780601f106104b4576101008083540402835291602001916104df565b820191906000526020600020905b8154815290600101906020018083116104c257829003601f168201915b5050505050905090565b6000806104f4610da6565b9050610501818585610dae565b600191505092915050565b6000603554905090565b600080610521610da6565b905061052e858285610f77565b610539858585611003565b60019150509392505050565b60006012905090565b7f000000000000000000000000000000000000000000000000000000000000000073ffffffffffffffffffffffffffffffffffffffff163073ffffffffffffffffffffffffffffffffffffffff16036105dc576040517f08c379a00000000000000000000000000000000000000000000000000000000081526004016105d39061213f565b60405180910390fd5b7f000000000000000000000000000000000000000000000000000000000000000073ffffffffffffffffffffffffffffffffffffffff1661061b61127c565b73ffffffffffffffffffffffffffffffffffffffff1614610671576040517f08c379a0000000000000000000000000000000000000000000000000000000008152600401610668906121d1565b60405180910390fd5b61067a816112d3565b6106d381600067ffffffffffffffff81111561069957610698611e48565b5b6040519080825280601f01601f1916602001820160405280156106cb5781602001600182028036833780820191505090505b5060006112de565b50565b6000806106e1610da6565b90506107028185856106f38589610c9c565b6106fd9190612220565b610dae565b600191505092915050565b7f000000000000000000000000000000000000000000000000000000000000000073ffffffffffffffffffffffffffffffffffffffff163073ffffffffffffffffffffffffffffffffffffffff160361079b576040517f08c379a00000000000000000000000000000000000000000000000000000000081526004016107929061213f565b60405180910390fd5b7f000000000000000000000000000000000000000000000000000000000000000073ffffffffffffffffffffffffffffffffffffffff166107da61127c565b73ffffffffffffffffffffffffffffffffffffffff1614610830576040517f08c379a0000000000000000000000000000000000000000000000000000000008152600401610827906121d1565b60405180910390fd5b610839826112d3565b610845828260016112de565b5050565b60007f000000000000000000000000000000000000000000000000000000000000000073ffffffffffffffffffffffffffffffffffffffff163073ffffffffffffffffffffffffffffffffffffffff16146108d9576040517f08c379a00000000000000000000000000000000000000000000000000000000081526004016108d0906122c6565b60405180910390fd5b7f360894a13ba1a3210667c828492db98dca3e2076cc3735a920a3ca505d382bbc60001b905090565b6000603360008373ffffffffffffffffffffffffffffffffffffffff1673ffffffffffffffffffffffffffffffffffffffff168152602001908152602001600020549050919050565b61095361144c565b61095d60006114ca565b565b60008060019054906101000a900460ff161590508080156109905750600160008054906101000a900460ff1660ff16105b806109bd575061099f30611590565b1580156109bc5750600160008054906101000a900460ff1660ff16145b5b6109fc576040517f08c379a00000000000000000000000000000000000000000000000000000000081526004016109f390612358565b60405180910390fd5b60016000806101000a81548160ff021916908360ff1602179055508015610a39576001600060016101000a81548160ff0219169083151502179055505b610aad6040518060400160405280600981526020017f546f676f546f6b656e00000000000000000000000000000000000000000000008152506040518060400160405280600381526020017f54474b00000000000000000000000000000000000000000000000000000000008152506115b3565b610ab5611610565b610abd611669565b610aea33610ac9610545565b600a610ad591906124ab565b6401a13b8600610ae591906124f6565b6116ba565b8015610b435760008060016101000a81548160ff0219169083151502179055507f7f26b83ff96e1f2b6a682f133852f6798a09c465da95921460cefb38474024986001604051610b3a919061257d565b60405180910390a15b50565b6000606560009054906101000a900473ffffffffffffffffffffffffffffffffffffffff16905090565b606060378054610b7f9061209c565b80601f0160208091040260200160405190810160405280929190818152602001828054610bab9061209c565b8015610bf85780601f10610bcd57610100808354040283529160200191610bf8565b820191906000526020600020905b815481529060010190602001808311610bdb57829003601f168201915b5050505050905090565b600080610c0d610da6565b90506000610c1b8286610c9c565b905083811015610c60576040517f08c379a0000000000000000000000000000000000000000000000000000000008152600401610c579061260a565b60405180910390fd5b610c6d8286868403610dae565b60019250505092915050565b600080610c84610da6565b9050610c91818585611003565b600191505092915050565b6000603460008473ffffffffffffffffffffffffffffffffffffffff1673ffffffffffffffffffffffffffffffffffffffff16815260200190815260200160002060008373ffffffffffffffffffffffffffffffffffffffff1673ffffffffffffffffffffffffffffffffffffffff16815260200190815260200160002054905092915050565b610d2b61144c565b600073ffffffffffffffffffffffffffffffffffffffff168173ffffffffffffffffffffffffffffffffffffffff1603610d9a576040517f08c379a0000000000000000000000000000000000000000000000000000000008152600401610d919061269c565b60405180910390fd5b610da3816114ca565b50565b600033905090565b600073ffffffffffffffffffffffffffffffffffffffff168373ffffffffffffffffffffffffffffffffffffffff1603610e1d576040517f08c379a0000000000000000000000000000000000000000000000000000000008152600401610e149061272e565b60405180910390fd5b600073ffffffffffffffffffffffffffffffffffffffff168273ffffffffffffffffffffffffffffffffffffffff1603610e8c576040517f08c379a0000000000000000000000000000000000000000000000000000000008152600401610e83906127c0565b60405180910390fd5b80603460008573ffffffffffffffffffffffffffffffffffffffff1673ffffffffffffffffffffffffffffffffffffffff16815260200190815260200160002060008473ffffffffffffffffffffffffffffffffffffffff1673ffffffffffffffffffffffffffffffffffffffff168152602001908152602001600020819055508173ffffffffffffffffffffffffffffffffffffffff168373ffffffffffffffffffffffffffffffffffffffff167f8c5be1e5ebec7d5bd14f71427d1e84f3dd0314c0f7b2291e5b200ac8c7c3b92583604051610f6a9190611d6c565b60405180910390a3505050565b6000610f838484610c9c565b90507fffffffffffffffffffffffffffffffffffffffffffffffffffffffffffffffff8114610ffd5781811015610fef576040517f08c379a0000000000000000000000000000000000000000000000000000000008152600401610fe69061282c565b60405180910390fd5b610ffc8484848403610dae565b5b50505050565b600073ffffffffffffffffffffffffffffffffffffffff168373ffffffffffffffffffffffffffffffffffffffff1603611072576040517f08c379a0000000000000000000000000000000000000000000000000000000008152600401611069906128be565b60405180910390fd5b600073ffffffffffffffffffffffffffffffffffffffff168273ffffffffffffffffffffffffffffffffffffffff16036110e1576040517f08c379a00000000000000000000000000000000000000000000000000000000081526004016110d890612950565b60405180910390fd5b6110ec838383611811565b6000603360008573ffffffffffffffffffffffffffffffffffffffff1673ffffffffffffffffffffffffffffffffffffffff16815260200190815260200160002054905081811015611173576040517f08c379a000000000000000000000000000000000000000000000000000000000815260040161116a906129e2565b60405180910390fd5b818103603360008673ffffffffffffffffffffffffffffffffffffffff1673ffffffffffffffffffffffffffffffffffffffff1681526020019081526020016000208190555081603360008573ffffffffffffffffffffffffffffffffffffffff1673ffffffffffffffffffffffffffffffffffffffff168152602001908152602001600020600082825401925050819055508273ffffffffffffffffffffffffffffffffffffffff168473ffffffffffffffffffffffffffffffffffffffff167fddf252ad1be2c89b69c2b068fc378daa952ba7f163c4a11628f55a4df523b3ef846040516112639190611d6c565b60405180910390a3611276848484611816565b50505050565b60006112aa7f360894a13ba1a3210667c828492db98dca3e2076cc3735a920a3ca505d382bbc60001b61181b565b60000160009054906101000a900473ffffffffffffffffffffffffffffffffffffffff16905090565b6112db61144c565b50565b61130a7f4910fdfa16fed3260ed0e7147f7cc6da11a60208b5b9406d12a635614ffd914360001b611825565b60000160009054906101000a900460ff161561132e576113298361182f565b611447565b8273ffffffffffffffffffffffffffffffffffffffff166352d1902d6040518163ffffffff1660e01b8152600401602060405180830381865afa92505050801561139657506040513d601f19601f820116820180604052508101906113939190612a2e565b60015b6113d5576040517f08c379a00000000000000000000000000000000000000000000000000000000081526004016113cc90612acd565b60405180910390fd5b7f360894a13ba1a3210667c828492db98dca3e2076cc3735a920a3ca505d382bbc60001b811461143a576040517f08c379a000000000000000000000000000000000000000000000000000000000815260040161143190612b5f565b60405180910390fd5b506114468383836118e8565b5b505050565b611454610da6565b73ffffffffffffffffffffffffffffffffffffffff16611472610b46565b73ffffffffffffffffffffffffffffffffffffffff16146114c8576040517f08c379a00000000000000000000000000000000000000000000000000000000081526004016114bf90612bcb565b60405180910390fd5b565b6000606560009054906101000a900473ffffffffffffffffffffffffffffffffffffffff16905081606560006101000a81548173ffffffffffffffffffffffffffffffffffffffff021916908373ffffffffffffffffffffffffffffffffffffffff1602179055508173ffffffffffffffffffffffffffffffffffffffff168173ffffffffffffffffffffffffffffffffffffffff167f8be0079c531659141344cd1fd0a4f28419497f9722a3daafe3b4186f6b6457e060405160405180910390a35050565b6000808273ffffffffffffffffffffffffffffffffffffffff163b119050919050565b600060019054906101000a900460ff16611602576040517f08c379a00000000000000000000000000000000000000000000000000000000081526004016115f990612c5d565b60405180910390fd5b61160c8282611914565b5050565b600060019054906101000a900460ff1661165f576040517f08c379a000000000000000000000000000000000000000000000000000000000815260040161165690612c5d565b60405180910390fd5b611667611987565b565b600060019054906101000a900460ff166116b8576040517f08c379a00000000000000000000000000000000000000000000000000000000081526004016116af90612c5d565b60405180910390fd5b565b600073ffffffffffffffffffffffffffffffffffffffff168273ffffffffffffffffffffffffffffffffffffffff1603611729576040517f08c379a000000000000000000000000000000000000000000000000000000000815260040161172090612cc9565b60405180910390fd5b61173560008383611811565b80603560008282546117479190612220565b9250508190555080603360008473ffffffffffffffffffffffffffffffffffffffff1673ffffffffffffffffffffffffffffffffffffffff168152602001908152602001600020600082825401925050819055508173ffffffffffffffffffffffffffffffffffffffff16600073ffffffffffffffffffffffffffffffffffffffff167fddf252ad1be2c89b69c2b068fc378daa952ba7f163c4a11628f55a4df523b3ef836040516117f99190611d6c565b60405180910390a361180d60008383611816565b5050565b505050565b505050565b6000819050919050565b6000819050919050565b61183881611590565b611877576040517f08c379a000000000000000000000000000000000000000000000000000000000815260040161186e90612d5b565b60405180910390fd5b806118a47f360894a13ba1a3210667c828492db98dca3e2076cc3735a920a3ca505d382bbc60001b61181b565b60000160006101000a81548173ffffffffffffffffffffffffffffffffffffffff021916908373ffffffffffffffffffffffffffffffffffffffff16021790555050565b6118f1836119e8565b6000825111806118fe5750805b1561190f5761190d8383611a37565b505b505050565b600060019054906101000a900460ff16611963576040517f08c379a000000000000000000000000000000000000000000000000000000000815260040161195a90612c5d565b60405180910390fd5b81603690816119729190612f1d565b5080603790816119829190612f1d565b505050565b600060019054906101000a900460ff166119d6576040517f08c379a00000000000000000000000000000000000000000000000000000000081526004016119cd90612c5d565b60405180910390fd5b6119e66119e1610da6565b6114ca565b565b6119f18161182f565b8073ffffffffffffffffffffffffffffffffffffffff167fbc7cd75a20ee27fd9adebab32041f755214dbc6bffa90cc0225b39da2e5c2d3b60405160405180910390a250565b6060611a4283611590565b611a81576040517f08c379a0000000000000000000000000000000000000000000000000000000008152600401611a7890613061565b60405180910390fd5b6000808473ffffffffffffffffffffffffffffffffffffffff1684604051611aa991906130c8565b600060405180830381855af49150503d8060008114611ae4576040519150601f19603f3d011682016040523d82523d6000602084013e611ae9565b606091505b5091509150611b1182826040518060600160405280602781526020016130e060279139611b1b565b9250505092915050565b60608315611b2b57829050611b36565b611b358383611b3d565b5b9392505050565b600082511115611b505781518083602001fd5b806040517f08c379a0000000000000000000000000000000000000000000000000000000008152600401611b849190611c1d565b60405180910390fd5b600081519050919050565b600082825260208201905092915050565b60005b83811015611bc7578082015181840152602081019050611bac565b60008484015250505050565b6000601f19601f8301169050919050565b6000611bef82611b8d565b611bf98185611b98565b9350611c09818560208601611ba9565b611c1281611bd3565b840191505092915050565b60006020820190508181036000830152611c378184611be4565b905092915050565b6000604051905090565b600080fd5b600080fd5b600073ffffffffffffffffffffffffffffffffffffffff82169050919050565b6000611c7e82611c53565b9050919050565b611c8e81611c73565b8114611c9957600080fd5b50565b600081359050611cab81611c85565b92915050565b6000819050919050565b611cc481611cb1565b8114611ccf57600080fd5b50565b600081359050611ce181611cbb565b92915050565b60008060408385031215611cfe57611cfd611c49565b5b6000611d0c85828601611c9c565b9250506020611d1d85828601611cd2565b9150509250929050565b60008115159050919050565b611d3c81611d27565b82525050565b6000602082019050611d576000830184611d33565b92915050565b611d6681611cb1565b82525050565b6000602082019050611d816000830184611d5d565b92915050565b600080600060608486031215611da057611d9f611c49565b5b6000611dae86828701611c9c565b9350506020611dbf86828701611c9c565b9250506040611dd086828701611cd2565b9150509250925092565b600060ff82169050919050565b611df081611dda565b82525050565b6000602082019050611e0b6000830184611de7565b92915050565b600060208284031215611e2757611e26611c49565b5b6000611e3584828501611c9c565b91505092915050565b600080fd5b600080fd5b7f4e487b7100000000000000000000000000000000000000000000000000000000600052604160045260246000fd5b611e8082611bd3565b810181811067ffffffffffffffff82111715611e9f57611e9e611e48565b5b80604052505050565b6000611eb2611c3f565b9050611ebe8282611e77565b919050565b600067ffffffffffffffff821115611ede57611edd611e48565b5b611ee782611bd3565b9050602081019050919050565b82818337600083830152505050565b6000611f16611f1184611ec3565b611ea8565b905082815260208101848484011115611f3257611f31611e43565b5b611f3d848285611ef4565b509392505050565b600082601f830112611f5a57611f59611e3e565b5b8135611f6a848260208601611f03565b91505092915050565b60008060408385031215611f8a57611f89611c49565b5b6000611f9885828601611c9c565b925050602083013567ffffffffffffffff811115611fb957611fb8611c4e565b5b611fc585828601611f45565b9150509250929050565b6000819050919050565b611fe281611fcf565b82525050565b6000602082019050611ffd6000830184611fd9565b92915050565b61200c81611c73565b82525050565b60006020820190506120276000830184612003565b92915050565b6000806040838503121561204457612043611c49565b5b600061205285828601611c9c565b925050602061206385828601611c9c565b9150509250929050565b7f4e487b7100000000000000000000000000000000000000000000000000000000600052602260045260246000fd5b600060028204905060018216806120b457607f821691505b6020821081036120c7576120c661206d565b5b50919050565b7f46756e6374696f6e206d7573742062652063616c6c6564207468726f7567682060008201527f64656c656761746563616c6c0000000000000000000000000000000000000000602082015250565b6000612129602c83611b98565b9150612134826120cd565b604082019050919050565b600060208201905081810360008301526121588161211c565b9050919050565b7f46756e6374696f6e206d7573742062652063616c6c6564207468726f7567682060008201527f6163746976652070726f78790000000000000000000000000000000000000000602082015250565b60006121bb602c83611b98565b91506121c68261215f565b604082019050919050565b600060208201905081810360008301526121ea816121ae565b9050919050565b7f4e487b7100000000000000000000000000000000000000000000000000000000600052601160045260246000fd5b600061222b82611cb1565b915061223683611cb1565b925082820190508082111561224e5761224d6121f1565b5b92915050565b7f555550535570677261646561626c653a206d757374206e6f742062652063616c60008201527f6c6564207468726f7567682064656c656761746563616c6c0000000000000000602082015250565b60006122b0603883611b98565b91506122bb82612254565b604082019050919050565b600060208201905081810360008301526122df816122a3565b9050919050565b7f496e697469616c697a61626c653a20636f6e747261637420697320616c72656160008201527f647920696e697469616c697a6564000000000000000000000000000000000000602082015250565b6000612342602e83611b98565b915061234d826122e6565b604082019050919050565b6000602082019050818103600083015261237181612335565b9050919050565b60008160011c9050919050565b6000808291508390505b60018511156123cf578086048111156123ab576123aa6121f1565b5b60018516156123ba5780820291505b80810290506123c885612378565b945061238f565b94509492505050565b6000826123e857600190506124a4565b816123f657600090506124a4565b816001811461240c576002811461241657612445565b60019150506124a4565b60ff841115612428576124276121f1565b5b8360020a91508482111561243f5761243e6121f1565b5b506124a4565b5060208310610133831016604e8410600b841016171561247a5782820a905083811115612475576124746121f1565b5b6124a4565b6124878484846001612385565b9250905081840481111561249e5761249d6121f1565b5b81810290505b9392505050565b60006124b682611cb1565b91506124c183611dda565b92506124ee7fffffffffffffffffffffffffffffffffffffffffffffffffffffffffffffffff84846123d8565b905092915050565b600061250182611cb1565b915061250c83611cb1565b925082820261251a81611cb1565b91508282048414831517612531576125306121f1565b5b5092915050565b6000819050919050565b6000819050919050565b600061256761256261255d84612538565b612542565b611dda565b9050919050565b6125778161254c565b82525050565b6000602082019050612592600083018461256e565b92915050565b7f45524332303a2064656372656173656420616c6c6f77616e63652062656c6f7760008201527f207a65726f000000000000000000000000000000000000000000000000000000602082015250565b60006125f4602583611b98565b91506125ff82612598565b604082019050919050565b60006020820190508181036000830152612623816125e7565b9050919050565b7f4f776e61626c653a206e6577206f776e657220697320746865207a65726f206160008201527f6464726573730000000000000000000000000000000000000000000000000000602082015250565b6000612686602683611b98565b91506126918261262a565b604082019050919050565b600060208201905081810360008301526126b581612679565b9050919050565b7f45524332303a20617070726f76652066726f6d20746865207a65726f2061646460008201527f7265737300000000000000000000000000000000000000000000000000000000602082015250565b6000612718602483611b98565b9150612723826126bc565b604082019050919050565b600060208201905081810360008301526127478161270b565b9050919050565b7f45524332303a20617070726f766520746f20746865207a65726f20616464726560008201527f7373000000000000000000000000000000000000000000000000000000000000602082015250565b60006127aa602283611b98565b91506127b58261274e565b604082019050919050565b600060208201905081810360008301526127d98161279d565b9050919050565b7f45524332303a20696e73756666696369656e7420616c6c6f77616e6365000000600082015250565b6000612816601d83611b98565b9150612821826127e0565b602082019050919050565b6000602082019050818103600083015261284581612809565b9050919050565b7f45524332303a207472616e736665722066726f6d20746865207a65726f20616460008201527f6472657373000000000000000000000000000000000000000000000000000000602082015250565b60006128a8602583611b98565b91506128b38261284c565b604082019050919050565b600060208201905081810360008301526128d78161289b565b9050919050565b7f45524332303a207472616e7366657220746f20746865207a65726f206164647260008201527f6573730000000000000000000000000000000000000000000000000000000000602082015250565b600061293a602383611b98565b9150612945826128de565b604082019050919050565b600060208201905081810360008301526129698161292d565b9050919050565b7f45524332303a207472616e7366657220616d6f756e742065786365656473206260008201527f616c616e63650000000000000000000000000000000000000000000000000000602082015250565b60006129cc602683611b98565b91506129d782612970565b604082019050919050565b600060208201905081810360008301526129fb816129bf565b9050919050565b612a0b81611fcf565b8114612a1657600080fd5b50565b600081519050612a2881612a02565b92915050565b600060208284031215612a4457612a43611c49565b5b6000612a5284828501612a19565b91505092915050565b7f45524331393637557067726164653a206e657720696d706c656d656e7461746960008201527f6f6e206973206e6f742055555053000000000000000000000000000000000000602082015250565b6000612ab7602e83611b98565b9150612ac282612a5b565b604082019050919050565b60006020820190508181036000830152612ae681612aaa565b9050919050565b7f45524331393637557067726164653a20756e737570706f727465642070726f7860008201527f6961626c65555549440000000000000000000000000000000000000000000000602082015250565b6000612b49602983611b98565b9150612b5482612aed565b604082019050919050565b60006020820190508181036000830152612b7881612b3c565b9050919050565b7f4f776e61626c653a2063616c6c6572206973206e6f7420746865206f776e6572600082015250565b6000612bb5602083611b98565b9150612bc082612b7f565b602082019050919050565b60006020820190508181036000830152612be481612ba8565b9050919050565b7f496e697469616c697a61626c653a20636f6e7472616374206973206e6f74206960008201527f6e697469616c697a696e67000000000000000000000000000000000000000000602082015250565b6000612c47602b83611b98565b9150612c5282612beb565b604082019050919050565b60006020820190508181036000830152612c7681612c3a565b9050919050565b7f45524332303a206d696e7420746f20746865207a65726f206164647265737300600082015250565b6000612cb3601f83611b98565b9150612cbe82612c7d565b602082019050919050565b60006020820190508181036000830152612ce281612ca6565b9050919050565b7f455243313936373a206e657720696d706c656d656e746174696f6e206973206e60008201527f6f74206120636f6e747261637400000000000000000000000000000000000000602082015250565b6000612d45602d83611b98565b9150612d5082612ce9565b604082019050919050565b60006020820190508181036000830152612d7481612d38565b9050919050565b60008190508160005260206000209050919050565b60006020601f8301049050919050565b600082821b905092915050565b600060088302612ddd7fffffffffffffffffffffffffffffffffffffffffffffffffffffffffffffffff82612da0565b612de78683612da0565b95508019841693508086168417925050509392505050565b6000612e1a612e15612e1084611cb1565b612542565b611cb1565b9050919050565b6000819050919050565b612e3483612dff565b612e48612e4082612e21565b848454612dad565b825550505050565b600090565b612e5d612e50565b612e68818484612e2b565b505050565b5b81811015612e8c57612e81600082612e55565b600181019050612e6e565b5050565b601f821115612ed157612ea281612d7b565b612eab84612d90565b81016020851015612eba578190505b612ece612ec685612d90565b830182612e6d565b50505b505050565b600082821c905092915050565b6000612ef460001984600802612ed6565b1980831691505092915050565b6000612f0d8383612ee3565b9150826002028217905092915050565b612f2682611b8d565b67ffffffffffffffff811115612f3f57612f3e611e48565b5b612f49825461209c565b612f54828285612e90565b600060209050601f831160018114612f875760008415612f75578287015190505b612f7f8582612f01565b865550612fe7565b601f198416612f9586612d7b565b60005b82811015612fbd57848901518255600182019150602085019450602081019050612f98565b86831015612fda5784890151612fd6601f891682612ee3565b8355505b6001600288020188555050505b505050505050565b7f416464726573733a2064656c65676174652063616c6c20746f206e6f6e2d636f60008201527f6e74726163740000000000000000000000000000000000000000000000000000602082015250565b600061304b602683611b98565b915061305682612fef565b604082019050919050565b6000602082019050818103600083015261307a8161303e565b9050919050565b600081519050919050565b600081905092915050565b60006130a282613081565b6130ac818561308c565b93506130bc818560208601611ba9565b80840191505092915050565b60006130d48284613097565b91508190509291505056fe416464726573733a206c6f772d6c6576656c2064656c65676174652063616c6c206661696c6564a26469706673582212203d26993b15b72a5183cac8f5536d1add319bfc2709ddac4a062c138977f2493664736f6c63430008110033",
					"opcodes": "PUSH1 0xA0 PUSH1 0x40 MSTORE ADDRESS PUSH20 0xFFFFFFFFFFFFFFFFFFFFFFFFFFFFFFFFFFFFFFFF AND PUSH1 0x80 SWAP1 PUSH20 0xFFFFFFFFFFFFFFFFFFFFFFFFFFFFFFFFFFFFFFFF AND DUP2 MSTORE POP CALLVALUE DUP1 ISZERO PUSH3 0x44 JUMPI PUSH1 0x0 DUP1 REVERT JUMPDEST POP PUSH3 0x55 PUSH3 0x5B PUSH1 0x20 SHL PUSH1 0x20 SHR JUMP JUMPDEST PUSH3 0x206 JUMP JUMPDEST PUSH1 0x0 PUSH1 0x1 SWAP1 SLOAD SWAP1 PUSH2 0x100 EXP SWAP1 DIV PUSH1 0xFF AND ISZERO PUSH3 0xAE JUMPI PUSH1 0x40 MLOAD PUSH32 0x8C379A000000000000000000000000000000000000000000000000000000000 DUP2 MSTORE PUSH1 0x4 ADD PUSH3 0xA5 SWAP1 PUSH3 0x1A9 JUMP JUMPDEST PUSH1 0x40 MLOAD DUP1 SWAP2 SUB SWAP1 REVERT JUMPDEST PUSH1 0xFF DUP1 AND PUSH1 0x0 DUP1 SLOAD SWAP1 PUSH2 0x100 EXP SWAP1 DIV PUSH1 0xFF AND PUSH1 0xFF AND LT ISZERO PUSH3 0x120 JUMPI PUSH1 0xFF PUSH1 0x0 DUP1 PUSH2 0x100 EXP DUP2 SLOAD DUP2 PUSH1 0xFF MUL NOT AND SWAP1 DUP4 PUSH1 0xFF AND MUL OR SWAP1 SSTORE POP PUSH32 0x7F26B83FF96E1F2B6A682F133852F6798A09C465DA95921460CEFB3847402498 PUSH1 0xFF PUSH1 0x40 MLOAD PUSH3 0x117 SWAP2 SWAP1 PUSH3 0x1E9 JUMP JUMPDEST PUSH1 0x40 MLOAD DUP1 SWAP2 SUB SWAP1 LOG1 JUMPDEST JUMP JUMPDEST PUSH1 0x0 DUP3 DUP3 MSTORE PUSH1 0x20 DUP3 ADD SWAP1 POP SWAP3 SWAP2 POP POP JUMP JUMPDEST PUSH32 0x496E697469616C697A61626C653A20636F6E747261637420697320696E697469 PUSH1 0x0 DUP3 ADD MSTORE PUSH32 0x616C697A696E6700000000000000000000000000000000000000000000000000 PUSH1 0x20 DUP3 ADD MSTORE POP JUMP JUMPDEST PUSH1 0x0 PUSH3 0x191 PUSH1 0x27 DUP4 PUSH3 0x122 JUMP JUMPDEST SWAP2 POP PUSH3 0x19E DUP3 PUSH3 0x133 JUMP JUMPDEST PUSH1 0x40 DUP3 ADD SWAP1 POP SWAP2 SWAP1 POP JUMP JUMPDEST PUSH1 0x0 PUSH1 0x20 DUP3 ADD SWAP1 POP DUP2 DUP2 SUB PUSH1 0x0 DUP4 ADD MSTORE PUSH3 0x1C4 DUP2 PUSH3 0x182 JUMP JUMPDEST SWAP1 POP SWAP2 SWAP1 POP JUMP JUMPDEST PUSH1 0x0 PUSH1 0xFF DUP3 AND SWAP1 POP SWAP2 SWAP1 POP JUMP JUMPDEST PUSH3 0x1E3 DUP2 PUSH3 0x1CB JUMP JUMPDEST DUP3 MSTORE POP POP JUMP JUMPDEST PUSH1 0x0 PUSH1 0x20 DUP3 ADD SWAP1 POP PUSH3 0x200 PUSH1 0x0 DUP4 ADD DUP5 PUSH3 0x1D8 JUMP JUMPDEST SWAP3 SWAP2 POP POP JUMP JUMPDEST PUSH1 0x80 MLOAD PUSH2 0x313C PUSH3 0x23E PUSH1 0x0 CODECOPY PUSH1 0x0 DUP2 DUP2 PUSH2 0x550 ADD MSTORE DUP2 DUP2 PUSH2 0x5DE ADD MSTORE DUP2 DUP2 PUSH2 0x70F ADD MSTORE DUP2 DUP2 PUSH2 0x79D ADD MSTORE PUSH2 0x84D ADD MSTORE PUSH2 0x313C PUSH1 0x0 RETURN INVALID PUSH1 0x80 PUSH1 0x40 MSTORE PUSH1 0x4 CALLDATASIZE LT PUSH2 0x109 JUMPI PUSH1 0x0 CALLDATALOAD PUSH1 0xE0 SHR DUP1 PUSH4 0x70A08231 GT PUSH2 0x95 JUMPI DUP1 PUSH4 0x95D89B41 GT PUSH2 0x64 JUMPI DUP1 PUSH4 0x95D89B41 EQ PUSH2 0x34C JUMPI DUP1 PUSH4 0xA457C2D7 EQ PUSH2 0x377 JUMPI DUP1 PUSH4 0xA9059CBB EQ PUSH2 0x3B4 JUMPI DUP1 PUSH4 0xDD62ED3E EQ PUSH2 0x3F1 JUMPI DUP1 PUSH4 0xF2FDE38B EQ PUSH2 0x42E JUMPI PUSH2 0x109 JUMP JUMPDEST DUP1 PUSH4 0x70A08231 EQ PUSH2 0x2B6 JUMPI DUP1 PUSH4 0x715018A6 EQ PUSH2 0x2F3 JUMPI DUP1 PUSH4 0x8129FC1C EQ PUSH2 0x30A JUMPI DUP1 PUSH4 0x8DA5CB5B EQ PUSH2 0x321 JUMPI PUSH2 0x109 JUMP JUMPDEST DUP1 PUSH4 0x313CE567 GT PUSH2 0xDC JUMPI DUP1 PUSH4 0x313CE567 EQ PUSH2 0x1DE JUMPI DUP1 PUSH4 0x3659CFE6 EQ PUSH2 0x209 JUMPI DUP1 PUSH4 0x39509351 EQ PUSH2 0x232 JUMPI DUP1 PUSH4 0x4F1EF286 EQ PUSH2 0x26F JUMPI DUP1 PUSH4 0x52D1902D EQ PUSH2 0x28B JUMPI PUSH2 0x109 JUMP JUMPDEST DUP1 PUSH4 0x6FDDE03 EQ PUSH2 0x10E JUMPI DUP1 PUSH4 0x95EA7B3 EQ PUSH2 0x139 JUMPI DUP1 PUSH4 0x18160DDD EQ PUSH2 0x176 JUMPI DUP1 PUSH4 0x23B872DD EQ PUSH2 0x1A1 JUMPI JUMPDEST PUSH1 0x0 DUP1 REVERT JUMPDEST CALLVALUE DUP1 ISZERO PUSH2 0x11A JUMPI PUSH1 0x0 DUP1 REVERT JUMPDEST POP PUSH2 0x123 PUSH2 0x457 JUMP JUMPDEST PUSH1 0x40 MLOAD PUSH2 0x130 SWAP2 SWAP1 PUSH2 0x1C1D JUMP JUMPDEST PUSH1 0x40 MLOAD DUP1 SWAP2 SUB SWAP1 RETURN JUMPDEST CALLVALUE DUP1 ISZERO PUSH2 0x145 JUMPI PUSH1 0x0 DUP1 REVERT JUMPDEST POP PUSH2 0x160 PUSH1 0x4 DUP1 CALLDATASIZE SUB DUP2 ADD SWAP1 PUSH2 0x15B SWAP2 SWAP1 PUSH2 0x1CE7 JUMP JUMPDEST PUSH2 0x4E9 JUMP JUMPDEST PUSH1 0x40 MLOAD PUSH2 0x16D SWAP2 SWAP1 PUSH2 0x1D42 JUMP JUMPDEST PUSH1 0x40 MLOAD DUP1 SWAP2 SUB SWAP1 RETURN JUMPDEST CALLVALUE DUP1 ISZERO PUSH2 0x182 JUMPI PUSH1 0x0 DUP1 REVERT JUMPDEST POP PUSH2 0x18B PUSH2 0x50C JUMP JUMPDEST PUSH1 0x40 MLOAD PUSH2 0x198 SWAP2 SWAP1 PUSH2 0x1D6C JUMP JUMPDEST PUSH1 0x40 MLOAD DUP1 SWAP2 SUB SWAP1 RETURN JUMPDEST CALLVALUE DUP1 ISZERO PUSH2 0x1AD JUMPI PUSH1 0x0 DUP1 REVERT JUMPDEST POP PUSH2 0x1C8 PUSH1 0x4 DUP1 CALLDATASIZE SUB DUP2 ADD SWAP1 PUSH2 0x1C3 SWAP2 SWAP1 PUSH2 0x1D87 JUMP JUMPDEST PUSH2 0x516 JUMP JUMPDEST PUSH1 0x40 MLOAD PUSH2 0x1D5 SWAP2 SWAP1 PUSH2 0x1D42 JUMP JUMPDEST PUSH1 0x40 MLOAD DUP1 SWAP2 SUB SWAP1 RETURN JUMPDEST CALLVALUE DUP1 ISZERO PUSH2 0x1EA JUMPI PUSH1 0x0 DUP1 REVERT JUMPDEST POP PUSH2 0x1F3 PUSH2 0x545 JUMP JUMPDEST PUSH1 0x40 MLOAD PUSH2 0x200 SWAP2 SWAP1 PUSH2 0x1DF6 JUMP JUMPDEST PUSH1 0x40 MLOAD DUP1 SWAP2 SUB SWAP1 RETURN JUMPDEST CALLVALUE DUP1 ISZERO PUSH2 0x215 JUMPI PUSH1 0x0 DUP1 REVERT JUMPDEST POP PUSH2 0x230 PUSH1 0x4 DUP1 CALLDATASIZE SUB DUP2 ADD SWAP1 PUSH2 0x22B SWAP2 SWAP1 PUSH2 0x1E11 JUMP JUMPDEST PUSH2 0x54E JUMP JUMPDEST STOP JUMPDEST CALLVALUE DUP1 ISZERO PUSH2 0x23E JUMPI PUSH1 0x0 DUP1 REVERT JUMPDEST POP PUSH2 0x259 PUSH1 0x4 DUP1 CALLDATASIZE SUB DUP2 ADD SWAP1 PUSH2 0x254 SWAP2 SWAP1 PUSH2 0x1CE7 JUMP JUMPDEST PUSH2 0x6D6 JUMP JUMPDEST PUSH1 0x40 MLOAD PUSH2 0x266 SWAP2 SWAP1 PUSH2 0x1D42 JUMP JUMPDEST PUSH1 0x40 MLOAD DUP1 SWAP2 SUB SWAP1 RETURN JUMPDEST PUSH2 0x289 PUSH1 0x4 DUP1 CALLDATASIZE SUB DUP2 ADD SWAP1 PUSH2 0x284 SWAP2 SWAP1 PUSH2 0x1F73 JUMP JUMPDEST PUSH2 0x70D JUMP JUMPDEST STOP JUMPDEST CALLVALUE DUP1 ISZERO PUSH2 0x297 JUMPI PUSH1 0x0 DUP1 REVERT JUMPDEST POP PUSH2 0x2A0 PUSH2 0x849 JUMP JUMPDEST PUSH1 0x40 MLOAD PUSH2 0x2AD SWAP2 SWAP1 PUSH2 0x1FE8 JUMP JUMPDEST PUSH1 0x40 MLOAD DUP1 SWAP2 SUB SWAP1 RETURN JUMPDEST CALLVALUE DUP1 ISZERO PUSH2 0x2C2 JUMPI PUSH1 0x0 DUP1 REVERT JUMPDEST POP PUSH2 0x2DD PUSH1 0x4 DUP1 CALLDATASIZE SUB DUP2 ADD SWAP1 PUSH2 0x2D8 SWAP2 SWAP1 PUSH2 0x1E11 JUMP JUMPDEST PUSH2 0x902 JUMP JUMPDEST PUSH1 0x40 MLOAD PUSH2 0x2EA SWAP2 SWAP1 PUSH2 0x1D6C JUMP JUMPDEST PUSH1 0x40 MLOAD DUP1 SWAP2 SUB SWAP1 RETURN JUMPDEST CALLVALUE DUP1 ISZERO PUSH2 0x2FF JUMPI PUSH1 0x0 DUP1 REVERT JUMPDEST POP PUSH2 0x308 PUSH2 0x94B JUMP JUMPDEST STOP JUMPDEST CALLVALUE DUP1 ISZERO PUSH2 0x316 JUMPI PUSH1 0x0 DUP1 REVERT JUMPDEST POP PUSH2 0x31F PUSH2 0x95F JUMP JUMPDEST STOP JUMPDEST CALLVALUE DUP1 ISZERO PUSH2 0x32D JUMPI PUSH1 0x0 DUP1 REVERT JUMPDEST POP PUSH2 0x336 PUSH2 0xB46 JUMP JUMPDEST PUSH1 0x40 MLOAD PUSH2 0x343 SWAP2 SWAP1 PUSH2 0x2012 JUMP JUMPDEST PUSH1 0x40 MLOAD DUP1 SWAP2 SUB SWAP1 RETURN JUMPDEST CALLVALUE DUP1 ISZERO PUSH2 0x358 JUMPI PUSH1 0x0 DUP1 REVERT JUMPDEST POP PUSH2 0x361 PUSH2 0xB70 JUMP JUMPDEST PUSH1 0x40 MLOAD PUSH2 0x36E SWAP2 SWAP1 PUSH2 0x1C1D JUMP JUMPDEST PUSH1 0x40 MLOAD DUP1 SWAP2 SUB SWAP1 RETURN JUMPDEST CALLVALUE DUP1 ISZERO PUSH2 0x383 JUMPI PUSH1 0x0 DUP1 REVERT JUMPDEST POP PUSH2 0x39E PUSH1 0x4 DUP1 CALLDATASIZE SUB DUP2 ADD SWAP1 PUSH2 0x399 SWAP2 SWAP1 PUSH2 0x1CE7 JUMP JUMPDEST PUSH2 0xC02 JUMP JUMPDEST PUSH1 0x40 MLOAD PUSH2 0x3AB SWAP2 SWAP1 PUSH2 0x1D42 JUMP JUMPDEST PUSH1 0x40 MLOAD DUP1 SWAP2 SUB SWAP1 RETURN JUMPDEST CALLVALUE DUP1 ISZERO PUSH2 0x3C0 JUMPI PUSH1 0x0 DUP1 REVERT JUMPDEST POP PUSH2 0x3DB PUSH1 0x4 DUP1 CALLDATASIZE SUB DUP2 ADD SWAP1 PUSH2 0x3D6 SWAP2 SWAP1 PUSH2 0x1CE7 JUMP JUMPDEST PUSH2 0xC79 JUMP JUMPDEST PUSH1 0x40 MLOAD PUSH2 0x3E8 SWAP2 SWAP1 PUSH2 0x1D42 JUMP JUMPDEST PUSH1 0x40 MLOAD DUP1 SWAP2 SUB SWAP1 RETURN JUMPDEST CALLVALUE DUP1 ISZERO PUSH2 0x3FD JUMPI PUSH1 0x0 DUP1 REVERT JUMPDEST POP PUSH2 0x418 PUSH1 0x4 DUP1 CALLDATASIZE SUB DUP2 ADD SWAP1 PUSH2 0x413 SWAP2 SWAP1 PUSH2 0x202D JUMP JUMPDEST PUSH2 0xC9C JUMP JUMPDEST PUSH1 0x40 MLOAD PUSH2 0x425 SWAP2 SWAP1 PUSH2 0x1D6C JUMP JUMPDEST PUSH1 0x40 MLOAD DUP1 SWAP2 SUB SWAP1 RETURN JUMPDEST CALLVALUE DUP1 ISZERO PUSH2 0x43A JUMPI PUSH1 0x0 DUP1 REVERT JUMPDEST POP PUSH2 0x455 PUSH1 0x4 DUP1 CALLDATASIZE SUB DUP2 ADD SWAP1 PUSH2 0x450 SWAP2 SWAP1 PUSH2 0x1E11 JUMP JUMPDEST PUSH2 0xD23 JUMP JUMPDEST STOP JUMPDEST PUSH1 0x60 PUSH1 0x36 DUP1 SLOAD PUSH2 0x466 SWAP1 PUSH2 0x209C JUMP JUMPDEST DUP1 PUSH1 0x1F ADD PUSH1 0x20 DUP1 SWAP2 DIV MUL PUSH1 0x20 ADD PUSH1 0x40 MLOAD SWAP1 DUP2 ADD PUSH1 0x40 MSTORE DUP1 SWAP3 SWAP2 SWAP1 DUP2 DUP2 MSTORE PUSH1 0x20 ADD DUP3 DUP1 SLOAD PUSH2 0x492 SWAP1 PUSH2 0x209C JUMP JUMPDEST DUP1 ISZERO PUSH2 0x4DF JUMPI DUP1 PUSH1 0x1F LT PUSH2 0x4B4 JUMPI PUSH2 0x100 DUP1 DUP4 SLOAD DIV MUL DUP4 MSTORE SWAP2 PUSH1 0x20 ADD SWAP2 PUSH2 0x4DF JUMP JUMPDEST DUP3 ADD SWAP2 SWAP1 PUSH1 0x0 MSTORE PUSH1 0x20 PUSH1 0x0 KECCAK256 SWAP1 JUMPDEST DUP2 SLOAD DUP2 MSTORE SWAP1 PUSH1 0x1 ADD SWAP1 PUSH1 0x20 ADD DUP1 DUP4 GT PUSH2 0x4C2 JUMPI DUP3 SWAP1 SUB PUSH1 0x1F AND DUP3 ADD SWAP2 JUMPDEST POP POP POP POP POP SWAP1 POP SWAP1 JUMP JUMPDEST PUSH1 0x0 DUP1 PUSH2 0x4F4 PUSH2 0xDA6 JUMP JUMPDEST SWAP1 POP PUSH2 0x501 DUP2 DUP6 DUP6 PUSH2 0xDAE JUMP JUMPDEST PUSH1 0x1 SWAP2 POP POP SWAP3 SWAP2 POP POP JUMP JUMPDEST PUSH1 0x0 PUSH1 0x35 SLOAD SWAP1 POP SWAP1 JUMP JUMPDEST PUSH1 0x0 DUP1 PUSH2 0x521 PUSH2 0xDA6 JUMP JUMPDEST SWAP1 POP PUSH2 0x52E DUP6 DUP3 DUP6 PUSH2 0xF77 JUMP JUMPDEST PUSH2 0x539 DUP6 DUP6 DUP6 PUSH2 0x1003 JUMP JUMPDEST PUSH1 0x1 SWAP2 POP POP SWAP4 SWAP3 POP POP POP JUMP JUMPDEST PUSH1 0x0 PUSH1 0x12 SWAP1 POP SWAP1 JUMP JUMPDEST PUSH32 0x0 PUSH20 0xFFFFFFFFFFFFFFFFFFFFFFFFFFFFFFFFFFFFFFFF AND ADDRESS PUSH20 0xFFFFFFFFFFFFFFFFFFFFFFFFFFFFFFFFFFFFFFFF AND SUB PUSH2 0x5DC JUMPI PUSH1 0x40 MLOAD PUSH32 0x8C379A000000000000000000000000000000000000000000000000000000000 DUP2 MSTORE PUSH1 0x4 ADD PUSH2 0x5D3 SWAP1 PUSH2 0x213F JUMP JUMPDEST PUSH1 0x40 MLOAD DUP1 SWAP2 SUB SWAP1 REVERT JUMPDEST PUSH32 0x0 PUSH20 0xFFFFFFFFFFFFFFFFFFFFFFFFFFFFFFFFFFFFFFFF AND PUSH2 0x61B PUSH2 0x127C JUMP JUMPDEST PUSH20 0xFFFFFFFFFFFFFFFFFFFFFFFFFFFFFFFFFFFFFFFF AND EQ PUSH2 0x671 JUMPI PUSH1 0x40 MLOAD PUSH32 0x8C379A000000000000000000000000000000000000000000000000000000000 DUP2 MSTORE PUSH1 0x4 ADD PUSH2 0x668 SWAP1 PUSH2 0x21D1 JUMP JUMPDEST PUSH1 0x40 MLOAD DUP1 SWAP2 SUB SWAP1 REVERT JUMPDEST PUSH2 0x67A DUP2 PUSH2 0x12D3 JUMP JUMPDEST PUSH2 0x6D3 DUP2 PUSH1 0x0 PUSH8 0xFFFFFFFFFFFFFFFF DUP2 GT ISZERO PUSH2 0x699 JUMPI PUSH2 0x698 PUSH2 0x1E48 JUMP JUMPDEST JUMPDEST PUSH1 0x40 MLOAD SWAP1 DUP1 DUP3 MSTORE DUP1 PUSH1 0x1F ADD PUSH1 0x1F NOT AND PUSH1 0x20 ADD DUP3 ADD PUSH1 0x40 MSTORE DUP1 ISZERO PUSH2 0x6CB JUMPI DUP2 PUSH1 0x20 ADD PUSH1 0x1 DUP3 MUL DUP1 CALLDATASIZE DUP4 CALLDATACOPY DUP1 DUP3 ADD SWAP2 POP POP SWAP1 POP JUMPDEST POP PUSH1 0x0 PUSH2 0x12DE JUMP JUMPDEST POP JUMP JUMPDEST PUSH1 0x0 DUP1 PUSH2 0x6E1 PUSH2 0xDA6 JUMP JUMPDEST SWAP1 POP PUSH2 0x702 DUP2 DUP6 DUP6 PUSH2 0x6F3 DUP6 DUP10 PUSH2 0xC9C JUMP JUMPDEST PUSH2 0x6FD SWAP2 SWAP1 PUSH2 0x2220 JUMP JUMPDEST PUSH2 0xDAE JUMP JUMPDEST PUSH1 0x1 SWAP2 POP POP SWAP3 SWAP2 POP POP JUMP JUMPDEST PUSH32 0x0 PUSH20 0xFFFFFFFFFFFFFFFFFFFFFFFFFFFFFFFFFFFFFFFF AND ADDRESS PUSH20 0xFFFFFFFFFFFFFFFFFFFFFFFFFFFFFFFFFFFFFFFF AND SUB PUSH2 0x79B JUMPI PUSH1 0x40 MLOAD PUSH32 0x8C379A000000000000000000000000000000000000000000000000000000000 DUP2 MSTORE PUSH1 0x4 ADD PUSH2 0x792 SWAP1 PUSH2 0x213F JUMP JUMPDEST PUSH1 0x40 MLOAD DUP1 SWAP2 SUB SWAP1 REVERT JUMPDEST PUSH32 0x0 PUSH20 0xFFFFFFFFFFFFFFFFFFFFFFFFFFFFFFFFFFFFFFFF AND PUSH2 0x7DA PUSH2 0x127C JUMP JUMPDEST PUSH20 0xFFFFFFFFFFFFFFFFFFFFFFFFFFFFFFFFFFFFFFFF AND EQ PUSH2 0x830 JUMPI PUSH1 0x40 MLOAD PUSH32 0x8C379A000000000000000000000000000000000000000000000000000000000 DUP2 MSTORE PUSH1 0x4 ADD PUSH2 0x827 SWAP1 PUSH2 0x21D1 JUMP JUMPDEST PUSH1 0x40 MLOAD DUP1 SWAP2 SUB SWAP1 REVERT JUMPDEST PUSH2 0x839 DUP3 PUSH2 0x12D3 JUMP JUMPDEST PUSH2 0x845 DUP3 DUP3 PUSH1 0x1 PUSH2 0x12DE JUMP JUMPDEST POP POP JUMP JUMPDEST PUSH1 0x0 PUSH32 0x0 PUSH20 0xFFFFFFFFFFFFFFFFFFFFFFFFFFFFFFFFFFFFFFFF AND ADDRESS PUSH20 0xFFFFFFFFFFFFFFFFFFFFFFFFFFFFFFFFFFFFFFFF AND EQ PUSH2 0x8D9 JUMPI PUSH1 0x40 MLOAD PUSH32 0x8C379A000000000000000000000000000000000000000000000000000000000 DUP2 MSTORE PUSH1 0x4 ADD PUSH2 0x8D0 SWAP1 PUSH2 0x22C6 JUMP JUMPDEST PUSH1 0x40 MLOAD DUP1 SWAP2 SUB SWAP1 REVERT JUMPDEST PUSH32 0x360894A13BA1A3210667C828492DB98DCA3E2076CC3735A920A3CA505D382BBC PUSH1 0x0 SHL SWAP1 POP SWAP1 JUMP JUMPDEST PUSH1 0x0 PUSH1 0x33 PUSH1 0x0 DUP4 PUSH20 0xFFFFFFFFFFFFFFFFFFFFFFFFFFFFFFFFFFFFFFFF AND PUSH20 0xFFFFFFFFFFFFFFFFFFFFFFFFFFFFFFFFFFFFFFFF AND DUP2 MSTORE PUSH1 0x20 ADD SWAP1 DUP2 MSTORE PUSH1 0x20 ADD PUSH1 0x0 KECCAK256 SLOAD SWAP1 POP SWAP2 SWAP1 POP JUMP JUMPDEST PUSH2 0x953 PUSH2 0x144C JUMP JUMPDEST PUSH2 0x95D PUSH1 0x0 PUSH2 0x14CA JUMP JUMPDEST JUMP JUMPDEST PUSH1 0x0 DUP1 PUSH1 0x1 SWAP1 SLOAD SWAP1 PUSH2 0x100 EXP SWAP1 DIV PUSH1 0xFF AND ISZERO SWAP1 POP DUP1 DUP1 ISZERO PUSH2 0x990 JUMPI POP PUSH1 0x1 PUSH1 0x0 DUP1 SLOAD SWAP1 PUSH2 0x100 EXP SWAP1 DIV PUSH1 0xFF AND PUSH1 0xFF AND LT JUMPDEST DUP1 PUSH2 0x9BD JUMPI POP PUSH2 0x99F ADDRESS PUSH2 0x1590 JUMP JUMPDEST ISZERO DUP1 ISZERO PUSH2 0x9BC JUMPI POP PUSH1 0x1 PUSH1 0x0 DUP1 SLOAD SWAP1 PUSH2 0x100 EXP SWAP1 DIV PUSH1 0xFF AND PUSH1 0xFF AND EQ JUMPDEST JUMPDEST PUSH2 0x9FC JUMPI PUSH1 0x40 MLOAD PUSH32 0x8C379A000000000000000000000000000000000000000000000000000000000 DUP2 MSTORE PUSH1 0x4 ADD PUSH2 0x9F3 SWAP1 PUSH2 0x2358 JUMP JUMPDEST PUSH1 0x40 MLOAD DUP1 SWAP2 SUB SWAP1 REVERT JUMPDEST PUSH1 0x1 PUSH1 0x0 DUP1 PUSH2 0x100 EXP DUP2 SLOAD DUP2 PUSH1 0xFF MUL NOT AND SWAP1 DUP4 PUSH1 0xFF AND MUL OR SWAP1 SSTORE POP DUP1 ISZERO PUSH2 0xA39 JUMPI PUSH1 0x1 PUSH1 0x0 PUSH1 0x1 PUSH2 0x100 EXP DUP2 SLOAD DUP2 PUSH1 0xFF MUL NOT AND SWAP1 DUP4 ISZERO ISZERO MUL OR SWAP1 SSTORE POP JUMPDEST PUSH2 0xAAD PUSH1 0x40 MLOAD DUP1 PUSH1 0x40 ADD PUSH1 0x40 MSTORE DUP1 PUSH1 0x9 DUP2 MSTORE PUSH1 0x20 ADD PUSH32 0x546F676F546F6B656E0000000000000000000000000000000000000000000000 DUP2 MSTORE POP PUSH1 0x40 MLOAD DUP1 PUSH1 0x40 ADD PUSH1 0x40 MSTORE DUP1 PUSH1 0x3 DUP2 MSTORE PUSH1 0x20 ADD PUSH32 0x54474B0000000000000000000000000000000000000000000000000000000000 DUP2 MSTORE POP PUSH2 0x15B3 JUMP JUMPDEST PUSH2 0xAB5 PUSH2 0x1610 JUMP JUMPDEST PUSH2 0xABD PUSH2 0x1669 JUMP JUMPDEST PUSH2 0xAEA CALLER PUSH2 0xAC9 PUSH2 0x545 JUMP JUMPDEST PUSH1 0xA PUSH2 0xAD5 SWAP2 SWAP1 PUSH2 0x24AB JUMP JUMPDEST PUSH5 0x1A13B8600 PUSH2 0xAE5 SWAP2 SWAP1 PUSH2 0x24F6 JUMP JUMPDEST PUSH2 0x16BA JUMP JUMPDEST DUP1 ISZERO PUSH2 0xB43 JUMPI PUSH1 0x0 DUP1 PUSH1 0x1 PUSH2 0x100 EXP DUP2 SLOAD DUP2 PUSH1 0xFF MUL NOT AND SWAP1 DUP4 ISZERO ISZERO MUL OR SWAP1 SSTORE POP PUSH32 0x7F26B83FF96E1F2B6A682F133852F6798A09C465DA95921460CEFB3847402498 PUSH1 0x1 PUSH1 0x40 MLOAD PUSH2 0xB3A SWAP2 SWAP1 PUSH2 0x257D JUMP JUMPDEST PUSH1 0x40 MLOAD DUP1 SWAP2 SUB SWAP1 LOG1 JUMPDEST POP JUMP JUMPDEST PUSH1 0x0 PUSH1 0x65 PUSH1 0x0 SWAP1 SLOAD SWAP1 PUSH2 0x100 EXP SWAP1 DIV PUSH20 0xFFFFFFFFFFFFFFFFFFFFFFFFFFFFFFFFFFFFFFFF AND SWAP1 POP SWAP1 JUMP JUMPDEST PUSH1 0x60 PUSH1 0x37 DUP1 SLOAD PUSH2 0xB7F SWAP1 PUSH2 0x209C JUMP JUMPDEST DUP1 PUSH1 0x1F ADD PUSH1 0x20 DUP1 SWAP2 DIV MUL PUSH1 0x20 ADD PUSH1 0x40 MLOAD SWAP1 DUP2 ADD PUSH1 0x40 MSTORE DUP1 SWAP3 SWAP2 SWAP1 DUP2 DUP2 MSTORE PUSH1 0x20 ADD DUP3 DUP1 SLOAD PUSH2 0xBAB SWAP1 PUSH2 0x209C JUMP JUMPDEST DUP1 ISZERO PUSH2 0xBF8 JUMPI DUP1 PUSH1 0x1F LT PUSH2 0xBCD JUMPI PUSH2 0x100 DUP1 DUP4 SLOAD DIV MUL DUP4 MSTORE SWAP2 PUSH1 0x20 ADD SWAP2 PUSH2 0xBF8 JUMP JUMPDEST DUP3 ADD SWAP2 SWAP1 PUSH1 0x0 MSTORE PUSH1 0x20 PUSH1 0x0 KECCAK256 SWAP1 JUMPDEST DUP2 SLOAD DUP2 MSTORE SWAP1 PUSH1 0x1 ADD SWAP1 PUSH1 0x20 ADD DUP1 DUP4 GT PUSH2 0xBDB JUMPI DUP3 SWAP1 SUB PUSH1 0x1F AND DUP3 ADD SWAP2 JUMPDEST POP POP POP POP POP SWAP1 POP SWAP1 JUMP JUMPDEST PUSH1 0x0 DUP1 PUSH2 0xC0D PUSH2 0xDA6 JUMP JUMPDEST SWAP1 POP PUSH1 0x0 PUSH2 0xC1B DUP3 DUP7 PUSH2 0xC9C JUMP JUMPDEST SWAP1 POP DUP4 DUP2 LT ISZERO PUSH2 0xC60 JUMPI PUSH1 0x40 MLOAD PUSH32 0x8C379A000000000000000000000000000000000000000000000000000000000 DUP2 MSTORE PUSH1 0x4 ADD PUSH2 0xC57 SWAP1 PUSH2 0x260A JUMP JUMPDEST PUSH1 0x40 MLOAD DUP1 SWAP2 SUB SWAP1 REVERT JUMPDEST PUSH2 0xC6D DUP3 DUP7 DUP7 DUP5 SUB PUSH2 0xDAE JUMP JUMPDEST PUSH1 0x1 SWAP3 POP POP POP SWAP3 SWAP2 POP POP JUMP JUMPDEST PUSH1 0x0 DUP1 PUSH2 0xC84 PUSH2 0xDA6 JUMP JUMPDEST SWAP1 POP PUSH2 0xC91 DUP2 DUP6 DUP6 PUSH2 0x1003 JUMP JUMPDEST PUSH1 0x1 SWAP2 POP POP SWAP3 SWAP2 POP POP JUMP JUMPDEST PUSH1 0x0 PUSH1 0x34 PUSH1 0x0 DUP5 PUSH20 0xFFFFFFFFFFFFFFFFFFFFFFFFFFFFFFFFFFFFFFFF AND PUSH20 0xFFFFFFFFFFFFFFFFFFFFFFFFFFFFFFFFFFFFFFFF AND DUP2 MSTORE PUSH1 0x20 ADD SWAP1 DUP2 MSTORE PUSH1 0x20 ADD PUSH1 0x0 KECCAK256 PUSH1 0x0 DUP4 PUSH20 0xFFFFFFFFFFFFFFFFFFFFFFFFFFFFFFFFFFFFFFFF AND PUSH20 0xFFFFFFFFFFFFFFFFFFFFFFFFFFFFFFFFFFFFFFFF AND DUP2 MSTORE PUSH1 0x20 ADD SWAP1 DUP2 MSTORE PUSH1 0x20 ADD PUSH1 0x0 KECCAK256 SLOAD SWAP1 POP SWAP3 SWAP2 POP POP JUMP JUMPDEST PUSH2 0xD2B PUSH2 0x144C JUMP JUMPDEST PUSH1 0x0 PUSH20 0xFFFFFFFFFFFFFFFFFFFFFFFFFFFFFFFFFFFFFFFF AND DUP2 PUSH20 0xFFFFFFFFFFFFFFFFFFFFFFFFFFFFFFFFFFFFFFFF AND SUB PUSH2 0xD9A JUMPI PUSH1 0x40 MLOAD PUSH32 0x8C379A000000000000000000000000000000000000000000000000000000000 DUP2 MSTORE PUSH1 0x4 ADD PUSH2 0xD91 SWAP1 PUSH2 0x269C JUMP JUMPDEST PUSH1 0x40 MLOAD DUP1 SWAP2 SUB SWAP1 REVERT JUMPDEST PUSH2 0xDA3 DUP2 PUSH2 0x14CA JUMP JUMPDEST POP JUMP JUMPDEST PUSH1 0x0 CALLER SWAP1 POP SWAP1 JUMP JUMPDEST PUSH1 0x0 PUSH20 0xFFFFFFFFFFFFFFFFFFFFFFFFFFFFFFFFFFFFFFFF AND DUP4 PUSH20 0xFFFFFFFFFFFFFFFFFFFFFFFFFFFFFFFFFFFFFFFF AND SUB PUSH2 0xE1D JUMPI PUSH1 0x40 MLOAD PUSH32 0x8C379A000000000000000000000000000000000000000000000000000000000 DUP2 MSTORE PUSH1 0x4 ADD PUSH2 0xE14 SWAP1 PUSH2 0x272E JUMP JUMPDEST PUSH1 0x40 MLOAD DUP1 SWAP2 SUB SWAP1 REVERT JUMPDEST PUSH1 0x0 PUSH20 0xFFFFFFFFFFFFFFFFFFFFFFFFFFFFFFFFFFFFFFFF AND DUP3 PUSH20 0xFFFFFFFFFFFFFFFFFFFFFFFFFFFFFFFFFFFFFFFF AND SUB PUSH2 0xE8C JUMPI PUSH1 0x40 MLOAD PUSH32 0x8C379A000000000000000000000000000000000000000000000000000000000 DUP2 MSTORE PUSH1 0x4 ADD PUSH2 0xE83 SWAP1 PUSH2 0x27C0 JUMP JUMPDEST PUSH1 0x40 MLOAD DUP1 SWAP2 SUB SWAP1 REVERT JUMPDEST DUP1 PUSH1 0x34 PUSH1 0x0 DUP6 PUSH20 0xFFFFFFFFFFFFFFFFFFFFFFFFFFFFFFFFFFFFFFFF AND PUSH20 0xFFFFFFFFFFFFFFFFFFFFFFFFFFFFFFFFFFFFFFFF AND DUP2 MSTORE PUSH1 0x20 ADD SWAP1 DUP2 MSTORE PUSH1 0x20 ADD PUSH1 0x0 KECCAK256 PUSH1 0x0 DUP5 PUSH20 0xFFFFFFFFFFFFFFFFFFFFFFFFFFFFFFFFFFFFFFFF AND PUSH20 0xFFFFFFFFFFFFFFFFFFFFFFFFFFFFFFFFFFFFFFFF AND DUP2 MSTORE PUSH1 0x20 ADD SWAP1 DUP2 MSTORE PUSH1 0x20 ADD PUSH1 0x0 KECCAK256 DUP2 SWAP1 SSTORE POP DUP2 PUSH20 0xFFFFFFFFFFFFFFFFFFFFFFFFFFFFFFFFFFFFFFFF AND DUP4 PUSH20 0xFFFFFFFFFFFFFFFFFFFFFFFFFFFFFFFFFFFFFFFF AND PUSH32 0x8C5BE1E5EBEC7D5BD14F71427D1E84F3DD0314C0F7B2291E5B200AC8C7C3B925 DUP4 PUSH1 0x40 MLOAD PUSH2 0xF6A SWAP2 SWAP1 PUSH2 0x1D6C JUMP JUMPDEST PUSH1 0x40 MLOAD DUP1 SWAP2 SUB SWAP1 LOG3 POP POP POP JUMP JUMPDEST PUSH1 0x0 PUSH2 0xF83 DUP5 DUP5 PUSH2 0xC9C JUMP JUMPDEST SWAP1 POP PUSH32 0xFFFFFFFFFFFFFFFFFFFFFFFFFFFFFFFFFFFFFFFFFFFFFFFFFFFFFFFFFFFFFFFF DUP2 EQ PUSH2 0xFFD JUMPI DUP2 DUP2 LT ISZERO PUSH2 0xFEF JUMPI PUSH1 0x40 MLOAD PUSH32 0x8C379A000000000000000000000000000000000000000000000000000000000 DUP2 MSTORE PUSH1 0x4 ADD PUSH2 0xFE6 SWAP1 PUSH2 0x282C JUMP JUMPDEST PUSH1 0x40 MLOAD DUP1 SWAP2 SUB SWAP1 REVERT JUMPDEST PUSH2 0xFFC DUP5 DUP5 DUP5 DUP5 SUB PUSH2 0xDAE JUMP JUMPDEST JUMPDEST POP POP POP POP JUMP JUMPDEST PUSH1 0x0 PUSH20 0xFFFFFFFFFFFFFFFFFFFFFFFFFFFFFFFFFFFFFFFF AND DUP4 PUSH20 0xFFFFFFFFFFFFFFFFFFFFFFFFFFFFFFFFFFFFFFFF AND SUB PUSH2 0x1072 JUMPI PUSH1 0x40 MLOAD PUSH32 0x8C379A000000000000000000000000000000000000000000000000000000000 DUP2 MSTORE PUSH1 0x4 ADD PUSH2 0x1069 SWAP1 PUSH2 0x28BE JUMP JUMPDEST PUSH1 0x40 MLOAD DUP1 SWAP2 SUB SWAP1 REVERT JUMPDEST PUSH1 0x0 PUSH20 0xFFFFFFFFFFFFFFFFFFFFFFFFFFFFFFFFFFFFFFFF AND DUP3 PUSH20 0xFFFFFFFFFFFFFFFFFFFFFFFFFFFFFFFFFFFFFFFF AND SUB PUSH2 0x10E1 JUMPI PUSH1 0x40 MLOAD PUSH32 0x8C379A000000000000000000000000000000000000000000000000000000000 DUP2 MSTORE PUSH1 0x4 ADD PUSH2 0x10D8 SWAP1 PUSH2 0x2950 JUMP JUMPDEST PUSH1 0x40 MLOAD DUP1 SWAP2 SUB SWAP1 REVERT JUMPDEST PUSH2 0x10EC DUP4 DUP4 DUP4 PUSH2 0x1811 JUMP JUMPDEST PUSH1 0x0 PUSH1 0x33 PUSH1 0x0 DUP6 PUSH20 0xFFFFFFFFFFFFFFFFFFFFFFFFFFFFFFFFFFFFFFFF AND PUSH20 0xFFFFFFFFFFFFFFFFFFFFFFFFFFFFFFFFFFFFFFFF AND DUP2 MSTORE PUSH1 0x20 ADD SWAP1 DUP2 MSTORE PUSH1 0x20 ADD PUSH1 0x0 KECCAK256 SLOAD SWAP1 POP DUP2 DUP2 LT ISZERO PUSH2 0x1173 JUMPI PUSH1 0x40 MLOAD PUSH32 0x8C379A000000000000000000000000000000000000000000000000000000000 DUP2 MSTORE PUSH1 0x4 ADD PUSH2 0x116A SWAP1 PUSH2 0x29E2 JUMP JUMPDEST PUSH1 0x40 MLOAD DUP1 SWAP2 SUB SWAP1 REVERT JUMPDEST DUP2 DUP2 SUB PUSH1 0x33 PUSH1 0x0 DUP7 PUSH20 0xFFFFFFFFFFFFFFFFFFFFFFFFFFFFFFFFFFFFFFFF AND PUSH20 0xFFFFFFFFFFFFFFFFFFFFFFFFFFFFFFFFFFFFFFFF AND DUP2 MSTORE PUSH1 0x20 ADD SWAP1 DUP2 MSTORE PUSH1 0x20 ADD PUSH1 0x0 KECCAK256 DUP2 SWAP1 SSTORE POP DUP2 PUSH1 0x33 PUSH1 0x0 DUP6 PUSH20 0xFFFFFFFFFFFFFFFFFFFFFFFFFFFFFFFFFFFFFFFF AND PUSH20 0xFFFFFFFFFFFFFFFFFFFFFFFFFFFFFFFFFFFFFFFF AND DUP2 MSTORE PUSH1 0x20 ADD SWAP1 DUP2 MSTORE PUSH1 0x20 ADD PUSH1 0x0 KECCAK256 PUSH1 0x0 DUP3 DUP3 SLOAD ADD SWAP3 POP POP DUP2 SWAP1 SSTORE POP DUP3 PUSH20 0xFFFFFFFFFFFFFFFFFFFFFFFFFFFFFFFFFFFFFFFF AND DUP5 PUSH20 0xFFFFFFFFFFFFFFFFFFFFFFFFFFFFFFFFFFFFFFFF AND PUSH32 0xDDF252AD1BE2C89B69C2B068FC378DAA952BA7F163C4A11628F55A4DF523B3EF DUP5 PUSH1 0x40 MLOAD PUSH2 0x1263 SWAP2 SWAP1 PUSH2 0x1D6C JUMP JUMPDEST PUSH1 0x40 MLOAD DUP1 SWAP2 SUB SWAP1 LOG3 PUSH2 0x1276 DUP5 DUP5 DUP5 PUSH2 0x1816 JUMP JUMPDEST POP POP POP POP JUMP JUMPDEST PUSH1 0x0 PUSH2 0x12AA PUSH32 0x360894A13BA1A3210667C828492DB98DCA3E2076CC3735A920A3CA505D382BBC PUSH1 0x0 SHL PUSH2 0x181B JUMP JUMPDEST PUSH1 0x0 ADD PUSH1 0x0 SWAP1 SLOAD SWAP1 PUSH2 0x100 EXP SWAP1 DIV PUSH20 0xFFFFFFFFFFFFFFFFFFFFFFFFFFFFFFFFFFFFFFFF AND SWAP1 POP SWAP1 JUMP JUMPDEST PUSH2 0x12DB PUSH2 0x144C JUMP JUMPDEST POP JUMP JUMPDEST PUSH2 0x130A PUSH32 0x4910FDFA16FED3260ED0E7147F7CC6DA11A60208B5B9406D12A635614FFD9143 PUSH1 0x0 SHL PUSH2 0x1825 JUMP JUMPDEST PUSH1 0x0 ADD PUSH1 0x0 SWAP1 SLOAD SWAP1 PUSH2 0x100 EXP SWAP1 DIV PUSH1 0xFF AND ISZERO PUSH2 0x132E JUMPI PUSH2 0x1329 DUP4 PUSH2 0x182F JUMP JUMPDEST PUSH2 0x1447 JUMP JUMPDEST DUP3 PUSH20 0xFFFFFFFFFFFFFFFFFFFFFFFFFFFFFFFFFFFFFFFF AND PUSH4 0x52D1902D PUSH1 0x40 MLOAD DUP2 PUSH4 0xFFFFFFFF AND PUSH1 0xE0 SHL DUP2 MSTORE PUSH1 0x4 ADD PUSH1 0x20 PUSH1 0x40 MLOAD DUP1 DUP4 SUB DUP2 DUP7 GAS STATICCALL SWAP3 POP POP POP DUP1 ISZERO PUSH2 0x1396 JUMPI POP PUSH1 0x40 MLOAD RETURNDATASIZE PUSH1 0x1F NOT PUSH1 0x1F DUP3 ADD AND DUP3 ADD DUP1 PUSH1 0x40 MSTORE POP DUP2 ADD SWAP1 PUSH2 0x1393 SWAP2 SWAP1 PUSH2 0x2A2E JUMP JUMPDEST PUSH1 0x1 JUMPDEST PUSH2 0x13D5 JUMPI PUSH1 0x40 MLOAD PUSH32 0x8C379A000000000000000000000000000000000000000000000000000000000 DUP2 MSTORE PUSH1 0x4 ADD PUSH2 0x13CC SWAP1 PUSH2 0x2ACD JUMP JUMPDEST PUSH1 0x40 MLOAD DUP1 SWAP2 SUB SWAP1 REVERT JUMPDEST PUSH32 0x360894A13BA1A3210667C828492DB98DCA3E2076CC3735A920A3CA505D382BBC PUSH1 0x0 SHL DUP2 EQ PUSH2 0x143A JUMPI PUSH1 0x40 MLOAD PUSH32 0x8C379A000000000000000000000000000000000000000000000000000000000 DUP2 MSTORE PUSH1 0x4 ADD PUSH2 0x1431 SWAP1 PUSH2 0x2B5F JUMP JUMPDEST PUSH1 0x40 MLOAD DUP1 SWAP2 SUB SWAP1 REVERT JUMPDEST POP PUSH2 0x1446 DUP4 DUP4 DUP4 PUSH2 0x18E8 JUMP JUMPDEST JUMPDEST POP POP POP JUMP JUMPDEST PUSH2 0x1454 PUSH2 0xDA6 JUMP JUMPDEST PUSH20 0xFFFFFFFFFFFFFFFFFFFFFFFFFFFFFFFFFFFFFFFF AND PUSH2 0x1472 PUSH2 0xB46 JUMP JUMPDEST PUSH20 0xFFFFFFFFFFFFFFFFFFFFFFFFFFFFFFFFFFFFFFFF AND EQ PUSH2 0x14C8 JUMPI PUSH1 0x40 MLOAD PUSH32 0x8C379A000000000000000000000000000000000000000000000000000000000 DUP2 MSTORE PUSH1 0x4 ADD PUSH2 0x14BF SWAP1 PUSH2 0x2BCB JUMP JUMPDEST PUSH1 0x40 MLOAD DUP1 SWAP2 SUB SWAP1 REVERT JUMPDEST JUMP JUMPDEST PUSH1 0x0 PUSH1 0x65 PUSH1 0x0 SWAP1 SLOAD SWAP1 PUSH2 0x100 EXP SWAP1 DIV PUSH20 0xFFFFFFFFFFFFFFFFFFFFFFFFFFFFFFFFFFFFFFFF AND SWAP1 POP DUP2 PUSH1 0x65 PUSH1 0x0 PUSH2 0x100 EXP DUP2 SLOAD DUP2 PUSH20 0xFFFFFFFFFFFFFFFFFFFFFFFFFFFFFFFFFFFFFFFF MUL NOT AND SWAP1 DUP4 PUSH20 0xFFFFFFFFFFFFFFFFFFFFFFFFFFFFFFFFFFFFFFFF AND MUL OR SWAP1 SSTORE POP DUP2 PUSH20 0xFFFFFFFFFFFFFFFFFFFFFFFFFFFFFFFFFFFFFFFF AND DUP2 PUSH20 0xFFFFFFFFFFFFFFFFFFFFFFFFFFFFFFFFFFFFFFFF AND PUSH32 0x8BE0079C531659141344CD1FD0A4F28419497F9722A3DAAFE3B4186F6B6457E0 PUSH1 0x40 MLOAD PUSH1 0x40 MLOAD DUP1 SWAP2 SUB SWAP1 LOG3 POP POP JUMP JUMPDEST PUSH1 0x0 DUP1 DUP3 PUSH20 0xFFFFFFFFFFFFFFFFFFFFFFFFFFFFFFFFFFFFFFFF AND EXTCODESIZE GT SWAP1 POP SWAP2 SWAP1 POP JUMP JUMPDEST PUSH1 0x0 PUSH1 0x1 SWAP1 SLOAD SWAP1 PUSH2 0x100 EXP SWAP1 DIV PUSH1 0xFF AND PUSH2 0x1602 JUMPI PUSH1 0x40 MLOAD PUSH32 0x8C379A000000000000000000000000000000000000000000000000000000000 DUP2 MSTORE PUSH1 0x4 ADD PUSH2 0x15F9 SWAP1 PUSH2 0x2C5D JUMP JUMPDEST PUSH1 0x40 MLOAD DUP1 SWAP2 SUB SWAP1 REVERT JUMPDEST PUSH2 0x160C DUP3 DUP3 PUSH2 0x1914 JUMP JUMPDEST POP POP JUMP JUMPDEST PUSH1 0x0 PUSH1 0x1 SWAP1 SLOAD SWAP1 PUSH2 0x100 EXP SWAP1 DIV PUSH1 0xFF AND PUSH2 0x165F JUMPI PUSH1 0x40 MLOAD PUSH32 0x8C379A000000000000000000000000000000000000000000000000000000000 DUP2 MSTORE PUSH1 0x4 ADD PUSH2 0x1656 SWAP1 PUSH2 0x2C5D JUMP JUMPDEST PUSH1 0x40 MLOAD DUP1 SWAP2 SUB SWAP1 REVERT JUMPDEST PUSH2 0x1667 PUSH2 0x1987 JUMP JUMPDEST JUMP JUMPDEST PUSH1 0x0 PUSH1 0x1 SWAP1 SLOAD SWAP1 PUSH2 0x100 EXP SWAP1 DIV PUSH1 0xFF AND PUSH2 0x16B8 JUMPI PUSH1 0x40 MLOAD PUSH32 0x8C379A000000000000000000000000000000000000000000000000000000000 DUP2 MSTORE PUSH1 0x4 ADD PUSH2 0x16AF SWAP1 PUSH2 0x2C5D JUMP JUMPDEST PUSH1 0x40 MLOAD DUP1 SWAP2 SUB SWAP1 REVERT JUMPDEST JUMP JUMPDEST PUSH1 0x0 PUSH20 0xFFFFFFFFFFFFFFFFFFFFFFFFFFFFFFFFFFFFFFFF AND DUP3 PUSH20 0xFFFFFFFFFFFFFFFFFFFFFFFFFFFFFFFFFFFFFFFF AND SUB PUSH2 0x1729 JUMPI PUSH1 0x40 MLOAD PUSH32 0x8C379A000000000000000000000000000000000000000000000000000000000 DUP2 MSTORE PUSH1 0x4 ADD PUSH2 0x1720 SWAP1 PUSH2 0x2CC9 JUMP JUMPDEST PUSH1 0x40 MLOAD DUP1 SWAP2 SUB SWAP1 REVERT JUMPDEST PUSH2 0x1735 PUSH1 0x0 DUP4 DUP4 PUSH2 0x1811 JUMP JUMPDEST DUP1 PUSH1 0x35 PUSH1 0x0 DUP3 DUP3 SLOAD PUSH2 0x1747 SWAP2 SWAP1 PUSH2 0x2220 JUMP JUMPDEST SWAP3 POP POP DUP2 SWAP1 SSTORE POP DUP1 PUSH1 0x33 PUSH1 0x0 DUP5 PUSH20 0xFFFFFFFFFFFFFFFFFFFFFFFFFFFFFFFFFFFFFFFF AND PUSH20 0xFFFFFFFFFFFFFFFFFFFFFFFFFFFFFFFFFFFFFFFF AND DUP2 MSTORE PUSH1 0x20 ADD SWAP1 DUP2 MSTORE PUSH1 0x20 ADD PUSH1 0x0 KECCAK256 PUSH1 0x0 DUP3 DUP3 SLOAD ADD SWAP3 POP POP DUP2 SWAP1 SSTORE POP DUP2 PUSH20 0xFFFFFFFFFFFFFFFFFFFFFFFFFFFFFFFFFFFFFFFF AND PUSH1 0x0 PUSH20 0xFFFFFFFFFFFFFFFFFFFFFFFFFFFFFFFFFFFFFFFF AND PUSH32 0xDDF252AD1BE2C89B69C2B068FC378DAA952BA7F163C4A11628F55A4DF523B3EF DUP4 PUSH1 0x40 MLOAD PUSH2 0x17F9 SWAP2 SWAP1 PUSH2 0x1D6C JUMP JUMPDEST PUSH1 0x40 MLOAD DUP1 SWAP2 SUB SWAP1 LOG3 PUSH2 0x180D PUSH1 0x0 DUP4 DUP4 PUSH2 0x1816 JUMP JUMPDEST POP POP JUMP JUMPDEST POP POP POP JUMP JUMPDEST POP POP POP JUMP JUMPDEST PUSH1 0x0 DUP2 SWAP1 POP SWAP2 SWAP1 POP JUMP JUMPDEST PUSH1 0x0 DUP2 SWAP1 POP SWAP2 SWAP1 POP JUMP JUMPDEST PUSH2 0x1838 DUP2 PUSH2 0x1590 JUMP JUMPDEST PUSH2 0x1877 JUMPI PUSH1 0x40 MLOAD PUSH32 0x8C379A000000000000000000000000000000000000000000000000000000000 DUP2 MSTORE PUSH1 0x4 ADD PUSH2 0x186E SWAP1 PUSH2 0x2D5B JUMP JUMPDEST PUSH1 0x40 MLOAD DUP1 SWAP2 SUB SWAP1 REVERT JUMPDEST DUP1 PUSH2 0x18A4 PUSH32 0x360894A13BA1A3210667C828492DB98DCA3E2076CC3735A920A3CA505D382BBC PUSH1 0x0 SHL PUSH2 0x181B JUMP JUMPDEST PUSH1 0x0 ADD PUSH1 0x0 PUSH2 0x100 EXP DUP2 SLOAD DUP2 PUSH20 0xFFFFFFFFFFFFFFFFFFFFFFFFFFFFFFFFFFFFFFFF MUL NOT AND SWAP1 DUP4 PUSH20 0xFFFFFFFFFFFFFFFFFFFFFFFFFFFFFFFFFFFFFFFF AND MUL OR SWAP1 SSTORE POP POP JUMP JUMPDEST PUSH2 0x18F1 DUP4 PUSH2 0x19E8 JUMP JUMPDEST PUSH1 0x0 DUP3 MLOAD GT DUP1 PUSH2 0x18FE JUMPI POP DUP1 JUMPDEST ISZERO PUSH2 0x190F JUMPI PUSH2 0x190D DUP4 DUP4 PUSH2 0x1A37 JUMP JUMPDEST POP JUMPDEST POP POP POP JUMP JUMPDEST PUSH1 0x0 PUSH1 0x1 SWAP1 SLOAD SWAP1 PUSH2 0x100 EXP SWAP1 DIV PUSH1 0xFF AND PUSH2 0x1963 JUMPI PUSH1 0x40 MLOAD PUSH32 0x8C379A000000000000000000000000000000000000000000000000000000000 DUP2 MSTORE PUSH1 0x4 ADD PUSH2 0x195A SWAP1 PUSH2 0x2C5D JUMP JUMPDEST PUSH1 0x40 MLOAD DUP1 SWAP2 SUB SWAP1 REVERT JUMPDEST DUP2 PUSH1 0x36 SWAP1 DUP2 PUSH2 0x1972 SWAP2 SWAP1 PUSH2 0x2F1D JUMP JUMPDEST POP DUP1 PUSH1 0x37 SWAP1 DUP2 PUSH2 0x1982 SWAP2 SWAP1 PUSH2 0x2F1D JUMP JUMPDEST POP POP POP JUMP JUMPDEST PUSH1 0x0 PUSH1 0x1 SWAP1 SLOAD SWAP1 PUSH2 0x100 EXP SWAP1 DIV PUSH1 0xFF AND PUSH2 0x19D6 JUMPI PUSH1 0x40 MLOAD PUSH32 0x8C379A000000000000000000000000000000000000000000000000000000000 DUP2 MSTORE PUSH1 0x4 ADD PUSH2 0x19CD SWAP1 PUSH2 0x2C5D JUMP JUMPDEST PUSH1 0x40 MLOAD DUP1 SWAP2 SUB SWAP1 REVERT JUMPDEST PUSH2 0x19E6 PUSH2 0x19E1 PUSH2 0xDA6 JUMP JUMPDEST PUSH2 0x14CA JUMP JUMPDEST JUMP JUMPDEST PUSH2 0x19F1 DUP2 PUSH2 0x182F JUMP JUMPDEST DUP1 PUSH20 0xFFFFFFFFFFFFFFFFFFFFFFFFFFFFFFFFFFFFFFFF AND PUSH32 0xBC7CD75A20EE27FD9ADEBAB32041F755214DBC6BFFA90CC0225B39DA2E5C2D3B PUSH1 0x40 MLOAD PUSH1 0x40 MLOAD DUP1 SWAP2 SUB SWAP1 LOG2 POP JUMP JUMPDEST PUSH1 0x60 PUSH2 0x1A42 DUP4 PUSH2 0x1590 JUMP JUMPDEST PUSH2 0x1A81 JUMPI PUSH1 0x40 MLOAD PUSH32 0x8C379A000000000000000000000000000000000000000000000000000000000 DUP2 MSTORE PUSH1 0x4 ADD PUSH2 0x1A78 SWAP1 PUSH2 0x3061 JUMP JUMPDEST PUSH1 0x40 MLOAD DUP1 SWAP2 SUB SWAP1 REVERT JUMPDEST PUSH1 0x0 DUP1 DUP5 PUSH20 0xFFFFFFFFFFFFFFFFFFFFFFFFFFFFFFFFFFFFFFFF AND DUP5 PUSH1 0x40 MLOAD PUSH2 0x1AA9 SWAP2 SWAP1 PUSH2 0x30C8 JUMP JUMPDEST PUSH1 0x0 PUSH1 0x40 MLOAD DUP1 DUP4 SUB DUP2 DUP6 GAS DELEGATECALL SWAP2 POP POP RETURNDATASIZE DUP1 PUSH1 0x0 DUP2 EQ PUSH2 0x1AE4 JUMPI PUSH1 0x40 MLOAD SWAP2 POP PUSH1 0x1F NOT PUSH1 0x3F RETURNDATASIZE ADD AND DUP3 ADD PUSH1 0x40 MSTORE RETURNDATASIZE DUP3 MSTORE RETURNDATASIZE PUSH1 0x0 PUSH1 0x20 DUP5 ADD RETURNDATACOPY PUSH2 0x1AE9 JUMP JUMPDEST PUSH1 0x60 SWAP2 POP JUMPDEST POP SWAP2 POP SWAP2 POP PUSH2 0x1B11 DUP3 DUP3 PUSH1 0x40 MLOAD DUP1 PUSH1 0x60 ADD PUSH1 0x40 MSTORE DUP1 PUSH1 0x27 DUP2 MSTORE PUSH1 0x20 ADD PUSH2 0x30E0 PUSH1 0x27 SWAP2 CODECOPY PUSH2 0x1B1B JUMP JUMPDEST SWAP3 POP POP POP SWAP3 SWAP2 POP POP JUMP JUMPDEST PUSH1 0x60 DUP4 ISZERO PUSH2 0x1B2B JUMPI DUP3 SWAP1 POP PUSH2 0x1B36 JUMP JUMPDEST PUSH2 0x1B35 DUP4 DUP4 PUSH2 0x1B3D JUMP JUMPDEST JUMPDEST SWAP4 SWAP3 POP POP POP JUMP JUMPDEST PUSH1 0x0 DUP3 MLOAD GT ISZERO PUSH2 0x1B50 JUMPI DUP2 MLOAD DUP1 DUP4 PUSH1 0x20 ADD REVERT JUMPDEST DUP1 PUSH1 0x40 MLOAD PUSH32 0x8C379A000000000000000000000000000000000000000000000000000000000 DUP2 MSTORE PUSH1 0x4 ADD PUSH2 0x1B84 SWAP2 SWAP1 PUSH2 0x1C1D JUMP JUMPDEST PUSH1 0x40 MLOAD DUP1 SWAP2 SUB SWAP1 REVERT JUMPDEST PUSH1 0x0 DUP2 MLOAD SWAP1 POP SWAP2 SWAP1 POP JUMP JUMPDEST PUSH1 0x0 DUP3 DUP3 MSTORE PUSH1 0x20 DUP3 ADD SWAP1 POP SWAP3 SWAP2 POP POP JUMP JUMPDEST PUSH1 0x0 JUMPDEST DUP4 DUP2 LT ISZERO PUSH2 0x1BC7 JUMPI DUP1 DUP3 ADD MLOAD DUP2 DUP5 ADD MSTORE PUSH1 0x20 DUP2 ADD SWAP1 POP PUSH2 0x1BAC JUMP JUMPDEST PUSH1 0x0 DUP5 DUP5 ADD MSTORE POP POP POP POP JUMP JUMPDEST PUSH1 0x0 PUSH1 0x1F NOT PUSH1 0x1F DUP4 ADD AND SWAP1 POP SWAP2 SWAP1 POP JUMP JUMPDEST PUSH1 0x0 PUSH2 0x1BEF DUP3 PUSH2 0x1B8D JUMP JUMPDEST PUSH2 0x1BF9 DUP2 DUP6 PUSH2 0x1B98 JUMP JUMPDEST SWAP4 POP PUSH2 0x1C09 DUP2 DUP6 PUSH1 0x20 DUP7 ADD PUSH2 0x1BA9 JUMP JUMPDEST PUSH2 0x1C12 DUP2 PUSH2 0x1BD3 JUMP JUMPDEST DUP5 ADD SWAP2 POP POP SWAP3 SWAP2 POP POP JUMP JUMPDEST PUSH1 0x0 PUSH1 0x20 DUP3 ADD SWAP1 POP DUP2 DUP2 SUB PUSH1 0x0 DUP4 ADD MSTORE PUSH2 0x1C37 DUP2 DUP5 PUSH2 0x1BE4 JUMP JUMPDEST SWAP1 POP SWAP3 SWAP2 POP POP JUMP JUMPDEST PUSH1 0x0 PUSH1 0x40 MLOAD SWAP1 POP SWAP1 JUMP JUMPDEST PUSH1 0x0 DUP1 REVERT JUMPDEST PUSH1 0x0 DUP1 REVERT JUMPDEST PUSH1 0x0 PUSH20 0xFFFFFFFFFFFFFFFFFFFFFFFFFFFFFFFFFFFFFFFF DUP3 AND SWAP1 POP SWAP2 SWAP1 POP JUMP JUMPDEST PUSH1 0x0 PUSH2 0x1C7E DUP3 PUSH2 0x1C53 JUMP JUMPDEST SWAP1 POP SWAP2 SWAP1 POP JUMP JUMPDEST PUSH2 0x1C8E DUP2 PUSH2 0x1C73 JUMP JUMPDEST DUP2 EQ PUSH2 0x1C99 JUMPI PUSH1 0x0 DUP1 REVERT JUMPDEST POP JUMP JUMPDEST PUSH1 0x0 DUP2 CALLDATALOAD SWAP1 POP PUSH2 0x1CAB DUP2 PUSH2 0x1C85 JUMP JUMPDEST SWAP3 SWAP2 POP POP JUMP JUMPDEST PUSH1 0x0 DUP2 SWAP1 POP SWAP2 SWAP1 POP JUMP JUMPDEST PUSH2 0x1CC4 DUP2 PUSH2 0x1CB1 JUMP JUMPDEST DUP2 EQ PUSH2 0x1CCF JUMPI PUSH1 0x0 DUP1 REVERT JUMPDEST POP JUMP JUMPDEST PUSH1 0x0 DUP2 CALLDATALOAD SWAP1 POP PUSH2 0x1CE1 DUP2 PUSH2 0x1CBB JUMP JUMPDEST SWAP3 SWAP2 POP POP JUMP JUMPDEST PUSH1 0x0 DUP1 PUSH1 0x40 DUP4 DUP6 SUB SLT ISZERO PUSH2 0x1CFE JUMPI PUSH2 0x1CFD PUSH2 0x1C49 JUMP JUMPDEST JUMPDEST PUSH1 0x0 PUSH2 0x1D0C DUP6 DUP3 DUP7 ADD PUSH2 0x1C9C JUMP JUMPDEST SWAP3 POP POP PUSH1 0x20 PUSH2 0x1D1D DUP6 DUP3 DUP7 ADD PUSH2 0x1CD2 JUMP JUMPDEST SWAP2 POP POP SWAP3 POP SWAP3 SWAP1 POP JUMP JUMPDEST PUSH1 0x0 DUP2 ISZERO ISZERO SWAP1 POP SWAP2 SWAP1 POP JUMP JUMPDEST PUSH2 0x1D3C DUP2 PUSH2 0x1D27 JUMP JUMPDEST DUP3 MSTORE POP POP JUMP JUMPDEST PUSH1 0x0 PUSH1 0x20 DUP3 ADD SWAP1 POP PUSH2 0x1D57 PUSH1 0x0 DUP4 ADD DUP5 PUSH2 0x1D33 JUMP JUMPDEST SWAP3 SWAP2 POP POP JUMP JUMPDEST PUSH2 0x1D66 DUP2 PUSH2 0x1CB1 JUMP JUMPDEST DUP3 MSTORE POP POP JUMP JUMPDEST PUSH1 0x0 PUSH1 0x20 DUP3 ADD SWAP1 POP PUSH2 0x1D81 PUSH1 0x0 DUP4 ADD DUP5 PUSH2 0x1D5D JUMP JUMPDEST SWAP3 SWAP2 POP POP JUMP JUMPDEST PUSH1 0x0 DUP1 PUSH1 0x0 PUSH1 0x60 DUP5 DUP7 SUB SLT ISZERO PUSH2 0x1DA0 JUMPI PUSH2 0x1D9F PUSH2 0x1C49 JUMP JUMPDEST JUMPDEST PUSH1 0x0 PUSH2 0x1DAE DUP7 DUP3 DUP8 ADD PUSH2 0x1C9C JUMP JUMPDEST SWAP4 POP POP PUSH1 0x20 PUSH2 0x1DBF DUP7 DUP3 DUP8 ADD PUSH2 0x1C9C JUMP JUMPDEST SWAP3 POP POP PUSH1 0x40 PUSH2 0x1DD0 DUP7 DUP3 DUP8 ADD PUSH2 0x1CD2 JUMP JUMPDEST SWAP2 POP POP SWAP3 POP SWAP3 POP SWAP3 JUMP JUMPDEST PUSH1 0x0 PUSH1 0xFF DUP3 AND SWAP1 POP SWAP2 SWAP1 POP JUMP JUMPDEST PUSH2 0x1DF0 DUP2 PUSH2 0x1DDA JUMP JUMPDEST DUP3 MSTORE POP POP JUMP JUMPDEST PUSH1 0x0 PUSH1 0x20 DUP3 ADD SWAP1 POP PUSH2 0x1E0B PUSH1 0x0 DUP4 ADD DUP5 PUSH2 0x1DE7 JUMP JUMPDEST SWAP3 SWAP2 POP POP JUMP JUMPDEST PUSH1 0x0 PUSH1 0x20 DUP3 DUP5 SUB SLT ISZERO PUSH2 0x1E27 JUMPI PUSH2 0x1E26 PUSH2 0x1C49 JUMP JUMPDEST JUMPDEST PUSH1 0x0 PUSH2 0x1E35 DUP5 DUP3 DUP6 ADD PUSH2 0x1C9C JUMP JUMPDEST SWAP2 POP POP SWAP3 SWAP2 POP POP JUMP JUMPDEST PUSH1 0x0 DUP1 REVERT JUMPDEST PUSH1 0x0 DUP1 REVERT JUMPDEST PUSH32 0x4E487B7100000000000000000000000000000000000000000000000000000000 PUSH1 0x0 MSTORE PUSH1 0x41 PUSH1 0x4 MSTORE PUSH1 0x24 PUSH1 0x0 REVERT JUMPDEST PUSH2 0x1E80 DUP3 PUSH2 0x1BD3 JUMP JUMPDEST DUP2 ADD DUP2 DUP2 LT PUSH8 0xFFFFFFFFFFFFFFFF DUP3 GT OR ISZERO PUSH2 0x1E9F JUMPI PUSH2 0x1E9E PUSH2 0x1E48 JUMP JUMPDEST JUMPDEST DUP1 PUSH1 0x40 MSTORE POP POP POP JUMP JUMPDEST PUSH1 0x0 PUSH2 0x1EB2 PUSH2 0x1C3F JUMP JUMPDEST SWAP1 POP PUSH2 0x1EBE DUP3 DUP3 PUSH2 0x1E77 JUMP JUMPDEST SWAP2 SWAP1 POP JUMP JUMPDEST PUSH1 0x0 PUSH8 0xFFFFFFFFFFFFFFFF DUP3 GT ISZERO PUSH2 0x1EDE JUMPI PUSH2 0x1EDD PUSH2 0x1E48 JUMP JUMPDEST JUMPDEST PUSH2 0x1EE7 DUP3 PUSH2 0x1BD3 JUMP JUMPDEST SWAP1 POP PUSH1 0x20 DUP2 ADD SWAP1 POP SWAP2 SWAP1 POP JUMP JUMPDEST DUP3 DUP2 DUP4 CALLDATACOPY PUSH1 0x0 DUP4 DUP4 ADD MSTORE POP POP POP JUMP JUMPDEST PUSH1 0x0 PUSH2 0x1F16 PUSH2 0x1F11 DUP5 PUSH2 0x1EC3 JUMP JUMPDEST PUSH2 0x1EA8 JUMP JUMPDEST SWAP1 POP DUP3 DUP2 MSTORE PUSH1 0x20 DUP2 ADD DUP5 DUP5 DUP5 ADD GT ISZERO PUSH2 0x1F32 JUMPI PUSH2 0x1F31 PUSH2 0x1E43 JUMP JUMPDEST JUMPDEST PUSH2 0x1F3D DUP5 DUP3 DUP6 PUSH2 0x1EF4 JUMP JUMPDEST POP SWAP4 SWAP3 POP POP POP JUMP JUMPDEST PUSH1 0x0 DUP3 PUSH1 0x1F DUP4 ADD SLT PUSH2 0x1F5A JUMPI PUSH2 0x1F59 PUSH2 0x1E3E JUMP JUMPDEST JUMPDEST DUP2 CALLDATALOAD PUSH2 0x1F6A DUP5 DUP3 PUSH1 0x20 DUP7 ADD PUSH2 0x1F03 JUMP JUMPDEST SWAP2 POP POP SWAP3 SWAP2 POP POP JUMP JUMPDEST PUSH1 0x0 DUP1 PUSH1 0x40 DUP4 DUP6 SUB SLT ISZERO PUSH2 0x1F8A JUMPI PUSH2 0x1F89 PUSH2 0x1C49 JUMP JUMPDEST JUMPDEST PUSH1 0x0 PUSH2 0x1F98 DUP6 DUP3 DUP7 ADD PUSH2 0x1C9C JUMP JUMPDEST SWAP3 POP POP PUSH1 0x20 DUP4 ADD CALLDATALOAD PUSH8 0xFFFFFFFFFFFFFFFF DUP2 GT ISZERO PUSH2 0x1FB9 JUMPI PUSH2 0x1FB8 PUSH2 0x1C4E JUMP JUMPDEST JUMPDEST PUSH2 0x1FC5 DUP6 DUP3 DUP7 ADD PUSH2 0x1F45 JUMP JUMPDEST SWAP2 POP POP SWAP3 POP SWAP3 SWAP1 POP JUMP JUMPDEST PUSH1 0x0 DUP2 SWAP1 POP SWAP2 SWAP1 POP JUMP JUMPDEST PUSH2 0x1FE2 DUP2 PUSH2 0x1FCF JUMP JUMPDEST DUP3 MSTORE POP POP JUMP JUMPDEST PUSH1 0x0 PUSH1 0x20 DUP3 ADD SWAP1 POP PUSH2 0x1FFD PUSH1 0x0 DUP4 ADD DUP5 PUSH2 0x1FD9 JUMP JUMPDEST SWAP3 SWAP2 POP POP JUMP JUMPDEST PUSH2 0x200C DUP2 PUSH2 0x1C73 JUMP JUMPDEST DUP3 MSTORE POP POP JUMP JUMPDEST PUSH1 0x0 PUSH1 0x20 DUP3 ADD SWAP1 POP PUSH2 0x2027 PUSH1 0x0 DUP4 ADD DUP5 PUSH2 0x2003 JUMP JUMPDEST SWAP3 SWAP2 POP POP JUMP JUMPDEST PUSH1 0x0 DUP1 PUSH1 0x40 DUP4 DUP6 SUB SLT ISZERO PUSH2 0x2044 JUMPI PUSH2 0x2043 PUSH2 0x1C49 JUMP JUMPDEST JUMPDEST PUSH1 0x0 PUSH2 0x2052 DUP6 DUP3 DUP7 ADD PUSH2 0x1C9C JUMP JUMPDEST SWAP3 POP POP PUSH1 0x20 PUSH2 0x2063 DUP6 DUP3 DUP7 ADD PUSH2 0x1C9C JUMP JUMPDEST SWAP2 POP POP SWAP3 POP SWAP3 SWAP1 POP JUMP JUMPDEST PUSH32 0x4E487B7100000000000000000000000000000000000000000000000000000000 PUSH1 0x0 MSTORE PUSH1 0x22 PUSH1 0x4 MSTORE PUSH1 0x24 PUSH1 0x0 REVERT JUMPDEST PUSH1 0x0 PUSH1 0x2 DUP3 DIV SWAP1 POP PUSH1 0x1 DUP3 AND DUP1 PUSH2 0x20B4 JUMPI PUSH1 0x7F DUP3 AND SWAP2 POP JUMPDEST PUSH1 0x20 DUP3 LT DUP2 SUB PUSH2 0x20C7 JUMPI PUSH2 0x20C6 PUSH2 0x206D JUMP JUMPDEST JUMPDEST POP SWAP2 SWAP1 POP JUMP JUMPDEST PUSH32 0x46756E6374696F6E206D7573742062652063616C6C6564207468726F75676820 PUSH1 0x0 DUP3 ADD MSTORE PUSH32 0x64656C656761746563616C6C0000000000000000000000000000000000000000 PUSH1 0x20 DUP3 ADD MSTORE POP JUMP JUMPDEST PUSH1 0x0 PUSH2 0x2129 PUSH1 0x2C DUP4 PUSH2 0x1B98 JUMP JUMPDEST SWAP2 POP PUSH2 0x2134 DUP3 PUSH2 0x20CD JUMP JUMPDEST PUSH1 0x40 DUP3 ADD SWAP1 POP SWAP2 SWAP1 POP JUMP JUMPDEST PUSH1 0x0 PUSH1 0x20 DUP3 ADD SWAP1 POP DUP2 DUP2 SUB PUSH1 0x0 DUP4 ADD MSTORE PUSH2 0x2158 DUP2 PUSH2 0x211C JUMP JUMPDEST SWAP1 POP SWAP2 SWAP1 POP JUMP JUMPDEST PUSH32 0x46756E6374696F6E206D7573742062652063616C6C6564207468726F75676820 PUSH1 0x0 DUP3 ADD MSTORE PUSH32 0x6163746976652070726F78790000000000000000000000000000000000000000 PUSH1 0x20 DUP3 ADD MSTORE POP JUMP JUMPDEST PUSH1 0x0 PUSH2 0x21BB PUSH1 0x2C DUP4 PUSH2 0x1B98 JUMP JUMPDEST SWAP2 POP PUSH2 0x21C6 DUP3 PUSH2 0x215F JUMP JUMPDEST PUSH1 0x40 DUP3 ADD SWAP1 POP SWAP2 SWAP1 POP JUMP JUMPDEST PUSH1 0x0 PUSH1 0x20 DUP3 ADD SWAP1 POP DUP2 DUP2 SUB PUSH1 0x0 DUP4 ADD MSTORE PUSH2 0x21EA DUP2 PUSH2 0x21AE JUMP JUMPDEST SWAP1 POP SWAP2 SWAP1 POP JUMP JUMPDEST PUSH32 0x4E487B7100000000000000000000000000000000000000000000000000000000 PUSH1 0x0 MSTORE PUSH1 0x11 PUSH1 0x4 MSTORE PUSH1 0x24 PUSH1 0x0 REVERT JUMPDEST PUSH1 0x0 PUSH2 0x222B DUP3 PUSH2 0x1CB1 JUMP JUMPDEST SWAP2 POP PUSH2 0x2236 DUP4 PUSH2 0x1CB1 JUMP JUMPDEST SWAP3 POP DUP3 DUP3 ADD SWAP1 POP DUP1 DUP3 GT ISZERO PUSH2 0x224E JUMPI PUSH2 0x224D PUSH2 0x21F1 JUMP JUMPDEST JUMPDEST SWAP3 SWAP2 POP POP JUMP JUMPDEST PUSH32 0x555550535570677261646561626C653A206D757374206E6F742062652063616C PUSH1 0x0 DUP3 ADD MSTORE PUSH32 0x6C6564207468726F7567682064656C656761746563616C6C0000000000000000 PUSH1 0x20 DUP3 ADD MSTORE POP JUMP JUMPDEST PUSH1 0x0 PUSH2 0x22B0 PUSH1 0x38 DUP4 PUSH2 0x1B98 JUMP JUMPDEST SWAP2 POP PUSH2 0x22BB DUP3 PUSH2 0x2254 JUMP JUMPDEST PUSH1 0x40 DUP3 ADD SWAP1 POP SWAP2 SWAP1 POP JUMP JUMPDEST PUSH1 0x0 PUSH1 0x20 DUP3 ADD SWAP1 POP DUP2 DUP2 SUB PUSH1 0x0 DUP4 ADD MSTORE PUSH2 0x22DF DUP2 PUSH2 0x22A3 JUMP JUMPDEST SWAP1 POP SWAP2 SWAP1 POP JUMP JUMPDEST PUSH32 0x496E697469616C697A61626C653A20636F6E747261637420697320616C726561 PUSH1 0x0 DUP3 ADD MSTORE PUSH32 0x647920696E697469616C697A6564000000000000000000000000000000000000 PUSH1 0x20 DUP3 ADD MSTORE POP JUMP JUMPDEST PUSH1 0x0 PUSH2 0x2342 PUSH1 0x2E DUP4 PUSH2 0x1B98 JUMP JUMPDEST SWAP2 POP PUSH2 0x234D DUP3 PUSH2 0x22E6 JUMP JUMPDEST PUSH1 0x40 DUP3 ADD SWAP1 POP SWAP2 SWAP1 POP JUMP JUMPDEST PUSH1 0x0 PUSH1 0x20 DUP3 ADD SWAP1 POP DUP2 DUP2 SUB PUSH1 0x0 DUP4 ADD MSTORE PUSH2 0x2371 DUP2 PUSH2 0x2335 JUMP JUMPDEST SWAP1 POP SWAP2 SWAP1 POP JUMP JUMPDEST PUSH1 0x0 DUP2 PUSH1 0x1 SHR SWAP1 POP SWAP2 SWAP1 POP JUMP JUMPDEST PUSH1 0x0 DUP1 DUP3 SWAP2 POP DUP4 SWAP1 POP JUMPDEST PUSH1 0x1 DUP6 GT ISZERO PUSH2 0x23CF JUMPI DUP1 DUP7 DIV DUP2 GT ISZERO PUSH2 0x23AB JUMPI PUSH2 0x23AA PUSH2 0x21F1 JUMP JUMPDEST JUMPDEST PUSH1 0x1 DUP6 AND ISZERO PUSH2 0x23BA JUMPI DUP1 DUP3 MUL SWAP2 POP JUMPDEST DUP1 DUP2 MUL SWAP1 POP PUSH2 0x23C8 DUP6 PUSH2 0x2378 JUMP JUMPDEST SWAP5 POP PUSH2 0x238F JUMP JUMPDEST SWAP5 POP SWAP5 SWAP3 POP POP POP JUMP JUMPDEST PUSH1 0x0 DUP3 PUSH2 0x23E8 JUMPI PUSH1 0x1 SWAP1 POP PUSH2 0x24A4 JUMP JUMPDEST DUP2 PUSH2 0x23F6 JUMPI PUSH1 0x0 SWAP1 POP PUSH2 0x24A4 JUMP JUMPDEST DUP2 PUSH1 0x1 DUP2 EQ PUSH2 0x240C JUMPI PUSH1 0x2 DUP2 EQ PUSH2 0x2416 JUMPI PUSH2 0x2445 JUMP JUMPDEST PUSH1 0x1 SWAP2 POP POP PUSH2 0x24A4 JUMP JUMPDEST PUSH1 0xFF DUP5 GT ISZERO PUSH2 0x2428 JUMPI PUSH2 0x2427 PUSH2 0x21F1 JUMP JUMPDEST JUMPDEST DUP4 PUSH1 0x2 EXP SWAP2 POP DUP5 DUP3 GT ISZERO PUSH2 0x243F JUMPI PUSH2 0x243E PUSH2 0x21F1 JUMP JUMPDEST JUMPDEST POP PUSH2 0x24A4 JUMP JUMPDEST POP PUSH1 0x20 DUP4 LT PUSH2 0x133 DUP4 LT AND PUSH1 0x4E DUP5 LT PUSH1 0xB DUP5 LT AND OR ISZERO PUSH2 0x247A JUMPI DUP3 DUP3 EXP SWAP1 POP DUP4 DUP2 GT ISZERO PUSH2 0x2475 JUMPI PUSH2 0x2474 PUSH2 0x21F1 JUMP JUMPDEST JUMPDEST PUSH2 0x24A4 JUMP JUMPDEST PUSH2 0x2487 DUP5 DUP5 DUP5 PUSH1 0x1 PUSH2 0x2385 JUMP JUMPDEST SWAP3 POP SWAP1 POP DUP2 DUP5 DIV DUP2 GT ISZERO PUSH2 0x249E JUMPI PUSH2 0x249D PUSH2 0x21F1 JUMP JUMPDEST JUMPDEST DUP2 DUP2 MUL SWAP1 POP JUMPDEST SWAP4 SWAP3 POP POP POP JUMP JUMPDEST PUSH1 0x0 PUSH2 0x24B6 DUP3 PUSH2 0x1CB1 JUMP JUMPDEST SWAP2 POP PUSH2 0x24C1 DUP4 PUSH2 0x1DDA JUMP JUMPDEST SWAP3 POP PUSH2 0x24EE PUSH32 0xFFFFFFFFFFFFFFFFFFFFFFFFFFFFFFFFFFFFFFFFFFFFFFFFFFFFFFFFFFFFFFFF DUP5 DUP5 PUSH2 0x23D8 JUMP JUMPDEST SWAP1 POP SWAP3 SWAP2 POP POP JUMP JUMPDEST PUSH1 0x0 PUSH2 0x2501 DUP3 PUSH2 0x1CB1 JUMP JUMPDEST SWAP2 POP PUSH2 0x250C DUP4 PUSH2 0x1CB1 JUMP JUMPDEST SWAP3 POP DUP3 DUP3 MUL PUSH2 0x251A DUP2 PUSH2 0x1CB1 JUMP JUMPDEST SWAP2 POP DUP3 DUP3 DIV DUP5 EQ DUP4 ISZERO OR PUSH2 0x2531 JUMPI PUSH2 0x2530 PUSH2 0x21F1 JUMP JUMPDEST JUMPDEST POP SWAP3 SWAP2 POP POP JUMP JUMPDEST PUSH1 0x0 DUP2 SWAP1 POP SWAP2 SWAP1 POP JUMP JUMPDEST PUSH1 0x0 DUP2 SWAP1 POP SWAP2 SWAP1 POP JUMP JUMPDEST PUSH1 0x0 PUSH2 0x2567 PUSH2 0x2562 PUSH2 0x255D DUP5 PUSH2 0x2538 JUMP JUMPDEST PUSH2 0x2542 JUMP JUMPDEST PUSH2 0x1DDA JUMP JUMPDEST SWAP1 POP SWAP2 SWAP1 POP JUMP JUMPDEST PUSH2 0x2577 DUP2 PUSH2 0x254C JUMP JUMPDEST DUP3 MSTORE POP POP JUMP JUMPDEST PUSH1 0x0 PUSH1 0x20 DUP3 ADD SWAP1 POP PUSH2 0x2592 PUSH1 0x0 DUP4 ADD DUP5 PUSH2 0x256E JUMP JUMPDEST SWAP3 SWAP2 POP POP JUMP JUMPDEST PUSH32 0x45524332303A2064656372656173656420616C6C6F77616E63652062656C6F77 PUSH1 0x0 DUP3 ADD MSTORE PUSH32 0x207A65726F000000000000000000000000000000000000000000000000000000 PUSH1 0x20 DUP3 ADD MSTORE POP JUMP JUMPDEST PUSH1 0x0 PUSH2 0x25F4 PUSH1 0x25 DUP4 PUSH2 0x1B98 JUMP JUMPDEST SWAP2 POP PUSH2 0x25FF DUP3 PUSH2 0x2598 JUMP JUMPDEST PUSH1 0x40 DUP3 ADD SWAP1 POP SWAP2 SWAP1 POP JUMP JUMPDEST PUSH1 0x0 PUSH1 0x20 DUP3 ADD SWAP1 POP DUP2 DUP2 SUB PUSH1 0x0 DUP4 ADD MSTORE PUSH2 0x2623 DUP2 PUSH2 0x25E7 JUMP JUMPDEST SWAP1 POP SWAP2 SWAP1 POP JUMP JUMPDEST PUSH32 0x4F776E61626C653A206E6577206F776E657220697320746865207A65726F2061 PUSH1 0x0 DUP3 ADD MSTORE PUSH32 0x6464726573730000000000000000000000000000000000000000000000000000 PUSH1 0x20 DUP3 ADD MSTORE POP JUMP JUMPDEST PUSH1 0x0 PUSH2 0x2686 PUSH1 0x26 DUP4 PUSH2 0x1B98 JUMP JUMPDEST SWAP2 POP PUSH2 0x2691 DUP3 PUSH2 0x262A JUMP JUMPDEST PUSH1 0x40 DUP3 ADD SWAP1 POP SWAP2 SWAP1 POP JUMP JUMPDEST PUSH1 0x0 PUSH1 0x20 DUP3 ADD SWAP1 POP DUP2 DUP2 SUB PUSH1 0x0 DUP4 ADD MSTORE PUSH2 0x26B5 DUP2 PUSH2 0x2679 JUMP JUMPDEST SWAP1 POP SWAP2 SWAP1 POP JUMP JUMPDEST PUSH32 0x45524332303A20617070726F76652066726F6D20746865207A65726F20616464 PUSH1 0x0 DUP3 ADD MSTORE PUSH32 0x7265737300000000000000000000000000000000000000000000000000000000 PUSH1 0x20 DUP3 ADD MSTORE POP JUMP JUMPDEST PUSH1 0x0 PUSH2 0x2718 PUSH1 0x24 DUP4 PUSH2 0x1B98 JUMP JUMPDEST SWAP2 POP PUSH2 0x2723 DUP3 PUSH2 0x26BC JUMP JUMPDEST PUSH1 0x40 DUP3 ADD SWAP1 POP SWAP2 SWAP1 POP JUMP JUMPDEST PUSH1 0x0 PUSH1 0x20 DUP3 ADD SWAP1 POP DUP2 DUP2 SUB PUSH1 0x0 DUP4 ADD MSTORE PUSH2 0x2747 DUP2 PUSH2 0x270B JUMP JUMPDEST SWAP1 POP SWAP2 SWAP1 POP JUMP JUMPDEST PUSH32 0x45524332303A20617070726F766520746F20746865207A65726F206164647265 PUSH1 0x0 DUP3 ADD MSTORE PUSH32 0x7373000000000000000000000000000000000000000000000000000000000000 PUSH1 0x20 DUP3 ADD MSTORE POP JUMP JUMPDEST PUSH1 0x0 PUSH2 0x27AA PUSH1 0x22 DUP4 PUSH2 0x1B98 JUMP JUMPDEST SWAP2 POP PUSH2 0x27B5 DUP3 PUSH2 0x274E JUMP JUMPDEST PUSH1 0x40 DUP3 ADD SWAP1 POP SWAP2 SWAP1 POP JUMP JUMPDEST PUSH1 0x0 PUSH1 0x20 DUP3 ADD SWAP1 POP DUP2 DUP2 SUB PUSH1 0x0 DUP4 ADD MSTORE PUSH2 0x27D9 DUP2 PUSH2 0x279D JUMP JUMPDEST SWAP1 POP SWAP2 SWAP1 POP JUMP JUMPDEST PUSH32 0x45524332303A20696E73756666696369656E7420616C6C6F77616E6365000000 PUSH1 0x0 DUP3 ADD MSTORE POP JUMP JUMPDEST PUSH1 0x0 PUSH2 0x2816 PUSH1 0x1D DUP4 PUSH2 0x1B98 JUMP JUMPDEST SWAP2 POP PUSH2 0x2821 DUP3 PUSH2 0x27E0 JUMP JUMPDEST PUSH1 0x20 DUP3 ADD SWAP1 POP SWAP2 SWAP1 POP JUMP JUMPDEST PUSH1 0x0 PUSH1 0x20 DUP3 ADD SWAP1 POP DUP2 DUP2 SUB PUSH1 0x0 DUP4 ADD MSTORE PUSH2 0x2845 DUP2 PUSH2 0x2809 JUMP JUMPDEST SWAP1 POP SWAP2 SWAP1 POP JUMP JUMPDEST PUSH32 0x45524332303A207472616E736665722066726F6D20746865207A65726F206164 PUSH1 0x0 DUP3 ADD MSTORE PUSH32 0x6472657373000000000000000000000000000000000000000000000000000000 PUSH1 0x20 DUP3 ADD MSTORE POP JUMP JUMPDEST PUSH1 0x0 PUSH2 0x28A8 PUSH1 0x25 DUP4 PUSH2 0x1B98 JUMP JUMPDEST SWAP2 POP PUSH2 0x28B3 DUP3 PUSH2 0x284C JUMP JUMPDEST PUSH1 0x40 DUP3 ADD SWAP1 POP SWAP2 SWAP1 POP JUMP JUMPDEST PUSH1 0x0 PUSH1 0x20 DUP3 ADD SWAP1 POP DUP2 DUP2 SUB PUSH1 0x0 DUP4 ADD MSTORE PUSH2 0x28D7 DUP2 PUSH2 0x289B JUMP JUMPDEST SWAP1 POP SWAP2 SWAP1 POP JUMP JUMPDEST PUSH32 0x45524332303A207472616E7366657220746F20746865207A65726F2061646472 PUSH1 0x0 DUP3 ADD MSTORE PUSH32 0x6573730000000000000000000000000000000000000000000000000000000000 PUSH1 0x20 DUP3 ADD MSTORE POP JUMP JUMPDEST PUSH1 0x0 PUSH2 0x293A PUSH1 0x23 DUP4 PUSH2 0x1B98 JUMP JUMPDEST SWAP2 POP PUSH2 0x2945 DUP3 PUSH2 0x28DE JUMP JUMPDEST PUSH1 0x40 DUP3 ADD SWAP1 POP SWAP2 SWAP1 POP JUMP JUMPDEST PUSH1 0x0 PUSH1 0x20 DUP3 ADD SWAP1 POP DUP2 DUP2 SUB PUSH1 0x0 DUP4 ADD MSTORE PUSH2 0x2969 DUP2 PUSH2 0x292D JUMP JUMPDEST SWAP1 POP SWAP2 SWAP1 POP JUMP JUMPDEST PUSH32 0x45524332303A207472616E7366657220616D6F756E7420657863656564732062 PUSH1 0x0 DUP3 ADD MSTORE PUSH32 0x616C616E63650000000000000000000000000000000000000000000000000000 PUSH1 0x20 DUP3 ADD MSTORE POP JUMP JUMPDEST PUSH1 0x0 PUSH2 0x29CC PUSH1 0x26 DUP4 PUSH2 0x1B98 JUMP JUMPDEST SWAP2 POP PUSH2 0x29D7 DUP3 PUSH2 0x2970 JUMP JUMPDEST PUSH1 0x40 DUP3 ADD SWAP1 POP SWAP2 SWAP1 POP JUMP JUMPDEST PUSH1 0x0 PUSH1 0x20 DUP3 ADD SWAP1 POP DUP2 DUP2 SUB PUSH1 0x0 DUP4 ADD MSTORE PUSH2 0x29FB DUP2 PUSH2 0x29BF JUMP JUMPDEST SWAP1 POP SWAP2 SWAP1 POP JUMP JUMPDEST PUSH2 0x2A0B DUP2 PUSH2 0x1FCF JUMP JUMPDEST DUP2 EQ PUSH2 0x2A16 JUMPI PUSH1 0x0 DUP1 REVERT JUMPDEST POP JUMP JUMPDEST PUSH1 0x0 DUP2 MLOAD SWAP1 POP PUSH2 0x2A28 DUP2 PUSH2 0x2A02 JUMP JUMPDEST SWAP3 SWAP2 POP POP JUMP JUMPDEST PUSH1 0x0 PUSH1 0x20 DUP3 DUP5 SUB SLT ISZERO PUSH2 0x2A44 JUMPI PUSH2 0x2A43 PUSH2 0x1C49 JUMP JUMPDEST JUMPDEST PUSH1 0x0 PUSH2 0x2A52 DUP5 DUP3 DUP6 ADD PUSH2 0x2A19 JUMP JUMPDEST SWAP2 POP POP SWAP3 SWAP2 POP POP JUMP JUMPDEST PUSH32 0x45524331393637557067726164653A206E657720696D706C656D656E74617469 PUSH1 0x0 DUP3 ADD MSTORE PUSH32 0x6F6E206973206E6F742055555053000000000000000000000000000000000000 PUSH1 0x20 DUP3 ADD MSTORE POP JUMP JUMPDEST PUSH1 0x0 PUSH2 0x2AB7 PUSH1 0x2E DUP4 PUSH2 0x1B98 JUMP JUMPDEST SWAP2 POP PUSH2 0x2AC2 DUP3 PUSH2 0x2A5B JUMP JUMPDEST PUSH1 0x40 DUP3 ADD SWAP1 POP SWAP2 SWAP1 POP JUMP JUMPDEST PUSH1 0x0 PUSH1 0x20 DUP3 ADD SWAP1 POP DUP2 DUP2 SUB PUSH1 0x0 DUP4 ADD MSTORE PUSH2 0x2AE6 DUP2 PUSH2 0x2AAA JUMP JUMPDEST SWAP1 POP SWAP2 SWAP1 POP JUMP JUMPDEST PUSH32 0x45524331393637557067726164653A20756E737570706F727465642070726F78 PUSH1 0x0 DUP3 ADD MSTORE PUSH32 0x6961626C65555549440000000000000000000000000000000000000000000000 PUSH1 0x20 DUP3 ADD MSTORE POP JUMP JUMPDEST PUSH1 0x0 PUSH2 0x2B49 PUSH1 0x29 DUP4 PUSH2 0x1B98 JUMP JUMPDEST SWAP2 POP PUSH2 0x2B54 DUP3 PUSH2 0x2AED JUMP JUMPDEST PUSH1 0x40 DUP3 ADD SWAP1 POP SWAP2 SWAP1 POP JUMP JUMPDEST PUSH1 0x0 PUSH1 0x20 DUP3 ADD SWAP1 POP DUP2 DUP2 SUB PUSH1 0x0 DUP4 ADD MSTORE PUSH2 0x2B78 DUP2 PUSH2 0x2B3C JUMP JUMPDEST SWAP1 POP SWAP2 SWAP1 POP JUMP JUMPDEST PUSH32 0x4F776E61626C653A2063616C6C6572206973206E6F7420746865206F776E6572 PUSH1 0x0 DUP3 ADD MSTORE POP JUMP JUMPDEST PUSH1 0x0 PUSH2 0x2BB5 PUSH1 0x20 DUP4 PUSH2 0x1B98 JUMP JUMPDEST SWAP2 POP PUSH2 0x2BC0 DUP3 PUSH2 0x2B7F JUMP JUMPDEST PUSH1 0x20 DUP3 ADD SWAP1 POP SWAP2 SWAP1 POP JUMP JUMPDEST PUSH1 0x0 PUSH1 0x20 DUP3 ADD SWAP1 POP DUP2 DUP2 SUB PUSH1 0x0 DUP4 ADD MSTORE PUSH2 0x2BE4 DUP2 PUSH2 0x2BA8 JUMP JUMPDEST SWAP1 POP SWAP2 SWAP1 POP JUMP JUMPDEST PUSH32 0x496E697469616C697A61626C653A20636F6E7472616374206973206E6F742069 PUSH1 0x0 DUP3 ADD MSTORE PUSH32 0x6E697469616C697A696E67000000000000000000000000000000000000000000 PUSH1 0x20 DUP3 ADD MSTORE POP JUMP JUMPDEST PUSH1 0x0 PUSH2 0x2C47 PUSH1 0x2B DUP4 PUSH2 0x1B98 JUMP JUMPDEST SWAP2 POP PUSH2 0x2C52 DUP3 PUSH2 0x2BEB JUMP JUMPDEST PUSH1 0x40 DUP3 ADD SWAP1 POP SWAP2 SWAP1 POP JUMP JUMPDEST PUSH1 0x0 PUSH1 0x20 DUP3 ADD SWAP1 POP DUP2 DUP2 SUB PUSH1 0x0 DUP4 ADD MSTORE PUSH2 0x2C76 DUP2 PUSH2 0x2C3A JUMP JUMPDEST SWAP1 POP SWAP2 SWAP1 POP JUMP JUMPDEST PUSH32 0x45524332303A206D696E7420746F20746865207A65726F206164647265737300 PUSH1 0x0 DUP3 ADD MSTORE POP JUMP JUMPDEST PUSH1 0x0 PUSH2 0x2CB3 PUSH1 0x1F DUP4 PUSH2 0x1B98 JUMP JUMPDEST SWAP2 POP PUSH2 0x2CBE DUP3 PUSH2 0x2C7D JUMP JUMPDEST PUSH1 0x20 DUP3 ADD SWAP1 POP SWAP2 SWAP1 POP JUMP JUMPDEST PUSH1 0x0 PUSH1 0x20 DUP3 ADD SWAP1 POP DUP2 DUP2 SUB PUSH1 0x0 DUP4 ADD MSTORE PUSH2 0x2CE2 DUP2 PUSH2 0x2CA6 JUMP JUMPDEST SWAP1 POP SWAP2 SWAP1 POP JUMP JUMPDEST PUSH32 0x455243313936373A206E657720696D706C656D656E746174696F6E206973206E PUSH1 0x0 DUP3 ADD MSTORE PUSH32 0x6F74206120636F6E747261637400000000000000000000000000000000000000 PUSH1 0x20 DUP3 ADD MSTORE POP JUMP JUMPDEST PUSH1 0x0 PUSH2 0x2D45 PUSH1 0x2D DUP4 PUSH2 0x1B98 JUMP JUMPDEST SWAP2 POP PUSH2 0x2D50 DUP3 PUSH2 0x2CE9 JUMP JUMPDEST PUSH1 0x40 DUP3 ADD SWAP1 POP SWAP2 SWAP1 POP JUMP JUMPDEST PUSH1 0x0 PUSH1 0x20 DUP3 ADD SWAP1 POP DUP2 DUP2 SUB PUSH1 0x0 DUP4 ADD MSTORE PUSH2 0x2D74 DUP2 PUSH2 0x2D38 JUMP JUMPDEST SWAP1 POP SWAP2 SWAP1 POP JUMP JUMPDEST PUSH1 0x0 DUP2 SWAP1 POP DUP2 PUSH1 0x0 MSTORE PUSH1 0x20 PUSH1 0x0 KECCAK256 SWAP1 POP SWAP2 SWAP1 POP JUMP JUMPDEST PUSH1 0x0 PUSH1 0x20 PUSH1 0x1F DUP4 ADD DIV SWAP1 POP SWAP2 SWAP1 POP JUMP JUMPDEST PUSH1 0x0 DUP3 DUP3 SHL SWAP1 POP SWAP3 SWAP2 POP POP JUMP JUMPDEST PUSH1 0x0 PUSH1 0x8 DUP4 MUL PUSH2 0x2DDD PUSH32 0xFFFFFFFFFFFFFFFFFFFFFFFFFFFFFFFFFFFFFFFFFFFFFFFFFFFFFFFFFFFFFFFF DUP3 PUSH2 0x2DA0 JUMP JUMPDEST PUSH2 0x2DE7 DUP7 DUP4 PUSH2 0x2DA0 JUMP JUMPDEST SWAP6 POP DUP1 NOT DUP5 AND SWAP4 POP DUP1 DUP7 AND DUP5 OR SWAP3 POP POP POP SWAP4 SWAP3 POP POP POP JUMP JUMPDEST PUSH1 0x0 PUSH2 0x2E1A PUSH2 0x2E15 PUSH2 0x2E10 DUP5 PUSH2 0x1CB1 JUMP JUMPDEST PUSH2 0x2542 JUMP JUMPDEST PUSH2 0x1CB1 JUMP JUMPDEST SWAP1 POP SWAP2 SWAP1 POP JUMP JUMPDEST PUSH1 0x0 DUP2 SWAP1 POP SWAP2 SWAP1 POP JUMP JUMPDEST PUSH2 0x2E34 DUP4 PUSH2 0x2DFF JUMP JUMPDEST PUSH2 0x2E48 PUSH2 0x2E40 DUP3 PUSH2 0x2E21 JUMP JUMPDEST DUP5 DUP5 SLOAD PUSH2 0x2DAD JUMP JUMPDEST DUP3 SSTORE POP POP POP POP JUMP JUMPDEST PUSH1 0x0 SWAP1 JUMP JUMPDEST PUSH2 0x2E5D PUSH2 0x2E50 JUMP JUMPDEST PUSH2 0x2E68 DUP2 DUP5 DUP5 PUSH2 0x2E2B JUMP JUMPDEST POP POP POP JUMP JUMPDEST JUMPDEST DUP2 DUP2 LT ISZERO PUSH2 0x2E8C JUMPI PUSH2 0x2E81 PUSH1 0x0 DUP3 PUSH2 0x2E55 JUMP JUMPDEST PUSH1 0x1 DUP2 ADD SWAP1 POP PUSH2 0x2E6E JUMP JUMPDEST POP POP JUMP JUMPDEST PUSH1 0x1F DUP3 GT ISZERO PUSH2 0x2ED1 JUMPI PUSH2 0x2EA2 DUP2 PUSH2 0x2D7B JUMP JUMPDEST PUSH2 0x2EAB DUP5 PUSH2 0x2D90 JUMP JUMPDEST DUP2 ADD PUSH1 0x20 DUP6 LT ISZERO PUSH2 0x2EBA JUMPI DUP2 SWAP1 POP JUMPDEST PUSH2 0x2ECE PUSH2 0x2EC6 DUP6 PUSH2 0x2D90 JUMP JUMPDEST DUP4 ADD DUP3 PUSH2 0x2E6D JUMP JUMPDEST POP POP JUMPDEST POP POP POP JUMP JUMPDEST PUSH1 0x0 DUP3 DUP3 SHR SWAP1 POP SWAP3 SWAP2 POP POP JUMP JUMPDEST PUSH1 0x0 PUSH2 0x2EF4 PUSH1 0x0 NOT DUP5 PUSH1 0x8 MUL PUSH2 0x2ED6 JUMP JUMPDEST NOT DUP1 DUP4 AND SWAP2 POP POP SWAP3 SWAP2 POP POP JUMP JUMPDEST PUSH1 0x0 PUSH2 0x2F0D DUP4 DUP4 PUSH2 0x2EE3 JUMP JUMPDEST SWAP2 POP DUP3 PUSH1 0x2 MUL DUP3 OR SWAP1 POP SWAP3 SWAP2 POP POP JUMP JUMPDEST PUSH2 0x2F26 DUP3 PUSH2 0x1B8D JUMP JUMPDEST PUSH8 0xFFFFFFFFFFFFFFFF DUP2 GT ISZERO PUSH2 0x2F3F JUMPI PUSH2 0x2F3E PUSH2 0x1E48 JUMP JUMPDEST JUMPDEST PUSH2 0x2F49 DUP3 SLOAD PUSH2 0x209C JUMP JUMPDEST PUSH2 0x2F54 DUP3 DUP3 DUP6 PUSH2 0x2E90 JUMP JUMPDEST PUSH1 0x0 PUSH1 0x20 SWAP1 POP PUSH1 0x1F DUP4 GT PUSH1 0x1 DUP2 EQ PUSH2 0x2F87 JUMPI PUSH1 0x0 DUP5 ISZERO PUSH2 0x2F75 JUMPI DUP3 DUP8 ADD MLOAD SWAP1 POP JUMPDEST PUSH2 0x2F7F DUP6 DUP3 PUSH2 0x2F01 JUMP JUMPDEST DUP7 SSTORE POP PUSH2 0x2FE7 JUMP JUMPDEST PUSH1 0x1F NOT DUP5 AND PUSH2 0x2F95 DUP7 PUSH2 0x2D7B JUMP JUMPDEST PUSH1 0x0 JUMPDEST DUP3 DUP2 LT ISZERO PUSH2 0x2FBD JUMPI DUP5 DUP10 ADD MLOAD DUP3 SSTORE PUSH1 0x1 DUP3 ADD SWAP2 POP PUSH1 0x20 DUP6 ADD SWAP5 POP PUSH1 0x20 DUP2 ADD SWAP1 POP PUSH2 0x2F98 JUMP JUMPDEST DUP7 DUP4 LT ISZERO PUSH2 0x2FDA JUMPI DUP5 DUP10 ADD MLOAD PUSH2 0x2FD6 PUSH1 0x1F DUP10 AND DUP3 PUSH2 0x2EE3 JUMP JUMPDEST DUP4 SSTORE POP JUMPDEST PUSH1 0x1 PUSH1 0x2 DUP9 MUL ADD DUP9 SSTORE POP POP POP JUMPDEST POP POP POP POP POP POP JUMP JUMPDEST PUSH32 0x416464726573733A2064656C65676174652063616C6C20746F206E6F6E2D636F PUSH1 0x0 DUP3 ADD MSTORE PUSH32 0x6E74726163740000000000000000000000000000000000000000000000000000 PUSH1 0x20 DUP3 ADD MSTORE POP JUMP JUMPDEST PUSH1 0x0 PUSH2 0x304B PUSH1 0x26 DUP4 PUSH2 0x1B98 JUMP JUMPDEST SWAP2 POP PUSH2 0x3056 DUP3 PUSH2 0x2FEF JUMP JUMPDEST PUSH1 0x40 DUP3 ADD SWAP1 POP SWAP2 SWAP1 POP JUMP JUMPDEST PUSH1 0x0 PUSH1 0x20 DUP3 ADD SWAP1 POP DUP2 DUP2 SUB PUSH1 0x0 DUP4 ADD MSTORE PUSH2 0x307A DUP2 PUSH2 0x303E JUMP JUMPDEST SWAP1 POP SWAP2 SWAP1 POP JUMP JUMPDEST PUSH1 0x0 DUP2 MLOAD SWAP1 POP SWAP2 SWAP1 POP JUMP JUMPDEST PUSH1 0x0 DUP2 SWAP1 POP SWAP3 SWAP2 POP POP JUMP JUMPDEST PUSH1 0x0 PUSH2 0x30A2 DUP3 PUSH2 0x3081 JUMP JUMPDEST PUSH2 0x30AC DUP2 DUP6 PUSH2 0x308C JUMP JUMPDEST SWAP4 POP PUSH2 0x30BC DUP2 DUP6 PUSH1 0x20 DUP7 ADD PUSH2 0x1BA9 JUMP JUMPDEST DUP1 DUP5 ADD SWAP2 POP POP SWAP3 SWAP2 POP POP JUMP JUMPDEST PUSH1 0x0 PUSH2 0x30D4 DUP3 DUP5 PUSH2 0x3097 JUMP JUMPDEST SWAP2 POP DUP2 SWAP1 POP SWAP3 SWAP2 POP POP JUMP INVALID COINBASE PUSH5 0x6472657373 GASPRICE KECCAK256 PUSH13 0x6F772D6C6576656C2064656C65 PUSH8 0x6174652063616C6C KECCAK256 PUSH7 0x61696C6564A264 PUSH10 0x706673582212203D2699 EXTCODESIZE ISZERO 0xB7 0x2A MLOAD DUP4 0xCA 0xC8 CREATE2 MSTORE8 PUSH14 0x1ADD319BFC2709DDAC4A062C1389 PUSH24 0xF2493664736F6C6343000811003300000000000000000000 "
				},
				"gasEstimates": {
					"creation": {
						"codeDepositCost": "2520800",
						"executionCost": "infinite",
						"totalCost": "infinite"
					},
					"external": {
						"allowance(address,address)": "infinite",
						"approve(address,uint256)": "infinite",
						"balanceOf(address)": "2864",
						"decimals()": "366",
						"decreaseAllowance(address,uint256)": "infinite",
						"increaseAllowance(address,uint256)": "infinite",
						"initialize()": "infinite",
						"name()": "infinite",
						"owner()": "2611",
						"proxiableUUID()": "infinite",
						"renounceOwnership()": "30443",
						"symbol()": "infinite",
						"totalSupply()": "2505",
						"transfer(address,uint256)": "infinite",
						"transferFrom(address,address,uint256)": "infinite",
						"transferOwnership(address)": "30854",
						"upgradeTo(address)": "infinite",
						"upgradeToAndCall(address,bytes)": "infinite"
					},
					"internal": {
						"_authorizeUpgrade(address)": "infinite"
					}
				},
				"methodIdentifiers": {
					"allowance(address,address)": "dd62ed3e",
					"approve(address,uint256)": "095ea7b3",
					"balanceOf(address)": "70a08231",
					"decimals()": "313ce567",
					"decreaseAllowance(address,uint256)": "a457c2d7",
					"increaseAllowance(address,uint256)": "39509351",
					"initialize()": "8129fc1c",
					"name()": "06fdde03",
					"owner()": "8da5cb5b",
					"proxiableUUID()": "52d1902d",
					"renounceOwnership()": "715018a6",
					"symbol()": "95d89b41",
					"totalSupply()": "18160ddd",
					"transfer(address,uint256)": "a9059cbb",
					"transferFrom(address,address,uint256)": "23b872dd",
					"transferOwnership(address)": "f2fde38b",
					"upgradeTo(address)": "3659cfe6",
					"upgradeToAndCall(address,bytes)": "4f1ef286"
				}
			},
			"storageLayout": {
				"storage": [
					{
						"astId": 527,
						"contract": "contract-1221c7c9fb.sol:TogoToken",
						"label": "_initialized",
						"offset": 0,
						"slot": "0",
						"type": "t_uint8"
					},
					{
						"astId": 530,
						"contract": "contract-1221c7c9fb.sol:TogoToken",
						"label": "_initializing",
						"offset": 1,
						"slot": "0",
						"type": "t_bool"
					},
					{
						"astId": 1865,
						"contract": "contract-1221c7c9fb.sol:TogoToken",
						"label": "__gap",
						"offset": 0,
						"slot": "1",
						"type": "t_array(t_uint256)50_storage"
					},
					{
						"astId": 844,
						"contract": "contract-1221c7c9fb.sol:TogoToken",
						"label": "_balances",
						"offset": 0,
						"slot": "51",
						"type": "t_mapping(t_address,t_uint256)"
					},
					{
						"astId": 850,
						"contract": "contract-1221c7c9fb.sol:TogoToken",
						"label": "_allowances",
						"offset": 0,
						"slot": "52",
						"type": "t_mapping(t_address,t_mapping(t_address,t_uint256))"
					},
					{
						"astId": 852,
						"contract": "contract-1221c7c9fb.sol:TogoToken",
						"label": "_totalSupply",
						"offset": 0,
						"slot": "53",
						"type": "t_uint256"
					},
					{
						"astId": 854,
						"contract": "contract-1221c7c9fb.sol:TogoToken",
						"label": "_name",
						"offset": 0,
						"slot": "54",
						"type": "t_string_storage"
					},
					{
						"astId": 856,
						"contract": "contract-1221c7c9fb.sol:TogoToken",
						"label": "_symbol",
						"offset": 0,
						"slot": "55",
						"type": "t_string_storage"
					},
					{
						"astId": 1436,
						"contract": "contract-1221c7c9fb.sol:TogoToken",
						"label": "__gap",
						"offset": 0,
						"slot": "56",
						"type": "t_array(t_uint256)45_storage"
					},
					{
						"astId": 10,
						"contract": "contract-1221c7c9fb.sol:TogoToken",
						"label": "_owner",
						"offset": 0,
						"slot": "101",
						"type": "t_address"
					},
					{
						"astId": 130,
						"contract": "contract-1221c7c9fb.sol:TogoToken",
						"label": "__gap",
						"offset": 0,
						"slot": "102",
						"type": "t_array(t_uint256)49_storage"
					},
					{
						"astId": 509,
						"contract": "contract-1221c7c9fb.sol:TogoToken",
						"label": "__gap",
						"offset": 0,
						"slot": "151",
						"type": "t_array(t_uint256)50_storage"
					},
					{
						"astId": 824,
						"contract": "contract-1221c7c9fb.sol:TogoToken",
						"label": "__gap",
						"offset": 0,
						"slot": "201",
						"type": "t_array(t_uint256)50_storage"
					}
				],
				"types": {
					"t_address": {
						"encoding": "inplace",
						"label": "address",
						"numberOfBytes": "20"
					},
					"t_array(t_uint256)45_storage": {
						"base": "t_uint256",
						"encoding": "inplace",
						"label": "uint256[45]",
						"numberOfBytes": "1440"
					},
					"t_array(t_uint256)49_storage": {
						"base": "t_uint256",
						"encoding": "inplace",
						"label": "uint256[49]",
						"numberOfBytes": "1568"
					},
					"t_array(t_uint256)50_storage": {
						"base": "t_uint256",
						"encoding": "inplace",
						"label": "uint256[50]",
						"numberOfBytes": "1600"
					},
					"t_bool": {
						"encoding": "inplace",
						"label": "bool",
						"numberOfBytes": "1"
					},
					"t_mapping(t_address,t_mapping(t_address,t_uint256))": {
						"encoding": "mapping",
						"key": "t_address",
						"label": "mapping(address => mapping(address => uint256))",
						"numberOfBytes": "32",
						"value": "t_mapping(t_address,t_uint256)"
					},
					"t_mapping(t_address,t_uint256)": {
						"encoding": "mapping",
						"key": "t_address",
						"label": "mapping(address => uint256)",
						"numberOfBytes": "32",
						"value": "t_uint256"
					},
					"t_string_storage": {
						"encoding": "bytes",
						"label": "string",
						"numberOfBytes": "32"
					},
					"t_uint256": {
						"encoding": "inplace",
						"label": "uint256",
						"numberOfBytes": "32"
					},
					"t_uint8": {
						"encoding": "inplace",
						"label": "uint8",
						"numberOfBytes": "1"
					}
				}
			},
			"userdoc": {
				"kind": "user",
				"methods": {},
				"version": 1
			}
		}
	}
}