{
	"data": {
		"bytecode": {
			"linkReferences": {},
			"object": "60a06040523073ffffffffffffffffffffffffffffffffffffffff1660809073ffffffffffffffffffffffffffffffffffffffff168152506509184e72a00060fb553480156200004e57600080fd5b506200005f6200006560201b60201c565b62000210565b600060019054906101000a900460ff1615620000b8576040517f08c379a0000000000000000000000000000000000000000000000000000000008152600401620000af90620001b3565b60405180910390fd5b60ff801660008054906101000a900460ff1660ff1610156200012a5760ff6000806101000a81548160ff021916908360ff1602179055507f7f26b83ff96e1f2b6a682f133852f6798a09c465da95921460cefb384740249860ff604051620001219190620001f3565b60405180910390a15b565b600082825260208201905092915050565b7f496e697469616c697a61626c653a20636f6e747261637420697320696e69746960008201527f616c697a696e6700000000000000000000000000000000000000000000000000602082015250565b60006200019b6027836200012c565b9150620001a8826200013d565b604082019050919050565b60006020820190508181036000830152620001ce816200018c565b9050919050565b600060ff82169050919050565b620001ed81620001d5565b82525050565b60006020820190506200020a6000830184620001e2565b92915050565b608051613ee962000248600039600081816106d7015281816107650152818161093b015281816109c90152610a790152613ee96000f3fe6080604052600436106101665760003560e01c8063715018a6116100d1578063a457c2d71161008a578063bb6cb02211610064578063bb6cb02214610533578063dd62ed3e1461055c578063ecc3b76514610599578063f2fde38b146105b557610166565b8063a457c2d714610490578063a9059cbb146104cd578063aa081c141461050a57610166565b8063715018a6146103b857806373a64267146103cf5780638129fc1c146103f85780638da5cb5b1461040f5780638e15f4731461043a57806395d89b411461046557610166565b80633950935111610123578063395093511461028f57806339abdcae146102cc5780634f1ef2861461030957806352d1902d1461032557806367288c6d1461035057806370a082311461037b57610166565b806306fdde031461016b578063095ea7b31461019657806318160ddd146101d357806323b872dd146101fe578063313ce5671461023b5780633659cfe614610266575b600080fd5b34801561017757600080fd5b506101806105de565b60405161018d9190612564565b60405180910390f35b3480156101a257600080fd5b506101bd60048036038101906101b8919061262e565b610670565b6040516101ca9190612689565b60405180910390f35b3480156101df57600080fd5b506101e8610693565b6040516101f591906126b3565b60405180910390f35b34801561020a57600080fd5b50610225600480360381019061022091906126ce565b61069d565b6040516102329190612689565b60405180910390f35b34801561024757600080fd5b506102506106cc565b60405161025d919061273d565b60405180910390f35b34801561027257600080fd5b5061028d60048036038101906102889190612758565b6106d5565b005b34801561029b57600080fd5b506102b660048036038101906102b1919061262e565b61085d565b6040516102c39190612689565b60405180910390f35b3480156102d857600080fd5b506102f360048036038101906102ee9190612758565b610894565b60405161030091906126b3565b60405180910390f35b610323600480360381019061031e91906128ba565b610939565b005b34801561033157600080fd5b5061033a610a75565b604051610347919061292f565b60405180910390f35b34801561035c57600080fd5b50610365610b2e565b6040516103729190612959565b60405180910390f35b34801561038757600080fd5b506103a2600480360381019061039d9190612758565b610b58565b6040516103af91906126b3565b60405180910390f35b3480156103c457600080fd5b506103cd610ba1565b005b3480156103db57600080fd5b506103f660048036038101906103f19190612974565b610bb5565b005b34801561040457600080fd5b5061040d610d0e565b005b34801561041b57600080fd5b50610424610f9f565b6040516104319190612959565b60405180910390f35b34801561044657600080fd5b5061044f610fc9565b60405161045c91906126b3565b60405180910390f35b34801561047157600080fd5b5061047a61106a565b6040516104879190612564565b60405180910390f35b34801561049c57600080fd5b506104b760048036038101906104b2919061262e565b6110fc565b6040516104c49190612689565b60405180910390f35b3480156104d957600080fd5b506104f460048036038101906104ef919061262e565b611173565b6040516105019190612689565b60405180910390f35b34801561051657600080fd5b50610531600480360381019061052c9190612974565b611196565b005b34801561053f57600080fd5b5061055a60048036038101906105559190612974565b61130f565b005b34801561056857600080fd5b50610583600480360381019061057e91906129a1565b611321565b60405161059091906126b3565b60405180910390f35b6105b360048036038101906105ae9190612974565b6113a8565b005b3480156105c157600080fd5b506105dc60048036038101906105d79190612758565b61149b565b005b6060603680546105ed90612a10565b80601f016020809104026020016040519081016040528092919081815260200182805461061990612a10565b80156106665780601f1061063b57610100808354040283529160200191610666565b820191906000526020600020905b81548152906001019060200180831161064957829003601f168201915b5050505050905090565b60008061067b61151e565b9050610688818585611526565b600191505092915050565b6000603554905090565b6000806106a861151e565b90506106b58582856116ef565b6106c085858561177b565b60019150509392505050565b60006012905090565b7f000000000000000000000000000000000000000000000000000000000000000073ffffffffffffffffffffffffffffffffffffffff163073ffffffffffffffffffffffffffffffffffffffff1603610763576040517f08c379a000000000000000000000000000000000000000000000000000000000815260040161075a90612ab3565b60405180910390fd5b7f000000000000000000000000000000000000000000000000000000000000000073ffffffffffffffffffffffffffffffffffffffff166107a26119f4565b73ffffffffffffffffffffffffffffffffffffffff16146107f8576040517f08c379a00000000000000000000000000000000000000000000000000000000081526004016107ef90612b45565b60405180910390fd5b61080181611a4b565b61085a81600067ffffffffffffffff8111156108205761081f61278f565b5b6040519080825280601f01601f1916602001820160405280156108525781602001600182028036833780820191505090505b506000611a56565b50565b60008061086861151e565b905061088981858561087a8589611321565b6108849190612b94565b611526565b600191505092915050565b600060fd60009054906101000a900473ffffffffffffffffffffffffffffffffffffffff1673ffffffffffffffffffffffffffffffffffffffff166370a08231836040518263ffffffff1660e01b81526004016108f19190612959565b602060405180830381865afa15801561090e573d6000803e3d6000fd5b505050506040513d601f19601f820116820180604052508101906109329190612bdd565b9050919050565b7f000000000000000000000000000000000000000000000000000000000000000073ffffffffffffffffffffffffffffffffffffffff163073ffffffffffffffffffffffffffffffffffffffff16036109c7576040517f08c379a00000000000000000000000000000000000000000000000000000000081526004016109be90612ab3565b60405180910390fd5b7f000000000000000000000000000000000000000000000000000000000000000073ffffffffffffffffffffffffffffffffffffffff16610a066119f4565b73ffffffffffffffffffffffffffffffffffffffff1614610a5c576040517f08c379a0000000000000000000000000000000000000000000000000000000008152600401610a5390612b45565b60405180910390fd5b610a6582611a4b565b610a7182826001611a56565b5050565b60007f000000000000000000000000000000000000000000000000000000000000000073ffffffffffffffffffffffffffffffffffffffff163073ffffffffffffffffffffffffffffffffffffffff1614610b05576040517f08c379a0000000000000000000000000000000000000000000000000000000008152600401610afc90612c7c565b60405180910390fd5b7f360894a13ba1a3210667c828492db98dca3e2076cc3735a920a3ca505d382bbc60001b905090565b600060fd60009054906101000a900473ffffffffffffffffffffffffffffffffffffffff16905090565b6000603360008373ffffffffffffffffffffffffffffffffffffffff1673ffffffffffffffffffffffffffffffffffffffff168152602001908152602001600020549050919050565b610ba9611bc4565b610bb36000611c42565b565b610bbd6106cc565b600a610bc99190612dcf565b81610bd49190612e1a565b610bdd33610b58565b1015610c1e576040517f08c379a0000000000000000000000000000000000000000000000000000000008152600401610c1590612ea8565b60405180910390fd5b600060fb5482610c2e9190612e1a565b90506000610c3a6106cc565b600a610c469190612dcf565b83610c519190612e1a565b9050610c5d3382611d08565b3073ffffffffffffffffffffffffffffffffffffffff166108fc839081150290604051600060405180830381858888f19350505050158015610ca3573d6000803e3d6000fd5b503073ffffffffffffffffffffffffffffffffffffffff163373ffffffffffffffffffffffffffffffffffffffff167fddf252ad1be2c89b69c2b068fc378daa952ba7f163c4a11628f55a4df523b3ef83604051610d0191906126b3565b60405180910390a3505050565b60008060019054906101000a900460ff16159050808015610d3f5750600160008054906101000a900460ff1660ff16105b80610d6c5750610d4e30611ed7565b158015610d6b5750600160008054906101000a900460ff1660ff16145b5b610dab576040517f08c379a0000000000000000000000000000000000000000000000000000000008152600401610da290612f3a565b60405180910390fd5b60016000806101000a81548160ff021916908360ff1602179055508015610de8576001600060016101000a81548160ff0219169083151502179055505b610e5c6040518060400160405280600981526020017f546f676f546f6b656e00000000000000000000000000000000000000000000008152506040518060400160405280600381526020017f54474b0000000000000000000000000000000000000000000000000000000000815250611efa565b610e64611f57565b610e6c611fb0565b7312162c3e810393dec01362abf156d7ecf615952860fc60006101000a81548173ffffffffffffffffffffffffffffffffffffffff021916908373ffffffffffffffffffffffffffffffffffffffff16021790555073326c977e6efc84e512bb9c30f76e30c160ed06fb60fd60006101000a81548173ffffffffffffffffffffffffffffffffffffffff021916908373ffffffffffffffffffffffffffffffffffffffff160217905550610f4333610f226106cc565b600a610f2e9190612dcf565b6401a13b8600610f3e9190612e1a565b612001565b8015610f9c5760008060016101000a81548160ff0219169083151502179055507f7f26b83ff96e1f2b6a682f133852f6798a09c465da95921460cefb38474024986001604051610f939190612f9f565b60405180910390a15b50565b6000606560009054906101000a900473ffffffffffffffffffffffffffffffffffffffff16905090565b60008060fc60009054906101000a900473ffffffffffffffffffffffffffffffffffffffff1673ffffffffffffffffffffffffffffffffffffffff1663feaf968c6040518163ffffffff1660e01b815260040160a060405180830381865afa158015611039573d6000803e3d6000fd5b505050506040513d601f19601f8201168201806040525081019061105d9190613032565b5050509150508091505090565b60606037805461107990612a10565b80601f01602080910402602001604051908101604052809291908181526020018280546110a590612a10565b80156110f25780601f106110c7576101008083540402835291602001916110f2565b820191906000526020600020905b8154815290600101906020018083116110d557829003601f168201915b5050505050905090565b60008061110761151e565b905060006111158286611321565b90508381101561115a576040517f08c379a00000000000000000000000000000000000000000000000000000000081526004016111519061311f565b60405180910390fd5b6111678286868403611526565b60019250505092915050565b60008061117e61151e565b905061118b81858561177b565b600191505092915050565b6111a03082611173565b5060fd60009054906101000a900473ffffffffffffffffffffffffffffffffffffffff1673ffffffffffffffffffffffffffffffffffffffff1663a9059cbb33836040518363ffffffff1660e01b81526004016111fe92919061313f565b6020604051808303816000875af115801561121d573d6000803e3d6000fd5b505050506040513d601f19601f820116820180604052508101906112419190613194565b503073ffffffffffffffffffffffffffffffffffffffff163373ffffffffffffffffffffffffffffffffffffffff167fddf252ad1be2c89b69c2b068fc378daa952ba7f163c4a11628f55a4df523b3ef8360405161129f91906126b3565b60405180910390a33373ffffffffffffffffffffffffffffffffffffffff163073ffffffffffffffffffffffffffffffffffffffff167fddf252ad1be2c89b69c2b068fc378daa952ba7f163c4a11628f55a4df523b3ef8360405161130491906126b3565b60405180910390a350565b611317611bc4565b8060fb8190555050565b6000603460008473ffffffffffffffffffffffffffffffffffffffff1673ffffffffffffffffffffffffffffffffffffffff16815260200190815260200160002060008373ffffffffffffffffffffffffffffffffffffffff1673ffffffffffffffffffffffffffffffffffffffff16815260200190815260200160002054905092915050565b60fb54816113b69190612e1a565b3410156113f8576040517f08c379a00000000000000000000000000000000000000000000000000000000081526004016113ef90613233565b60405180910390fd5b600060fb54826114089190613282565b9050611432336114166106cc565b600a6114229190612dcf565b8361142d9190612e1a565b612001565b3373ffffffffffffffffffffffffffffffffffffffff163073ffffffffffffffffffffffffffffffffffffffff167fddf252ad1be2c89b69c2b068fc378daa952ba7f163c4a11628f55a4df523b3ef8360405161148f91906126b3565b60405180910390a35050565b6114a3611bc4565b600073ffffffffffffffffffffffffffffffffffffffff168173ffffffffffffffffffffffffffffffffffffffff1603611512576040517f08c379a000000000000000000000000000000000000000000000000000000000815260040161150990613325565b60405180910390fd5b61151b81611c42565b50565b600033905090565b600073ffffffffffffffffffffffffffffffffffffffff168373ffffffffffffffffffffffffffffffffffffffff1603611595576040517f08c379a000000000000000000000000000000000000000000000000000000000815260040161158c906133b7565b60405180910390fd5b600073ffffffffffffffffffffffffffffffffffffffff168273ffffffffffffffffffffffffffffffffffffffff1603611604576040517f08c379a00000000000000000000000000000000000000000000000000000000081526004016115fb90613449565b60405180910390fd5b80603460008573ffffffffffffffffffffffffffffffffffffffff1673ffffffffffffffffffffffffffffffffffffffff16815260200190815260200160002060008473ffffffffffffffffffffffffffffffffffffffff1673ffffffffffffffffffffffffffffffffffffffff168152602001908152602001600020819055508173ffffffffffffffffffffffffffffffffffffffff168373ffffffffffffffffffffffffffffffffffffffff167f8c5be1e5ebec7d5bd14f71427d1e84f3dd0314c0f7b2291e5b200ac8c7c3b925836040516116e291906126b3565b60405180910390a3505050565b60006116fb8484611321565b90507fffffffffffffffffffffffffffffffffffffffffffffffffffffffffffffffff81146117755781811015611767576040517f08c379a000000000000000000000000000000000000000000000000000000000815260040161175e906134b5565b60405180910390fd5b6117748484848403611526565b5b50505050565b600073ffffffffffffffffffffffffffffffffffffffff168373ffffffffffffffffffffffffffffffffffffffff16036117ea576040517f08c379a00000000000000000000000000000000000000000000000000000000081526004016117e190613547565b60405180910390fd5b600073ffffffffffffffffffffffffffffffffffffffff168273ffffffffffffffffffffffffffffffffffffffff1603611859576040517f08c379a0000000000000000000000000000000000000000000000000000000008152600401611850906135d9565b60405180910390fd5b611864838383612158565b6000603360008573ffffffffffffffffffffffffffffffffffffffff1673ffffffffffffffffffffffffffffffffffffffff168152602001908152602001600020549050818110156118eb576040517f08c379a00000000000000000000000000000000000000000000000000000000081526004016118e29061366b565b60405180910390fd5b818103603360008673ffffffffffffffffffffffffffffffffffffffff1673ffffffffffffffffffffffffffffffffffffffff1681526020019081526020016000208190555081603360008573ffffffffffffffffffffffffffffffffffffffff1673ffffffffffffffffffffffffffffffffffffffff168152602001908152602001600020600082825401925050819055508273ffffffffffffffffffffffffffffffffffffffff168473ffffffffffffffffffffffffffffffffffffffff167fddf252ad1be2c89b69c2b068fc378daa952ba7f163c4a11628f55a4df523b3ef846040516119db91906126b3565b60405180910390a36119ee84848461215d565b50505050565b6000611a227f360894a13ba1a3210667c828492db98dca3e2076cc3735a920a3ca505d382bbc60001b612162565b60000160009054906101000a900473ffffffffffffffffffffffffffffffffffffffff16905090565b611a53611bc4565b50565b611a827f4910fdfa16fed3260ed0e7147f7cc6da11a60208b5b9406d12a635614ffd914360001b61216c565b60000160009054906101000a900460ff1615611aa657611aa183612176565b611bbf565b8273ffffffffffffffffffffffffffffffffffffffff166352d1902d6040518163ffffffff1660e01b8152600401602060405180830381865afa925050508015611b0e57506040513d601f19601f82011682018060405250810190611b0b91906136b7565b60015b611b4d576040517f08c379a0000000000000000000000000000000000000000000000000000000008152600401611b4490613756565b60405180910390fd5b7f360894a13ba1a3210667c828492db98dca3e2076cc3735a920a3ca505d382bbc60001b8114611bb2576040517f08c379a0000000000000000000000000000000000000000000000000000000008152600401611ba9906137e8565b60405180910390fd5b50611bbe83838361222f565b5b505050565b611bcc61151e565b73ffffffffffffffffffffffffffffffffffffffff16611bea610f9f565b73ffffffffffffffffffffffffffffffffffffffff1614611c40576040517f08c379a0000000000000000000000000000000000000000000000000000000008152600401611c3790613854565b60405180910390fd5b565b6000606560009054906101000a900473ffffffffffffffffffffffffffffffffffffffff16905081606560006101000a81548173ffffffffffffffffffffffffffffffffffffffff021916908373ffffffffffffffffffffffffffffffffffffffff1602179055508173ffffffffffffffffffffffffffffffffffffffff168173ffffffffffffffffffffffffffffffffffffffff167f8be0079c531659141344cd1fd0a4f28419497f9722a3daafe3b4186f6b6457e060405160405180910390a35050565b600073ffffffffffffffffffffffffffffffffffffffff168273ffffffffffffffffffffffffffffffffffffffff1603611d77576040517f08c379a0000000000000000000000000000000000000000000000000000000008152600401611d6e906138e6565b60405180910390fd5b611d8382600083612158565b6000603360008473ffffffffffffffffffffffffffffffffffffffff1673ffffffffffffffffffffffffffffffffffffffff16815260200190815260200160002054905081811015611e0a576040517f08c379a0000000000000000000000000000000000000000000000000000000008152600401611e0190613978565b60405180910390fd5b818103603360008573ffffffffffffffffffffffffffffffffffffffff1673ffffffffffffffffffffffffffffffffffffffff1681526020019081526020016000208190555081603560008282540392505081905550600073ffffffffffffffffffffffffffffffffffffffff168373ffffffffffffffffffffffffffffffffffffffff167fddf252ad1be2c89b69c2b068fc378daa952ba7f163c4a11628f55a4df523b3ef84604051611ebe91906126b3565b60405180910390a3611ed28360008461215d565b505050565b6000808273ffffffffffffffffffffffffffffffffffffffff163b119050919050565b600060019054906101000a900460ff16611f49576040517f08c379a0000000000000000000000000000000000000000000000000000000008152600401611f4090613a0a565b60405180910390fd5b611f53828261225b565b5050565b600060019054906101000a900460ff16611fa6576040517f08c379a0000000000000000000000000000000000000000000000000000000008152600401611f9d90613a0a565b60405180910390fd5b611fae6122ce565b565b600060019054906101000a900460ff16611fff576040517f08c379a0000000000000000000000000000000000000000000000000000000008152600401611ff690613a0a565b60405180910390fd5b565b600073ffffffffffffffffffffffffffffffffffffffff168273ffffffffffffffffffffffffffffffffffffffff1603612070576040517f08c379a000000000000000000000000000000000000000000000000000000000815260040161206790613a76565b60405180910390fd5b61207c60008383612158565b806035600082825461208e9190612b94565b9250508190555080603360008473ffffffffffffffffffffffffffffffffffffffff1673ffffffffffffffffffffffffffffffffffffffff168152602001908152602001600020600082825401925050819055508173ffffffffffffffffffffffffffffffffffffffff16600073ffffffffffffffffffffffffffffffffffffffff167fddf252ad1be2c89b69c2b068fc378daa952ba7f163c4a11628f55a4df523b3ef8360405161214091906126b3565b60405180910390a36121546000838361215d565b5050565b505050565b505050565b6000819050919050565b6000819050919050565b61217f81611ed7565b6121be576040517f08c379a00000000000000000000000000000000000000000000000000000000081526004016121b590613b08565b60405180910390fd5b806121eb7f360894a13ba1a3210667c828492db98dca3e2076cc3735a920a3ca505d382bbc60001b612162565b60000160006101000a81548173ffffffffffffffffffffffffffffffffffffffff021916908373ffffffffffffffffffffffffffffffffffffffff16021790555050565b6122388361232f565b6000825111806122455750805b1561225657612254838361237e565b505b505050565b600060019054906101000a900460ff166122aa576040517f08c379a00000000000000000000000000000000000000000000000000000000081526004016122a190613a0a565b60405180910390fd5b81603690816122b99190613cca565b5080603790816122c99190613cca565b505050565b600060019054906101000a900460ff1661231d576040517f08c379a000000000000000000000000000000000000000000000000000000000815260040161231490613a0a565b60405180910390fd5b61232d61232861151e565b611c42565b565b61233881612176565b8073ffffffffffffffffffffffffffffffffffffffff167fbc7cd75a20ee27fd9adebab32041f755214dbc6bffa90cc0225b39da2e5c2d3b60405160405180910390a250565b606061238983611ed7565b6123c8576040517f08c379a00000000000000000000000000000000000000000000000000000000081526004016123bf90613e0e565b60405180910390fd5b6000808473ffffffffffffffffffffffffffffffffffffffff16846040516123f09190613e75565b600060405180830381855af49150503d806000811461242b576040519150601f19603f3d011682016040523d82523d6000602084013e612430565b606091505b50915091506124588282604051806060016040528060278152602001613e8d60279139612462565b9250505092915050565b606083156124725782905061247d565b61247c8383612484565b5b9392505050565b6000825111156124975781518083602001fd5b806040517f08c379a00000000000000000000000000000000000000000000000000000000081526004016124cb9190612564565b60405180910390fd5b600081519050919050565b600082825260208201905092915050565b60005b8381101561250e5780820151818401526020810190506124f3565b60008484015250505050565b6000601f19601f8301169050919050565b6000612536826124d4565b61254081856124df565b93506125508185602086016124f0565b6125598161251a565b840191505092915050565b6000602082019050818103600083015261257e818461252b565b905092915050565b6000604051905090565b600080fd5b600080fd5b600073ffffffffffffffffffffffffffffffffffffffff82169050919050565b60006125c58261259a565b9050919050565b6125d5816125ba565b81146125e057600080fd5b50565b6000813590506125f2816125cc565b92915050565b6000819050919050565b61260b816125f8565b811461261657600080fd5b50565b60008135905061262881612602565b92915050565b6000806040838503121561264557612644612590565b5b6000612653858286016125e3565b925050602061266485828601612619565b9150509250929050565b60008115159050919050565b6126838161266e565b82525050565b600060208201905061269e600083018461267a565b92915050565b6126ad816125f8565b82525050565b60006020820190506126c860008301846126a4565b92915050565b6000806000606084860312156126e7576126e6612590565b5b60006126f5868287016125e3565b9350506020612706868287016125e3565b925050604061271786828701612619565b9150509250925092565b600060ff82169050919050565b61273781612721565b82525050565b6000602082019050612752600083018461272e565b92915050565b60006020828403121561276e5761276d612590565b5b600061277c848285016125e3565b91505092915050565b600080fd5b600080fd5b7f4e487b7100000000000000000000000000000000000000000000000000000000600052604160045260246000fd5b6127c78261251a565b810181811067ffffffffffffffff821117156127e6576127e561278f565b5b80604052505050565b60006127f9612586565b905061280582826127be565b919050565b600067ffffffffffffffff8211156128255761282461278f565b5b61282e8261251a565b9050602081019050919050565b82818337600083830152505050565b600061285d6128588461280a565b6127ef565b9050828152602081018484840111156128795761287861278a565b5b61288484828561283b565b509392505050565b600082601f8301126128a1576128a0612785565b5b81356128b184826020860161284a565b91505092915050565b600080604083850312156128d1576128d0612590565b5b60006128df858286016125e3565b925050602083013567ffffffffffffffff811115612900576128ff612595565b5b61290c8582860161288c565b9150509250929050565b6000819050919050565b61292981612916565b82525050565b60006020820190506129446000830184612920565b92915050565b612953816125ba565b82525050565b600060208201905061296e600083018461294a565b92915050565b60006020828403121561298a57612989612590565b5b600061299884828501612619565b91505092915050565b600080604083850312156129b8576129b7612590565b5b60006129c6858286016125e3565b92505060206129d7858286016125e3565b9150509250929050565b7f4e487b7100000000000000000000000000000000000000000000000000000000600052602260045260246000fd5b60006002820490506001821680612a2857607f821691505b602082108103612a3b57612a3a6129e1565b5b50919050565b7f46756e6374696f6e206d7573742062652063616c6c6564207468726f7567682060008201527f64656c656761746563616c6c0000000000000000000000000000000000000000602082015250565b6000612a9d602c836124df565b9150612aa882612a41565b604082019050919050565b60006020820190508181036000830152612acc81612a90565b9050919050565b7f46756e6374696f6e206d7573742062652063616c6c6564207468726f7567682060008201527f6163746976652070726f78790000000000000000000000000000000000000000602082015250565b6000612b2f602c836124df565b9150612b3a82612ad3565b604082019050919050565b60006020820190508181036000830152612b5e81612b22565b9050919050565b7f4e487b7100000000000000000000000000000000000000000000000000000000600052601160045260246000fd5b6000612b9f826125f8565b9150612baa836125f8565b9250828201905080821115612bc257612bc1612b65565b5b92915050565b600081519050612bd781612602565b92915050565b600060208284031215612bf357612bf2612590565b5b6000612c0184828501612bc8565b91505092915050565b7f555550535570677261646561626c653a206d757374206e6f742062652063616c60008201527f6c6564207468726f7567682064656c656761746563616c6c0000000000000000602082015250565b6000612c666038836124df565b9150612c7182612c0a565b604082019050919050565b60006020820190508181036000830152612c9581612c59565b9050919050565b60008160011c9050919050565b6000808291508390505b6001851115612cf357808604811115612ccf57612cce612b65565b5b6001851615612cde5780820291505b8081029050612cec85612c9c565b9450612cb3565b94509492505050565b600082612d0c5760019050612dc8565b81612d1a5760009050612dc8565b8160018114612d305760028114612d3a57612d69565b6001915050612dc8565b60ff841115612d4c57612d4b612b65565b5b8360020a915084821115612d6357612d62612b65565b5b50612dc8565b5060208310610133831016604e8410600b8410161715612d9e5782820a905083811115612d9957612d98612b65565b5b612dc8565b612dab8484846001612ca9565b92509050818404811115612dc257612dc1612b65565b5b81810290505b9392505050565b6000612dda826125f8565b9150612de583612721565b9250612e127fffffffffffffffffffffffffffffffffffffffffffffffffffffffffffffffff8484612cfc565b905092915050565b6000612e25826125f8565b9150612e30836125f8565b9250828202612e3e816125f8565b91508282048414831517612e5557612e54612b65565b5b5092915050565b7f496e73756666696369656e742054474b20746f6b656e7320746f2073656c6c00600082015250565b6000612e92601f836124df565b9150612e9d82612e5c565b602082019050919050565b60006020820190508181036000830152612ec181612e85565b9050919050565b7f496e697469616c697a61626c653a20636f6e747261637420697320616c72656160008201527f647920696e697469616c697a6564000000000000000000000000000000000000602082015250565b6000612f24602e836124df565b9150612f2f82612ec8565b604082019050919050565b60006020820190508181036000830152612f5381612f17565b9050919050565b6000819050919050565b6000819050919050565b6000612f89612f84612f7f84612f5a565b612f64565b612721565b9050919050565b612f9981612f6e565b82525050565b6000602082019050612fb46000830184612f90565b92915050565b600069ffffffffffffffffffff82169050919050565b612fd981612fba565b8114612fe457600080fd5b50565b600081519050612ff681612fd0565b92915050565b6000819050919050565b61300f81612ffc565b811461301a57600080fd5b50565b60008151905061302c81613006565b92915050565b600080600080600060a0868803121561304e5761304d612590565b5b600061305c88828901612fe7565b955050602061306d8882890161301d565b945050604061307e88828901612bc8565b935050606061308f88828901612bc8565b92505060806130a088828901612fe7565b9150509295509295909350565b7f45524332303a2064656372656173656420616c6c6f77616e63652062656c6f7760008201527f207a65726f000000000000000000000000000000000000000000000000000000602082015250565b60006131096025836124df565b9150613114826130ad565b604082019050919050565b60006020820190508181036000830152613138816130fc565b9050919050565b6000604082019050613154600083018561294a565b61316160208301846126a4565b9392505050565b6131718161266e565b811461317c57600080fd5b50565b60008151905061318e81613168565b92915050565b6000602082840312156131aa576131a9612590565b5b60006131b88482850161317f565b91505092915050565b7f496e73756666696369656e7420657468657220746f206275792054474b20746f60008201527f6b656e732e000000000000000000000000000000000000000000000000000000602082015250565b600061321d6025836124df565b9150613228826131c1565b604082019050919050565b6000602082019050818103600083015261324c81613210565b9050919050565b7f4e487b7100000000000000000000000000000000000000000000000000000000600052601260045260246000fd5b600061328d826125f8565b9150613298836125f8565b9250826132a8576132a7613253565b5b828204905092915050565b7f4f776e61626c653a206e6577206f776e657220697320746865207a65726f206160008201527f6464726573730000000000000000000000000000000000000000000000000000602082015250565b600061330f6026836124df565b915061331a826132b3565b604082019050919050565b6000602082019050818103600083015261333e81613302565b9050919050565b7f45524332303a20617070726f76652066726f6d20746865207a65726f2061646460008201527f7265737300000000000000000000000000000000000000000000000000000000602082015250565b60006133a16024836124df565b91506133ac82613345565b604082019050919050565b600060208201905081810360008301526133d081613394565b9050919050565b7f45524332303a20617070726f766520746f20746865207a65726f20616464726560008201527f7373000000000000000000000000000000000000000000000000000000000000602082015250565b60006134336022836124df565b915061343e826133d7565b604082019050919050565b6000602082019050818103600083015261346281613426565b9050919050565b7f45524332303a20696e73756666696369656e7420616c6c6f77616e6365000000600082015250565b600061349f601d836124df565b91506134aa82613469565b602082019050919050565b600060208201905081810360008301526134ce81613492565b9050919050565b7f45524332303a207472616e736665722066726f6d20746865207a65726f20616460008201527f6472657373000000000000000000000000000000000000000000000000000000602082015250565b60006135316025836124df565b915061353c826134d5565b604082019050919050565b6000602082019050818103600083015261356081613524565b9050919050565b7f45524332303a207472616e7366657220746f20746865207a65726f206164647260008201527f6573730000000000000000000000000000000000000000000000000000000000602082015250565b60006135c36023836124df565b91506135ce82613567565b604082019050919050565b600060208201905081810360008301526135f2816135b6565b9050919050565b7f45524332303a207472616e7366657220616d6f756e742065786365656473206260008201527f616c616e63650000000000000000000000000000000000000000000000000000602082015250565b60006136556026836124df565b9150613660826135f9565b604082019050919050565b6000602082019050818103600083015261368481613648565b9050919050565b61369481612916565b811461369f57600080fd5b50565b6000815190506136b18161368b565b92915050565b6000602082840312156136cd576136cc612590565b5b60006136db848285016136a2565b91505092915050565b7f45524331393637557067726164653a206e657720696d706c656d656e7461746960008201527f6f6e206973206e6f742055555053000000000000000000000000000000000000602082015250565b6000613740602e836124df565b915061374b826136e4565b604082019050919050565b6000602082019050818103600083015261376f81613733565b9050919050565b7f45524331393637557067726164653a20756e737570706f727465642070726f7860008201527f6961626c65555549440000000000000000000000000000000000000000000000602082015250565b60006137d26029836124df565b91506137dd82613776565b604082019050919050565b60006020820190508181036000830152613801816137c5565b9050919050565b7f4f776e61626c653a2063616c6c6572206973206e6f7420746865206f776e6572600082015250565b600061383e6020836124df565b915061384982613808565b602082019050919050565b6000602082019050818103600083015261386d81613831565b9050919050565b7f45524332303a206275726e2066726f6d20746865207a65726f2061646472657360008201527f7300000000000000000000000000000000000000000000000000000000000000602082015250565b60006138d06021836124df565b91506138db82613874565b604082019050919050565b600060208201905081810360008301526138ff816138c3565b9050919050565b7f45524332303a206275726e20616d6f756e7420657863656564732062616c616e60008201527f6365000000000000000000000000000000000000000000000000000000000000602082015250565b60006139626022836124df565b915061396d82613906565b604082019050919050565b6000602082019050818103600083015261399181613955565b9050919050565b7f496e697469616c697a61626c653a20636f6e7472616374206973206e6f74206960008201527f6e697469616c697a696e67000000000000000000000000000000000000000000602082015250565b60006139f4602b836124df565b91506139ff82613998565b604082019050919050565b60006020820190508181036000830152613a23816139e7565b9050919050565b7f45524332303a206d696e7420746f20746865207a65726f206164647265737300600082015250565b6000613a60601f836124df565b9150613a6b82613a2a565b602082019050919050565b60006020820190508181036000830152613a8f81613a53565b9050919050565b7f455243313936373a206e657720696d706c656d656e746174696f6e206973206e60008201527f6f74206120636f6e747261637400000000000000000000000000000000000000602082015250565b6000613af2602d836124df565b9150613afd82613a96565b604082019050919050565b60006020820190508181036000830152613b2181613ae5565b9050919050565b60008190508160005260206000209050919050565b60006020601f8301049050919050565b600082821b905092915050565b600060088302613b8a7fffffffffffffffffffffffffffffffffffffffffffffffffffffffffffffffff82613b4d565b613b948683613b4d565b95508019841693508086168417925050509392505050565b6000613bc7613bc2613bbd846125f8565b612f64565b6125f8565b9050919050565b6000819050919050565b613be183613bac565b613bf5613bed82613bce565b848454613b5a565b825550505050565b600090565b613c0a613bfd565b613c15818484613bd8565b505050565b5b81811015613c3957613c2e600082613c02565b600181019050613c1b565b5050565b601f821115613c7e57613c4f81613b28565b613c5884613b3d565b81016020851015613c67578190505b613c7b613c7385613b3d565b830182613c1a565b50505b505050565b600082821c905092915050565b6000613ca160001984600802613c83565b1980831691505092915050565b6000613cba8383613c90565b9150826002028217905092915050565b613cd3826124d4565b67ffffffffffffffff811115613cec57613ceb61278f565b5b613cf68254612a10565b613d01828285613c3d565b600060209050601f831160018114613d345760008415613d22578287015190505b613d2c8582613cae565b865550613d94565b601f198416613d4286613b28565b60005b82811015613d6a57848901518255600182019150602085019450602081019050613d45565b86831015613d875784890151613d83601f891682613c90565b8355505b6001600288020188555050505b505050505050565b7f416464726573733a2064656c65676174652063616c6c20746f206e6f6e2d636f60008201527f6e74726163740000000000000000000000000000000000000000000000000000602082015250565b6000613df86026836124df565b9150613e0382613d9c565b604082019050919050565b60006020820190508181036000830152613e2781613deb565b9050919050565b600081519050919050565b600081905092915050565b6000613e4f82613e2e565b613e598185613e39565b9350613e698185602086016124f0565b80840191505092915050565b6000613e818284613e44565b91508190509291505056fe416464726573733a206c6f772d6c6576656c2064656c65676174652063616c6c206661696c6564a26469706673582212203a4b0e76b5f7b777f86af78a7e1ae7b84c3d07ce159e58614a61093afe028e1964736f6c63430008110033",
			"opcodes": "PUSH1 0xA0 PUSH1 0x40 MSTORE ADDRESS PUSH20 0xFFFFFFFFFFFFFFFFFFFFFFFFFFFFFFFFFFFFFFFF AND PUSH1 0x80 SWAP1 PUSH20 0xFFFFFFFFFFFFFFFFFFFFFFFFFFFFFFFFFFFFFFFF AND DUP2 MSTORE POP PUSH6 0x9184E72A000 PUSH1 0xFB SSTORE CALLVALUE DUP1 ISZERO PUSH3 0x4E JUMPI PUSH1 0x0 DUP1 REVERT JUMPDEST POP PUSH3 0x5F PUSH3 0x65 PUSH1 0x20 SHL PUSH1 0x20 SHR JUMP JUMPDEST PUSH3 0x210 JUMP JUMPDEST PUSH1 0x0 PUSH1 0x1 SWAP1 SLOAD SWAP1 PUSH2 0x100 EXP SWAP1 DIV PUSH1 0xFF AND ISZERO PUSH3 0xB8 JUMPI PUSH1 0x40 MLOAD PUSH32 0x8C379A000000000000000000000000000000000000000000000000000000000 DUP2 MSTORE PUSH1 0x4 ADD PUSH3 0xAF SWAP1 PUSH3 0x1B3 JUMP JUMPDEST PUSH1 0x40 MLOAD DUP1 SWAP2 SUB SWAP1 REVERT JUMPDEST PUSH1 0xFF DUP1 AND PUSH1 0x0 DUP1 SLOAD SWAP1 PUSH2 0x100 EXP SWAP1 DIV PUSH1 0xFF AND PUSH1 0xFF AND LT ISZERO PUSH3 0x12A JUMPI PUSH1 0xFF PUSH1 0x0 DUP1 PUSH2 0x100 EXP DUP2 SLOAD DUP2 PUSH1 0xFF MUL NOT AND SWAP1 DUP4 PUSH1 0xFF AND MUL OR SWAP1 SSTORE POP PUSH32 0x7F26B83FF96E1F2B6A682F133852F6798A09C465DA95921460CEFB3847402498 PUSH1 0xFF PUSH1 0x40 MLOAD PUSH3 0x121 SWAP2 SWAP1 PUSH3 0x1F3 JUMP JUMPDEST PUSH1 0x40 MLOAD DUP1 SWAP2 SUB SWAP1 LOG1 JUMPDEST JUMP JUMPDEST PUSH1 0x0 DUP3 DUP3 MSTORE PUSH1 0x20 DUP3 ADD SWAP1 POP SWAP3 SWAP2 POP POP JUMP JUMPDEST PUSH32 0x496E697469616C697A61626C653A20636F6E747261637420697320696E697469 PUSH1 0x0 DUP3 ADD MSTORE PUSH32 0x616C697A696E6700000000000000000000000000000000000000000000000000 PUSH1 0x20 DUP3 ADD MSTORE POP JUMP JUMPDEST PUSH1 0x0 PUSH3 0x19B PUSH1 0x27 DUP4 PUSH3 0x12C JUMP JUMPDEST SWAP2 POP PUSH3 0x1A8 DUP3 PUSH3 0x13D JUMP JUMPDEST PUSH1 0x40 DUP3 ADD SWAP1 POP SWAP2 SWAP1 POP JUMP JUMPDEST PUSH1 0x0 PUSH1 0x20 DUP3 ADD SWAP1 POP DUP2 DUP2 SUB PUSH1 0x0 DUP4 ADD MSTORE PUSH3 0x1CE DUP2 PUSH3 0x18C JUMP JUMPDEST SWAP1 POP SWAP2 SWAP1 POP JUMP JUMPDEST PUSH1 0x0 PUSH1 0xFF DUP3 AND SWAP1 POP SWAP2 SWAP1 POP JUMP JUMPDEST PUSH3 0x1ED DUP2 PUSH3 0x1D5 JUMP JUMPDEST DUP3 MSTORE POP POP JUMP JUMPDEST PUSH1 0x0 PUSH1 0x20 DUP3 ADD SWAP1 POP PUSH3 0x20A PUSH1 0x0 DUP4 ADD DUP5 PUSH3 0x1E2 JUMP JUMPDEST SWAP3 SWAP2 POP POP JUMP JUMPDEST PUSH1 0x80 MLOAD PUSH2 0x3EE9 PUSH3 0x248 PUSH1 0x0 CODECOPY PUSH1 0x0 DUP2 DUP2 PUSH2 0x6D7 ADD MSTORE DUP2 DUP2 PUSH2 0x765 ADD MSTORE DUP2 DUP2 PUSH2 0x93B ADD MSTORE DUP2 DUP2 PUSH2 0x9C9 ADD MSTORE PUSH2 0xA79 ADD MSTORE PUSH2 0x3EE9 PUSH1 0x0 RETURN INVALID PUSH1 0x80 PUSH1 0x40 MSTORE PUSH1 0x4 CALLDATASIZE LT PUSH2 0x166 JUMPI PUSH1 0x0 CALLDATALOAD PUSH1 0xE0 SHR DUP1 PUSH4 0x715018A6 GT PUSH2 0xD1 JUMPI DUP1 PUSH4 0xA457C2D7 GT PUSH2 0x8A JUMPI DUP1 PUSH4 0xBB6CB022 GT PUSH2 0x64 JUMPI DUP1 PUSH4 0xBB6CB022 EQ PUSH2 0x533 JUMPI DUP1 PUSH4 0xDD62ED3E EQ PUSH2 0x55C JUMPI DUP1 PUSH4 0xECC3B765 EQ PUSH2 0x599 JUMPI DUP1 PUSH4 0xF2FDE38B EQ PUSH2 0x5B5 JUMPI PUSH2 0x166 JUMP JUMPDEST DUP1 PUSH4 0xA457C2D7 EQ PUSH2 0x490 JUMPI DUP1 PUSH4 0xA9059CBB EQ PUSH2 0x4CD JUMPI DUP1 PUSH4 0xAA081C14 EQ PUSH2 0x50A JUMPI PUSH2 0x166 JUMP JUMPDEST DUP1 PUSH4 0x715018A6 EQ PUSH2 0x3B8 JUMPI DUP1 PUSH4 0x73A64267 EQ PUSH2 0x3CF JUMPI DUP1 PUSH4 0x8129FC1C EQ PUSH2 0x3F8 JUMPI DUP1 PUSH4 0x8DA5CB5B EQ PUSH2 0x40F JUMPI DUP1 PUSH4 0x8E15F473 EQ PUSH2 0x43A JUMPI DUP1 PUSH4 0x95D89B41 EQ PUSH2 0x465 JUMPI PUSH2 0x166 JUMP JUMPDEST DUP1 PUSH4 0x39509351 GT PUSH2 0x123 JUMPI DUP1 PUSH4 0x39509351 EQ PUSH2 0x28F JUMPI DUP1 PUSH4 0x39ABDCAE EQ PUSH2 0x2CC JUMPI DUP1 PUSH4 0x4F1EF286 EQ PUSH2 0x309 JUMPI DUP1 PUSH4 0x52D1902D EQ PUSH2 0x325 JUMPI DUP1 PUSH4 0x67288C6D EQ PUSH2 0x350 JUMPI DUP1 PUSH4 0x70A08231 EQ PUSH2 0x37B JUMPI PUSH2 0x166 JUMP JUMPDEST DUP1 PUSH4 0x6FDDE03 EQ PUSH2 0x16B JUMPI DUP1 PUSH4 0x95EA7B3 EQ PUSH2 0x196 JUMPI DUP1 PUSH4 0x18160DDD EQ PUSH2 0x1D3 JUMPI DUP1 PUSH4 0x23B872DD EQ PUSH2 0x1FE JUMPI DUP1 PUSH4 0x313CE567 EQ PUSH2 0x23B JUMPI DUP1 PUSH4 0x3659CFE6 EQ PUSH2 0x266 JUMPI JUMPDEST PUSH1 0x0 DUP1 REVERT JUMPDEST CALLVALUE DUP1 ISZERO PUSH2 0x177 JUMPI PUSH1 0x0 DUP1 REVERT JUMPDEST POP PUSH2 0x180 PUSH2 0x5DE JUMP JUMPDEST PUSH1 0x40 MLOAD PUSH2 0x18D SWAP2 SWAP1 PUSH2 0x2564 JUMP JUMPDEST PUSH1 0x40 MLOAD DUP1 SWAP2 SUB SWAP1 RETURN JUMPDEST CALLVALUE DUP1 ISZERO PUSH2 0x1A2 JUMPI PUSH1 0x0 DUP1 REVERT JUMPDEST POP PUSH2 0x1BD PUSH1 0x4 DUP1 CALLDATASIZE SUB DUP2 ADD SWAP1 PUSH2 0x1B8 SWAP2 SWAP1 PUSH2 0x262E JUMP JUMPDEST PUSH2 0x670 JUMP JUMPDEST PUSH1 0x40 MLOAD PUSH2 0x1CA SWAP2 SWAP1 PUSH2 0x2689 JUMP JUMPDEST PUSH1 0x40 MLOAD DUP1 SWAP2 SUB SWAP1 RETURN JUMPDEST CALLVALUE DUP1 ISZERO PUSH2 0x1DF JUMPI PUSH1 0x0 DUP1 REVERT JUMPDEST POP PUSH2 0x1E8 PUSH2 0x693 JUMP JUMPDEST PUSH1 0x40 MLOAD PUSH2 0x1F5 SWAP2 SWAP1 PUSH2 0x26B3 JUMP JUMPDEST PUSH1 0x40 MLOAD DUP1 SWAP2 SUB SWAP1 RETURN JUMPDEST CALLVALUE DUP1 ISZERO PUSH2 0x20A JUMPI PUSH1 0x0 DUP1 REVERT JUMPDEST POP PUSH2 0x225 PUSH1 0x4 DUP1 CALLDATASIZE SUB DUP2 ADD SWAP1 PUSH2 0x220 SWAP2 SWAP1 PUSH2 0x26CE JUMP JUMPDEST PUSH2 0x69D JUMP JUMPDEST PUSH1 0x40 MLOAD PUSH2 0x232 SWAP2 SWAP1 PUSH2 0x2689 JUMP JUMPDEST PUSH1 0x40 MLOAD DUP1 SWAP2 SUB SWAP1 RETURN JUMPDEST CALLVALUE DUP1 ISZERO PUSH2 0x247 JUMPI PUSH1 0x0 DUP1 REVERT JUMPDEST POP PUSH2 0x250 PUSH2 0x6CC JUMP JUMPDEST PUSH1 0x40 MLOAD PUSH2 0x25D SWAP2 SWAP1 PUSH2 0x273D JUMP JUMPDEST PUSH1 0x40 MLOAD DUP1 SWAP2 SUB SWAP1 RETURN JUMPDEST CALLVALUE DUP1 ISZERO PUSH2 0x272 JUMPI PUSH1 0x0 DUP1 REVERT JUMPDEST POP PUSH2 0x28D PUSH1 0x4 DUP1 CALLDATASIZE SUB DUP2 ADD SWAP1 PUSH2 0x288 SWAP2 SWAP1 PUSH2 0x2758 JUMP JUMPDEST PUSH2 0x6D5 JUMP JUMPDEST STOP JUMPDEST CALLVALUE DUP1 ISZERO PUSH2 0x29B JUMPI PUSH1 0x0 DUP1 REVERT JUMPDEST POP PUSH2 0x2B6 PUSH1 0x4 DUP1 CALLDATASIZE SUB DUP2 ADD SWAP1 PUSH2 0x2B1 SWAP2 SWAP1 PUSH2 0x262E JUMP JUMPDEST PUSH2 0x85D JUMP JUMPDEST PUSH1 0x40 MLOAD PUSH2 0x2C3 SWAP2 SWAP1 PUSH2 0x2689 JUMP JUMPDEST PUSH1 0x40 MLOAD DUP1 SWAP2 SUB SWAP1 RETURN JUMPDEST CALLVALUE DUP1 ISZERO PUSH2 0x2D8 JUMPI PUSH1 0x0 DUP1 REVERT JUMPDEST POP PUSH2 0x2F3 PUSH1 0x4 DUP1 CALLDATASIZE SUB DUP2 ADD SWAP1 PUSH2 0x2EE SWAP2 SWAP1 PUSH2 0x2758 JUMP JUMPDEST PUSH2 0x894 JUMP JUMPDEST PUSH1 0x40 MLOAD PUSH2 0x300 SWAP2 SWAP1 PUSH2 0x26B3 JUMP JUMPDEST PUSH1 0x40 MLOAD DUP1 SWAP2 SUB SWAP1 RETURN JUMPDEST PUSH2 0x323 PUSH1 0x4 DUP1 CALLDATASIZE SUB DUP2 ADD SWAP1 PUSH2 0x31E SWAP2 SWAP1 PUSH2 0x28BA JUMP JUMPDEST PUSH2 0x939 JUMP JUMPDEST STOP JUMPDEST CALLVALUE DUP1 ISZERO PUSH2 0x331 JUMPI PUSH1 0x0 DUP1 REVERT JUMPDEST POP PUSH2 0x33A PUSH2 0xA75 JUMP JUMPDEST PUSH1 0x40 MLOAD PUSH2 0x347 SWAP2 SWAP1 PUSH2 0x292F JUMP JUMPDEST PUSH1 0x40 MLOAD DUP1 SWAP2 SUB SWAP1 RETURN JUMPDEST CALLVALUE DUP1 ISZERO PUSH2 0x35C JUMPI PUSH1 0x0 DUP1 REVERT JUMPDEST POP PUSH2 0x365 PUSH2 0xB2E JUMP JUMPDEST PUSH1 0x40 MLOAD PUSH2 0x372 SWAP2 SWAP1 PUSH2 0x2959 JUMP JUMPDEST PUSH1 0x40 MLOAD DUP1 SWAP2 SUB SWAP1 RETURN JUMPDEST CALLVALUE DUP1 ISZERO PUSH2 0x387 JUMPI PUSH1 0x0 DUP1 REVERT JUMPDEST POP PUSH2 0x3A2 PUSH1 0x4 DUP1 CALLDATASIZE SUB DUP2 ADD SWAP1 PUSH2 0x39D SWAP2 SWAP1 PUSH2 0x2758 JUMP JUMPDEST PUSH2 0xB58 JUMP JUMPDEST PUSH1 0x40 MLOAD PUSH2 0x3AF SWAP2 SWAP1 PUSH2 0x26B3 JUMP JUMPDEST PUSH1 0x40 MLOAD DUP1 SWAP2 SUB SWAP1 RETURN JUMPDEST CALLVALUE DUP1 ISZERO PUSH2 0x3C4 JUMPI PUSH1 0x0 DUP1 REVERT JUMPDEST POP PUSH2 0x3CD PUSH2 0xBA1 JUMP JUMPDEST STOP JUMPDEST CALLVALUE DUP1 ISZERO PUSH2 0x3DB JUMPI PUSH1 0x0 DUP1 REVERT JUMPDEST POP PUSH2 0x3F6 PUSH1 0x4 DUP1 CALLDATASIZE SUB DUP2 ADD SWAP1 PUSH2 0x3F1 SWAP2 SWAP1 PUSH2 0x2974 JUMP JUMPDEST PUSH2 0xBB5 JUMP JUMPDEST STOP JUMPDEST CALLVALUE DUP1 ISZERO PUSH2 0x404 JUMPI PUSH1 0x0 DUP1 REVERT JUMPDEST POP PUSH2 0x40D PUSH2 0xD0E JUMP JUMPDEST STOP JUMPDEST CALLVALUE DUP1 ISZERO PUSH2 0x41B JUMPI PUSH1 0x0 DUP1 REVERT JUMPDEST POP PUSH2 0x424 PUSH2 0xF9F JUMP JUMPDEST PUSH1 0x40 MLOAD PUSH2 0x431 SWAP2 SWAP1 PUSH2 0x2959 JUMP JUMPDEST PUSH1 0x40 MLOAD DUP1 SWAP2 SUB SWAP1 RETURN JUMPDEST CALLVALUE DUP1 ISZERO PUSH2 0x446 JUMPI PUSH1 0x0 DUP1 REVERT JUMPDEST POP PUSH2 0x44F PUSH2 0xFC9 JUMP JUMPDEST PUSH1 0x40 MLOAD PUSH2 0x45C SWAP2 SWAP1 PUSH2 0x26B3 JUMP JUMPDEST PUSH1 0x40 MLOAD DUP1 SWAP2 SUB SWAP1 RETURN JUMPDEST CALLVALUE DUP1 ISZERO PUSH2 0x471 JUMPI PUSH1 0x0 DUP1 REVERT JUMPDEST POP PUSH2 0x47A PUSH2 0x106A JUMP JUMPDEST PUSH1 0x40 MLOAD PUSH2 0x487 SWAP2 SWAP1 PUSH2 0x2564 JUMP JUMPDEST PUSH1 0x40 MLOAD DUP1 SWAP2 SUB SWAP1 RETURN JUMPDEST CALLVALUE DUP1 ISZERO PUSH2 0x49C JUMPI PUSH1 0x0 DUP1 REVERT JUMPDEST POP PUSH2 0x4B7 PUSH1 0x4 DUP1 CALLDATASIZE SUB DUP2 ADD SWAP1 PUSH2 0x4B2 SWAP2 SWAP1 PUSH2 0x262E JUMP JUMPDEST PUSH2 0x10FC JUMP JUMPDEST PUSH1 0x40 MLOAD PUSH2 0x4C4 SWAP2 SWAP1 PUSH2 0x2689 JUMP JUMPDEST PUSH1 0x40 MLOAD DUP1 SWAP2 SUB SWAP1 RETURN JUMPDEST CALLVALUE DUP1 ISZERO PUSH2 0x4D9 JUMPI PUSH1 0x0 DUP1 REVERT JUMPDEST POP PUSH2 0x4F4 PUSH1 0x4 DUP1 CALLDATASIZE SUB DUP2 ADD SWAP1 PUSH2 0x4EF SWAP2 SWAP1 PUSH2 0x262E JUMP JUMPDEST PUSH2 0x1173 JUMP JUMPDEST PUSH1 0x40 MLOAD PUSH2 0x501 SWAP2 SWAP1 PUSH2 0x2689 JUMP JUMPDEST PUSH1 0x40 MLOAD DUP1 SWAP2 SUB SWAP1 RETURN JUMPDEST CALLVALUE DUP1 ISZERO PUSH2 0x516 JUMPI PUSH1 0x0 DUP1 REVERT JUMPDEST POP PUSH2 0x531 PUSH1 0x4 DUP1 CALLDATASIZE SUB DUP2 ADD SWAP1 PUSH2 0x52C SWAP2 SWAP1 PUSH2 0x2974 JUMP JUMPDEST PUSH2 0x1196 JUMP JUMPDEST STOP JUMPDEST CALLVALUE DUP1 ISZERO PUSH2 0x53F JUMPI PUSH1 0x0 DUP1 REVERT JUMPDEST POP PUSH2 0x55A PUSH1 0x4 DUP1 CALLDATASIZE SUB DUP2 ADD SWAP1 PUSH2 0x555 SWAP2 SWAP1 PUSH2 0x2974 JUMP JUMPDEST PUSH2 0x130F JUMP JUMPDEST STOP JUMPDEST CALLVALUE DUP1 ISZERO PUSH2 0x568 JUMPI PUSH1 0x0 DUP1 REVERT JUMPDEST POP PUSH2 0x583 PUSH1 0x4 DUP1 CALLDATASIZE SUB DUP2 ADD SWAP1 PUSH2 0x57E SWAP2 SWAP1 PUSH2 0x29A1 JUMP JUMPDEST PUSH2 0x1321 JUMP JUMPDEST PUSH1 0x40 MLOAD PUSH2 0x590 SWAP2 SWAP1 PUSH2 0x26B3 JUMP JUMPDEST PUSH1 0x40 MLOAD DUP1 SWAP2 SUB SWAP1 RETURN JUMPDEST PUSH2 0x5B3 PUSH1 0x4 DUP1 CALLDATASIZE SUB DUP2 ADD SWAP1 PUSH2 0x5AE SWAP2 SWAP1 PUSH2 0x2974 JUMP JUMPDEST PUSH2 0x13A8 JUMP JUMPDEST STOP JUMPDEST CALLVALUE DUP1 ISZERO PUSH2 0x5C1 JUMPI PUSH1 0x0 DUP1 REVERT JUMPDEST POP PUSH2 0x5DC PUSH1 0x4 DUP1 CALLDATASIZE SUB DUP2 ADD SWAP1 PUSH2 0x5D7 SWAP2 SWAP1 PUSH2 0x2758 JUMP JUMPDEST PUSH2 0x149B JUMP JUMPDEST STOP JUMPDEST PUSH1 0x60 PUSH1 0x36 DUP1 SLOAD PUSH2 0x5ED SWAP1 PUSH2 0x2A10 JUMP JUMPDEST DUP1 PUSH1 0x1F ADD PUSH1 0x20 DUP1 SWAP2 DIV MUL PUSH1 0x20 ADD PUSH1 0x40 MLOAD SWAP1 DUP2 ADD PUSH1 0x40 MSTORE DUP1 SWAP3 SWAP2 SWAP1 DUP2 DUP2 MSTORE PUSH1 0x20 ADD DUP3 DUP1 SLOAD PUSH2 0x619 SWAP1 PUSH2 0x2A10 JUMP JUMPDEST DUP1 ISZERO PUSH2 0x666 JUMPI DUP1 PUSH1 0x1F LT PUSH2 0x63B JUMPI PUSH2 0x100 DUP1 DUP4 SLOAD DIV MUL DUP4 MSTORE SWAP2 PUSH1 0x20 ADD SWAP2 PUSH2 0x666 JUMP JUMPDEST DUP3 ADD SWAP2 SWAP1 PUSH1 0x0 MSTORE PUSH1 0x20 PUSH1 0x0 KECCAK256 SWAP1 JUMPDEST DUP2 SLOAD DUP2 MSTORE SWAP1 PUSH1 0x1 ADD SWAP1 PUSH1 0x20 ADD DUP1 DUP4 GT PUSH2 0x649 JUMPI DUP3 SWAP1 SUB PUSH1 0x1F AND DUP3 ADD SWAP2 JUMPDEST POP POP POP POP POP SWAP1 POP SWAP1 JUMP JUMPDEST PUSH1 0x0 DUP1 PUSH2 0x67B PUSH2 0x151E JUMP JUMPDEST SWAP1 POP PUSH2 0x688 DUP2 DUP6 DUP6 PUSH2 0x1526 JUMP JUMPDEST PUSH1 0x1 SWAP2 POP POP SWAP3 SWAP2 POP POP JUMP JUMPDEST PUSH1 0x0 PUSH1 0x35 SLOAD SWAP1 POP SWAP1 JUMP JUMPDEST PUSH1 0x0 DUP1 PUSH2 0x6A8 PUSH2 0x151E JUMP JUMPDEST SWAP1 POP PUSH2 0x6B5 DUP6 DUP3 DUP6 PUSH2 0x16EF JUMP JUMPDEST PUSH2 0x6C0 DUP6 DUP6 DUP6 PUSH2 0x177B JUMP JUMPDEST PUSH1 0x1 SWAP2 POP POP SWAP4 SWAP3 POP POP POP JUMP JUMPDEST PUSH1 0x0 PUSH1 0x12 SWAP1 POP SWAP1 JUMP JUMPDEST PUSH32 0x0 PUSH20 0xFFFFFFFFFFFFFFFFFFFFFFFFFFFFFFFFFFFFFFFF AND ADDRESS PUSH20 0xFFFFFFFFFFFFFFFFFFFFFFFFFFFFFFFFFFFFFFFF AND SUB PUSH2 0x763 JUMPI PUSH1 0x40 MLOAD PUSH32 0x8C379A000000000000000000000000000000000000000000000000000000000 DUP2 MSTORE PUSH1 0x4 ADD PUSH2 0x75A SWAP1 PUSH2 0x2AB3 JUMP JUMPDEST PUSH1 0x40 MLOAD DUP1 SWAP2 SUB SWAP1 REVERT JUMPDEST PUSH32 0x0 PUSH20 0xFFFFFFFFFFFFFFFFFFFFFFFFFFFFFFFFFFFFFFFF AND PUSH2 0x7A2 PUSH2 0x19F4 JUMP JUMPDEST PUSH20 0xFFFFFFFFFFFFFFFFFFFFFFFFFFFFFFFFFFFFFFFF AND EQ PUSH2 0x7F8 JUMPI PUSH1 0x40 MLOAD PUSH32 0x8C379A000000000000000000000000000000000000000000000000000000000 DUP2 MSTORE PUSH1 0x4 ADD PUSH2 0x7EF SWAP1 PUSH2 0x2B45 JUMP JUMPDEST PUSH1 0x40 MLOAD DUP1 SWAP2 SUB SWAP1 REVERT JUMPDEST PUSH2 0x801 DUP2 PUSH2 0x1A4B JUMP JUMPDEST PUSH2 0x85A DUP2 PUSH1 0x0 PUSH8 0xFFFFFFFFFFFFFFFF DUP2 GT ISZERO PUSH2 0x820 JUMPI PUSH2 0x81F PUSH2 0x278F JUMP JUMPDEST JUMPDEST PUSH1 0x40 MLOAD SWAP1 DUP1 DUP3 MSTORE DUP1 PUSH1 0x1F ADD PUSH1 0x1F NOT AND PUSH1 0x20 ADD DUP3 ADD PUSH1 0x40 MSTORE DUP1 ISZERO PUSH2 0x852 JUMPI DUP2 PUSH1 0x20 ADD PUSH1 0x1 DUP3 MUL DUP1 CALLDATASIZE DUP4 CALLDATACOPY DUP1 DUP3 ADD SWAP2 POP POP SWAP1 POP JUMPDEST POP PUSH1 0x0 PUSH2 0x1A56 JUMP JUMPDEST POP JUMP JUMPDEST PUSH1 0x0 DUP1 PUSH2 0x868 PUSH2 0x151E JUMP JUMPDEST SWAP1 POP PUSH2 0x889 DUP2 DUP6 DUP6 PUSH2 0x87A DUP6 DUP10 PUSH2 0x1321 JUMP JUMPDEST PUSH2 0x884 SWAP2 SWAP1 PUSH2 0x2B94 JUMP JUMPDEST PUSH2 0x1526 JUMP JUMPDEST PUSH1 0x1 SWAP2 POP POP SWAP3 SWAP2 POP POP JUMP JUMPDEST PUSH1 0x0 PUSH1 0xFD PUSH1 0x0 SWAP1 SLOAD SWAP1 PUSH2 0x100 EXP SWAP1 DIV PUSH20 0xFFFFFFFFFFFFFFFFFFFFFFFFFFFFFFFFFFFFFFFF AND PUSH20 0xFFFFFFFFFFFFFFFFFFFFFFFFFFFFFFFFFFFFFFFF AND PUSH4 0x70A08231 DUP4 PUSH1 0x40 MLOAD DUP3 PUSH4 0xFFFFFFFF AND PUSH1 0xE0 SHL DUP2 MSTORE PUSH1 0x4 ADD PUSH2 0x8F1 SWAP2 SWAP1 PUSH2 0x2959 JUMP JUMPDEST PUSH1 0x20 PUSH1 0x40 MLOAD DUP1 DUP4 SUB DUP2 DUP7 GAS STATICCALL ISZERO DUP1 ISZERO PUSH2 0x90E JUMPI RETURNDATASIZE PUSH1 0x0 DUP1 RETURNDATACOPY RETURNDATASIZE PUSH1 0x0 REVERT JUMPDEST POP POP POP POP PUSH1 0x40 MLOAD RETURNDATASIZE PUSH1 0x1F NOT PUSH1 0x1F DUP3 ADD AND DUP3 ADD DUP1 PUSH1 0x40 MSTORE POP DUP2 ADD SWAP1 PUSH2 0x932 SWAP2 SWAP1 PUSH2 0x2BDD JUMP JUMPDEST SWAP1 POP SWAP2 SWAP1 POP JUMP JUMPDEST PUSH32 0x0 PUSH20 0xFFFFFFFFFFFFFFFFFFFFFFFFFFFFFFFFFFFFFFFF AND ADDRESS PUSH20 0xFFFFFFFFFFFFFFFFFFFFFFFFFFFFFFFFFFFFFFFF AND SUB PUSH2 0x9C7 JUMPI PUSH1 0x40 MLOAD PUSH32 0x8C379A000000000000000000000000000000000000000000000000000000000 DUP2 MSTORE PUSH1 0x4 ADD PUSH2 0x9BE SWAP1 PUSH2 0x2AB3 JUMP JUMPDEST PUSH1 0x40 MLOAD DUP1 SWAP2 SUB SWAP1 REVERT JUMPDEST PUSH32 0x0 PUSH20 0xFFFFFFFFFFFFFFFFFFFFFFFFFFFFFFFFFFFFFFFF AND PUSH2 0xA06 PUSH2 0x19F4 JUMP JUMPDEST PUSH20 0xFFFFFFFFFFFFFFFFFFFFFFFFFFFFFFFFFFFFFFFF AND EQ PUSH2 0xA5C JUMPI PUSH1 0x40 MLOAD PUSH32 0x8C379A000000000000000000000000000000000000000000000000000000000 DUP2 MSTORE PUSH1 0x4 ADD PUSH2 0xA53 SWAP1 PUSH2 0x2B45 JUMP JUMPDEST PUSH1 0x40 MLOAD DUP1 SWAP2 SUB SWAP1 REVERT JUMPDEST PUSH2 0xA65 DUP3 PUSH2 0x1A4B JUMP JUMPDEST PUSH2 0xA71 DUP3 DUP3 PUSH1 0x1 PUSH2 0x1A56 JUMP JUMPDEST POP POP JUMP JUMPDEST PUSH1 0x0 PUSH32 0x0 PUSH20 0xFFFFFFFFFFFFFFFFFFFFFFFFFFFFFFFFFFFFFFFF AND ADDRESS PUSH20 0xFFFFFFFFFFFFFFFFFFFFFFFFFFFFFFFFFFFFFFFF AND EQ PUSH2 0xB05 JUMPI PUSH1 0x40 MLOAD PUSH32 0x8C379A000000000000000000000000000000000000000000000000000000000 DUP2 MSTORE PUSH1 0x4 ADD PUSH2 0xAFC SWAP1 PUSH2 0x2C7C JUMP JUMPDEST PUSH1 0x40 MLOAD DUP1 SWAP2 SUB SWAP1 REVERT JUMPDEST PUSH32 0x360894A13BA1A3210667C828492DB98DCA3E2076CC3735A920A3CA505D382BBC PUSH1 0x0 SHL SWAP1 POP SWAP1 JUMP JUMPDEST PUSH1 0x0 PUSH1 0xFD PUSH1 0x0 SWAP1 SLOAD SWAP1 PUSH2 0x100 EXP SWAP1 DIV PUSH20 0xFFFFFFFFFFFFFFFFFFFFFFFFFFFFFFFFFFFFFFFF AND SWAP1 POP SWAP1 JUMP JUMPDEST PUSH1 0x0 PUSH1 0x33 PUSH1 0x0 DUP4 PUSH20 0xFFFFFFFFFFFFFFFFFFFFFFFFFFFFFFFFFFFFFFFF AND PUSH20 0xFFFFFFFFFFFFFFFFFFFFFFFFFFFFFFFFFFFFFFFF AND DUP2 MSTORE PUSH1 0x20 ADD SWAP1 DUP2 MSTORE PUSH1 0x20 ADD PUSH1 0x0 KECCAK256 SLOAD SWAP1 POP SWAP2 SWAP1 POP JUMP JUMPDEST PUSH2 0xBA9 PUSH2 0x1BC4 JUMP JUMPDEST PUSH2 0xBB3 PUSH1 0x0 PUSH2 0x1C42 JUMP JUMPDEST JUMP JUMPDEST PUSH2 0xBBD PUSH2 0x6CC JUMP JUMPDEST PUSH1 0xA PUSH2 0xBC9 SWAP2 SWAP1 PUSH2 0x2DCF JUMP JUMPDEST DUP2 PUSH2 0xBD4 SWAP2 SWAP1 PUSH2 0x2E1A JUMP JUMPDEST PUSH2 0xBDD CALLER PUSH2 0xB58 JUMP JUMPDEST LT ISZERO PUSH2 0xC1E JUMPI PUSH1 0x40 MLOAD PUSH32 0x8C379A000000000000000000000000000000000000000000000000000000000 DUP2 MSTORE PUSH1 0x4 ADD PUSH2 0xC15 SWAP1 PUSH2 0x2EA8 JUMP JUMPDEST PUSH1 0x40 MLOAD DUP1 SWAP2 SUB SWAP1 REVERT JUMPDEST PUSH1 0x0 PUSH1 0xFB SLOAD DUP3 PUSH2 0xC2E SWAP2 SWAP1 PUSH2 0x2E1A JUMP JUMPDEST SWAP1 POP PUSH1 0x0 PUSH2 0xC3A PUSH2 0x6CC JUMP JUMPDEST PUSH1 0xA PUSH2 0xC46 SWAP2 SWAP1 PUSH2 0x2DCF JUMP JUMPDEST DUP4 PUSH2 0xC51 SWAP2 SWAP1 PUSH2 0x2E1A JUMP JUMPDEST SWAP1 POP PUSH2 0xC5D CALLER DUP3 PUSH2 0x1D08 JUMP JUMPDEST ADDRESS PUSH20 0xFFFFFFFFFFFFFFFFFFFFFFFFFFFFFFFFFFFFFFFF AND PUSH2 0x8FC DUP4 SWAP1 DUP2 ISZERO MUL SWAP1 PUSH1 0x40 MLOAD PUSH1 0x0 PUSH1 0x40 MLOAD DUP1 DUP4 SUB DUP2 DUP6 DUP9 DUP9 CALL SWAP4 POP POP POP POP ISZERO DUP1 ISZERO PUSH2 0xCA3 JUMPI RETURNDATASIZE PUSH1 0x0 DUP1 RETURNDATACOPY RETURNDATASIZE PUSH1 0x0 REVERT JUMPDEST POP ADDRESS PUSH20 0xFFFFFFFFFFFFFFFFFFFFFFFFFFFFFFFFFFFFFFFF AND CALLER PUSH20 0xFFFFFFFFFFFFFFFFFFFFFFFFFFFFFFFFFFFFFFFF AND PUSH32 0xDDF252AD1BE2C89B69C2B068FC378DAA952BA7F163C4A11628F55A4DF523B3EF DUP4 PUSH1 0x40 MLOAD PUSH2 0xD01 SWAP2 SWAP1 PUSH2 0x26B3 JUMP JUMPDEST PUSH1 0x40 MLOAD DUP1 SWAP2 SUB SWAP1 LOG3 POP POP POP JUMP JUMPDEST PUSH1 0x0 DUP1 PUSH1 0x1 SWAP1 SLOAD SWAP1 PUSH2 0x100 EXP SWAP1 DIV PUSH1 0xFF AND ISZERO SWAP1 POP DUP1 DUP1 ISZERO PUSH2 0xD3F JUMPI POP PUSH1 0x1 PUSH1 0x0 DUP1 SLOAD SWAP1 PUSH2 0x100 EXP SWAP1 DIV PUSH1 0xFF AND PUSH1 0xFF AND LT JUMPDEST DUP1 PUSH2 0xD6C JUMPI POP PUSH2 0xD4E ADDRESS PUSH2 0x1ED7 JUMP JUMPDEST ISZERO DUP1 ISZERO PUSH2 0xD6B JUMPI POP PUSH1 0x1 PUSH1 0x0 DUP1 SLOAD SWAP1 PUSH2 0x100 EXP SWAP1 DIV PUSH1 0xFF AND PUSH1 0xFF AND EQ JUMPDEST JUMPDEST PUSH2 0xDAB JUMPI PUSH1 0x40 MLOAD PUSH32 0x8C379A000000000000000000000000000000000000000000000000000000000 DUP2 MSTORE PUSH1 0x4 ADD PUSH2 0xDA2 SWAP1 PUSH2 0x2F3A JUMP JUMPDEST PUSH1 0x40 MLOAD DUP1 SWAP2 SUB SWAP1 REVERT JUMPDEST PUSH1 0x1 PUSH1 0x0 DUP1 PUSH2 0x100 EXP DUP2 SLOAD DUP2 PUSH1 0xFF MUL NOT AND SWAP1 DUP4 PUSH1 0xFF AND MUL OR SWAP1 SSTORE POP DUP1 ISZERO PUSH2 0xDE8 JUMPI PUSH1 0x1 PUSH1 0x0 PUSH1 0x1 PUSH2 0x100 EXP DUP2 SLOAD DUP2 PUSH1 0xFF MUL NOT AND SWAP1 DUP4 ISZERO ISZERO MUL OR SWAP1 SSTORE POP JUMPDEST PUSH2 0xE5C PUSH1 0x40 MLOAD DUP1 PUSH1 0x40 ADD PUSH1 0x40 MSTORE DUP1 PUSH1 0x9 DUP2 MSTORE PUSH1 0x20 ADD PUSH32 0x546F676F546F6B656E0000000000000000000000000000000000000000000000 DUP2 MSTORE POP PUSH1 0x40 MLOAD DUP1 PUSH1 0x40 ADD PUSH1 0x40 MSTORE DUP1 PUSH1 0x3 DUP2 MSTORE PUSH1 0x20 ADD PUSH32 0x54474B0000000000000000000000000000000000000000000000000000000000 DUP2 MSTORE POP PUSH2 0x1EFA JUMP JUMPDEST PUSH2 0xE64 PUSH2 0x1F57 JUMP JUMPDEST PUSH2 0xE6C PUSH2 0x1FB0 JUMP JUMPDEST PUSH20 0x12162C3E810393DEC01362ABF156D7ECF6159528 PUSH1 0xFC PUSH1 0x0 PUSH2 0x100 EXP DUP2 SLOAD DUP2 PUSH20 0xFFFFFFFFFFFFFFFFFFFFFFFFFFFFFFFFFFFFFFFF MUL NOT AND SWAP1 DUP4 PUSH20 0xFFFFFFFFFFFFFFFFFFFFFFFFFFFFFFFFFFFFFFFF AND MUL OR SWAP1 SSTORE POP PUSH20 0x326C977E6EFC84E512BB9C30F76E30C160ED06FB PUSH1 0xFD PUSH1 0x0 PUSH2 0x100 EXP DUP2 SLOAD DUP2 PUSH20 0xFFFFFFFFFFFFFFFFFFFFFFFFFFFFFFFFFFFFFFFF MUL NOT AND SWAP1 DUP4 PUSH20 0xFFFFFFFFFFFFFFFFFFFFFFFFFFFFFFFFFFFFFFFF AND MUL OR SWAP1 SSTORE POP PUSH2 0xF43 CALLER PUSH2 0xF22 PUSH2 0x6CC JUMP JUMPDEST PUSH1 0xA PUSH2 0xF2E SWAP2 SWAP1 PUSH2 0x2DCF JUMP JUMPDEST PUSH5 0x1A13B8600 PUSH2 0xF3E SWAP2 SWAP1 PUSH2 0x2E1A JUMP JUMPDEST PUSH2 0x2001 JUMP JUMPDEST DUP1 ISZERO PUSH2 0xF9C JUMPI PUSH1 0x0 DUP1 PUSH1 0x1 PUSH2 0x100 EXP DUP2 SLOAD DUP2 PUSH1 0xFF MUL NOT AND SWAP1 DUP4 ISZERO ISZERO MUL OR SWAP1 SSTORE POP PUSH32 0x7F26B83FF96E1F2B6A682F133852F6798A09C465DA95921460CEFB3847402498 PUSH1 0x1 PUSH1 0x40 MLOAD PUSH2 0xF93 SWAP2 SWAP1 PUSH2 0x2F9F JUMP JUMPDEST PUSH1 0x40 MLOAD DUP1 SWAP2 SUB SWAP1 LOG1 JUMPDEST POP JUMP JUMPDEST PUSH1 0x0 PUSH1 0x65 PUSH1 0x0 SWAP1 SLOAD SWAP1 PUSH2 0x100 EXP SWAP1 DIV PUSH20 0xFFFFFFFFFFFFFFFFFFFFFFFFFFFFFFFFFFFFFFFF AND SWAP1 POP SWAP1 JUMP JUMPDEST PUSH1 0x0 DUP1 PUSH1 0xFC PUSH1 0x0 SWAP1 SLOAD SWAP1 PUSH2 0x100 EXP SWAP1 DIV PUSH20 0xFFFFFFFFFFFFFFFFFFFFFFFFFFFFFFFFFFFFFFFF AND PUSH20 0xFFFFFFFFFFFFFFFFFFFFFFFFFFFFFFFFFFFFFFFF AND PUSH4 0xFEAF968C PUSH1 0x40 MLOAD DUP2 PUSH4 0xFFFFFFFF AND PUSH1 0xE0 SHL DUP2 MSTORE PUSH1 0x4 ADD PUSH1 0xA0 PUSH1 0x40 MLOAD DUP1 DUP4 SUB DUP2 DUP7 GAS STATICCALL ISZERO DUP1 ISZERO PUSH2 0x1039 JUMPI RETURNDATASIZE PUSH1 0x0 DUP1 RETURNDATACOPY RETURNDATASIZE PUSH1 0x0 REVERT JUMPDEST POP POP POP POP PUSH1 0x40 MLOAD RETURNDATASIZE PUSH1 0x1F NOT PUSH1 0x1F DUP3 ADD AND DUP3 ADD DUP1 PUSH1 0x40 MSTORE POP DUP2 ADD SWAP1 PUSH2 0x105D SWAP2 SWAP1 PUSH2 0x3032 JUMP JUMPDEST POP POP POP SWAP2 POP POP DUP1 SWAP2 POP POP SWAP1 JUMP JUMPDEST PUSH1 0x60 PUSH1 0x37 DUP1 SLOAD PUSH2 0x1079 SWAP1 PUSH2 0x2A10 JUMP JUMPDEST DUP1 PUSH1 0x1F ADD PUSH1 0x20 DUP1 SWAP2 DIV MUL PUSH1 0x20 ADD PUSH1 0x40 MLOAD SWAP1 DUP2 ADD PUSH1 0x40 MSTORE DUP1 SWAP3 SWAP2 SWAP1 DUP2 DUP2 MSTORE PUSH1 0x20 ADD DUP3 DUP1 SLOAD PUSH2 0x10A5 SWAP1 PUSH2 0x2A10 JUMP JUMPDEST DUP1 ISZERO PUSH2 0x10F2 JUMPI DUP1 PUSH1 0x1F LT PUSH2 0x10C7 JUMPI PUSH2 0x100 DUP1 DUP4 SLOAD DIV MUL DUP4 MSTORE SWAP2 PUSH1 0x20 ADD SWAP2 PUSH2 0x10F2 JUMP JUMPDEST DUP3 ADD SWAP2 SWAP1 PUSH1 0x0 MSTORE PUSH1 0x20 PUSH1 0x0 KECCAK256 SWAP1 JUMPDEST DUP2 SLOAD DUP2 MSTORE SWAP1 PUSH1 0x1 ADD SWAP1 PUSH1 0x20 ADD DUP1 DUP4 GT PUSH2 0x10D5 JUMPI DUP3 SWAP1 SUB PUSH1 0x1F AND DUP3 ADD SWAP2 JUMPDEST POP POP POP POP POP SWAP1 POP SWAP1 JUMP JUMPDEST PUSH1 0x0 DUP1 PUSH2 0x1107 PUSH2 0x151E JUMP JUMPDEST SWAP1 POP PUSH1 0x0 PUSH2 0x1115 DUP3 DUP7 PUSH2 0x1321 JUMP JUMPDEST SWAP1 POP DUP4 DUP2 LT ISZERO PUSH2 0x115A JUMPI PUSH1 0x40 MLOAD PUSH32 0x8C379A000000000000000000000000000000000000000000000000000000000 DUP2 MSTORE PUSH1 0x4 ADD PUSH2 0x1151 SWAP1 PUSH2 0x311F JUMP JUMPDEST PUSH1 0x40 MLOAD DUP1 SWAP2 SUB SWAP1 REVERT JUMPDEST PUSH2 0x1167 DUP3 DUP7 DUP7 DUP5 SUB PUSH2 0x1526 JUMP JUMPDEST PUSH1 0x1 SWAP3 POP POP POP SWAP3 SWAP2 POP POP JUMP JUMPDEST PUSH1 0x0 DUP1 PUSH2 0x117E PUSH2 0x151E JUMP JUMPDEST SWAP1 POP PUSH2 0x118B DUP2 DUP6 DUP6 PUSH2 0x177B JUMP JUMPDEST PUSH1 0x1 SWAP2 POP POP SWAP3 SWAP2 POP POP JUMP JUMPDEST PUSH2 0x11A0 ADDRESS DUP3 PUSH2 0x1173 JUMP JUMPDEST POP PUSH1 0xFD PUSH1 0x0 SWAP1 SLOAD SWAP1 PUSH2 0x100 EXP SWAP1 DIV PUSH20 0xFFFFFFFFFFFFFFFFFFFFFFFFFFFFFFFFFFFFFFFF AND PUSH20 0xFFFFFFFFFFFFFFFFFFFFFFFFFFFFFFFFFFFFFFFF AND PUSH4 0xA9059CBB CALLER DUP4 PUSH1 0x40 MLOAD DUP4 PUSH4 0xFFFFFFFF AND PUSH1 0xE0 SHL DUP2 MSTORE PUSH1 0x4 ADD PUSH2 0x11FE SWAP3 SWAP2 SWAP1 PUSH2 0x313F JUMP JUMPDEST PUSH1 0x20 PUSH1 0x40 MLOAD DUP1 DUP4 SUB DUP2 PUSH1 0x0 DUP8 GAS CALL ISZERO DUP1 ISZERO PUSH2 0x121D JUMPI RETURNDATASIZE PUSH1 0x0 DUP1 RETURNDATACOPY RETURNDATASIZE PUSH1 0x0 REVERT JUMPDEST POP POP POP POP PUSH1 0x40 MLOAD RETURNDATASIZE PUSH1 0x1F NOT PUSH1 0x1F DUP3 ADD AND DUP3 ADD DUP1 PUSH1 0x40 MSTORE POP DUP2 ADD SWAP1 PUSH2 0x1241 SWAP2 SWAP1 PUSH2 0x3194 JUMP JUMPDEST POP ADDRESS PUSH20 0xFFFFFFFFFFFFFFFFFFFFFFFFFFFFFFFFFFFFFFFF AND CALLER PUSH20 0xFFFFFFFFFFFFFFFFFFFFFFFFFFFFFFFFFFFFFFFF AND PUSH32 0xDDF252AD1BE2C89B69C2B068FC378DAA952BA7F163C4A11628F55A4DF523B3EF DUP4 PUSH1 0x40 MLOAD PUSH2 0x129F SWAP2 SWAP1 PUSH2 0x26B3 JUMP JUMPDEST PUSH1 0x40 MLOAD DUP1 SWAP2 SUB SWAP1 LOG3 CALLER PUSH20 0xFFFFFFFFFFFFFFFFFFFFFFFFFFFFFFFFFFFFFFFF AND ADDRESS PUSH20 0xFFFFFFFFFFFFFFFFFFFFFFFFFFFFFFFFFFFFFFFF AND PUSH32 0xDDF252AD1BE2C89B69C2B068FC378DAA952BA7F163C4A11628F55A4DF523B3EF DUP4 PUSH1 0x40 MLOAD PUSH2 0x1304 SWAP2 SWAP1 PUSH2 0x26B3 JUMP JUMPDEST PUSH1 0x40 MLOAD DUP1 SWAP2 SUB SWAP1 LOG3 POP JUMP JUMPDEST PUSH2 0x1317 PUSH2 0x1BC4 JUMP JUMPDEST DUP1 PUSH1 0xFB DUP2 SWAP1 SSTORE POP POP JUMP JUMPDEST PUSH1 0x0 PUSH1 0x34 PUSH1 0x0 DUP5 PUSH20 0xFFFFFFFFFFFFFFFFFFFFFFFFFFFFFFFFFFFFFFFF AND PUSH20 0xFFFFFFFFFFFFFFFFFFFFFFFFFFFFFFFFFFFFFFFF AND DUP2 MSTORE PUSH1 0x20 ADD SWAP1 DUP2 MSTORE PUSH1 0x20 ADD PUSH1 0x0 KECCAK256 PUSH1 0x0 DUP4 PUSH20 0xFFFFFFFFFFFFFFFFFFFFFFFFFFFFFFFFFFFFFFFF AND PUSH20 0xFFFFFFFFFFFFFFFFFFFFFFFFFFFFFFFFFFFFFFFF AND DUP2 MSTORE PUSH1 0x20 ADD SWAP1 DUP2 MSTORE PUSH1 0x20 ADD PUSH1 0x0 KECCAK256 SLOAD SWAP1 POP SWAP3 SWAP2 POP POP JUMP JUMPDEST PUSH1 0xFB SLOAD DUP2 PUSH2 0x13B6 SWAP2 SWAP1 PUSH2 0x2E1A JUMP JUMPDEST CALLVALUE LT ISZERO PUSH2 0x13F8 JUMPI PUSH1 0x40 MLOAD PUSH32 0x8C379A000000000000000000000000000000000000000000000000000000000 DUP2 MSTORE PUSH1 0x4 ADD PUSH2 0x13EF SWAP1 PUSH2 0x3233 JUMP JUMPDEST PUSH1 0x40 MLOAD DUP1 SWAP2 SUB SWAP1 REVERT JUMPDEST PUSH1 0x0 PUSH1 0xFB SLOAD DUP3 PUSH2 0x1408 SWAP2 SWAP1 PUSH2 0x3282 JUMP JUMPDEST SWAP1 POP PUSH2 0x1432 CALLER PUSH2 0x1416 PUSH2 0x6CC JUMP JUMPDEST PUSH1 0xA PUSH2 0x1422 SWAP2 SWAP1 PUSH2 0x2DCF JUMP JUMPDEST DUP4 PUSH2 0x142D SWAP2 SWAP1 PUSH2 0x2E1A JUMP JUMPDEST PUSH2 0x2001 JUMP JUMPDEST CALLER PUSH20 0xFFFFFFFFFFFFFFFFFFFFFFFFFFFFFFFFFFFFFFFF AND ADDRESS PUSH20 0xFFFFFFFFFFFFFFFFFFFFFFFFFFFFFFFFFFFFFFFF AND PUSH32 0xDDF252AD1BE2C89B69C2B068FC378DAA952BA7F163C4A11628F55A4DF523B3EF DUP4 PUSH1 0x40 MLOAD PUSH2 0x148F SWAP2 SWAP1 PUSH2 0x26B3 JUMP JUMPDEST PUSH1 0x40 MLOAD DUP1 SWAP2 SUB SWAP1 LOG3 POP POP JUMP JUMPDEST PUSH2 0x14A3 PUSH2 0x1BC4 JUMP JUMPDEST PUSH1 0x0 PUSH20 0xFFFFFFFFFFFFFFFFFFFFFFFFFFFFFFFFFFFFFFFF AND DUP2 PUSH20 0xFFFFFFFFFFFFFFFFFFFFFFFFFFFFFFFFFFFFFFFF AND SUB PUSH2 0x1512 JUMPI PUSH1 0x40 MLOAD PUSH32 0x8C379A000000000000000000000000000000000000000000000000000000000 DUP2 MSTORE PUSH1 0x4 ADD PUSH2 0x1509 SWAP1 PUSH2 0x3325 JUMP JUMPDEST PUSH1 0x40 MLOAD DUP1 SWAP2 SUB SWAP1 REVERT JUMPDEST PUSH2 0x151B DUP2 PUSH2 0x1C42 JUMP JUMPDEST POP JUMP JUMPDEST PUSH1 0x0 CALLER SWAP1 POP SWAP1 JUMP JUMPDEST PUSH1 0x0 PUSH20 0xFFFFFFFFFFFFFFFFFFFFFFFFFFFFFFFFFFFFFFFF AND DUP4 PUSH20 0xFFFFFFFFFFFFFFFFFFFFFFFFFFFFFFFFFFFFFFFF AND SUB PUSH2 0x1595 JUMPI PUSH1 0x40 MLOAD PUSH32 0x8C379A000000000000000000000000000000000000000000000000000000000 DUP2 MSTORE PUSH1 0x4 ADD PUSH2 0x158C SWAP1 PUSH2 0x33B7 JUMP JUMPDEST PUSH1 0x40 MLOAD DUP1 SWAP2 SUB SWAP1 REVERT JUMPDEST PUSH1 0x0 PUSH20 0xFFFFFFFFFFFFFFFFFFFFFFFFFFFFFFFFFFFFFFFF AND DUP3 PUSH20 0xFFFFFFFFFFFFFFFFFFFFFFFFFFFFFFFFFFFFFFFF AND SUB PUSH2 0x1604 JUMPI PUSH1 0x40 MLOAD PUSH32 0x8C379A000000000000000000000000000000000000000000000000000000000 DUP2 MSTORE PUSH1 0x4 ADD PUSH2 0x15FB SWAP1 PUSH2 0x3449 JUMP JUMPDEST PUSH1 0x40 MLOAD DUP1 SWAP2 SUB SWAP1 REVERT JUMPDEST DUP1 PUSH1 0x34 PUSH1 0x0 DUP6 PUSH20 0xFFFFFFFFFFFFFFFFFFFFFFFFFFFFFFFFFFFFFFFF AND PUSH20 0xFFFFFFFFFFFFFFFFFFFFFFFFFFFFFFFFFFFFFFFF AND DUP2 MSTORE PUSH1 0x20 ADD SWAP1 DUP2 MSTORE PUSH1 0x20 ADD PUSH1 0x0 KECCAK256 PUSH1 0x0 DUP5 PUSH20 0xFFFFFFFFFFFFFFFFFFFFFFFFFFFFFFFFFFFFFFFF AND PUSH20 0xFFFFFFFFFFFFFFFFFFFFFFFFFFFFFFFFFFFFFFFF AND DUP2 MSTORE PUSH1 0x20 ADD SWAP1 DUP2 MSTORE PUSH1 0x20 ADD PUSH1 0x0 KECCAK256 DUP2 SWAP1 SSTORE POP DUP2 PUSH20 0xFFFFFFFFFFFFFFFFFFFFFFFFFFFFFFFFFFFFFFFF AND DUP4 PUSH20 0xFFFFFFFFFFFFFFFFFFFFFFFFFFFFFFFFFFFFFFFF AND PUSH32 0x8C5BE1E5EBEC7D5BD14F71427D1E84F3DD0314C0F7B2291E5B200AC8C7C3B925 DUP4 PUSH1 0x40 MLOAD PUSH2 0x16E2 SWAP2 SWAP1 PUSH2 0x26B3 JUMP JUMPDEST PUSH1 0x40 MLOAD DUP1 SWAP2 SUB SWAP1 LOG3 POP POP POP JUMP JUMPDEST PUSH1 0x0 PUSH2 0x16FB DUP5 DUP5 PUSH2 0x1321 JUMP JUMPDEST SWAP1 POP PUSH32 0xFFFFFFFFFFFFFFFFFFFFFFFFFFFFFFFFFFFFFFFFFFFFFFFFFFFFFFFFFFFFFFFF DUP2 EQ PUSH2 0x1775 JUMPI DUP2 DUP2 LT ISZERO PUSH2 0x1767 JUMPI PUSH1 0x40 MLOAD PUSH32 0x8C379A000000000000000000000000000000000000000000000000000000000 DUP2 MSTORE PUSH1 0x4 ADD PUSH2 0x175E SWAP1 PUSH2 0x34B5 JUMP JUMPDEST PUSH1 0x40 MLOAD DUP1 SWAP2 SUB SWAP1 REVERT JUMPDEST PUSH2 0x1774 DUP5 DUP5 DUP5 DUP5 SUB PUSH2 0x1526 JUMP JUMPDEST JUMPDEST POP POP POP POP JUMP JUMPDEST PUSH1 0x0 PUSH20 0xFFFFFFFFFFFFFFFFFFFFFFFFFFFFFFFFFFFFFFFF AND DUP4 PUSH20 0xFFFFFFFFFFFFFFFFFFFFFFFFFFFFFFFFFFFFFFFF AND SUB PUSH2 0x17EA JUMPI PUSH1 0x40 MLOAD PUSH32 0x8C379A000000000000000000000000000000000000000000000000000000000 DUP2 MSTORE PUSH1 0x4 ADD PUSH2 0x17E1 SWAP1 PUSH2 0x3547 JUMP JUMPDEST PUSH1 0x40 MLOAD DUP1 SWAP2 SUB SWAP1 REVERT JUMPDEST PUSH1 0x0 PUSH20 0xFFFFFFFFFFFFFFFFFFFFFFFFFFFFFFFFFFFFFFFF AND DUP3 PUSH20 0xFFFFFFFFFFFFFFFFFFFFFFFFFFFFFFFFFFFFFFFF AND SUB PUSH2 0x1859 JUMPI PUSH1 0x40 MLOAD PUSH32 0x8C379A000000000000000000000000000000000000000000000000000000000 DUP2 MSTORE PUSH1 0x4 ADD PUSH2 0x1850 SWAP1 PUSH2 0x35D9 JUMP JUMPDEST PUSH1 0x40 MLOAD DUP1 SWAP2 SUB SWAP1 REVERT JUMPDEST PUSH2 0x1864 DUP4 DUP4 DUP4 PUSH2 0x2158 JUMP JUMPDEST PUSH1 0x0 PUSH1 0x33 PUSH1 0x0 DUP6 PUSH20 0xFFFFFFFFFFFFFFFFFFFFFFFFFFFFFFFFFFFFFFFF AND PUSH20 0xFFFFFFFFFFFFFFFFFFFFFFFFFFFFFFFFFFFFFFFF AND DUP2 MSTORE PUSH1 0x20 ADD SWAP1 DUP2 MSTORE PUSH1 0x20 ADD PUSH1 0x0 KECCAK256 SLOAD SWAP1 POP DUP2 DUP2 LT ISZERO PUSH2 0x18EB JUMPI PUSH1 0x40 MLOAD PUSH32 0x8C379A000000000000000000000000000000000000000000000000000000000 DUP2 MSTORE PUSH1 0x4 ADD PUSH2 0x18E2 SWAP1 PUSH2 0x366B JUMP JUMPDEST PUSH1 0x40 MLOAD DUP1 SWAP2 SUB SWAP1 REVERT JUMPDEST DUP2 DUP2 SUB PUSH1 0x33 PUSH1 0x0 DUP7 PUSH20 0xFFFFFFFFFFFFFFFFFFFFFFFFFFFFFFFFFFFFFFFF AND PUSH20 0xFFFFFFFFFFFFFFFFFFFFFFFFFFFFFFFFFFFFFFFF AND DUP2 MSTORE PUSH1 0x20 ADD SWAP1 DUP2 MSTORE PUSH1 0x20 ADD PUSH1 0x0 KECCAK256 DUP2 SWAP1 SSTORE POP DUP2 PUSH1 0x33 PUSH1 0x0 DUP6 PUSH20 0xFFFFFFFFFFFFFFFFFFFFFFFFFFFFFFFFFFFFFFFF AND PUSH20 0xFFFFFFFFFFFFFFFFFFFFFFFFFFFFFFFFFFFFFFFF AND DUP2 MSTORE PUSH1 0x20 ADD SWAP1 DUP2 MSTORE PUSH1 0x20 ADD PUSH1 0x0 KECCAK256 PUSH1 0x0 DUP3 DUP3 SLOAD ADD SWAP3 POP POP DUP2 SWAP1 SSTORE POP DUP3 PUSH20 0xFFFFFFFFFFFFFFFFFFFFFFFFFFFFFFFFFFFFFFFF AND DUP5 PUSH20 0xFFFFFFFFFFFFFFFFFFFFFFFFFFFFFFFFFFFFFFFF AND PUSH32 0xDDF252AD1BE2C89B69C2B068FC378DAA952BA7F163C4A11628F55A4DF523B3EF DUP5 PUSH1 0x40 MLOAD PUSH2 0x19DB SWAP2 SWAP1 PUSH2 0x26B3 JUMP JUMPDEST PUSH1 0x40 MLOAD DUP1 SWAP2 SUB SWAP1 LOG3 PUSH2 0x19EE DUP5 DUP5 DUP5 PUSH2 0x215D JUMP JUMPDEST POP POP POP POP JUMP JUMPDEST PUSH1 0x0 PUSH2 0x1A22 PUSH32 0x360894A13BA1A3210667C828492DB98DCA3E2076CC3735A920A3CA505D382BBC PUSH1 0x0 SHL PUSH2 0x2162 JUMP JUMPDEST PUSH1 0x0 ADD PUSH1 0x0 SWAP1 SLOAD SWAP1 PUSH2 0x100 EXP SWAP1 DIV PUSH20 0xFFFFFFFFFFFFFFFFFFFFFFFFFFFFFFFFFFFFFFFF AND SWAP1 POP SWAP1 JUMP JUMPDEST PUSH2 0x1A53 PUSH2 0x1BC4 JUMP JUMPDEST POP JUMP JUMPDEST PUSH2 0x1A82 PUSH32 0x4910FDFA16FED3260ED0E7147F7CC6DA11A60208B5B9406D12A635614FFD9143 PUSH1 0x0 SHL PUSH2 0x216C JUMP JUMPDEST PUSH1 0x0 ADD PUSH1 0x0 SWAP1 SLOAD SWAP1 PUSH2 0x100 EXP SWAP1 DIV PUSH1 0xFF AND ISZERO PUSH2 0x1AA6 JUMPI PUSH2 0x1AA1 DUP4 PUSH2 0x2176 JUMP JUMPDEST PUSH2 0x1BBF JUMP JUMPDEST DUP3 PUSH20 0xFFFFFFFFFFFFFFFFFFFFFFFFFFFFFFFFFFFFFFFF AND PUSH4 0x52D1902D PUSH1 0x40 MLOAD DUP2 PUSH4 0xFFFFFFFF AND PUSH1 0xE0 SHL DUP2 MSTORE PUSH1 0x4 ADD PUSH1 0x20 PUSH1 0x40 MLOAD DUP1 DUP4 SUB DUP2 DUP7 GAS STATICCALL SWAP3 POP POP POP DUP1 ISZERO PUSH2 0x1B0E JUMPI POP PUSH1 0x40 MLOAD RETURNDATASIZE PUSH1 0x1F NOT PUSH1 0x1F DUP3 ADD AND DUP3 ADD DUP1 PUSH1 0x40 MSTORE POP DUP2 ADD SWAP1 PUSH2 0x1B0B SWAP2 SWAP1 PUSH2 0x36B7 JUMP JUMPDEST PUSH1 0x1 JUMPDEST PUSH2 0x1B4D JUMPI PUSH1 0x40 MLOAD PUSH32 0x8C379A000000000000000000000000000000000000000000000000000000000 DUP2 MSTORE PUSH1 0x4 ADD PUSH2 0x1B44 SWAP1 PUSH2 0x3756 JUMP JUMPDEST PUSH1 0x40 MLOAD DUP1 SWAP2 SUB SWAP1 REVERT JUMPDEST PUSH32 0x360894A13BA1A3210667C828492DB98DCA3E2076CC3735A920A3CA505D382BBC PUSH1 0x0 SHL DUP2 EQ PUSH2 0x1BB2 JUMPI PUSH1 0x40 MLOAD PUSH32 0x8C379A000000000000000000000000000000000000000000000000000000000 DUP2 MSTORE PUSH1 0x4 ADD PUSH2 0x1BA9 SWAP1 PUSH2 0x37E8 JUMP JUMPDEST PUSH1 0x40 MLOAD DUP1 SWAP2 SUB SWAP1 REVERT JUMPDEST POP PUSH2 0x1BBE DUP4 DUP4 DUP4 PUSH2 0x222F JUMP JUMPDEST JUMPDEST POP POP POP JUMP JUMPDEST PUSH2 0x1BCC PUSH2 0x151E JUMP JUMPDEST PUSH20 0xFFFFFFFFFFFFFFFFFFFFFFFFFFFFFFFFFFFFFFFF AND PUSH2 0x1BEA PUSH2 0xF9F JUMP JUMPDEST PUSH20 0xFFFFFFFFFFFFFFFFFFFFFFFFFFFFFFFFFFFFFFFF AND EQ PUSH2 0x1C40 JUMPI PUSH1 0x40 MLOAD PUSH32 0x8C379A000000000000000000000000000000000000000000000000000000000 DUP2 MSTORE PUSH1 0x4 ADD PUSH2 0x1C37 SWAP1 PUSH2 0x3854 JUMP JUMPDEST PUSH1 0x40 MLOAD DUP1 SWAP2 SUB SWAP1 REVERT JUMPDEST JUMP JUMPDEST PUSH1 0x0 PUSH1 0x65 PUSH1 0x0 SWAP1 SLOAD SWAP1 PUSH2 0x100 EXP SWAP1 DIV PUSH20 0xFFFFFFFFFFFFFFFFFFFFFFFFFFFFFFFFFFFFFFFF AND SWAP1 POP DUP2 PUSH1 0x65 PUSH1 0x0 PUSH2 0x100 EXP DUP2 SLOAD DUP2 PUSH20 0xFFFFFFFFFFFFFFFFFFFFFFFFFFFFFFFFFFFFFFFF MUL NOT AND SWAP1 DUP4 PUSH20 0xFFFFFFFFFFFFFFFFFFFFFFFFFFFFFFFFFFFFFFFF AND MUL OR SWAP1 SSTORE POP DUP2 PUSH20 0xFFFFFFFFFFFFFFFFFFFFFFFFFFFFFFFFFFFFFFFF AND DUP2 PUSH20 0xFFFFFFFFFFFFFFFFFFFFFFFFFFFFFFFFFFFFFFFF AND PUSH32 0x8BE0079C531659141344CD1FD0A4F28419497F9722A3DAAFE3B4186F6B6457E0 PUSH1 0x40 MLOAD PUSH1 0x40 MLOAD DUP1 SWAP2 SUB SWAP1 LOG3 POP POP JUMP JUMPDEST PUSH1 0x0 PUSH20 0xFFFFFFFFFFFFFFFFFFFFFFFFFFFFFFFFFFFFFFFF AND DUP3 PUSH20 0xFFFFFFFFFFFFFFFFFFFFFFFFFFFFFFFFFFFFFFFF AND SUB PUSH2 0x1D77 JUMPI PUSH1 0x40 MLOAD PUSH32 0x8C379A000000000000000000000000000000000000000000000000000000000 DUP2 MSTORE PUSH1 0x4 ADD PUSH2 0x1D6E SWAP1 PUSH2 0x38E6 JUMP JUMPDEST PUSH1 0x40 MLOAD DUP1 SWAP2 SUB SWAP1 REVERT JUMPDEST PUSH2 0x1D83 DUP3 PUSH1 0x0 DUP4 PUSH2 0x2158 JUMP JUMPDEST PUSH1 0x0 PUSH1 0x33 PUSH1 0x0 DUP5 PUSH20 0xFFFFFFFFFFFFFFFFFFFFFFFFFFFFFFFFFFFFFFFF AND PUSH20 0xFFFFFFFFFFFFFFFFFFFFFFFFFFFFFFFFFFFFFFFF AND DUP2 MSTORE PUSH1 0x20 ADD SWAP1 DUP2 MSTORE PUSH1 0x20 ADD PUSH1 0x0 KECCAK256 SLOAD SWAP1 POP DUP2 DUP2 LT ISZERO PUSH2 0x1E0A JUMPI PUSH1 0x40 MLOAD PUSH32 0x8C379A000000000000000000000000000000000000000000000000000000000 DUP2 MSTORE PUSH1 0x4 ADD PUSH2 0x1E01 SWAP1 PUSH2 0x3978 JUMP JUMPDEST PUSH1 0x40 MLOAD DUP1 SWAP2 SUB SWAP1 REVERT JUMPDEST DUP2 DUP2 SUB PUSH1 0x33 PUSH1 0x0 DUP6 PUSH20 0xFFFFFFFFFFFFFFFFFFFFFFFFFFFFFFFFFFFFFFFF AND PUSH20 0xFFFFFFFFFFFFFFFFFFFFFFFFFFFFFFFFFFFFFFFF AND DUP2 MSTORE PUSH1 0x20 ADD SWAP1 DUP2 MSTORE PUSH1 0x20 ADD PUSH1 0x0 KECCAK256 DUP2 SWAP1 SSTORE POP DUP2 PUSH1 0x35 PUSH1 0x0 DUP3 DUP3 SLOAD SUB SWAP3 POP POP DUP2 SWAP1 SSTORE POP PUSH1 0x0 PUSH20 0xFFFFFFFFFFFFFFFFFFFFFFFFFFFFFFFFFFFFFFFF AND DUP4 PUSH20 0xFFFFFFFFFFFFFFFFFFFFFFFFFFFFFFFFFFFFFFFF AND PUSH32 0xDDF252AD1BE2C89B69C2B068FC378DAA952BA7F163C4A11628F55A4DF523B3EF DUP5 PUSH1 0x40 MLOAD PUSH2 0x1EBE SWAP2 SWAP1 PUSH2 0x26B3 JUMP JUMPDEST PUSH1 0x40 MLOAD DUP1 SWAP2 SUB SWAP1 LOG3 PUSH2 0x1ED2 DUP4 PUSH1 0x0 DUP5 PUSH2 0x215D JUMP JUMPDEST POP POP POP JUMP JUMPDEST PUSH1 0x0 DUP1 DUP3 PUSH20 0xFFFFFFFFFFFFFFFFFFFFFFFFFFFFFFFFFFFFFFFF AND EXTCODESIZE GT SWAP1 POP SWAP2 SWAP1 POP JUMP JUMPDEST PUSH1 0x0 PUSH1 0x1 SWAP1 SLOAD SWAP1 PUSH2 0x100 EXP SWAP1 DIV PUSH1 0xFF AND PUSH2 0x1F49 JUMPI PUSH1 0x40 MLOAD PUSH32 0x8C379A000000000000000000000000000000000000000000000000000000000 DUP2 MSTORE PUSH1 0x4 ADD PUSH2 0x1F40 SWAP1 PUSH2 0x3A0A JUMP JUMPDEST PUSH1 0x40 MLOAD DUP1 SWAP2 SUB SWAP1 REVERT JUMPDEST PUSH2 0x1F53 DUP3 DUP3 PUSH2 0x225B JUMP JUMPDEST POP POP JUMP JUMPDEST PUSH1 0x0 PUSH1 0x1 SWAP1 SLOAD SWAP1 PUSH2 0x100 EXP SWAP1 DIV PUSH1 0xFF AND PUSH2 0x1FA6 JUMPI PUSH1 0x40 MLOAD PUSH32 0x8C379A000000000000000000000000000000000000000000000000000000000 DUP2 MSTORE PUSH1 0x4 ADD PUSH2 0x1F9D SWAP1 PUSH2 0x3A0A JUMP JUMPDEST PUSH1 0x40 MLOAD DUP1 SWAP2 SUB SWAP1 REVERT JUMPDEST PUSH2 0x1FAE PUSH2 0x22CE JUMP JUMPDEST JUMP JUMPDEST PUSH1 0x0 PUSH1 0x1 SWAP1 SLOAD SWAP1 PUSH2 0x100 EXP SWAP1 DIV PUSH1 0xFF AND PUSH2 0x1FFF JUMPI PUSH1 0x40 MLOAD PUSH32 0x8C379A000000000000000000000000000000000000000000000000000000000 DUP2 MSTORE PUSH1 0x4 ADD PUSH2 0x1FF6 SWAP1 PUSH2 0x3A0A JUMP JUMPDEST PUSH1 0x40 MLOAD DUP1 SWAP2 SUB SWAP1 REVERT JUMPDEST JUMP JUMPDEST PUSH1 0x0 PUSH20 0xFFFFFFFFFFFFFFFFFFFFFFFFFFFFFFFFFFFFFFFF AND DUP3 PUSH20 0xFFFFFFFFFFFFFFFFFFFFFFFFFFFFFFFFFFFFFFFF AND SUB PUSH2 0x2070 JUMPI PUSH1 0x40 MLOAD PUSH32 0x8C379A000000000000000000000000000000000000000000000000000000000 DUP2 MSTORE PUSH1 0x4 ADD PUSH2 0x2067 SWAP1 PUSH2 0x3A76 JUMP JUMPDEST PUSH1 0x40 MLOAD DUP1 SWAP2 SUB SWAP1 REVERT JUMPDEST PUSH2 0x207C PUSH1 0x0 DUP4 DUP4 PUSH2 0x2158 JUMP JUMPDEST DUP1 PUSH1 0x35 PUSH1 0x0 DUP3 DUP3 SLOAD PUSH2 0x208E SWAP2 SWAP1 PUSH2 0x2B94 JUMP JUMPDEST SWAP3 POP POP DUP2 SWAP1 SSTORE POP DUP1 PUSH1 0x33 PUSH1 0x0 DUP5 PUSH20 0xFFFFFFFFFFFFFFFFFFFFFFFFFFFFFFFFFFFFFFFF AND PUSH20 0xFFFFFFFFFFFFFFFFFFFFFFFFFFFFFFFFFFFFFFFF AND DUP2 MSTORE PUSH1 0x20 ADD SWAP1 DUP2 MSTORE PUSH1 0x20 ADD PUSH1 0x0 KECCAK256 PUSH1 0x0 DUP3 DUP3 SLOAD ADD SWAP3 POP POP DUP2 SWAP1 SSTORE POP DUP2 PUSH20 0xFFFFFFFFFFFFFFFFFFFFFFFFFFFFFFFFFFFFFFFF AND PUSH1 0x0 PUSH20 0xFFFFFFFFFFFFFFFFFFFFFFFFFFFFFFFFFFFFFFFF AND PUSH32 0xDDF252AD1BE2C89B69C2B068FC378DAA952BA7F163C4A11628F55A4DF523B3EF DUP4 PUSH1 0x40 MLOAD PUSH2 0x2140 SWAP2 SWAP1 PUSH2 0x26B3 JUMP JUMPDEST PUSH1 0x40 MLOAD DUP1 SWAP2 SUB SWAP1 LOG3 PUSH2 0x2154 PUSH1 0x0 DUP4 DUP4 PUSH2 0x215D JUMP JUMPDEST POP POP JUMP JUMPDEST POP POP POP JUMP JUMPDEST POP POP POP JUMP JUMPDEST PUSH1 0x0 DUP2 SWAP1 POP SWAP2 SWAP1 POP JUMP JUMPDEST PUSH1 0x0 DUP2 SWAP1 POP SWAP2 SWAP1 POP JUMP JUMPDEST PUSH2 0x217F DUP2 PUSH2 0x1ED7 JUMP JUMPDEST PUSH2 0x21BE JUMPI PUSH1 0x40 MLOAD PUSH32 0x8C379A000000000000000000000000000000000000000000000000000000000 DUP2 MSTORE PUSH1 0x4 ADD PUSH2 0x21B5 SWAP1 PUSH2 0x3B08 JUMP JUMPDEST PUSH1 0x40 MLOAD DUP1 SWAP2 SUB SWAP1 REVERT JUMPDEST DUP1 PUSH2 0x21EB PUSH32 0x360894A13BA1A3210667C828492DB98DCA3E2076CC3735A920A3CA505D382BBC PUSH1 0x0 SHL PUSH2 0x2162 JUMP JUMPDEST PUSH1 0x0 ADD PUSH1 0x0 PUSH2 0x100 EXP DUP2 SLOAD DUP2 PUSH20 0xFFFFFFFFFFFFFFFFFFFFFFFFFFFFFFFFFFFFFFFF MUL NOT AND SWAP1 DUP4 PUSH20 0xFFFFFFFFFFFFFFFFFFFFFFFFFFFFFFFFFFFFFFFF AND MUL OR SWAP1 SSTORE POP POP JUMP JUMPDEST PUSH2 0x2238 DUP4 PUSH2 0x232F JUMP JUMPDEST PUSH1 0x0 DUP3 MLOAD GT DUP1 PUSH2 0x2245 JUMPI POP DUP1 JUMPDEST ISZERO PUSH2 0x2256 JUMPI PUSH2 0x2254 DUP4 DUP4 PUSH2 0x237E JUMP JUMPDEST POP JUMPDEST POP POP POP JUMP JUMPDEST PUSH1 0x0 PUSH1 0x1 SWAP1 SLOAD SWAP1 PUSH2 0x100 EXP SWAP1 DIV PUSH1 0xFF AND PUSH2 0x22AA JUMPI PUSH1 0x40 MLOAD PUSH32 0x8C379A000000000000000000000000000000000000000000000000000000000 DUP2 MSTORE PUSH1 0x4 ADD PUSH2 0x22A1 SWAP1 PUSH2 0x3A0A JUMP JUMPDEST PUSH1 0x40 MLOAD DUP1 SWAP2 SUB SWAP1 REVERT JUMPDEST DUP2 PUSH1 0x36 SWAP1 DUP2 PUSH2 0x22B9 SWAP2 SWAP1 PUSH2 0x3CCA JUMP JUMPDEST POP DUP1 PUSH1 0x37 SWAP1 DUP2 PUSH2 0x22C9 SWAP2 SWAP1 PUSH2 0x3CCA JUMP JUMPDEST POP POP POP JUMP JUMPDEST PUSH1 0x0 PUSH1 0x1 SWAP1 SLOAD SWAP1 PUSH2 0x100 EXP SWAP1 DIV PUSH1 0xFF AND PUSH2 0x231D JUMPI PUSH1 0x40 MLOAD PUSH32 0x8C379A000000000000000000000000000000000000000000000000000000000 DUP2 MSTORE PUSH1 0x4 ADD PUSH2 0x2314 SWAP1 PUSH2 0x3A0A JUMP JUMPDEST PUSH1 0x40 MLOAD DUP1 SWAP2 SUB SWAP1 REVERT JUMPDEST PUSH2 0x232D PUSH2 0x2328 PUSH2 0x151E JUMP JUMPDEST PUSH2 0x1C42 JUMP JUMPDEST JUMP JUMPDEST PUSH2 0x2338 DUP2 PUSH2 0x2176 JUMP JUMPDEST DUP1 PUSH20 0xFFFFFFFFFFFFFFFFFFFFFFFFFFFFFFFFFFFFFFFF AND PUSH32 0xBC7CD75A20EE27FD9ADEBAB32041F755214DBC6BFFA90CC0225B39DA2E5C2D3B PUSH1 0x40 MLOAD PUSH1 0x40 MLOAD DUP1 SWAP2 SUB SWAP1 LOG2 POP JUMP JUMPDEST PUSH1 0x60 PUSH2 0x2389 DUP4 PUSH2 0x1ED7 JUMP JUMPDEST PUSH2 0x23C8 JUMPI PUSH1 0x40 MLOAD PUSH32 0x8C379A000000000000000000000000000000000000000000000000000000000 DUP2 MSTORE PUSH1 0x4 ADD PUSH2 0x23BF SWAP1 PUSH2 0x3E0E JUMP JUMPDEST PUSH1 0x40 MLOAD DUP1 SWAP2 SUB SWAP1 REVERT JUMPDEST PUSH1 0x0 DUP1 DUP5 PUSH20 0xFFFFFFFFFFFFFFFFFFFFFFFFFFFFFFFFFFFFFFFF AND DUP5 PUSH1 0x40 MLOAD PUSH2 0x23F0 SWAP2 SWAP1 PUSH2 0x3E75 JUMP JUMPDEST PUSH1 0x0 PUSH1 0x40 MLOAD DUP1 DUP4 SUB DUP2 DUP6 GAS DELEGATECALL SWAP2 POP POP RETURNDATASIZE DUP1 PUSH1 0x0 DUP2 EQ PUSH2 0x242B JUMPI PUSH1 0x40 MLOAD SWAP2 POP PUSH1 0x1F NOT PUSH1 0x3F RETURNDATASIZE ADD AND DUP3 ADD PUSH1 0x40 MSTORE RETURNDATASIZE DUP3 MSTORE RETURNDATASIZE PUSH1 0x0 PUSH1 0x20 DUP5 ADD RETURNDATACOPY PUSH2 0x2430 JUMP JUMPDEST PUSH1 0x60 SWAP2 POP JUMPDEST POP SWAP2 POP SWAP2 POP PUSH2 0x2458 DUP3 DUP3 PUSH1 0x40 MLOAD DUP1 PUSH1 0x60 ADD PUSH1 0x40 MSTORE DUP1 PUSH1 0x27 DUP2 MSTORE PUSH1 0x20 ADD PUSH2 0x3E8D PUSH1 0x27 SWAP2 CODECOPY PUSH2 0x2462 JUMP JUMPDEST SWAP3 POP POP POP SWAP3 SWAP2 POP POP JUMP JUMPDEST PUSH1 0x60 DUP4 ISZERO PUSH2 0x2472 JUMPI DUP3 SWAP1 POP PUSH2 0x247D JUMP JUMPDEST PUSH2 0x247C DUP4 DUP4 PUSH2 0x2484 JUMP JUMPDEST JUMPDEST SWAP4 SWAP3 POP POP POP JUMP JUMPDEST PUSH1 0x0 DUP3 MLOAD GT ISZERO PUSH2 0x2497 JUMPI DUP2 MLOAD DUP1 DUP4 PUSH1 0x20 ADD REVERT JUMPDEST DUP1 PUSH1 0x40 MLOAD PUSH32 0x8C379A000000000000000000000000000000000000000000000000000000000 DUP2 MSTORE PUSH1 0x4 ADD PUSH2 0x24CB SWAP2 SWAP1 PUSH2 0x2564 JUMP JUMPDEST PUSH1 0x40 MLOAD DUP1 SWAP2 SUB SWAP1 REVERT JUMPDEST PUSH1 0x0 DUP2 MLOAD SWAP1 POP SWAP2 SWAP1 POP JUMP JUMPDEST PUSH1 0x0 DUP3 DUP3 MSTORE PUSH1 0x20 DUP3 ADD SWAP1 POP SWAP3 SWAP2 POP POP JUMP JUMPDEST PUSH1 0x0 JUMPDEST DUP4 DUP2 LT ISZERO PUSH2 0x250E JUMPI DUP1 DUP3 ADD MLOAD DUP2 DUP5 ADD MSTORE PUSH1 0x20 DUP2 ADD SWAP1 POP PUSH2 0x24F3 JUMP JUMPDEST PUSH1 0x0 DUP5 DUP5 ADD MSTORE POP POP POP POP JUMP JUMPDEST PUSH1 0x0 PUSH1 0x1F NOT PUSH1 0x1F DUP4 ADD AND SWAP1 POP SWAP2 SWAP1 POP JUMP JUMPDEST PUSH1 0x0 PUSH2 0x2536 DUP3 PUSH2 0x24D4 JUMP JUMPDEST PUSH2 0x2540 DUP2 DUP6 PUSH2 0x24DF JUMP JUMPDEST SWAP4 POP PUSH2 0x2550 DUP2 DUP6 PUSH1 0x20 DUP7 ADD PUSH2 0x24F0 JUMP JUMPDEST PUSH2 0x2559 DUP2 PUSH2 0x251A JUMP JUMPDEST DUP5 ADD SWAP2 POP POP SWAP3 SWAP2 POP POP JUMP JUMPDEST PUSH1 0x0 PUSH1 0x20 DUP3 ADD SWAP1 POP DUP2 DUP2 SUB PUSH1 0x0 DUP4 ADD MSTORE PUSH2 0x257E DUP2 DUP5 PUSH2 0x252B JUMP JUMPDEST SWAP1 POP SWAP3 SWAP2 POP POP JUMP JUMPDEST PUSH1 0x0 PUSH1 0x40 MLOAD SWAP1 POP SWAP1 JUMP JUMPDEST PUSH1 0x0 DUP1 REVERT JUMPDEST PUSH1 0x0 DUP1 REVERT JUMPDEST PUSH1 0x0 PUSH20 0xFFFFFFFFFFFFFFFFFFFFFFFFFFFFFFFFFFFFFFFF DUP3 AND SWAP1 POP SWAP2 SWAP1 POP JUMP JUMPDEST PUSH1 0x0 PUSH2 0x25C5 DUP3 PUSH2 0x259A JUMP JUMPDEST SWAP1 POP SWAP2 SWAP1 POP JUMP JUMPDEST PUSH2 0x25D5 DUP2 PUSH2 0x25BA JUMP JUMPDEST DUP2 EQ PUSH2 0x25E0 JUMPI PUSH1 0x0 DUP1 REVERT JUMPDEST POP JUMP JUMPDEST PUSH1 0x0 DUP2 CALLDATALOAD SWAP1 POP PUSH2 0x25F2 DUP2 PUSH2 0x25CC JUMP JUMPDEST SWAP3 SWAP2 POP POP JUMP JUMPDEST PUSH1 0x0 DUP2 SWAP1 POP SWAP2 SWAP1 POP JUMP JUMPDEST PUSH2 0x260B DUP2 PUSH2 0x25F8 JUMP JUMPDEST DUP2 EQ PUSH2 0x2616 JUMPI PUSH1 0x0 DUP1 REVERT JUMPDEST POP JUMP JUMPDEST PUSH1 0x0 DUP2 CALLDATALOAD SWAP1 POP PUSH2 0x2628 DUP2 PUSH2 0x2602 JUMP JUMPDEST SWAP3 SWAP2 POP POP JUMP JUMPDEST PUSH1 0x0 DUP1 PUSH1 0x40 DUP4 DUP6 SUB SLT ISZERO PUSH2 0x2645 JUMPI PUSH2 0x2644 PUSH2 0x2590 JUMP JUMPDEST JUMPDEST PUSH1 0x0 PUSH2 0x2653 DUP6 DUP3 DUP7 ADD PUSH2 0x25E3 JUMP JUMPDEST SWAP3 POP POP PUSH1 0x20 PUSH2 0x2664 DUP6 DUP3 DUP7 ADD PUSH2 0x2619 JUMP JUMPDEST SWAP2 POP POP SWAP3 POP SWAP3 SWAP1 POP JUMP JUMPDEST PUSH1 0x0 DUP2 ISZERO ISZERO SWAP1 POP SWAP2 SWAP1 POP JUMP JUMPDEST PUSH2 0x2683 DUP2 PUSH2 0x266E JUMP JUMPDEST DUP3 MSTORE POP POP JUMP JUMPDEST PUSH1 0x0 PUSH1 0x20 DUP3 ADD SWAP1 POP PUSH2 0x269E PUSH1 0x0 DUP4 ADD DUP5 PUSH2 0x267A JUMP JUMPDEST SWAP3 SWAP2 POP POP JUMP JUMPDEST PUSH2 0x26AD DUP2 PUSH2 0x25F8 JUMP JUMPDEST DUP3 MSTORE POP POP JUMP JUMPDEST PUSH1 0x0 PUSH1 0x20 DUP3 ADD SWAP1 POP PUSH2 0x26C8 PUSH1 0x0 DUP4 ADD DUP5 PUSH2 0x26A4 JUMP JUMPDEST SWAP3 SWAP2 POP POP JUMP JUMPDEST PUSH1 0x0 DUP1 PUSH1 0x0 PUSH1 0x60 DUP5 DUP7 SUB SLT ISZERO PUSH2 0x26E7 JUMPI PUSH2 0x26E6 PUSH2 0x2590 JUMP JUMPDEST JUMPDEST PUSH1 0x0 PUSH2 0x26F5 DUP7 DUP3 DUP8 ADD PUSH2 0x25E3 JUMP JUMPDEST SWAP4 POP POP PUSH1 0x20 PUSH2 0x2706 DUP7 DUP3 DUP8 ADD PUSH2 0x25E3 JUMP JUMPDEST SWAP3 POP POP PUSH1 0x40 PUSH2 0x2717 DUP7 DUP3 DUP8 ADD PUSH2 0x2619 JUMP JUMPDEST SWAP2 POP POP SWAP3 POP SWAP3 POP SWAP3 JUMP JUMPDEST PUSH1 0x0 PUSH1 0xFF DUP3 AND SWAP1 POP SWAP2 SWAP1 POP JUMP JUMPDEST PUSH2 0x2737 DUP2 PUSH2 0x2721 JUMP JUMPDEST DUP3 MSTORE POP POP JUMP JUMPDEST PUSH1 0x0 PUSH1 0x20 DUP3 ADD SWAP1 POP PUSH2 0x2752 PUSH1 0x0 DUP4 ADD DUP5 PUSH2 0x272E JUMP JUMPDEST SWAP3 SWAP2 POP POP JUMP JUMPDEST PUSH1 0x0 PUSH1 0x20 DUP3 DUP5 SUB SLT ISZERO PUSH2 0x276E JUMPI PUSH2 0x276D PUSH2 0x2590 JUMP JUMPDEST JUMPDEST PUSH1 0x0 PUSH2 0x277C DUP5 DUP3 DUP6 ADD PUSH2 0x25E3 JUMP JUMPDEST SWAP2 POP POP SWAP3 SWAP2 POP POP JUMP JUMPDEST PUSH1 0x0 DUP1 REVERT JUMPDEST PUSH1 0x0 DUP1 REVERT JUMPDEST PUSH32 0x4E487B7100000000000000000000000000000000000000000000000000000000 PUSH1 0x0 MSTORE PUSH1 0x41 PUSH1 0x4 MSTORE PUSH1 0x24 PUSH1 0x0 REVERT JUMPDEST PUSH2 0x27C7 DUP3 PUSH2 0x251A JUMP JUMPDEST DUP2 ADD DUP2 DUP2 LT PUSH8 0xFFFFFFFFFFFFFFFF DUP3 GT OR ISZERO PUSH2 0x27E6 JUMPI PUSH2 0x27E5 PUSH2 0x278F JUMP JUMPDEST JUMPDEST DUP1 PUSH1 0x40 MSTORE POP POP POP JUMP JUMPDEST PUSH1 0x0 PUSH2 0x27F9 PUSH2 0x2586 JUMP JUMPDEST SWAP1 POP PUSH2 0x2805 DUP3 DUP3 PUSH2 0x27BE JUMP JUMPDEST SWAP2 SWAP1 POP JUMP JUMPDEST PUSH1 0x0 PUSH8 0xFFFFFFFFFFFFFFFF DUP3 GT ISZERO PUSH2 0x2825 JUMPI PUSH2 0x2824 PUSH2 0x278F JUMP JUMPDEST JUMPDEST PUSH2 0x282E DUP3 PUSH2 0x251A JUMP JUMPDEST SWAP1 POP PUSH1 0x20 DUP2 ADD SWAP1 POP SWAP2 SWAP1 POP JUMP JUMPDEST DUP3 DUP2 DUP4 CALLDATACOPY PUSH1 0x0 DUP4 DUP4 ADD MSTORE POP POP POP JUMP JUMPDEST PUSH1 0x0 PUSH2 0x285D PUSH2 0x2858 DUP5 PUSH2 0x280A JUMP JUMPDEST PUSH2 0x27EF JUMP JUMPDEST SWAP1 POP DUP3 DUP2 MSTORE PUSH1 0x20 DUP2 ADD DUP5 DUP5 DUP5 ADD GT ISZERO PUSH2 0x2879 JUMPI PUSH2 0x2878 PUSH2 0x278A JUMP JUMPDEST JUMPDEST PUSH2 0x2884 DUP5 DUP3 DUP6 PUSH2 0x283B JUMP JUMPDEST POP SWAP4 SWAP3 POP POP POP JUMP JUMPDEST PUSH1 0x0 DUP3 PUSH1 0x1F DUP4 ADD SLT PUSH2 0x28A1 JUMPI PUSH2 0x28A0 PUSH2 0x2785 JUMP JUMPDEST JUMPDEST DUP2 CALLDATALOAD PUSH2 0x28B1 DUP5 DUP3 PUSH1 0x20 DUP7 ADD PUSH2 0x284A JUMP JUMPDEST SWAP2 POP POP SWAP3 SWAP2 POP POP JUMP JUMPDEST PUSH1 0x0 DUP1 PUSH1 0x40 DUP4 DUP6 SUB SLT ISZERO PUSH2 0x28D1 JUMPI PUSH2 0x28D0 PUSH2 0x2590 JUMP JUMPDEST JUMPDEST PUSH1 0x0 PUSH2 0x28DF DUP6 DUP3 DUP7 ADD PUSH2 0x25E3 JUMP JUMPDEST SWAP3 POP POP PUSH1 0x20 DUP4 ADD CALLDATALOAD PUSH8 0xFFFFFFFFFFFFFFFF DUP2 GT ISZERO PUSH2 0x2900 JUMPI PUSH2 0x28FF PUSH2 0x2595 JUMP JUMPDEST JUMPDEST PUSH2 0x290C DUP6 DUP3 DUP7 ADD PUSH2 0x288C JUMP JUMPDEST SWAP2 POP POP SWAP3 POP SWAP3 SWAP1 POP JUMP JUMPDEST PUSH1 0x0 DUP2 SWAP1 POP SWAP2 SWAP1 POP JUMP JUMPDEST PUSH2 0x2929 DUP2 PUSH2 0x2916 JUMP JUMPDEST DUP3 MSTORE POP POP JUMP JUMPDEST PUSH1 0x0 PUSH1 0x20 DUP3 ADD SWAP1 POP PUSH2 0x2944 PUSH1 0x0 DUP4 ADD DUP5 PUSH2 0x2920 JUMP JUMPDEST SWAP3 SWAP2 POP POP JUMP JUMPDEST PUSH2 0x2953 DUP2 PUSH2 0x25BA JUMP JUMPDEST DUP3 MSTORE POP POP JUMP JUMPDEST PUSH1 0x0 PUSH1 0x20 DUP3 ADD SWAP1 POP PUSH2 0x296E PUSH1 0x0 DUP4 ADD DUP5 PUSH2 0x294A JUMP JUMPDEST SWAP3 SWAP2 POP POP JUMP JUMPDEST PUSH1 0x0 PUSH1 0x20 DUP3 DUP5 SUB SLT ISZERO PUSH2 0x298A JUMPI PUSH2 0x2989 PUSH2 0x2590 JUMP JUMPDEST JUMPDEST PUSH1 0x0 PUSH2 0x2998 DUP5 DUP3 DUP6 ADD PUSH2 0x2619 JUMP JUMPDEST SWAP2 POP POP SWAP3 SWAP2 POP POP JUMP JUMPDEST PUSH1 0x0 DUP1 PUSH1 0x40 DUP4 DUP6 SUB SLT ISZERO PUSH2 0x29B8 JUMPI PUSH2 0x29B7 PUSH2 0x2590 JUMP JUMPDEST JUMPDEST PUSH1 0x0 PUSH2 0x29C6 DUP6 DUP3 DUP7 ADD PUSH2 0x25E3 JUMP JUMPDEST SWAP3 POP POP PUSH1 0x20 PUSH2 0x29D7 DUP6 DUP3 DUP7 ADD PUSH2 0x25E3 JUMP JUMPDEST SWAP2 POP POP SWAP3 POP SWAP3 SWAP1 POP JUMP JUMPDEST PUSH32 0x4E487B7100000000000000000000000000000000000000000000000000000000 PUSH1 0x0 MSTORE PUSH1 0x22 PUSH1 0x4 MSTORE PUSH1 0x24 PUSH1 0x0 REVERT JUMPDEST PUSH1 0x0 PUSH1 0x2 DUP3 DIV SWAP1 POP PUSH1 0x1 DUP3 AND DUP1 PUSH2 0x2A28 JUMPI PUSH1 0x7F DUP3 AND SWAP2 POP JUMPDEST PUSH1 0x20 DUP3 LT DUP2 SUB PUSH2 0x2A3B JUMPI PUSH2 0x2A3A PUSH2 0x29E1 JUMP JUMPDEST JUMPDEST POP SWAP2 SWAP1 POP JUMP JUMPDEST PUSH32 0x46756E6374696F6E206D7573742062652063616C6C6564207468726F75676820 PUSH1 0x0 DUP3 ADD MSTORE PUSH32 0x64656C656761746563616C6C0000000000000000000000000000000000000000 PUSH1 0x20 DUP3 ADD MSTORE POP JUMP JUMPDEST PUSH1 0x0 PUSH2 0x2A9D PUSH1 0x2C DUP4 PUSH2 0x24DF JUMP JUMPDEST SWAP2 POP PUSH2 0x2AA8 DUP3 PUSH2 0x2A41 JUMP JUMPDEST PUSH1 0x40 DUP3 ADD SWAP1 POP SWAP2 SWAP1 POP JUMP JUMPDEST PUSH1 0x0 PUSH1 0x20 DUP3 ADD SWAP1 POP DUP2 DUP2 SUB PUSH1 0x0 DUP4 ADD MSTORE PUSH2 0x2ACC DUP2 PUSH2 0x2A90 JUMP JUMPDEST SWAP1 POP SWAP2 SWAP1 POP JUMP JUMPDEST PUSH32 0x46756E6374696F6E206D7573742062652063616C6C6564207468726F75676820 PUSH1 0x0 DUP3 ADD MSTORE PUSH32 0x6163746976652070726F78790000000000000000000000000000000000000000 PUSH1 0x20 DUP3 ADD MSTORE POP JUMP JUMPDEST PUSH1 0x0 PUSH2 0x2B2F PUSH1 0x2C DUP4 PUSH2 0x24DF JUMP JUMPDEST SWAP2 POP PUSH2 0x2B3A DUP3 PUSH2 0x2AD3 JUMP JUMPDEST PUSH1 0x40 DUP3 ADD SWAP1 POP SWAP2 SWAP1 POP JUMP JUMPDEST PUSH1 0x0 PUSH1 0x20 DUP3 ADD SWAP1 POP DUP2 DUP2 SUB PUSH1 0x0 DUP4 ADD MSTORE PUSH2 0x2B5E DUP2 PUSH2 0x2B22 JUMP JUMPDEST SWAP1 POP SWAP2 SWAP1 POP JUMP JUMPDEST PUSH32 0x4E487B7100000000000000000000000000000000000000000000000000000000 PUSH1 0x0 MSTORE PUSH1 0x11 PUSH1 0x4 MSTORE PUSH1 0x24 PUSH1 0x0 REVERT JUMPDEST PUSH1 0x0 PUSH2 0x2B9F DUP3 PUSH2 0x25F8 JUMP JUMPDEST SWAP2 POP PUSH2 0x2BAA DUP4 PUSH2 0x25F8 JUMP JUMPDEST SWAP3 POP DUP3 DUP3 ADD SWAP1 POP DUP1 DUP3 GT ISZERO PUSH2 0x2BC2 JUMPI PUSH2 0x2BC1 PUSH2 0x2B65 JUMP JUMPDEST JUMPDEST SWAP3 SWAP2 POP POP JUMP JUMPDEST PUSH1 0x0 DUP2 MLOAD SWAP1 POP PUSH2 0x2BD7 DUP2 PUSH2 0x2602 JUMP JUMPDEST SWAP3 SWAP2 POP POP JUMP JUMPDEST PUSH1 0x0 PUSH1 0x20 DUP3 DUP5 SUB SLT ISZERO PUSH2 0x2BF3 JUMPI PUSH2 0x2BF2 PUSH2 0x2590 JUMP JUMPDEST JUMPDEST PUSH1 0x0 PUSH2 0x2C01 DUP5 DUP3 DUP6 ADD PUSH2 0x2BC8 JUMP JUMPDEST SWAP2 POP POP SWAP3 SWAP2 POP POP JUMP JUMPDEST PUSH32 0x555550535570677261646561626C653A206D757374206E6F742062652063616C PUSH1 0x0 DUP3 ADD MSTORE PUSH32 0x6C6564207468726F7567682064656C656761746563616C6C0000000000000000 PUSH1 0x20 DUP3 ADD MSTORE POP JUMP JUMPDEST PUSH1 0x0 PUSH2 0x2C66 PUSH1 0x38 DUP4 PUSH2 0x24DF JUMP JUMPDEST SWAP2 POP PUSH2 0x2C71 DUP3 PUSH2 0x2C0A JUMP JUMPDEST PUSH1 0x40 DUP3 ADD SWAP1 POP SWAP2 SWAP1 POP JUMP JUMPDEST PUSH1 0x0 PUSH1 0x20 DUP3 ADD SWAP1 POP DUP2 DUP2 SUB PUSH1 0x0 DUP4 ADD MSTORE PUSH2 0x2C95 DUP2 PUSH2 0x2C59 JUMP JUMPDEST SWAP1 POP SWAP2 SWAP1 POP JUMP JUMPDEST PUSH1 0x0 DUP2 PUSH1 0x1 SHR SWAP1 POP SWAP2 SWAP1 POP JUMP JUMPDEST PUSH1 0x0 DUP1 DUP3 SWAP2 POP DUP4 SWAP1 POP JUMPDEST PUSH1 0x1 DUP6 GT ISZERO PUSH2 0x2CF3 JUMPI DUP1 DUP7 DIV DUP2 GT ISZERO PUSH2 0x2CCF JUMPI PUSH2 0x2CCE PUSH2 0x2B65 JUMP JUMPDEST JUMPDEST PUSH1 0x1 DUP6 AND ISZERO PUSH2 0x2CDE JUMPI DUP1 DUP3 MUL SWAP2 POP JUMPDEST DUP1 DUP2 MUL SWAP1 POP PUSH2 0x2CEC DUP6 PUSH2 0x2C9C JUMP JUMPDEST SWAP5 POP PUSH2 0x2CB3 JUMP JUMPDEST SWAP5 POP SWAP5 SWAP3 POP POP POP JUMP JUMPDEST PUSH1 0x0 DUP3 PUSH2 0x2D0C JUMPI PUSH1 0x1 SWAP1 POP PUSH2 0x2DC8 JUMP JUMPDEST DUP2 PUSH2 0x2D1A JUMPI PUSH1 0x0 SWAP1 POP PUSH2 0x2DC8 JUMP JUMPDEST DUP2 PUSH1 0x1 DUP2 EQ PUSH2 0x2D30 JUMPI PUSH1 0x2 DUP2 EQ PUSH2 0x2D3A JUMPI PUSH2 0x2D69 JUMP JUMPDEST PUSH1 0x1 SWAP2 POP POP PUSH2 0x2DC8 JUMP JUMPDEST PUSH1 0xFF DUP5 GT ISZERO PUSH2 0x2D4C JUMPI PUSH2 0x2D4B PUSH2 0x2B65 JUMP JUMPDEST JUMPDEST DUP4 PUSH1 0x2 EXP SWAP2 POP DUP5 DUP3 GT ISZERO PUSH2 0x2D63 JUMPI PUSH2 0x2D62 PUSH2 0x2B65 JUMP JUMPDEST JUMPDEST POP PUSH2 0x2DC8 JUMP JUMPDEST POP PUSH1 0x20 DUP4 LT PUSH2 0x133 DUP4 LT AND PUSH1 0x4E DUP5 LT PUSH1 0xB DUP5 LT AND OR ISZERO PUSH2 0x2D9E JUMPI DUP3 DUP3 EXP SWAP1 POP DUP4 DUP2 GT ISZERO PUSH2 0x2D99 JUMPI PUSH2 0x2D98 PUSH2 0x2B65 JUMP JUMPDEST JUMPDEST PUSH2 0x2DC8 JUMP JUMPDEST PUSH2 0x2DAB DUP5 DUP5 DUP5 PUSH1 0x1 PUSH2 0x2CA9 JUMP JUMPDEST SWAP3 POP SWAP1 POP DUP2 DUP5 DIV DUP2 GT ISZERO PUSH2 0x2DC2 JUMPI PUSH2 0x2DC1 PUSH2 0x2B65 JUMP JUMPDEST JUMPDEST DUP2 DUP2 MUL SWAP1 POP JUMPDEST SWAP4 SWAP3 POP POP POP JUMP JUMPDEST PUSH1 0x0 PUSH2 0x2DDA DUP3 PUSH2 0x25F8 JUMP JUMPDEST SWAP2 POP PUSH2 0x2DE5 DUP4 PUSH2 0x2721 JUMP JUMPDEST SWAP3 POP PUSH2 0x2E12 PUSH32 0xFFFFFFFFFFFFFFFFFFFFFFFFFFFFFFFFFFFFFFFFFFFFFFFFFFFFFFFFFFFFFFFF DUP5 DUP5 PUSH2 0x2CFC JUMP JUMPDEST SWAP1 POP SWAP3 SWAP2 POP POP JUMP JUMPDEST PUSH1 0x0 PUSH2 0x2E25 DUP3 PUSH2 0x25F8 JUMP JUMPDEST SWAP2 POP PUSH2 0x2E30 DUP4 PUSH2 0x25F8 JUMP JUMPDEST SWAP3 POP DUP3 DUP3 MUL PUSH2 0x2E3E DUP2 PUSH2 0x25F8 JUMP JUMPDEST SWAP2 POP DUP3 DUP3 DIV DUP5 EQ DUP4 ISZERO OR PUSH2 0x2E55 JUMPI PUSH2 0x2E54 PUSH2 0x2B65 JUMP JUMPDEST JUMPDEST POP SWAP3 SWAP2 POP POP JUMP JUMPDEST PUSH32 0x496E73756666696369656E742054474B20746F6B656E7320746F2073656C6C00 PUSH1 0x0 DUP3 ADD MSTORE POP JUMP JUMPDEST PUSH1 0x0 PUSH2 0x2E92 PUSH1 0x1F DUP4 PUSH2 0x24DF JUMP JUMPDEST SWAP2 POP PUSH2 0x2E9D DUP3 PUSH2 0x2E5C JUMP JUMPDEST PUSH1 0x20 DUP3 ADD SWAP1 POP SWAP2 SWAP1 POP JUMP JUMPDEST PUSH1 0x0 PUSH1 0x20 DUP3 ADD SWAP1 POP DUP2 DUP2 SUB PUSH1 0x0 DUP4 ADD MSTORE PUSH2 0x2EC1 DUP2 PUSH2 0x2E85 JUMP JUMPDEST SWAP1 POP SWAP2 SWAP1 POP JUMP JUMPDEST PUSH32 0x496E697469616C697A61626C653A20636F6E747261637420697320616C726561 PUSH1 0x0 DUP3 ADD MSTORE PUSH32 0x647920696E697469616C697A6564000000000000000000000000000000000000 PUSH1 0x20 DUP3 ADD MSTORE POP JUMP JUMPDEST PUSH1 0x0 PUSH2 0x2F24 PUSH1 0x2E DUP4 PUSH2 0x24DF JUMP JUMPDEST SWAP2 POP PUSH2 0x2F2F DUP3 PUSH2 0x2EC8 JUMP JUMPDEST PUSH1 0x40 DUP3 ADD SWAP1 POP SWAP2 SWAP1 POP JUMP JUMPDEST PUSH1 0x0 PUSH1 0x20 DUP3 ADD SWAP1 POP DUP2 DUP2 SUB PUSH1 0x0 DUP4 ADD MSTORE PUSH2 0x2F53 DUP2 PUSH2 0x2F17 JUMP JUMPDEST SWAP1 POP SWAP2 SWAP1 POP JUMP JUMPDEST PUSH1 0x0 DUP2 SWAP1 POP SWAP2 SWAP1 POP JUMP JUMPDEST PUSH1 0x0 DUP2 SWAP1 POP SWAP2 SWAP1 POP JUMP JUMPDEST PUSH1 0x0 PUSH2 0x2F89 PUSH2 0x2F84 PUSH2 0x2F7F DUP5 PUSH2 0x2F5A JUMP JUMPDEST PUSH2 0x2F64 JUMP JUMPDEST PUSH2 0x2721 JUMP JUMPDEST SWAP1 POP SWAP2 SWAP1 POP JUMP JUMPDEST PUSH2 0x2F99 DUP2 PUSH2 0x2F6E JUMP JUMPDEST DUP3 MSTORE POP POP JUMP JUMPDEST PUSH1 0x0 PUSH1 0x20 DUP3 ADD SWAP1 POP PUSH2 0x2FB4 PUSH1 0x0 DUP4 ADD DUP5 PUSH2 0x2F90 JUMP JUMPDEST SWAP3 SWAP2 POP POP JUMP JUMPDEST PUSH1 0x0 PUSH10 0xFFFFFFFFFFFFFFFFFFFF DUP3 AND SWAP1 POP SWAP2 SWAP1 POP JUMP JUMPDEST PUSH2 0x2FD9 DUP2 PUSH2 0x2FBA JUMP JUMPDEST DUP2 EQ PUSH2 0x2FE4 JUMPI PUSH1 0x0 DUP1 REVERT JUMPDEST POP JUMP JUMPDEST PUSH1 0x0 DUP2 MLOAD SWAP1 POP PUSH2 0x2FF6 DUP2 PUSH2 0x2FD0 JUMP JUMPDEST SWAP3 SWAP2 POP POP JUMP JUMPDEST PUSH1 0x0 DUP2 SWAP1 POP SWAP2 SWAP1 POP JUMP JUMPDEST PUSH2 0x300F DUP2 PUSH2 0x2FFC JUMP JUMPDEST DUP2 EQ PUSH2 0x301A JUMPI PUSH1 0x0 DUP1 REVERT JUMPDEST POP JUMP JUMPDEST PUSH1 0x0 DUP2 MLOAD SWAP1 POP PUSH2 0x302C DUP2 PUSH2 0x3006 JUMP JUMPDEST SWAP3 SWAP2 POP POP JUMP JUMPDEST PUSH1 0x0 DUP1 PUSH1 0x0 DUP1 PUSH1 0x0 PUSH1 0xA0 DUP7 DUP9 SUB SLT ISZERO PUSH2 0x304E JUMPI PUSH2 0x304D PUSH2 0x2590 JUMP JUMPDEST JUMPDEST PUSH1 0x0 PUSH2 0x305C DUP9 DUP3 DUP10 ADD PUSH2 0x2FE7 JUMP JUMPDEST SWAP6 POP POP PUSH1 0x20 PUSH2 0x306D DUP9 DUP3 DUP10 ADD PUSH2 0x301D JUMP JUMPDEST SWAP5 POP POP PUSH1 0x40 PUSH2 0x307E DUP9 DUP3 DUP10 ADD PUSH2 0x2BC8 JUMP JUMPDEST SWAP4 POP POP PUSH1 0x60 PUSH2 0x308F DUP9 DUP3 DUP10 ADD PUSH2 0x2BC8 JUMP JUMPDEST SWAP3 POP POP PUSH1 0x80 PUSH2 0x30A0 DUP9 DUP3 DUP10 ADD PUSH2 0x2FE7 JUMP JUMPDEST SWAP2 POP POP SWAP3 SWAP6 POP SWAP3 SWAP6 SWAP1 SWAP4 POP JUMP JUMPDEST PUSH32 0x45524332303A2064656372656173656420616C6C6F77616E63652062656C6F77 PUSH1 0x0 DUP3 ADD MSTORE PUSH32 0x207A65726F000000000000000000000000000000000000000000000000000000 PUSH1 0x20 DUP3 ADD MSTORE POP JUMP JUMPDEST PUSH1 0x0 PUSH2 0x3109 PUSH1 0x25 DUP4 PUSH2 0x24DF JUMP JUMPDEST SWAP2 POP PUSH2 0x3114 DUP3 PUSH2 0x30AD JUMP JUMPDEST PUSH1 0x40 DUP3 ADD SWAP1 POP SWAP2 SWAP1 POP JUMP JUMPDEST PUSH1 0x0 PUSH1 0x20 DUP3 ADD SWAP1 POP DUP2 DUP2 SUB PUSH1 0x0 DUP4 ADD MSTORE PUSH2 0x3138 DUP2 PUSH2 0x30FC JUMP JUMPDEST SWAP1 POP SWAP2 SWAP1 POP JUMP JUMPDEST PUSH1 0x0 PUSH1 0x40 DUP3 ADD SWAP1 POP PUSH2 0x3154 PUSH1 0x0 DUP4 ADD DUP6 PUSH2 0x294A JUMP JUMPDEST PUSH2 0x3161 PUSH1 0x20 DUP4 ADD DUP5 PUSH2 0x26A4 JUMP JUMPDEST SWAP4 SWAP3 POP POP POP JUMP JUMPDEST PUSH2 0x3171 DUP2 PUSH2 0x266E JUMP JUMPDEST DUP2 EQ PUSH2 0x317C JUMPI PUSH1 0x0 DUP1 REVERT JUMPDEST POP JUMP JUMPDEST PUSH1 0x0 DUP2 MLOAD SWAP1 POP PUSH2 0x318E DUP2 PUSH2 0x3168 JUMP JUMPDEST SWAP3 SWAP2 POP POP JUMP JUMPDEST PUSH1 0x0 PUSH1 0x20 DUP3 DUP5 SUB SLT ISZERO PUSH2 0x31AA JUMPI PUSH2 0x31A9 PUSH2 0x2590 JUMP JUMPDEST JUMPDEST PUSH1 0x0 PUSH2 0x31B8 DUP5 DUP3 DUP6 ADD PUSH2 0x317F JUMP JUMPDEST SWAP2 POP POP SWAP3 SWAP2 POP POP JUMP JUMPDEST PUSH32 0x496E73756666696369656E7420657468657220746F206275792054474B20746F PUSH1 0x0 DUP3 ADD MSTORE PUSH32 0x6B656E732E000000000000000000000000000000000000000000000000000000 PUSH1 0x20 DUP3 ADD MSTORE POP JUMP JUMPDEST PUSH1 0x0 PUSH2 0x321D PUSH1 0x25 DUP4 PUSH2 0x24DF JUMP JUMPDEST SWAP2 POP PUSH2 0x3228 DUP3 PUSH2 0x31C1 JUMP JUMPDEST PUSH1 0x40 DUP3 ADD SWAP1 POP SWAP2 SWAP1 POP JUMP JUMPDEST PUSH1 0x0 PUSH1 0x20 DUP3 ADD SWAP1 POP DUP2 DUP2 SUB PUSH1 0x0 DUP4 ADD MSTORE PUSH2 0x324C DUP2 PUSH2 0x3210 JUMP JUMPDEST SWAP1 POP SWAP2 SWAP1 POP JUMP JUMPDEST PUSH32 0x4E487B7100000000000000000000000000000000000000000000000000000000 PUSH1 0x0 MSTORE PUSH1 0x12 PUSH1 0x4 MSTORE PUSH1 0x24 PUSH1 0x0 REVERT JUMPDEST PUSH1 0x0 PUSH2 0x328D DUP3 PUSH2 0x25F8 JUMP JUMPDEST SWAP2 POP PUSH2 0x3298 DUP4 PUSH2 0x25F8 JUMP JUMPDEST SWAP3 POP DUP3 PUSH2 0x32A8 JUMPI PUSH2 0x32A7 PUSH2 0x3253 JUMP JUMPDEST JUMPDEST DUP3 DUP3 DIV SWAP1 POP SWAP3 SWAP2 POP POP JUMP JUMPDEST PUSH32 0x4F776E61626C653A206E6577206F776E657220697320746865207A65726F2061 PUSH1 0x0 DUP3 ADD MSTORE PUSH32 0x6464726573730000000000000000000000000000000000000000000000000000 PUSH1 0x20 DUP3 ADD MSTORE POP JUMP JUMPDEST PUSH1 0x0 PUSH2 0x330F PUSH1 0x26 DUP4 PUSH2 0x24DF JUMP JUMPDEST SWAP2 POP PUSH2 0x331A DUP3 PUSH2 0x32B3 JUMP JUMPDEST PUSH1 0x40 DUP3 ADD SWAP1 POP SWAP2 SWAP1 POP JUMP JUMPDEST PUSH1 0x0 PUSH1 0x20 DUP3 ADD SWAP1 POP DUP2 DUP2 SUB PUSH1 0x0 DUP4 ADD MSTORE PUSH2 0x333E DUP2 PUSH2 0x3302 JUMP JUMPDEST SWAP1 POP SWAP2 SWAP1 POP JUMP JUMPDEST PUSH32 0x45524332303A20617070726F76652066726F6D20746865207A65726F20616464 PUSH1 0x0 DUP3 ADD MSTORE PUSH32 0x7265737300000000000000000000000000000000000000000000000000000000 PUSH1 0x20 DUP3 ADD MSTORE POP JUMP JUMPDEST PUSH1 0x0 PUSH2 0x33A1 PUSH1 0x24 DUP4 PUSH2 0x24DF JUMP JUMPDEST SWAP2 POP PUSH2 0x33AC DUP3 PUSH2 0x3345 JUMP JUMPDEST PUSH1 0x40 DUP3 ADD SWAP1 POP SWAP2 SWAP1 POP JUMP JUMPDEST PUSH1 0x0 PUSH1 0x20 DUP3 ADD SWAP1 POP DUP2 DUP2 SUB PUSH1 0x0 DUP4 ADD MSTORE PUSH2 0x33D0 DUP2 PUSH2 0x3394 JUMP JUMPDEST SWAP1 POP SWAP2 SWAP1 POP JUMP JUMPDEST PUSH32 0x45524332303A20617070726F766520746F20746865207A65726F206164647265 PUSH1 0x0 DUP3 ADD MSTORE PUSH32 0x7373000000000000000000000000000000000000000000000000000000000000 PUSH1 0x20 DUP3 ADD MSTORE POP JUMP JUMPDEST PUSH1 0x0 PUSH2 0x3433 PUSH1 0x22 DUP4 PUSH2 0x24DF JUMP JUMPDEST SWAP2 POP PUSH2 0x343E DUP3 PUSH2 0x33D7 JUMP JUMPDEST PUSH1 0x40 DUP3 ADD SWAP1 POP SWAP2 SWAP1 POP JUMP JUMPDEST PUSH1 0x0 PUSH1 0x20 DUP3 ADD SWAP1 POP DUP2 DUP2 SUB PUSH1 0x0 DUP4 ADD MSTORE PUSH2 0x3462 DUP2 PUSH2 0x3426 JUMP JUMPDEST SWAP1 POP SWAP2 SWAP1 POP JUMP JUMPDEST PUSH32 0x45524332303A20696E73756666696369656E7420616C6C6F77616E6365000000 PUSH1 0x0 DUP3 ADD MSTORE POP JUMP JUMPDEST PUSH1 0x0 PUSH2 0x349F PUSH1 0x1D DUP4 PUSH2 0x24DF JUMP JUMPDEST SWAP2 POP PUSH2 0x34AA DUP3 PUSH2 0x3469 JUMP JUMPDEST PUSH1 0x20 DUP3 ADD SWAP1 POP SWAP2 SWAP1 POP JUMP JUMPDEST PUSH1 0x0 PUSH1 0x20 DUP3 ADD SWAP1 POP DUP2 DUP2 SUB PUSH1 0x0 DUP4 ADD MSTORE PUSH2 0x34CE DUP2 PUSH2 0x3492 JUMP JUMPDEST SWAP1 POP SWAP2 SWAP1 POP JUMP JUMPDEST PUSH32 0x45524332303A207472616E736665722066726F6D20746865207A65726F206164 PUSH1 0x0 DUP3 ADD MSTORE PUSH32 0x6472657373000000000000000000000000000000000000000000000000000000 PUSH1 0x20 DUP3 ADD MSTORE POP JUMP JUMPDEST PUSH1 0x0 PUSH2 0x3531 PUSH1 0x25 DUP4 PUSH2 0x24DF JUMP JUMPDEST SWAP2 POP PUSH2 0x353C DUP3 PUSH2 0x34D5 JUMP JUMPDEST PUSH1 0x40 DUP3 ADD SWAP1 POP SWAP2 SWAP1 POP JUMP JUMPDEST PUSH1 0x0 PUSH1 0x20 DUP3 ADD SWAP1 POP DUP2 DUP2 SUB PUSH1 0x0 DUP4 ADD MSTORE PUSH2 0x3560 DUP2 PUSH2 0x3524 JUMP JUMPDEST SWAP1 POP SWAP2 SWAP1 POP JUMP JUMPDEST PUSH32 0x45524332303A207472616E7366657220746F20746865207A65726F2061646472 PUSH1 0x0 DUP3 ADD MSTORE PUSH32 0x6573730000000000000000000000000000000000000000000000000000000000 PUSH1 0x20 DUP3 ADD MSTORE POP JUMP JUMPDEST PUSH1 0x0 PUSH2 0x35C3 PUSH1 0x23 DUP4 PUSH2 0x24DF JUMP JUMPDEST SWAP2 POP PUSH2 0x35CE DUP3 PUSH2 0x3567 JUMP JUMPDEST PUSH1 0x40 DUP3 ADD SWAP1 POP SWAP2 SWAP1 POP JUMP JUMPDEST PUSH1 0x0 PUSH1 0x20 DUP3 ADD SWAP1 POP DUP2 DUP2 SUB PUSH1 0x0 DUP4 ADD MSTORE PUSH2 0x35F2 DUP2 PUSH2 0x35B6 JUMP JUMPDEST SWAP1 POP SWAP2 SWAP1 POP JUMP JUMPDEST PUSH32 0x45524332303A207472616E7366657220616D6F756E7420657863656564732062 PUSH1 0x0 DUP3 ADD MSTORE PUSH32 0x616C616E63650000000000000000000000000000000000000000000000000000 PUSH1 0x20 DUP3 ADD MSTORE POP JUMP JUMPDEST PUSH1 0x0 PUSH2 0x3655 PUSH1 0x26 DUP4 PUSH2 0x24DF JUMP JUMPDEST SWAP2 POP PUSH2 0x3660 DUP3 PUSH2 0x35F9 JUMP JUMPDEST PUSH1 0x40 DUP3 ADD SWAP1 POP SWAP2 SWAP1 POP JUMP JUMPDEST PUSH1 0x0 PUSH1 0x20 DUP3 ADD SWAP1 POP DUP2 DUP2 SUB PUSH1 0x0 DUP4 ADD MSTORE PUSH2 0x3684 DUP2 PUSH2 0x3648 JUMP JUMPDEST SWAP1 POP SWAP2 SWAP1 POP JUMP JUMPDEST PUSH2 0x3694 DUP2 PUSH2 0x2916 JUMP JUMPDEST DUP2 EQ PUSH2 0x369F JUMPI PUSH1 0x0 DUP1 REVERT JUMPDEST POP JUMP JUMPDEST PUSH1 0x0 DUP2 MLOAD SWAP1 POP PUSH2 0x36B1 DUP2 PUSH2 0x368B JUMP JUMPDEST SWAP3 SWAP2 POP POP JUMP JUMPDEST PUSH1 0x0 PUSH1 0x20 DUP3 DUP5 SUB SLT ISZERO PUSH2 0x36CD JUMPI PUSH2 0x36CC PUSH2 0x2590 JUMP JUMPDEST JUMPDEST PUSH1 0x0 PUSH2 0x36DB DUP5 DUP3 DUP6 ADD PUSH2 0x36A2 JUMP JUMPDEST SWAP2 POP POP SWAP3 SWAP2 POP POP JUMP JUMPDEST PUSH32 0x45524331393637557067726164653A206E657720696D706C656D656E74617469 PUSH1 0x0 DUP3 ADD MSTORE PUSH32 0x6F6E206973206E6F742055555053000000000000000000000000000000000000 PUSH1 0x20 DUP3 ADD MSTORE POP JUMP JUMPDEST PUSH1 0x0 PUSH2 0x3740 PUSH1 0x2E DUP4 PUSH2 0x24DF JUMP JUMPDEST SWAP2 POP PUSH2 0x374B DUP3 PUSH2 0x36E4 JUMP JUMPDEST PUSH1 0x40 DUP3 ADD SWAP1 POP SWAP2 SWAP1 POP JUMP JUMPDEST PUSH1 0x0 PUSH1 0x20 DUP3 ADD SWAP1 POP DUP2 DUP2 SUB PUSH1 0x0 DUP4 ADD MSTORE PUSH2 0x376F DUP2 PUSH2 0x3733 JUMP JUMPDEST SWAP1 POP SWAP2 SWAP1 POP JUMP JUMPDEST PUSH32 0x45524331393637557067726164653A20756E737570706F727465642070726F78 PUSH1 0x0 DUP3 ADD MSTORE PUSH32 0x6961626C65555549440000000000000000000000000000000000000000000000 PUSH1 0x20 DUP3 ADD MSTORE POP JUMP JUMPDEST PUSH1 0x0 PUSH2 0x37D2 PUSH1 0x29 DUP4 PUSH2 0x24DF JUMP JUMPDEST SWAP2 POP PUSH2 0x37DD DUP3 PUSH2 0x3776 JUMP JUMPDEST PUSH1 0x40 DUP3 ADD SWAP1 POP SWAP2 SWAP1 POP JUMP JUMPDEST PUSH1 0x0 PUSH1 0x20 DUP3 ADD SWAP1 POP DUP2 DUP2 SUB PUSH1 0x0 DUP4 ADD MSTORE PUSH2 0x3801 DUP2 PUSH2 0x37C5 JUMP JUMPDEST SWAP1 POP SWAP2 SWAP1 POP JUMP JUMPDEST PUSH32 0x4F776E61626C653A2063616C6C6572206973206E6F7420746865206F776E6572 PUSH1 0x0 DUP3 ADD MSTORE POP JUMP JUMPDEST PUSH1 0x0 PUSH2 0x383E PUSH1 0x20 DUP4 PUSH2 0x24DF JUMP JUMPDEST SWAP2 POP PUSH2 0x3849 DUP3 PUSH2 0x3808 JUMP JUMPDEST PUSH1 0x20 DUP3 ADD SWAP1 POP SWAP2 SWAP1 POP JUMP JUMPDEST PUSH1 0x0 PUSH1 0x20 DUP3 ADD SWAP1 POP DUP2 DUP2 SUB PUSH1 0x0 DUP4 ADD MSTORE PUSH2 0x386D DUP2 PUSH2 0x3831 JUMP JUMPDEST SWAP1 POP SWAP2 SWAP1 POP JUMP JUMPDEST PUSH32 0x45524332303A206275726E2066726F6D20746865207A65726F20616464726573 PUSH1 0x0 DUP3 ADD MSTORE PUSH32 0x7300000000000000000000000000000000000000000000000000000000000000 PUSH1 0x20 DUP3 ADD MSTORE POP JUMP JUMPDEST PUSH1 0x0 PUSH2 0x38D0 PUSH1 0x21 DUP4 PUSH2 0x24DF JUMP JUMPDEST SWAP2 POP PUSH2 0x38DB DUP3 PUSH2 0x3874 JUMP JUMPDEST PUSH1 0x40 DUP3 ADD SWAP1 POP SWAP2 SWAP1 POP JUMP JUMPDEST PUSH1 0x0 PUSH1 0x20 DUP3 ADD SWAP1 POP DUP2 DUP2 SUB PUSH1 0x0 DUP4 ADD MSTORE PUSH2 0x38FF DUP2 PUSH2 0x38C3 JUMP JUMPDEST SWAP1 POP SWAP2 SWAP1 POP JUMP JUMPDEST PUSH32 0x45524332303A206275726E20616D6F756E7420657863656564732062616C616E PUSH1 0x0 DUP3 ADD MSTORE PUSH32 0x6365000000000000000000000000000000000000000000000000000000000000 PUSH1 0x20 DUP3 ADD MSTORE POP JUMP JUMPDEST PUSH1 0x0 PUSH2 0x3962 PUSH1 0x22 DUP4 PUSH2 0x24DF JUMP JUMPDEST SWAP2 POP PUSH2 0x396D DUP3 PUSH2 0x3906 JUMP JUMPDEST PUSH1 0x40 DUP3 ADD SWAP1 POP SWAP2 SWAP1 POP JUMP JUMPDEST PUSH1 0x0 PUSH1 0x20 DUP3 ADD SWAP1 POP DUP2 DUP2 SUB PUSH1 0x0 DUP4 ADD MSTORE PUSH2 0x3991 DUP2 PUSH2 0x3955 JUMP JUMPDEST SWAP1 POP SWAP2 SWAP1 POP JUMP JUMPDEST PUSH32 0x496E697469616C697A61626C653A20636F6E7472616374206973206E6F742069 PUSH1 0x0 DUP3 ADD MSTORE PUSH32 0x6E697469616C697A696E67000000000000000000000000000000000000000000 PUSH1 0x20 DUP3 ADD MSTORE POP JUMP JUMPDEST PUSH1 0x0 PUSH2 0x39F4 PUSH1 0x2B DUP4 PUSH2 0x24DF JUMP JUMPDEST SWAP2 POP PUSH2 0x39FF DUP3 PUSH2 0x3998 JUMP JUMPDEST PUSH1 0x40 DUP3 ADD SWAP1 POP SWAP2 SWAP1 POP JUMP JUMPDEST PUSH1 0x0 PUSH1 0x20 DUP3 ADD SWAP1 POP DUP2 DUP2 SUB PUSH1 0x0 DUP4 ADD MSTORE PUSH2 0x3A23 DUP2 PUSH2 0x39E7 JUMP JUMPDEST SWAP1 POP SWAP2 SWAP1 POP JUMP JUMPDEST PUSH32 0x45524332303A206D696E7420746F20746865207A65726F206164647265737300 PUSH1 0x0 DUP3 ADD MSTORE POP JUMP JUMPDEST PUSH1 0x0 PUSH2 0x3A60 PUSH1 0x1F DUP4 PUSH2 0x24DF JUMP JUMPDEST SWAP2 POP PUSH2 0x3A6B DUP3 PUSH2 0x3A2A JUMP JUMPDEST PUSH1 0x20 DUP3 ADD SWAP1 POP SWAP2 SWAP1 POP JUMP JUMPDEST PUSH1 0x0 PUSH1 0x20 DUP3 ADD SWAP1 POP DUP2 DUP2 SUB PUSH1 0x0 DUP4 ADD MSTORE PUSH2 0x3A8F DUP2 PUSH2 0x3A53 JUMP JUMPDEST SWAP1 POP SWAP2 SWAP1 POP JUMP JUMPDEST PUSH32 0x455243313936373A206E657720696D706C656D656E746174696F6E206973206E PUSH1 0x0 DUP3 ADD MSTORE PUSH32 0x6F74206120636F6E747261637400000000000000000000000000000000000000 PUSH1 0x20 DUP3 ADD MSTORE POP JUMP JUMPDEST PUSH1 0x0 PUSH2 0x3AF2 PUSH1 0x2D DUP4 PUSH2 0x24DF JUMP JUMPDEST SWAP2 POP PUSH2 0x3AFD DUP3 PUSH2 0x3A96 JUMP JUMPDEST PUSH1 0x40 DUP3 ADD SWAP1 POP SWAP2 SWAP1 POP JUMP JUMPDEST PUSH1 0x0 PUSH1 0x20 DUP3 ADD SWAP1 POP DUP2 DUP2 SUB PUSH1 0x0 DUP4 ADD MSTORE PUSH2 0x3B21 DUP2 PUSH2 0x3AE5 JUMP JUMPDEST SWAP1 POP SWAP2 SWAP1 POP JUMP JUMPDEST PUSH1 0x0 DUP2 SWAP1 POP DUP2 PUSH1 0x0 MSTORE PUSH1 0x20 PUSH1 0x0 KECCAK256 SWAP1 POP SWAP2 SWAP1 POP JUMP JUMPDEST PUSH1 0x0 PUSH1 0x20 PUSH1 0x1F DUP4 ADD DIV SWAP1 POP SWAP2 SWAP1 POP JUMP JUMPDEST PUSH1 0x0 DUP3 DUP3 SHL SWAP1 POP SWAP3 SWAP2 POP POP JUMP JUMPDEST PUSH1 0x0 PUSH1 0x8 DUP4 MUL PUSH2 0x3B8A PUSH32 0xFFFFFFFFFFFFFFFFFFFFFFFFFFFFFFFFFFFFFFFFFFFFFFFFFFFFFFFFFFFFFFFF DUP3 PUSH2 0x3B4D JUMP JUMPDEST PUSH2 0x3B94 DUP7 DUP4 PUSH2 0x3B4D JUMP JUMPDEST SWAP6 POP DUP1 NOT DUP5 AND SWAP4 POP DUP1 DUP7 AND DUP5 OR SWAP3 POP POP POP SWAP4 SWAP3 POP POP POP JUMP JUMPDEST PUSH1 0x0 PUSH2 0x3BC7 PUSH2 0x3BC2 PUSH2 0x3BBD DUP5 PUSH2 0x25F8 JUMP JUMPDEST PUSH2 0x2F64 JUMP JUMPDEST PUSH2 0x25F8 JUMP JUMPDEST SWAP1 POP SWAP2 SWAP1 POP JUMP JUMPDEST PUSH1 0x0 DUP2 SWAP1 POP SWAP2 SWAP1 POP JUMP JUMPDEST PUSH2 0x3BE1 DUP4 PUSH2 0x3BAC JUMP JUMPDEST PUSH2 0x3BF5 PUSH2 0x3BED DUP3 PUSH2 0x3BCE JUMP JUMPDEST DUP5 DUP5 SLOAD PUSH2 0x3B5A JUMP JUMPDEST DUP3 SSTORE POP POP POP POP JUMP JUMPDEST PUSH1 0x0 SWAP1 JUMP JUMPDEST PUSH2 0x3C0A PUSH2 0x3BFD JUMP JUMPDEST PUSH2 0x3C15 DUP2 DUP5 DUP5 PUSH2 0x3BD8 JUMP JUMPDEST POP POP POP JUMP JUMPDEST JUMPDEST DUP2 DUP2 LT ISZERO PUSH2 0x3C39 JUMPI PUSH2 0x3C2E PUSH1 0x0 DUP3 PUSH2 0x3C02 JUMP JUMPDEST PUSH1 0x1 DUP2 ADD SWAP1 POP PUSH2 0x3C1B JUMP JUMPDEST POP POP JUMP JUMPDEST PUSH1 0x1F DUP3 GT ISZERO PUSH2 0x3C7E JUMPI PUSH2 0x3C4F DUP2 PUSH2 0x3B28 JUMP JUMPDEST PUSH2 0x3C58 DUP5 PUSH2 0x3B3D JUMP JUMPDEST DUP2 ADD PUSH1 0x20 DUP6 LT ISZERO PUSH2 0x3C67 JUMPI DUP2 SWAP1 POP JUMPDEST PUSH2 0x3C7B PUSH2 0x3C73 DUP6 PUSH2 0x3B3D JUMP JUMPDEST DUP4 ADD DUP3 PUSH2 0x3C1A JUMP JUMPDEST POP POP JUMPDEST POP POP POP JUMP JUMPDEST PUSH1 0x0 DUP3 DUP3 SHR SWAP1 POP SWAP3 SWAP2 POP POP JUMP JUMPDEST PUSH1 0x0 PUSH2 0x3CA1 PUSH1 0x0 NOT DUP5 PUSH1 0x8 MUL PUSH2 0x3C83 JUMP JUMPDEST NOT DUP1 DUP4 AND SWAP2 POP POP SWAP3 SWAP2 POP POP JUMP JUMPDEST PUSH1 0x0 PUSH2 0x3CBA DUP4 DUP4 PUSH2 0x3C90 JUMP JUMPDEST SWAP2 POP DUP3 PUSH1 0x2 MUL DUP3 OR SWAP1 POP SWAP3 SWAP2 POP POP JUMP JUMPDEST PUSH2 0x3CD3 DUP3 PUSH2 0x24D4 JUMP JUMPDEST PUSH8 0xFFFFFFFFFFFFFFFF DUP2 GT ISZERO PUSH2 0x3CEC JUMPI PUSH2 0x3CEB PUSH2 0x278F JUMP JUMPDEST JUMPDEST PUSH2 0x3CF6 DUP3 SLOAD PUSH2 0x2A10 JUMP JUMPDEST PUSH2 0x3D01 DUP3 DUP3 DUP6 PUSH2 0x3C3D JUMP JUMPDEST PUSH1 0x0 PUSH1 0x20 SWAP1 POP PUSH1 0x1F DUP4 GT PUSH1 0x1 DUP2 EQ PUSH2 0x3D34 JUMPI PUSH1 0x0 DUP5 ISZERO PUSH2 0x3D22 JUMPI DUP3 DUP8 ADD MLOAD SWAP1 POP JUMPDEST PUSH2 0x3D2C DUP6 DUP3 PUSH2 0x3CAE JUMP JUMPDEST DUP7 SSTORE POP PUSH2 0x3D94 JUMP JUMPDEST PUSH1 0x1F NOT DUP5 AND PUSH2 0x3D42 DUP7 PUSH2 0x3B28 JUMP JUMPDEST PUSH1 0x0 JUMPDEST DUP3 DUP2 LT ISZERO PUSH2 0x3D6A JUMPI DUP5 DUP10 ADD MLOAD DUP3 SSTORE PUSH1 0x1 DUP3 ADD SWAP2 POP PUSH1 0x20 DUP6 ADD SWAP5 POP PUSH1 0x20 DUP2 ADD SWAP1 POP PUSH2 0x3D45 JUMP JUMPDEST DUP7 DUP4 LT ISZERO PUSH2 0x3D87 JUMPI DUP5 DUP10 ADD MLOAD PUSH2 0x3D83 PUSH1 0x1F DUP10 AND DUP3 PUSH2 0x3C90 JUMP JUMPDEST DUP4 SSTORE POP JUMPDEST PUSH1 0x1 PUSH1 0x2 DUP9 MUL ADD DUP9 SSTORE POP POP POP JUMPDEST POP POP POP POP POP POP JUMP JUMPDEST PUSH32 0x416464726573733A2064656C65676174652063616C6C20746F206E6F6E2D636F PUSH1 0x0 DUP3 ADD MSTORE PUSH32 0x6E74726163740000000000000000000000000000000000000000000000000000 PUSH1 0x20 DUP3 ADD MSTORE POP JUMP JUMPDEST PUSH1 0x0 PUSH2 0x3DF8 PUSH1 0x26 DUP4 PUSH2 0x24DF JUMP JUMPDEST SWAP2 POP PUSH2 0x3E03 DUP3 PUSH2 0x3D9C JUMP JUMPDEST PUSH1 0x40 DUP3 ADD SWAP1 POP SWAP2 SWAP1 POP JUMP JUMPDEST PUSH1 0x0 PUSH1 0x20 DUP3 ADD SWAP1 POP DUP2 DUP2 SUB PUSH1 0x0 DUP4 ADD MSTORE PUSH2 0x3E27 DUP2 PUSH2 0x3DEB JUMP JUMPDEST SWAP1 POP SWAP2 SWAP1 POP JUMP JUMPDEST PUSH1 0x0 DUP2 MLOAD SWAP1 POP SWAP2 SWAP1 POP JUMP JUMPDEST PUSH1 0x0 DUP2 SWAP1 POP SWAP3 SWAP2 POP POP JUMP JUMPDEST PUSH1 0x0 PUSH2 0x3E4F DUP3 PUSH2 0x3E2E JUMP JUMPDEST PUSH2 0x3E59 DUP2 DUP6 PUSH2 0x3E39 JUMP JUMPDEST SWAP4 POP PUSH2 0x3E69 DUP2 DUP6 PUSH1 0x20 DUP7 ADD PUSH2 0x24F0 JUMP JUMPDEST DUP1 DUP5 ADD SWAP2 POP POP SWAP3 SWAP2 POP POP JUMP JUMPDEST PUSH1 0x0 PUSH2 0x3E81 DUP3 DUP5 PUSH2 0x3E44 JUMP JUMPDEST SWAP2 POP DUP2 SWAP1 POP SWAP3 SWAP2 POP POP JUMP INVALID COINBASE PUSH5 0x6472657373 GASPRICE KECCAK256 PUSH13 0x6F772D6C6576656C2064656C65 PUSH8 0x6174652063616C6C KECCAK256 PUSH7 0x61696C6564A264 PUSH10 0x706673582212203A4B0E PUSH23 0xB5F7B777F86AF78A7E1AE7B84C3D07CE159E58614A6109 GASPRICE INVALID MUL DUP15 NOT PUSH5 0x736F6C6343 STOP ADDMOD GT STOP CALLER "
		},
		"gasEstimates": {
			"creation": {
				"codeDepositCost": "3221000",
				"executionCost": "infinite",
				"totalCost": "infinite"
			},
			"external": {
				"allowance(address,address)": "infinite",
				"approve(address,uint256)": "infinite",
				"balanceOf(address)": "2974",
				"buyTGK(uint256)": "infinite",
				"changeFixedValue(uint256)": "24828",
				"decimals()": "455",
				"decreaseAllowance(address,uint256)": "infinite",
				"exchangeTGKforLINK(uint256)": "infinite",
				"getLINKContractAddress()": "2633",
				"getLatestPrice()": "infinite",
				"increaseAllowance(address,uint256)": "infinite",
				"initialize()": "infinite",
				"linkTokenBalance(address)": "infinite",
				"name()": "infinite",
				"owner()": "2611",
				"proxiableUUID()": "infinite",
				"renounceOwnership()": "30421",
				"sellTGK(uint256)": "infinite",
				"symbol()": "infinite",
				"totalSupply()": "2505",
				"transfer(address,uint256)": "infinite",
				"transferFrom(address,address,uint256)": "infinite",
				"transferOwnership(address)": "30854",
				"upgradeTo(address)": "infinite",
				"upgradeToAndCall(address,bytes)": "infinite"
			},
			"internal": {
				"_authorizeUpgrade(address)": "infinite"
			}
		},
		"methodIdentifiers": {
			"allowance(address,address)": "dd62ed3e",
			"approve(address,uint256)": "095ea7b3",
			"balanceOf(address)": "70a08231",
			"buyTGK(uint256)": "ecc3b765",
			"changeFixedValue(uint256)": "bb6cb022",
			"decimals()": "313ce567",
			"decreaseAllowance(address,uint256)": "a457c2d7",
			"exchangeTGKforLINK(uint256)": "aa081c14",
			"getLINKContractAddress()": "67288c6d",
			"getLatestPrice()": "8e15f473",
			"increaseAllowance(address,uint256)": "39509351",
			"initialize()": "8129fc1c",
			"linkTokenBalance(address)": "39abdcae",
			"name()": "06fdde03",
			"owner()": "8da5cb5b",
			"proxiableUUID()": "52d1902d",
			"renounceOwnership()": "715018a6",
			"sellTGK(uint256)": "73a64267",
			"symbol()": "95d89b41",
			"totalSupply()": "18160ddd",
			"transfer(address,uint256)": "a9059cbb",
			"transferFrom(address,address,uint256)": "23b872dd",
			"transferOwnership(address)": "f2fde38b",
			"upgradeTo(address)": "3659cfe6",
			"upgradeToAndCall(address,bytes)": "4f1ef286"
		}
	},
	"abi": [
		{
			"inputs": [],
			"stateMutability": "nonpayable",
			"type": "constructor"
		},
		{
			"anonymous": false,
			"inputs": [
				{
					"indexed": false,
					"internalType": "address",
					"name": "previousAdmin",
					"type": "address"
				},
				{
					"indexed": false,
					"internalType": "address",
					"name": "newAdmin",
					"type": "address"
				}
			],
			"name": "AdminChanged",
			"type": "event"
		},
		{
			"anonymous": false,
			"inputs": [
				{
					"indexed": true,
					"internalType": "address",
					"name": "owner",
					"type": "address"
				},
				{
					"indexed": true,
					"internalType": "address",
					"name": "spender",
					"type": "address"
				},
				{
					"indexed": false,
					"internalType": "uint256",
					"name": "value",
					"type": "uint256"
				}
			],
			"name": "Approval",
			"type": "event"
		},
		{
			"anonymous": false,
			"inputs": [
				{
					"indexed": true,
					"internalType": "address",
					"name": "beacon",
					"type": "address"
				}
			],
			"name": "BeaconUpgraded",
			"type": "event"
		},
		{
			"anonymous": false,
			"inputs": [
				{
					"indexed": false,
					"internalType": "uint8",
					"name": "version",
					"type": "uint8"
				}
			],
			"name": "Initialized",
			"type": "event"
		},
		{
			"anonymous": false,
			"inputs": [
				{
					"indexed": true,
					"internalType": "address",
					"name": "previousOwner",
					"type": "address"
				},
				{
					"indexed": true,
					"internalType": "address",
					"name": "newOwner",
					"type": "address"
				}
			],
			"name": "OwnershipTransferred",
			"type": "event"
		},
		{
			"anonymous": false,
			"inputs": [
				{
					"indexed": true,
					"internalType": "address",
					"name": "from",
					"type": "address"
				},
				{
					"indexed": true,
					"internalType": "address",
					"name": "to",
					"type": "address"
				},
				{
					"indexed": false,
					"internalType": "uint256",
					"name": "value",
					"type": "uint256"
				}
			],
			"name": "Transfer",
			"type": "event"
		},
		{
			"anonymous": false,
			"inputs": [
				{
					"indexed": true,
					"internalType": "address",
					"name": "implementation",
					"type": "address"
				}
			],
			"name": "Upgraded",
			"type": "event"
		},
		{
			"inputs": [
				{
					"internalType": "address",
					"name": "owner",
					"type": "address"
				},
				{
					"internalType": "address",
					"name": "spender",
					"type": "address"
				}
			],
			"name": "allowance",
			"outputs": [
				{
					"internalType": "uint256",
					"name": "",
					"type": "uint256"
				}
			],
			"stateMutability": "view",
			"type": "function"
		},
		{
			"inputs": [
				{
					"internalType": "address",
					"name": "spender",
					"type": "address"
				},
				{
					"internalType": "uint256",
					"name": "amount",
					"type": "uint256"
				}
			],
			"name": "approve",
			"outputs": [
				{
					"internalType": "bool",
					"name": "",
					"type": "bool"
				}
			],
			"stateMutability": "nonpayable",
			"type": "function"
		},
		{
			"inputs": [
				{
					"internalType": "address",
					"name": "account",
					"type": "address"
				}
			],
			"name": "balanceOf",
			"outputs": [
				{
					"internalType": "uint256",
					"name": "",
					"type": "uint256"
				}
			],
			"stateMutability": "view",
			"type": "function"
		},
		{
			"inputs": [
				{
					"internalType": "uint256",
					"name": "_value",
					"type": "uint256"
				}
			],
			"name": "buyTGK",
			"outputs": [],
			"stateMutability": "payable",
			"type": "function"
		},
		{
			"inputs": [
				{
					"internalType": "uint256",
					"name": "_value",
					"type": "uint256"
				}
			],
			"name": "changeFixedValue",
			"outputs": [],
			"stateMutability": "nonpayable",
			"type": "function"
		},
		{
			"inputs": [],
			"name": "decimals",
			"outputs": [
				{
					"internalType": "uint8",
					"name": "",
					"type": "uint8"
				}
			],
			"stateMutability": "view",
			"type": "function"
		},
		{
			"inputs": [
				{
					"internalType": "address",
					"name": "spender",
					"type": "address"
				},
				{
					"internalType": "uint256",
					"name": "subtractedValue",
					"type": "uint256"
				}
			],
			"name": "decreaseAllowance",
			"outputs": [
				{
					"internalType": "bool",
					"name": "",
					"type": "bool"
				}
			],
			"stateMutability": "nonpayable",
			"type": "function"
		},
		{
			"inputs": [
				{
					"internalType": "uint256",
					"name": "_value",
					"type": "uint256"
				}
			],
			"name": "exchangeTGKforLINK",
			"outputs": [],
			"stateMutability": "nonpayable",
			"type": "function"
		},
		{
			"inputs": [],
			"name": "getLINKContractAddress",
			"outputs": [
				{
					"internalType": "address",
					"name": "",
					"type": "address"
				}
			],
			"stateMutability": "view",
			"type": "function"
		},
		{
			"inputs": [],
			"name": "getLatestPrice",
			"outputs": [
				{
					"internalType": "uint256",
					"name": "",
					"type": "uint256"
				}
			],
			"stateMutability": "view",
			"type": "function"
		},
		{
			"inputs": [
				{
					"internalType": "address",
					"name": "spender",
					"type": "address"
				},
				{
					"internalType": "uint256",
					"name": "addedValue",
					"type": "uint256"
				}
			],
			"name": "increaseAllowance",
			"outputs": [
				{
					"internalType": "bool",
					"name": "",
					"type": "bool"
				}
			],
			"stateMutability": "nonpayable",
			"type": "function"
		},
		{
			"inputs": [],
			"name": "initialize",
			"outputs": [],
			"stateMutability": "nonpayable",
			"type": "function"
		},
		{
			"inputs": [
				{
					"internalType": "address",
					"name": "walletAddress",
					"type": "address"
				}
			],
			"name": "linkTokenBalance",
			"outputs": [
				{
					"internalType": "uint256",
					"name": "",
					"type": "uint256"
				}
			],
			"stateMutability": "view",
			"type": "function"
		},
		{
			"inputs": [],
			"name": "name",
			"outputs": [
				{
					"internalType": "string",
					"name": "",
					"type": "string"
				}
			],
			"stateMutability": "view",
			"type": "function"
		},
		{
			"inputs": [],
			"name": "owner",
			"outputs": [
				{
					"internalType": "address",
					"name": "",
					"type": "address"
				}
			],
			"stateMutability": "view",
			"type": "function"
		},
		{
			"inputs": [],
			"name": "proxiableUUID",
			"outputs": [
				{
					"internalType": "bytes32",
					"name": "",
					"type": "bytes32"
				}
			],
			"stateMutability": "view",
			"type": "function"
		},
		{
			"inputs": [],
			"name": "renounceOwnership",
			"outputs": [],
			"stateMutability": "nonpayable",
			"type": "function"
		},
		{
			"inputs": [
				{
					"internalType": "uint256",
					"name": "_value",
					"type": "uint256"
				}
			],
			"name": "sellTGK",
			"outputs": [],
			"stateMutability": "nonpayable",
			"type": "function"
		},
		{
			"inputs": [],
			"name": "symbol",
			"outputs": [
				{
					"internalType": "string",
					"name": "",
					"type": "string"
				}
			],
			"stateMutability": "view",
			"type": "function"
		},
		{
			"inputs": [],
			"name": "totalSupply",
			"outputs": [
				{
					"internalType": "uint256",
					"name": "",
					"type": "uint256"
				}
			],
			"stateMutability": "view",
			"type": "function"
		},
		{
			"inputs": [
				{
					"internalType": "address",
					"name": "to",
					"type": "address"
				},
				{
					"internalType": "uint256",
					"name": "amount",
					"type": "uint256"
				}
			],
			"name": "transfer",
			"outputs": [
				{
					"internalType": "bool",
					"name": "",
					"type": "bool"
				}
			],
			"stateMutability": "nonpayable",
			"type": "function"
		},
		{
			"inputs": [
				{
					"internalType": "address",
					"name": "from",
					"type": "address"
				},
				{
					"internalType": "address",
					"name": "to",
					"type": "address"
				},
				{
					"internalType": "uint256",
					"name": "amount",
					"type": "uint256"
				}
			],
			"name": "transferFrom",
			"outputs": [
				{
					"internalType": "bool",
					"name": "",
					"type": "bool"
				}
			],
			"stateMutability": "nonpayable",
			"type": "function"
		},
		{
			"inputs": [
				{
					"internalType": "address",
					"name": "newOwner",
					"type": "address"
				}
			],
			"name": "transferOwnership",
			"outputs": [],
			"stateMutability": "nonpayable",
			"type": "function"
		},
		{
			"inputs": [
				{
					"internalType": "address",
					"name": "newImplementation",
					"type": "address"
				}
			],
			"name": "upgradeTo",
			"outputs": [],
			"stateMutability": "nonpayable",
			"type": "function"
		},
		{
			"inputs": [
				{
					"internalType": "address",
					"name": "newImplementation",
					"type": "address"
				},
				{
					"internalType": "bytes",
					"name": "data",
					"type": "bytes"
				}
			],
			"name": "upgradeToAndCall",
			"outputs": [],
			"stateMutability": "payable",
			"type": "function"
		}
	]
}